:020000040800F2
:10000000000002207D4000087D3F0008833F00087B
:10001000893F00088F3F0008953F0008000000005E
:1000200000000000000000000000000001AA00081D
:100030009B3F00080000000051AC0008A93F0008E9
:10004000CD400008CD400008CD400008CD4000085C
:10005000CD400008CD400008CD400008CD4000084C
:10006000CD400008CD400008CD400008CD4000083C
:10007000CD400008CD400008CD400008CD4000082C
:10008000CD400008CD400008CD400008CD4000081C
:10009000CD400008CD400008CD400008CD4000080C
:1000A000CD400008CD400008CD400008CD400008FC
:1000B000CD400008CD400008C53F0008CD400008F5
:1000C000CD400008CD400008CD400008CD400008DC
:1000D000CD400008CD400008CD400008D93F0008C1
:1000E000CD400008CD400008CD400008CD400008BC
:1000F000CD400008CD400008CD400008CD400008AC
:10010000CD400008CD400008CD400008CD4000089B
:10011000CD400008CD400008CD400008CD4000088B
:10012000CD400008CD400008CD400008CD4000087B
:10013000CD400008CD400008CD400008CD4000086B
:10014000CD400008CD400008CD400008CD4000085B
:10015000CD400008CD400008CD400008CD4000084B
:10016000CD400008CD400008CD400008CD4000083B
:10017000CD400008CD400008CD4000080000000040
:08018000CD400008CD4000084D
:1001900010B5054C237833B9044B13B10448AFF3C1
:1001A00000800123237010BD7800002000000000B3
:1001B000CCD7000808B5034B1BB103490348AFF384
:1001C000008008BD000000007C000020CCD70008A3
:1001D000034613F8012B002AFBD1181A0138704787
:1001E00001F0FF01102A2BDB10F0070F08D010F8E8
:1001F000013B013A8B422DD010F0070F42B3F6D1EC
:10020000F0B441EA012141EA014122F007047FF004
:1002100000070023F0E80256083C85EA010586EA5B
:10022000010685FA47F5A3FA87F586FA47F6A5FA97
:1002300087F68EB9EED1F0BC01F0FF0102F00702A3
:1002400032B110F8013B013A83EA010313B1F8D14E
:100250000020704701387047002D06BF354603382F
:10026000073815F0010F07D1013015F4807F02BF68
:10027000013015F4C03F0130F0BC0138704700BFB9
:1002800081F0004102E000BF83F0004330B54FEA47
:1002900041044FEA430594EA050F08BF90EA020FB4
:1002A0001FBF54EA000C55EA020C7FEA645C7FEA47
:1002B000655C00F0E2804FEA5454D4EB5555B8BF6A
:1002C0006D420CDD2C4480EA020281EA030382EADB
:1002D000000083EA010180EA020281EA0303362D6D
:1002E00088BF30BD11F0004F4FEA01314FF4801C40
:1002F0004CEA113102D0404261EB410113F0004F52
:100300004FEA03334CEA133302D0524263EB430308
:1003100094EA050F00F0A780A4F10104D5F1200EA6
:100320000DDB02FA0EFC22FA05F2801841F1000101
:1003300003FA0EF2801843FA05F359410EE0A5F1D5
:1003400020050EF1200E012A03FA0EFC28BF4CF006
:10035000020C43FA05F3C01851EBE37101F00045BC
:1003600007D54FF0000EDCF1000C7EEB00006EEBC9
:100370000101B1F5801F1BD3B1F5001F0CD3490853
:100380005FEA30004FEA3C0C04F101044FEA4452AA
:1003900012F5800F80F09A80BCF1004F08BF5FEA31
:1003A000500C50F1000041EB045141EA050130BD11
:1003B0005FEA4C0C404141EB0101013C28BFB1F523
:1003C000801FE9D291F0000F04BF01460020B1FA6E
:1003D00081F308BF2033A3F10B03B3F120020CDA41
:1003E0000C3208DD02F1140CC2F10C0201FA0CF01F
:1003F00021FA02F10CE002F11402D8BFC2F1200C84
:1004000001FA02F120FA0CFCDCBF41EA0C01904039
:10041000E41AA2BF01EB0451294330BD6FEA040482
:100420001F3C1CDA0C340EDC04F11404C4F120026D
:1004300020FA04F001FA02F340EA030021FA04F37F
:1004400045EA030130BDC4F10C04C4F1200220FAD6
:1004500002F001FA04F340EA0300294630BD21FA14
:1004600004F0294630BD94F0000F83F4801306BFDA
:1004700081F480110134013D4EE77FEA645C18BFCE
:100480007FEA655C29D094EA050F08BF90EA020F65
:1004900005D054EA000C04BF1946104630BD91EA5D
:1004A000030F1EBF0021002030BD5FEA545C05D160
:1004B0004000494128BF41F0004130BD14F580049F
:1004C0003CBF01F5801130BD01F0004545F0FE4113
:1004D00041F470014FF0000030BD7FEA645C1ABF48
:1004E000194610467FEA655C1CBF0B46024650EA7F
:1004F000013406BF52EA033591EA030F41F40021AB
:1005000030BD00BF90F0000F04BF0021704730B530
:100510004FF4806404F132044FF000054FF0000105
:1005200050E700BF90F0000F04BF0021704730B5C6
:100530004FF4806404F1320410F0004548BF40429B
:100540004FF000013EE700BF42004FEAE2014FEAF0
:1005500031014FEA02701FBF12F07F4393F07F4FCB
:1005600081F06051704732F07F4208BF704793F0CE
:100570007F4F04BF41F40021704730B54FF46074E1
:1005800001F0004521F000411CE700BF50EA0102E4
:1005900008BF704730B54FF000050AE050EA01028D
:1005A00008BF704730B511F0004502D5404261EBFD
:1005B00041014FF4806404F132045FEA915C3FF43E
:1005C000D8AE4FF003025FEADC0C18BF03325FEADB
:1005D000DC0C18BF033202EBDC02C2F1200300FA8C
:1005E00003FC20FA02F001FA03FE40EA0E0021FAB1
:1005F00002F11444BDE600BF70B54FF0FF0C4CF49F
:10060000E06C1CEA11541DBF1CEA135594EA0C0F50
:1006100095EA0C0F00F0DEF82C4481EA030621EA8B
:100620004C5123EA4C5350EA013518BF52EA0335C6
:1006300041F4801143F4801338D0A0FB02CE4FF078
:100640000005E1FB02E506F00042E0FB03E54FF0A8
:100650000006E1FB03569CF0000F18BF4EF0010EA0
:10066000A4F1FF04B6F5007F64F5407404D25FEA9C
:100670004E0E6D4146EB060642EAC62141EA55514F
:100680004FEAC52040EA5E504FEACE2EB4F1FD0C91
:1006900088BFBCF5E06F1ED8BEF1004F08BF5FEA0F
:1006A000500E50F1000041EB045170BD06F00046C1
:1006B00046EA010140EA020081EA0301B4EB5C046E
:1006C000C2BFD4EB0C0541EA045170BD41F4801166
:1006D0004FF0000E013C00F3AB8014F1360FDEBF8B
:1006E000002001F0004170BDC4F10004203C35DA67
:1006F0000C341BDC04F11404C4F1200500FA05F3EA
:1007000020FA04F001FA05F240EA020001F000428A
:1007100021F0004110EBD37021FA04F642EB060100
:100720005EEA430E08BF20EAD37070BDC4F10C042A
:10073000C4F1200500FA04F320FA05F001FA04F2EE
:1007400040EA020001F0004110EBD37041F10001DA
:100750005EEA430E08BF20EAD37070BDC4F12005E5
:1007600000FA05F24EEA020E20FA04F301FA05F24D
:1007700043EA020321FA04F001F0004121FA04F2F5
:1007800020EA020000EBD3705EEA430E08BF20EAC5
:10079000D37070BD94F0000F0FD101F000464000FF
:1007A00041EB010111F4801F08BF013CF7D041EA81
:1007B000060195F0000F18BF704703F00046520085
:1007C00043EB030313F4801F08BF013DF7D043EA56
:1007D0000603704794EA0C0F0CEA135518BF95EA0C
:1007E0000C0F0CD050EA410618BF52EA4306D1D193
:1007F00081EA030101F000414FF0000070BD50EAB2
:10080000410606BF1046194652EA430619D094EA3B
:100810000C0F02D150EA013613D195EA0C0F05D125
:1008200052EA03361CBF104619460AD181EA030179
:1008300001F0004141F0FE4141F470014FF0000031
:1008400070BD41F0FE4141F4780170BD70B54FF0CC
:10085000FF0C4CF4E06C1CEA11541DBF1CEA13554C
:1008600094EA0C0F95EA0C0F00F0A7F8A4EB05042E
:1008700081EA030E52EA03354FEA013100F0888025
:100880004FEA03334FF0805545EA131343EA1263EE
:100890004FEA022245EA111545EA10654FEA0026A3
:1008A0000EF000419D4208BF964244F1FD0404F55C
:1008B000407402D25B084FEA3202B61A65EB0305B8
:1008C0005B084FEA32024FF480104FF4002CB6EB75
:1008D000020E75EB030E22BFB61A754640EA0C00F5
:1008E0005B084FEA3202B6EB020E75EB030E22BF35
:1008F000B61A754640EA5C005B084FEA3202B6EB76
:10090000020E75EB030E22BFB61A754640EA9C0034
:100910005B084FEA3202B6EB020E75EB030E22BF04
:10092000B61A754640EADC0055EA060E18D04FEAC2
:10093000051545EA16754FEA06164FEAC30343EA62
:1009400052734FEAC2025FEA1C1CC0D111F4801F2F
:100950000BD141EA00014FF000004FF0004CB6E728
:1009600011F4801F04BF01430020B4F1FD0C88BFC7
:10097000BCF5E06F3FF6AFAEB5EB030C04BFB6EBD2
:10098000020C5FEA500C50F1000041EB045170BDC5
:100990000EF0004E4EEA113114EB5C04C2BFD4EBF2
:1009A0000C0541EA045170BD41F480114FF0000E76
:1009B000013C90E645EA060E8DE60CEA135594EAF2
:1009C0000C0F08BF95EA0C0F3FF43BAF94EA0C0FF5
:1009D0000AD150EA01347FF434AF95EA0C0F7FF46A
:1009E00025AF104619462CE795EA0C0F06D152EABE
:1009F00003353FF4FDAE1046194622E750EA4106A2
:100A000018BF52EA43067FF4C5AE50EA41047FF4B2
:100A10000DAF52EA43057FF4EBAE12E74FF0FF3C17
:100A200006E000BF4FF0010C02E000BF4FF0010CE8
:100A30004DF804CD4FEA410C7FEA6C5C4FEA430C61
:100A400018BF7FEA6C5C1BD001B050EA410C0CBFB0
:100A500052EA430C91EA030F02BF90EA020F002012
:100A6000704710F1000F91EA030F58BF994208BF79
:100A700090422CBFD8176FEAE37040F00100704736
:100A80004FEA410C7FEA6C5C02D150EA013C07D18D
:100A90004FEA430C7FEA6C5CD6D152EA033CD3D0D8
:100AA0005DF8040B704700BF8446104662468C46D2
:100AB0001946634600E000BF01B5FFF7B7FF002805
:100AC00048BF10F1000F01BD4DF808EDFFF7F4FF2E
:100AD0000CBF012000205DF808FB00BF4DF808EDB9
:100AE000FFF7EAFF34BF012000205DF808FB00BFDC
:100AF0004DF808EDFFF7E0FF94BF012000205DF8FE
:100B000008FB00BF4DF808EDFFF7CEFF94BF0120B2
:100B100000205DF808FB00BF4DF808EDFFF7C4FFAB
:100B200034BF012000205DF808FB00BF4FEA410CF4
:100B30007FEA6C5C02D150EA013C0AD14FEA430CD7
:100B40007FEA6C5C02D152EA033C02D14FF0000014
:100B500070474FF0010070474A0011D212F50012A1
:100B600011D20DD56FF47873B3EB62520ED44FEA05
:100B7000C12343F0004343EA505323FA02F0704785
:100B80004FF00000704750EA013002D14FF0FF30C3
:100B900070474FF0000070474FEA4102B2F1E04366
:100BA00024BFB3F5001CDCF1FE5C0DD901F0004C54
:100BB0004FEAC0024CEA5070B2F1004F40EB8300A4
:100BC00008BF20F00100704711F0804F21D113F1D0
:100BD0003872BCBF01F00040704741F480114FEA09
:100BE0005252C2F11802C2F1200C10FA0CF320FA92
:100BF00002F018BF40F001004FEAC1234FEAD323AF
:100C000003FA0CFC40EA0C0023FA02F34FEA430318
:100C1000CCE77FEA625307D150EA01331EBF4FF0A1
:100C2000FE4040F44000704701F0004040F0FE40BC
:100C300040F40000704700BF53B94AB9002908BF0B
:100C400000281CBF4FF0FF314FF0FF3000F06EB9AD
:100C5000ADF1080C6DE904CE00F006F8DDF804E013
:100C6000DDE9022304B070472DE9F047089D0446F2
:100C70008C46002B40F083808A42174647D9B2FA4F
:100C800082F242B1C2F1200024FA00F09140974074
:100C900040EA010C94404FEA1748230CBCFBF8F6DD
:100CA0001FFA87FE08FB16C143EA014306FB0EF15B
:100CB000994209D9FB1806F1FF3080F01981994259
:100CC00040F21681023E3B445B1AA4B2B3FBF8F03B
:100CD00008FB103344EA034400FB0EFEA64509D985
:100CE0003C1900F1FF3380F00581A64540F20281F6
:100CF00002383C4440EA0640A4EB0E0400261DB135
:100D0000D4400023C5E900433146BDE8F08702B96D
:100D1000FFDEB2FA82F2002A50D1CB1B4FEA174E07
:100D20001FFA87F80126B3FBFEFC210C0EFB1C33D7
:100D300041EA034108FB0CF38B4207D979180CF107
:100D4000FF3002D28B4200F2E9808446C91AA3B276
:100D5000B1FBFEF00EFB101143EA014408FB00F862
:100D6000A04507D93C1900F1FF3302D2A04500F29B
:100D7000D9801846A4EB080440EA0C40BFE78B4238
:100D800009D9002D00F0B1800026C5E900013046E8
:100D90003146BDE8F087B3FA83F6002E4AD18B4284
:100DA00002D3824200F2B880841A61EB0301012071
:100DB0008C46002DA8D0C5E9004CA5E7C2F1200360
:100DC00020FA03F6974001FA02F04FEA174ED94095
:100DD0003043030CB1FBFEF61FFA87F80EFB161129
:100DE00043EA014306FB08F1994204FA02F409D9E7
:100DF000FB1806F1FF3C80F08D80994240F28A801A
:100E0000023E3B445B1A81B2B3FBFEF00EFB103393
:100E100041EA034100FB08F38B4207D9791800F13E
:100E2000FF3C73D28B4271D902383944CB1A40EA65
:100E3000064678E7C6F1200C03FA06F422FA0CF312
:100E40001C4320FA0CF701FA06F34FEA144E21FA7C
:100E50000CF11F433B0CB1FBFEF91FFA84F80EFBAB
:100E6000191143EA014109FB08FA8A4502FA06F220
:100E700000FA06F308D9611809F1FF3048D28A4513
:100E800046D9A9F102092144A1EB0A01BFB2B1FB85
:100E9000FEF00EFB101147EA014700FB08F8B845C9
:100EA00007D9E71900F1FF312ED2B8452CD9023805
:100EB000274440EA0940A7EB0807A0FB02894F45F9
:100EC000C64649461AD317D05DB1B3EB0E0267EBA5
:100ED000010707FA0CFCF2404CEA0202F740C5E9B0
:100EE000002700263146BDE8F0872E4628460BE74E
:100EF0000646E9E61846FDE64345E5D2B8EB020EA4
:100F000069EB04010138DFE70846D2E760468DE768
:100F10008146B9E7664675E730464AE7ACF1020C10
:100F2000394413E702383C4424E700BF704700BF50
:100F300080B483B000AF78607B684FF000029A62A3
:100F40007B684FF00002DA627B684FF000021A63A0
:100F50007B684FF000025A637B684FF000029A638F
:100F600000BF0C37BD465DF8047B704780B487B086
:100F700000AFF86087ED020AC7ED010A87ED001A9D
:100F800097ED027AD7ED017A77EE677AC7ED057AA9
:100F9000FB68D3ED007A97ED057A67EE277AC7ED07
:100FA000047AFB6893ED0A7AFB68D3ED017AF6EEDA
:100FB000006A67EEA66AFB68D3ED097A66EEA76A57
:100FC000FB6893ED0B6AD7ED057A76EE277A66EE2D
:100FD000A77A77EE277AFB68C3ED0A7AFB6893ED70
:100FE0000A7AFB68D3ED077AB4EEE77AF1EE10FAED
:100FF00004DDFB68DA69FB689A620EE0FB6893ED3A
:101000000A7AFB68D3ED067AB4EEE77AF1EE10FACD
:1010100003D5FB689A69FB689A62FB6893ED0A7ACC
:10102000D7ED047A37EE277AD7ED007A77EE277A74
:10103000FB68C3ED0E7AFB6893ED0E7AFB68D3ED87
:10104000057AB4EEE77AF1EE10FA04DDFB685A692E
:10105000FB689A630EE0FB6893ED0E7AFB68D3EDB4
:10106000047AB4EEE77AF1EE10FA03D5FB681A6958
:10107000FB689A63FB687A69DA62FB687A685A638C
:10108000FB689B6B07EE903AB0EE670A1C37BD46D3
:101090005DF8047B7047000080B483B000AF034666
:1010A000FB80094B1B6800225A6200BF064B1B687D
:1010B0005A6AFB889A42F9D300BF00BF0C37BD467D
:1010C0005DF8047B704700BF4C4A00200000000020
:1010D00080B582B000AF78607B681B7F012B40F049
:1010E0008380454B1B68002B1AD10021786805F0DE
:1010F00043FD0346414A13603F4B01221A607B685F
:101100001B681A6A7B681B6822F00A021A627B68F5
:101110001B681A6A7B681B6842F002021A6263E06D
:10112000354B1B68012B5FD10021786805F024FD49
:101130000346334A13607B681B6800225A62304BB7
:101140001A682E4B1B689A4207D92D4B1A682B4BF5
:101150001B68D31A2B4A13600FE0284B1A68284BE0
:101160001B689A4209D9264B1A68244B1B68D31A6C
:1011700003F57F43FF33234A1360224B1B68184655
:10118000FFF7C0F91AA3D3E90023FFF735FA0246A7
:101190000B46104619464FF000024FF08043FFF710
:1011A00055FB02460B4610461946FFF7D5FC034691
:1011B0009AB2154B1A80104B00221A607B681B688C
:1011C0001A6A7B681B6822F00A021A627B681A6836
:1011D0007B681B68126A1A620C4B1B68DA680B4B3F
:1011E0001B6822F00202DA6000BF0837BD4680BDEE
:1011F0009CC420B07268A13FAC000020A000002079
:10120000A4000020A8000020B00000204C4A0020CC
:1012100080B500AF01224FF400510C4803F070FE7E
:101220000A20FFF739FF00224FF40051074803F06E
:1012300067FE074B1B68DA68054B1B6842F0020229
:10124000DA60044B1B88184680BD00BF000C0240CA
:101250004C4A0020B000002080B500AFFFF7D8FF57
:1012600003461A461E4B1A80642002F0A3FFFFF7C4
:10127000CFFF03461A461B4B1A60642002F09AFF08
:1012800011E0FFF7C5FF03461A46154B1A8064208C
:1012900002F090FFFFF7BCFF03461A46114B1A609D
:1012A000642002F087FF0E4B1B881A460D4B1B680B
:1012B000D31A002BB8BF5B42042BE2DC084B1B881F
:1012C0001A46084B1B681344DA0F13445B101A4686
:1012D000054B1A60044B1B689BB2184680BD00BFCB
:1012E000B2000020B4000020B80000200000000080
:1012F00080B582B000AF324B00221A604FF000037D
:101300007B60304802F0BEFF2E4803F08DF80346A4
:101310002B4A13602A4B1B6807EE903AB8EE677AA7
:10132000DFED296AC7EE267AC7ED017AD7ED017A9B
:10133000B6EE007AF4EEC77AF1EE10FA03D84FF069
:101340007C537B600CE07868FFF7FEF816A3D3E9C6
:101350000023FFF7D7FB0346002B01D01B4B7B601C
:101360007868FFF7F1F802460B469FED111B43EC3E
:10137000102B0AF0FFFD51EC100B0FA3D3E9002353
:10138000FFF73AF902460B4610461946FFF7E4FB11
:1013900003460F4A13600E4B1B6818460837BD46BC
:1013A00080BD00BFAFF30080B81E85EB51B806408A
:1013B0000395F1EF332EF3BF97CADB114E7B41400B
:1013C000284C0020E04B002000007A448FC23540BA
:1013D000BC0000200000000080B582B000AF344B9C
:1013E00000221A604FF000037B60324802F04AFF8F
:1013F000304803F019F803462D4A13602C4B1B6844
:1014000007EE903AB8EE677ADFED2B6AC7EE267AE0
:10141000C7ED017A7868FFF797F81DA3D3E9002399
:10142000FFF766FB0346002B02D0244B7B600CE0E9
:101430007868FFF789F818A3D3E90023FFF762FB68
:101440000346002B01D01E4B7B607868FFF77CF8C9
:1014500002460B469FED121B43EC102B0AF08AFD4F
:1014600051EC100B10A3D3E90023FFF7C5F8024697
:101470000B4610461946FFF76FFB0346114A1360EF
:10148000104B1B6818460837BD4680BDAFF300807F
:10149000E17A14AE47E1DA3F333333333333074075
:1014A000CE1951DA1B7CF1BFBBB88D06F04E40401F
:1014B000984C0020DC4A002000007A44AE47E13E10
:1014C000CDCC3C40C000002080B500AF07E0012239
:1014D0000649074806F0FCF9642002F06BFE034B56
:1014E0001B785A2BF3D000BF00BF80BD9C4C00205E
:1014F000944A002080B582B000AF00237B6019E0E1
:10150000FFF7AAFE0F4B1B68162B08DD0D4B1B685F
:10151000272B04DCB0EE000A00F03AFA07E0094B92
:101520001B68152B03DCB8EE000A00F031FA7B686B
:1015300001337B607B68032BE2DD00BF00BF08370F
:10154000BD4680BDB800002080B582B000AF786095
:101550007B68012B03D07B68022B27D04DE0384BF2
:101560001B68E3221A64642002F024FE9FED320B14
:10157000522352224FF47A714FF47A7000F0CCFD6E
:101580002F4B1B686C221A64642002F013FE9FED3F
:101590002A0B462346224FF47A714FF47A7000F0FA
:1015A000BBFD274B1B6895221A6426E0244B1B6861
:1015B0006C221A64642002F0FDFD9FED1F0B522384
:1015C00052224FF47A714FF47A7000F0A5FD1C4B53
:1015D0001B68E3221A64642002F0ECFD9FED160BF9
:1015E000462346224FF47A714FF47A7000F094FD4E
:1015F000134B1B6895221A6400BF322002F0DAFDFB
:10160000FFF72AFE03460F2B03D8B8EE000A00F0BE
:10161000BFF9FFF721FE03460F2B07D9094B1B68C3
:10162000272B03DCB0EE000A00F0B2F900BF083748
:10163000BD4680BDAFF30080000000000000F03F19
:10164000504C0020B800002080B586B000AF464B5B
:101650005A221A70FFF74CFEFFF7BEFEFFF748FE56
:101660000346222B09D9FFF7B7FE0346222B04D9E4
:10167000FFF7F2FD0346282B6FD900233B6119E0E9
:10168000FFF736FEFFF7A8FEFFF732FE03461D2BDD
:1016900013D9FFF7A1FE03461D2B0ED9FFF7DCFD82
:1016A0000346132B09D9B1EE040A00F071F93B6926
:1016B00001333B613B69022BE2DDFFF719FEB860A5
:1016C000FFF78AFE7860BB681D2B08D87B681D2B4E
:1016D00005D804222549264806F0B5F812E0BB6873
:1016E0001D2B06D8BA687B689A4202D201237B611F
:1016F00008E07B681D2B05D87A68BB689A4201D246
:1017000002237B610423FB607B69012B11D107E07D
:101710000120FFF719FFFB68013BFB60FFF7E8FDC5
:10172000FB68002B19DDFFF7E3FD03461D2BEFD906
:1017300013E07B69022B10D107E00220FFF704FFC2
:10174000FB68013BFB60FFF747FEFB68002B04DDF5
:10175000FFF742FE03461D2BEFD9FFF7CBFE00BF7C
:101760001837BD4680BD00BF9C4C002000D8000843
:10177000944A002080B582B000AF87ED010AC7ED22
:10178000000AD7ED017AF5EEC07AF1EE10FA10D525
:10179000002208212F4803F0B3FB012204212D4829
:1017A00003F0AEFBD7ED017AF0EEE77AC7ED017AF0
:1017B00010E0D7ED017AF5EEC07AF1EE10FA09DD0E
:1017C00001220821234803F09BFB00220421214829
:1017D00003F096FBD7ED007AF5EEC07AF1EE10FA41
:1017E00010D5002210211B4803F08AFB0122202182
:1017F000184803F085FBD7ED007AF0EEE77AC7EDE5
:10180000007A10E0D7ED007AF5EEC07AF1EE10FA2A
:1018100009DD012210210F4803F072FB0022202174
:101820000C4803F06DFB0C4B1B68D7ED017AFCEE06
:10183000E77A17EE902A5A63074B1B68D7ED007AB8
:10184000FCEEE77A17EE902A9A6300BF0837BD4690
:1018500080BD00BF00000240044A002080B400AFF9
:10186000164B1B685B6A1AB2154B1A80144BB3F9FE
:1018700000305B4207EE903AF8EEE77A9FED117A7E
:1018800067EE877A104BC3ED007A104B1B685B6ADA
:101890001AB20F4B1A800E4BB3F9003007EE903A94
:1018A000F8EEE77A9FED077A67EE877A094BC3ED8A
:1018B000007A00BFBD465DF8047B7047A44C002051
:1018C000284B0020D044583CEC4C0020944B002086
:1018D0004C4C0020904B002080B400AF094B1B689B
:1018E0005B6A07EE903AF8EE677A9FED077AC7EEEB
:1018F000876AF0EE667AB0EE670ABD465DF8047B53
:10190000704700BF484B00200024744980B500AFE9
:10191000FFF7E2FFF0EE407A024BC3ED007A00BF22
:1019200080BD00BFFC49002080B500AFFFF7D4FFA9
:10193000B0EE407A074BD3ED007A77EE677A064B2C
:10194000C3ED007A044B1B6807EE903AB0EE670ACD
:1019500080BD00BFFC490020D84A002080B483B07D
:1019600000AF87ED010AD7ED017A9FED077A67EEA8
:10197000877A9FED067A77EE877AB0EE670A0C37A2
:10198000BD465DF8047B70470000584200009B4351
:1019900080B5C0B000AF87ED010A9E4B1B686C227A
:1019A0001A644FF4FA7002F005FC9A4B1B689822F7
:1019B0001A644FF4FA7002F0FDFB974B5A221A702A
:1019C0007B68C7F8FC307B68C7F8F83007F1B803CC
:1019D0003C220021184609F053FE904BC7F8B8305E
:1019E0008F4BC7F8BC308F4BC7F8C8308E4BC7F849
:1019F000CC308E4BC7F8D0308D4BC7F8D4308D4BE0
:101A00001B68C7F8D8304FF07E53C7F8DC3007F1B9
:101A10007C033C220021184609F032FE7F4BFB6715
:101A20007F4BC7F880307F4BC7F88C307E4BC7F8B0
:101A300090307E4BC7F894307D4BC7F898307E4B82
:101A40001B68C7F89C304FF07E53C7F8A0307B4826
:101A500004F038F93C217A4804F0D2FC3C21794862
:101A600004F0CEFC764B1B6800225A62754B1B6853
:101A700000225A6207F1B8031846FFF759FA07F136
:101A80007C031846FFF754FA07F14403184601F0A7
:101A900098FC07F10C03184601F093FC07F144038E
:101AA000B3EE0E1AF2EE0E0A97ED3F0A184601F059
:101AB000C3FC87ED3D0A07F10C03B3EE0E1AF2EEFC
:101AC0000E0A97ED3E0A184601F0B6FCFB6B5E4A23
:101AD0001360FFF71BFF7EE0FFF7C0FE5B4BD3ED0B
:101AE000007A07F14403B0EE670A184601F0C2FD20
:101AF000564BD3ED007A07F10C03B0EE670A184697
:101B000001F0B8FDD7ED1A7AB0EE670AFFF726FFAD
:101B1000F0EE407A474BC3ED007AD7ED0C7AB0EE89
:101B2000670AFFF71BFFF0EE407A434BC3ED007AE4
:101B3000BB6D474A13603B6A464A1360FB6E464AD8
:101B400013603B6B454A13607B6E454A1360D7EDCB
:101B5000197A444B93ED007A364BD3ED006A07F1C6
:101B6000B803B0EE661AF0EE470AB0EE670A184600
:101B7000FFF7FCF9F0EE407A3B4BC3ED007AD7ED6E
:101B80000B7A3A4B93ED007A2B4BD3ED006A07F1B9
:101B90007C03B0EE661AF0EE470AB0EE670A18460C
:101BA000FFF7E4F9F0EE407A314BC3ED007A2E4BAB
:101BB000D3ED007A2E4B93ED007AF0EE470AB0EEAB
:101BC000670AFFF7D7FDD7F8E4302A4A1360D7F841
:101BD000A830294A1360FFF7A7FEB0EE407AD7ED90
:101BE0003D7AF4EEC77AF1EE10FA3FF775AFDFED0C
:101BF000230A9FED220AFFF7BDFD114B1B6800224F
:101C00005A62104B1B6800225A6200BF07F58077AA
:101C1000BD4680BD504C00209C4C002000409C469E
:101C200000007A4400803BC500803B45000016C39D
:101C300000001643004A0020F04C0020484B0020D2
:101C4000A44C0020944B0020A04C0020D84A002037
:101C5000D4000020D8000020F8490020DC4B0020F0
:101C6000084D0020EC4C0020C4000020904B0020C8
:101C7000C8000020CC000020D000002000000000A0
:101C800080B483B000AF87ED010A054B07EE903AB0
:101C9000B0EE670A0C37BD465DF8047B704700BFA5
:101CA0000C024B3F80B400AF164B1B685B6A1AB244
:101CB000154B1A80144BB3F900305B4207EE903A93
:101CC000F8EEE77A9FED117A67EE877A104BC3ED55
:101CD000007A104B1B685B6A1AB20F4B1A800E4BCE
:101CE000B3F9003007EE903AF8EEE77A9FED077A05
:101CF00067EE877A094BC3ED007A00BFBD465DF8F9
:101D0000047B7047A44C0020284B00204260653CB7
:101D1000EC4C0020944B00204C4C0020904B0020B9
:101D200080B5C0B000AF87ED010A3B461860904B0C
:101D30005A221A7097ED017ADFED8E6AC7EE267A85
:101D40009FED8D7A67EE877AC7ED3F7A9FED8A0A1D
:101D5000FFF796FF87ED3E0A07F1B8033C2200210A
:101D6000184609F08DFC854BC7F8B830844BC7F88E
:101D7000BC30844BC7F8C830834BC7F8CC30834B9A
:101D8000C7F8D030824BC7F8D430824B1B68C7F8F5
:101D9000D8304FF07E53C7F8DC3007F17C033C228B
:101DA0000021184609F06CFC744BFB67744BC7F8B4
:101DB0008030744BC7F88C30734BC7F89030734B3E
:101DC000C7F89430724BC7F89830734B1B68C7F84C
:101DD0009C304FF07E53C7F8A030704803F072FF7C
:101DE0003C216F4804F00CFB3C216E4804F008FBDA
:101DF0006B4B1B6800225A626A4B1B6800225A62B6
:101E000007F1B8031846FFF793F807F17C0318466B
:101E1000FFF78EF83B461B68022B11D1D7F8FC0068
:101E2000FEF792FB50A3D3E90023FEF7E5FB024641
:101E30000B4610461946FEF7AFFE0346C7F8FC30C6
:101E400007F14403184601F0BCFA07F14403B3EE6E
:101E50000E1AF2EE0E0A97ED3F0A184601F0ECFA60
:101E600087ED3D0AFFF752FD1CE1FFF71BFF4E4BCC
:101E7000D3ED007A07F14403B0EE670A184601F08B
:101E8000F9FB3B461B68012B40F0A08097ED1A7AC6
:101E9000D7ED3E7A67EE277AB0EE670AFFF75EFD70
:101EA000F0EE407A3B4BC3ED007AD7ED1A7AB0EEF4
:101EB000670AFFF753FDF0EE407A374BC3ED007A27
:101EC00097ED197AD7ED3E7A67EE277A374BC3ED57
:101ED000007A7B6E364A1360344BD3ED007A354B73
:101EE00093ED007A2B4BD3ED006A07F1B803B0EE07
:101EF000661AF0EE470AB0EE670A1846FFF736F8A2
:101F0000F0EE407A2C4BC3ED007A294BD3ED007AEA
:101F10002A4B93ED007A204BD3ED006A07F17C0346
:101F2000B0EE661AF0EE470AB0EE670A1846FFF701
:101F30001DF8F0EE407A224BC3ED007A1E4BD3ED34
:101F4000007A1F4B93ED007AF0EE470AB0EE670A75
:101F5000FFF710FCD7F8E4301A4A1360D7F8A8301E
:101F6000194A13609EE000BF295C8FC2F528F03F3C
:101F70009C4C00200000B4430080984300409C46E5
:101F800000007A4400803BC500803B45000016C33A
:101F900000001643004A0020F04C0020484B00206F
:101FA000A44C0020944B0020D84A0020D4000020EC
:101FB000D8000020EC4C0020C4000020904B0020F2
:101FC000C8000020CC000020D0000020D7ED1A7AF5
:101FD000B0EE670AFFF7C2FCF0EE407A414BC3ED6A
:101FE000007A97ED1A7AD7ED3E7A67EE277AB0EE4F
:101FF000670AFFF7B3FCF0EE407A3B4BC3ED007A83
:102000007B6E3A4A136097ED197AD7ED3E7A67EE08
:10201000277A374BC3ED007A344BD3ED007A354B3A
:1020200093ED007A2F4BD3ED006A07F1B803B0EEC1
:10203000661AF0EE470AB0EE670A1846FEF796FFFA
:10204000F0EE407A2C4BC3ED007A294BD3ED007AA9
:102050002A4B93ED007A244BD3ED006A07F17C0301
:10206000B0EE661AF0EE470AB0EE670A1846FEF7C1
:102070007DFFF0EE407A224BC3ED007A1E4BD3ED8C
:10208000007A1F4B93ED007AF0EE470AB0EE670A34
:10209000FFF770FBD7F8E4301A4A1360D7F8A8307E
:1020A000194A1360FFF740FCB0EE407AD7ED3D7A55
:1020B000F4EEC77AF1EE10FA3FF7D7AEDFED130A70
:1020C0009FED120AFFF756FB114B1B6800225A6264
:1020D000104B1B6800225A6200BF07F58077BD468F
:1020E00080BD00BF004A0020F04C0020D40000203A
:1020F000D8000020EC4C0020C4000020904B0020B1
:10210000C8000020CC000020D0000020000000000B
:10211000A44C0020944B002080B588B000AF7861BB
:10212000396111461A4687ED000B0B46FB731346C7
:10213000BB73824B5A221A703C21814804F060F92B
:102140003C21804804F05CF97D4B1B685B6A1AB245
:102150007D4B1A807B4B1B685B6A1AB27B4B1A80E3
:1021600002F01CF803461A46794B1A604FF0000241
:10217000784BD7E90001FEF73FFA02460B46C7E964
:102180000623FB7B462B02D0522B0BD015E00122FD
:102190000821714802F0B4FE002204216E4802F0CA
:1021A000AFFE0AE0002208216B4802F0A9FE0122DE
:1021B0000421694802F0A4FE00BFBB7B462B02D07D
:1021C000522B0BD015E001221021634802F098FE3B
:1021D00000222021604802F093FE0AE00022102134
:1021E0005D4802F08DFE012220215B4802F088FE4E
:1021F00000BF5A4B1B687A695A63584B1B683A698F
:102200009A634F4B1B685B6A1AB24F4B1A804D4B57
:102210001B685B6A1AB24D4B1A804B4BB3F9003006
:10222000002BB8BF5B429BB21AB24D4B1A80474B92
:10223000B3F90030002BB8BF5B429BB21AB2494BD6
:102240001A80474BB3F900301A46464BB3F90030B9
:102250001344DA0F13445B10002BB8BF5B421AB271
:10226000414B1A803E4BB3F90030404A82FB0312C7
:102270005211DB17D31A1BB21A463D493D4809F0EB
:1022800007FA3C4A23210A2009F004F9354BB3F937
:102290000030364A82FB03125211DB17D31A1BB2ED
:1022A0001A463549334809F0F3F9324A32210A20F7
:1022B00009F0F0F808F07AFF2B4BB3F9003018461C
:1022C000FEF730F902460B46D7E90601FEF710FC8F
:1022D0000346002B0CD0214B1B6800225A631F4B76
:1022E0001B6800229A634FF4FA7001F063FF00E06C
:1022F00087E7134B1B6800225A62124B1B680022AF
:102300005A62184B00221A80164BB3F90020144B66
:102310001A80134BB3F900301A460D4B1A600C4B60
:102320001B683B613B697B6108F040FF034B5A220D
:102330001A7000BF18462037BD4680BD9C4C002057
:10234000A44C0020944B0020284B00204C4C002033
:102350009C0000200000524000000240044A00207F
:10236000940000209600002098000020797878786A
:1023700008D80008344B002014D8000880B500AFFE
:1023800001F0A6FE00F048F800F018FC00F060FB39
:1023900000F014FA00F074F900F064FA00F0B6FAF4
:1023A00000F0E2FB00F098F800F0E8F800F038F9EF
:1023B00000F000FB00210F4803F054FE01220E49FB
:1023C0000E4805F085FA09F097F806F09DF90C4AD9
:1023D00000210C4806F0E2F903460B4A13600B4A51
:1023E00000210B4806F0DAF903460A4A136006F0AA
:1023F000AFF9FEE74C4A00209C4C0020944A002094
:1024000094D80008352D0008244B0020B8D80008C7
:10241000192E0008304B002080B594B000AF07F1B2
:10242000200330220021184609F02AF907F10C0395
:1024300000221A605A609A60DA601A610023BB6059
:10244000234B1B6C224A43F080531364204B1B6CBC
:1024500003F08053BB60BB6800237B601D4B1B688F
:102460001C4A43F4804313601A4B1B6803F48043F7
:102470007B607B680A233B620123FB6210233B6382
:1024800001237B630023BB6307F12003184602F09E
:1024900079FD0346002B01D000F08EFF0F23FB6077
:1024A00000233B6100237B610023BB610023FB61B0
:1024B00007F10C030021184602F0DCFF0346002B55
:1024C00001D000F079FF00BF5037BD4680BD00BF8E
:1024D000003802400070004080B584B000AF3B4639
:1024E00000221A605A609A60DA60214B214A1A6011
:1024F0001F4B00225A601E4B00229A601C4B002288
:102500001A611B4B00221A76194B002283F82020F7
:10251000174B0022DA62164B174A9A62144B0022BC
:10252000DA60134B0122DA61114B002283F830206C
:102530000F4B01225A610E4801F060FE0346002B4A
:1025400001D000F039FF0B233B6001237B600023A7
:10255000BB603B461946064801F074FF0346002B5A
:1025600001D000F029FF00BF1037BD4680BD00BF7D
:10257000E04B0020002001400100000F80B584B036
:1025800000AF3B4600221A605A609A60DA60214B25
:10259000214A1A601F4B00225A601E4B00229A608B
:1025A0001C4B00221A611B4B00221A76194B002289
:1025B00083F82020174B0022DA62164B174A9A62E2
:1025C000144B0022DA60134B0122DA61114B002216
:1025D00083F830200F4B01225A610E4801F00EFEA5
:1025E0000346002B01D000F0E7FE0C233B600123E3
:1025F0007B600023BB603B461946064801F022FF82
:102600000346002B01D000F0D7FE00BF1037BD46B7
:1026100080BD00BFDC4A0020002101400100000F06
:1026200080B500AF144B154A1A60134B00225A6054
:10263000114B7F229A60104BFF22DA600E4B002272
:102640001A610D4B00225A610B4B00229A610A4815
:1026500003F0C2F90346002B01D000F0ADFE4FF4A9
:102660000021054803F09DFA0346002B01D000F03D
:10267000A3FE00BF80BD00BF2C4C002000280040FE
:1026800080B596B000AF07F1480300221A605A6087
:102690009A60DA6007F1400300221A605A6007F17D
:1026A000240300221A605A609A60DA601A615A6143
:1026B0009A613B1D20220021184608F0E1FF3D4BA6
:1026C0003D4A1A603B4BA0225A603A4B00229A6066
:1026D000384B4FF4FA62DA60364B00221A61354B00
:1026E00000225A61334B80229A61324803F09BFAF0
:1026F0000346002B01D000F05FFE4FF48053BB6413
:1027000007F1480319462B4804F06EF90346002BE5
:1027100001D000F051FE274803F03CFB0346002B9C
:1027200001D000F049FE00233B6400237B6407F1E5
:10273000400319461F4804F0C5FE0346002B01D094
:1027400000F03AFE60237B620023BB620023FB6241
:1027500000237B630023BB630023FB6307F1240397
:102760000C221946134804F07DF80346002B01D0D3
:1027700000F022FE00237B600023BB600023FB608F
:1027800000233B6100237B614FF40053BB610023B6
:102790003B623B1D1946074804F010FF0346002B1F
:1027A00001D000F009FE034801F05EFB00BF58377E
:1027B000BD4680BD504C00200000014080B58CB06B
:1027C00000AF07F10C0324220021184608F058FF3F
:1027D0003B1D00221A605A60214B4FF080421A6064
:1027E0001F4B00225A601E4B00229A601C4B4FF672
:1027F000FF72DA601A4B00221A61194B00229A61AB
:102800000323FB6000233B6101237B610023BB6149
:102810000A23FB6100233B6201237B620023BB622E
:102820000A23FB6207F10C0319460D4803F042FD31
:102830000346002B01D000F0BFFD00237B60002386
:10284000BB603B1D1946064804F03CFE0346002BC6
:1028500001D000F0B1FD00BF3037BD4680BD00BFE4
:10286000A44C002080B58CB000AF07F10C032422EB
:102870000021184608F004FF3B1D00221A605A6030
:10288000204B214A1A601F4B00225A601D4B002228
:102890009A601C4B4FF6FF72DA601A4B00221A61E5
:1028A000184B00229A610323FB6000233B61012344
:1028B0007B610023BB610A23FB6100233B62012390
:1028C0007B620023BB620A23FB6207F10C031946FB
:1028D0000C4803F0EFFC0346002B01D000F06CFD28
:1028E00000237B600023BB603B1D1946054804F0B4
:1028F000E9FD0346002B01D000F05EFD00BF30373C
:10290000BD4680BD944B00200004004080B586B0D9
:1029100000AF07F1100300221A605A603B46002204
:102920001A605A609A60DA60204B214A1A601F4B85
:102930000F225A601D4B00229A601C4B4FF6FE720C
:10294000DA601A4B00221A61184B00229A6117486C
:1029500003F038FB0346002B01D000F02DFD0023CF
:102960003B6100237B6107F1100319460F4804F017
:10297000A9FD0346002B01D000F01EFD00233B60A3
:1029800001237B600023BB600023FB603B460022E9
:102990001946064803F0CAFE0346002B01D000F09A
:1029A0000BFD00BF1837BD4680BD00BF4C4A00205C
:1029B0000008004080B586B000AF07F10803002290
:1029C0001A605A609A60DA603B4600221A605A60C8
:1029D0001D4B1E4A1A601C4B0F225A601A4B0022D4
:1029E0009A60194B4FF0FF32DA60174B00221A61E0
:1029F000154B00229A61144803F015F90346002B89
:102A000001D000F0D9FC4FF48053BB6007F10803FC
:102A100019460D4803F0E8FF0346002B01D000F0F3
:102A2000CBFC00233B6000237B603B4619460648F5
:102A300004F048FD0346002B01D000F0BDFC00BFB0
:102A40001837BD4680BD00BF484B0020000C004039
:102A500080B592B000AF07F1400300221A605A60BF
:102A600007F1240300221A605A609A60DA601A6142
:102A70005A619A613B1D20220021184608F000FE91
:102A8000374B384A1A60364B00225A60344B0022CA
:102A90009A60334B41F61F42DA60314B00221A61D3
:102AA0002F4B00225A612E4B00229A612C4803F0D2
:102AB00071F90346002B01D000F07EFC00233B643B
:102AC00000237B6407F140031946254804F0FAFC13
:102AD0000346002B01D000F06FFC60237B620023D3
:102AE000BB620023FB6200233B6300237B63002364
:102AF000BB630023FB6307F1240300221946184837
:102B000003F0B0FE0346002B01D000F055FC07F1A6
:102B1000240304221946124803F0A4FE0346002BA6
:102B200001D000F049FC00237B600023BB60002340
:102B3000FB6000233B6100237B614FF40053BB61CA
:102B400000233B623B1D1946054804F037FD034650
:102B5000002B01D000F030FC00BF4837BD4680BDDF
:102B6000044A00200004014080B500AF114B124A16
:102B70001A60104B4FF4E1325A600E4B00229A60FB
:102B80000C4B0022DA600B4B00221A61094B0C221D
:102B90005A61084B00229A61064B0022DA6105480F
:102BA00004F072FD0346002B01D000F005FC00BFCD
:102BB00080BD00BF944A00200048004080B58AB024
:102BC00000AF07F1140300221A605A609A60DA60BD
:102BD0001A6100233B61494B1B6B484A43F01003C9
:102BE0001363464B1B6B03F010033B613B690023EF
:102BF000FB60424B1B6B414A43F0040313633F4BA2
:102C00001B6B03F00403FB60FB680023BB603B4BC2
:102C10001B6B3A4A43F001031363384B1B6B03F001
:102C20000103BB60BB6800237B60344B1B6B334AE2
:102C300043F008031363314B1B6B03F008037B6005
:102C40007B6800233B602D4B1B6B2C4A43F0020337
:102C500013632A4B1B6B03F002033B603B680022AB
:102C60004FF4BC61264802F04BF900223C21254874
:102C700002F046F900224FF40051234802F040F9D7
:102C80004FF4BC637B610123BB610023FB61002324
:102C90003B6207F114031946194801F095FF3C23E4
:102CA0007B610123BB610023FB6102233B6207F1CF
:102CB00014031946134801F087FF4FF480737B61BA
:102CC0000023BB610023FB6107F1140319460E4882
:102CD00001F07AFF4FF400537B610123BB610023B5
:102CE000FB6100233B6207F114031946064801F01B
:102CF0006BFF00BF2837BD4680BD00BF00380240D3
:102D00000010024000000240000C024080B582B07A
:102D100000AF78604FF6FF730A220449044804F0BC
:102D200000FD00BF0837BD4680BD00BF9C4C0020A1
:102D3000944A002080B58EB000AF78602D4A07F12C
:102D4000240392E8030083E8030007F12C03002228
:102D50001A605A609A6001222749284804F0B8FD99
:102D600007F124031A460521052008F093FBFEF71E
:102D700073FAC82001F01EFA214B1A6807F11003FC
:102D80002049184608F084FC07F110031A46322146
:102D90000A2008F07FFBFEF7ABFA642001F00AFA84
:102DA000194B1A6807F110031849184608F070FC0F
:102DB00007F110031A461E210A2008F06BFBFEF7EC
:102DC0000BFB642001F0F6F9114B1A6807F11003B0
:102DD0001049184608F05CFC07F110031A46282138
:102DE0000A2008F057FB08F0E1F9642005F068FDBF
:102DF000B1E700BF4CD800089C4C0020944A00204A
:102E0000B800002020D80008BC0000202CD8000802
:102E1000C00000203CD8000880B586B000AF7860C4
:102E20000021C64803F006F80421C44803F002F864
:102E30000C21C34802F0FEFFC24B00221A70C24AA6
:102E400007F1100392E80300186004331980BD4BAA
:102E50001B785A2B00F28B8201A252F823F000BF9C
:102E6000CD2F00086F3300086F3300086F33000860
:102E70006F3300086F3300086F3300086F330008AA
:102E80006F3300086F3300086F3300086F3300089A
:102E90006F3300086F3300086F3300086F3300088A
:102EA0006F3300086F3300086F3300086F3300087A
:102EB0006F3300086F3300086F3300086F3300086A
:102EC0006F3300086F3300086F3300086F3300085A
:102ED0006F3300086F3300086F3300086F3300084A
:102EE0006F330008713000087B300008853000081F
:102EF0008F30000899300008A3300008AD3000087A
:102F0000B7300008C1300008CB3000086F3300082C
:102F10006F3300086F3300086F3300086F33000809
:102F200017300008213000082B3000083530000829
:102F30003F30000849300008533000085D30000879
:102F4000673000080D3000086F3300086F33000849
:102F50006F3300086F3300086F3300086F330008C9
:102F60006F3300086F3300086F3300086F330008B9
:102F70006F3300082D3200086F3300086F330008EC
:102F8000D92F00086F3300086F330008F52F0008B1
:102F9000D53000086F3300086F3300086F33000826
:102FA0006F330008F9310008913100086F330008D1
:102FB0006F33000861320008353300083B330008E6
:102FC00045330008533300086933000801225D4986
:102FD0005E4804F07DFCCEE107F11003062219469D
:102FE0005A4804F030FC322005F06AFC554B5A2256
:102FF0001A70C0E104225649544804F024FC3220DF
:1030000005F05EFC4F4B5A221A70B4E19FED510A55
:10301000FEF7BEFCAFE1B2EE040AFEF7B9FCAAE18E
:10302000B3EE040AFEF7B4FCA5E1B3EE0E0AFEF718
:10303000AFFCA0E19FED480AFEF7AAFC9BE19FEDE3
:10304000470AFEF7A5FC96E19FED450AFEF7A0FCB6
:1030500091E19FED440AFEF79BFC8CE19FED420A53
:10306000FEF796FC87E19FED410AFEF791FC82E1B5
:10307000BAEE040AFEF78CFC7DE1BBEE040AFEF713
:1030800087FC78E1BBEE0E0AFEF782FC73E19FED50
:10309000380AFEF77DFC6EE19FED360AFEF778FCFC
:1030A00069E19FED350AFEF773FC64E19FED330A99
:1030B000FEF76EFC5FE19FED320AFEF769FC5AE114
:1030C0009FED300AFEF764FC55E19FED2F0AFEF7F5
:1030D0005FFC50E11A4B1B6895221A644FF4FA709A
:1030E00001F068F8164B1B686C221A644FF4FA70F2
:1030F00001F060F80120B3EE0E0AFEF711FE104B4E
:103100001B68E3221A644FF4FA7001F053F80220AE
:10311000BBEE0C0AFEF704FE094B1B686C221A6416
:103120004FF4FA7001F046F801209FED180AFEF7FF
:10313000F7FDB1EE020AFEF72BFC1CE1044A002069
:10314000504C00209C4C00206CD80008944A002071
:1031500060D800080000C842000020420000484239
:103160000000704200008C420000A0420000B44207
:10317000000020C2000048C2000070C200008CC2E3
:103180000000A0C20000B4C20000C8C266660A42C5
:103190007D4B1B6895221A644FF4FA7001F00AF80F
:1031A000794B1B68E3221A644FF4FA7001F002F8BD
:1031B0000220B3EE0E0AFEF7B3FD734B1B686C22C0
:1031C0001A644FF4FA7000F0F5FF0120BBEE0C0A10
:1031D000FEF7A6FD6C4B1B68E3221A644FF4FA70ED
:1031E00000F0E8FF0220B3EE0F0AFEF799FDB1EE02
:1031F000020AFEF7CDFBBEE0634B1B68E3221A64B4
:103200004FF4FA7000F0D6FF5F4B1B686C221A6413
:103210004FF4FA7000F0CEFF01209FED5C0AFEF73C
:103220007FFDB2EE000AFEF7B3FBA4E0564B1B682D
:103230006C221A644FF4FA7000F0BCFF524B1B680A
:10324000E3221A644FF4FA7000F0B4FF02209FEDFD
:103250004F0AFEF765FDB1EE080AFEF799FB8AE01A
:10326000FDF7FAFFC82000F0A5FF494A07F108035F
:1032700092E80300186004331970387A454B1B68D4
:10328000454A82FB03125211DB17D21A434B83FBD0
:1032900002139910D317C91A0B469B000B445B000D
:1032A000D11ACBB20344DBB23B72787A394B1B683C
:1032B0003A4A82FB03129210DB17D21A374B83FB78
:1032C00002139910D317C91A0B469B000B445B00DD
:1032D000D11ACBB20344DBB27B72B87A2D4B1A6899
:1032E0002E4B83FB02139910D317C91A0B469B0070
:1032F0000B445B00D11ACBB20344DBB2BB72254B4B
:103300001B68B3F57A7F01DB39233B7207F10803B1
:103310001846FCF75DFF03469AB207F10803194609
:103320001F4804F090FA322005F0CAFA1D4B5A22C9
:103330001A7020E0FEF788F91DE09FED1B0AFEF7EA
:1033400027FB18E0FDF788FFFDF7D2FFFEF744F8F2
:1033500011E03C21154803F053F83C21144803F0D8
:103360004FF8FEF77BFAFCE7FEF7AEF803E00D4BF3
:103370005A221A7000BF642000F01CFF02220D497F
:10338000074804F060FA62E5504C00200000B442A7
:1033900074D80008B80000201F85EB516766666688
:1033A000944A00209C4C00200000C8C2A44C00207D
:1033B000944B002068D8000880B400AF72B600BFFC
:1033C000FEE780B483B000AF78607B684FF0000206
:1033D0009A607B684FF00002DA607B684FF0000271
:1033E0001A617B684FF000025A617B684FF000025F
:1033F0009A617B684FF00002DA617B684FF000024F
:103400001A627B684FF000025A627B684FF000023C
:103410009A627B684FF00002DA627B684FF000022C
:103420001A637B684FF000025A6300BF0C37BD4639
:103430005DF8047B70470000B0B586B000AFF8605F
:1034400087ED020AC7ED010A87ED001AFB687A686A
:103450005A60FB683A681A60D7ED027AF5EEC07AD6
:10346000F1EE10FA4CBF01230023FB75D7ED027A71
:10347000F0EEE77AC7ED027A97ED027AF0EE006A95
:10348000C7EE267AC7ED047AFB685A68FB68DA61F2
:10349000FB68D3ED006AFB6893ED017AC6EE877A8C
:1034A000FB68C3ED027AFB68D3ED017AFB6893ED0C
:1034B000027AB0EE471ADFED6E0AB0EE670A00F04E
:1034C00067F9F0EE407AFB68C3ED0B7AFB68D3ED49
:1034D0000B7A97ED047AB4EEE77AF1EE10FA15D58F
:1034E000FB683A69DA62FB68D3ED017AFB6893ED19
:1034F0000B7AB0EE471ADFED5E0AB0EE670A00F015
:1035000093F9F0EE407AFB68C3ED027AFB6893ED25
:10351000027AFB68D3ED077A67EE277AFB68C3ED82
:10352000067AB868FDF710F804460D46FB68DB6ABA
:103530001846FDF709F802460B46FCF7A7FE0246BF
:103540000B4620462946FCF79FFE02460B4643ECFD
:10355000172B9FED451BB0EE470AF0EE670A08F007
:10356000B7FC53EC102B10461946FDF715FB02462D
:10357000FB681A63FB689B681846FCF7E5FF044686
:103580000D46FB68D3ED0C7AF5EEC07AF1EE10FA39
:103590000CDDFB6893ED0C7AFB68D3ED067AC7EE81
:1035A000276A16EE900AFCF7CFFF03E04FF0000009
:1035B0004FF0000122462B46FCF768FE02460B4600
:1035C00010461946FDF7E8FA0246FB68DA60FB6828
:1035D00093ED0C7AFB68D3ED0B7A77EE277AFB68D4
:1035E000C3ED0C7AFB68BA685A63FB6893ED027A04
:1035F000FB68D3ED037A77EE277AFB68C3ED047A94
:10360000FB7D002B27D0FB68D3ED067AF1EE677ABD
:10361000FB68C3ED067AFB68D3ED017AF1EE677AB9
:10362000FB68C3ED077AFB68D3ED0B7AF1EE677A9E
:10363000FB68C3ED0B7AFB68D3ED0C7AF1EE677A89
:10364000FB68C3ED0C7AFB68D3ED0D7AF1EE677A77
:10365000FB68C3ED0D7AFB681B6907EE903AB0EE8C
:10366000670A1837BD46B0BD00000000000000002A
:103670000000000080B586B000AF786087ED000ADA
:103680007B68D3ED047A97ED007AB4EEE77AF1EE39
:1036900010FA0BDB7B685A6B7B685A637B684FF0D0
:1036A00000025A627B684FF000029A627B68D3ED99
:1036B000037A97ED007AB4EEE77AF1EE10FA17DBB1
:1036C0007B689B697B617B68D3ED077AF1EE677A53
:1036D0007B68C3ED0A7A7B68D3ED037A97ED007AB5
:1036E00077EE677AC7ED047A7B681B6BFB6029E095
:1036F0007B68D3ED027A97ED007AB4EEE77AF1EECB
:1037000010FA13DB7B689B697B617B684FF00002DA
:103710009A627B68D3ED027A97ED007A77EE677A4A
:10372000C7ED047A7B68DB6AFB600BE04FF00003B7
:103730007B617B68DA697B689A623B683B614FF02A
:103740000003FB607B68D3ED0A7A97ED041AD7ED8E
:10375000050AB0EE670A00F01BF8B0EE407AD7ED2C
:10376000037A77EE277A7B68C3ED087A7B6893ED5E
:103770000A7AD7ED047A27EE277AD7ED057A77EE25
:10378000277A7B68C3ED097A00BF1837BD4680BD34
:10379000B0B584B000AF87ED030AC7ED020A87ED2C
:1037A000011AF868FCF7D0FE4FF000021C4BFCF742
:1037B00023FF02460B4614461D46F0EE000A97ED25
:1037C000010A08F0B9FC10EE103A1846FCF7BCFEEE
:1037D00002460B4620462946FCF70EFF02460B46E2
:1037E00014461D4697ED027AD7ED017A67EE277AE7
:1037F00017EE900AFCF7A8FE02460B462046294623
:10380000FCF744FD02460B4610461946FDF7C4F985
:10381000034607EE903AB0EE670A1037BD46B0BDDA
:103820000000E03F000000002DE9B0438AB000AF87
:1038300087ED030AC7ED020A87ED011AD7ED037A77
:10384000B6EE007A67EE877AC7ED097ABB683B620D
:10385000D7ED017AF1EE677AC7ED077AD7ED087AEE
:10386000F1EE677A17EE903A1846FCF76DFE0446C3
:103870000D46386AFCF768FE02460B469FED5E1B5C
:1038800043EC102B08F076FB59EC108BD7ED097A3E
:10389000B1EE007A27EE877AD7ED077A67EE277ABE
:1038A00017EE900AFCF750FE02460B46404649468A
:1038B000FCF7EAFC02460B4643EC172BB0EE470A36
:1038C000F0EE670A08F004FC53EC102B2046294662
:1038D000FCF7DCFC02460B4614461D46D7ED097A80
:1038E00077EEA77A17EE900AFCF72EFE02460B46FB
:1038F00020462946FCF7AAFF02460B461046194609
:10390000FDF74AF90346BB61D7ED087AF1EE677A15
:1039100017EE903A1846FCF717FE04460D46386A33
:10392000FCF712FE02460B469FED331B43EC102BB7
:1039300008F020FB59EC108BD7ED097AB1EE007A34
:1039400027EE877AD7ED077A67EE277A17EE900A87
:10395000FCF7FAFD02460B4640464946FCF794FC4C
:1039600002460B4643EC172BB0EE470AF0EE670A0F
:1039700008F0AEFB53EC102B20462946FCF784FCE4
:1039800002460B4614461D46D7ED097A77EEA77A14
:1039900017EE900AFCF7D8FD02460B462046294652
:1039A000FCF754FF02460B4610461946FDF7F4F8A3
:1039B00003467B61B869FCF7C7FD04460D4678698C
:1039C000FCF7C2FD02460B4643EC112B45EC104BB5
:1039D00008F07EFA53EC102B10461946FDF7DCF880
:1039E000034607EE903AB0EE670A2837BD46BDE8B9
:1039F000B08300BFAFF30080000000000000004073
:103A000080B582B000AF00237B60124B5B6C114A23
:103A100043F4804353640F4B5B6C03F480437B603F
:103A20007B6800233B600B4B1B6C0A4A43F08053BE
:103A30001364084B1B6C03F080533B603B6800220F
:103A40000F216FF0010000F0F6FF00BF0837BD4600
:103A500080BD00BF0038024080B58CB000AF7860F8
:103A600007F11C0300221A605A609A60DA601A613A
:103A70007B681B682E4A934228D10023BB612D4BE3
:103A80005B6C2C4A43F4807353642A4B5B6C03F4E5
:103A90008073BB61BB6900237B61264B1B6B254A8E
:103AA00043F004031363234B1B6B03F004037B619C
:103AB0007B691223FB6103233B6200237B6207F1D6
:103AC0001C0319461C4801F07FF82CE07B681B683A
:103AD0001A4A934227D100233B61164B5B6C154A6F
:103AE00043F400735364134B5B6C03F400733B614A
:103AF0003B690023FB600F4B1B6B0E4A43F0040332
:103B000013630C4B1B6B03F00403FB60FB68042383
:103B1000FB6103233B6200237B6207F11C03194610
:103B2000054801F051F800BF3037BD4680BD00BFE9
:103B300000200140003802400008024000210140FE
:103B400080B586B000AF786007F1080300221A60E4
:103B50005A609A60DA607B681B680C4A934211D104
:103B60000223BB604FF400737B6107F10803184622
:103B700001F050FE0346002B01D0FFF71DFC044B63
:103B800001221A6000BF1837BD4680BD00280040E2
:103B90003C0E474280B485B000AF78607B681B68FC
:103BA000154A93420ED10023FB60144B5B6C134A01
:103BB00043F001035364114B5B6C03F00103FB60A2
:103BC000FB6812E07B681B680D4A93420DD100230D
:103BD000BB600A4B1B6C094A43F008031364074B94
:103BE0001B6C03F00803BB60BB6800BF1437BD4605
:103BF0005DF8047B704700BF0000014000380240C0
:103C0000000C004080B58CB000AF786007F11C0359
:103C100000221A605A609A60DA601A617B681B6839
:103C2000B3F1804F4BD10023BB613F4B1B6C3E4A2D
:103C300043F0010313643C4B1B6C03F00103BB61B5
:103C4000BB6900237B61384B1B6B374A43F0010390
:103C50001363354B1B6B03F001037B617B6900230E
:103C60003B61314B1B6B304A43F0020313632E4B15
:103C70001B6B03F002033B613B694FF40043FB61A4
:103C800002233B6200237B620023BB620123FB62B1
:103C900007F11C031946254800F096FF0823FB6135
:103CA00002233B6200237B620023BB620123FB6291
:103CB00007F11C0319461E4800F086FF30E07B68C0
:103CC0001B681C4A93422BD10023FB60164B1B6CD4
:103CD000154A43F002031364134B1B6C03F00203F9
:103CE000FB60FB680023BB600F4B1B6B0E4A43F06D
:103CF000010313630C4B1B6B03F00103BB60BB6838
:103D0000C023FB6102233B6200237B620023BB6272
:103D10000223FB6207F11C031946044800F054FF1C
:103D200000BF3037BD4680BD003802400000024071
:103D3000000402400004004080B58AB000AF786003
:103D400007F1140300221A605A609A60DA601A615F
:103D50007B681B681D4A934234D100233B611C4B96
:103D60001B6C1B4A43F004031364194B1B6C03F0D8
:103D700004033B613B690023FB60154B1B6B144A3A
:103D800043F008031363124B1B6B03F00803FB6043
:103D9000FB684FF480537B610223BB610023FB610E
:103DA00000233B6202237B6207F114031946094892
:103DB00000F00AFF002205211E2000F03CFE1E201C
:103DC00000F055FE00BF2837BD4680BD000800400A
:103DD00000380240000C024080B58AB000AF786025
:103DE00007F1140300221A605A609A60DA601A61BF
:103DF0007B681B68194A93422BD100233B61184B07
:103E00005B6C174A43F002035364154B5B6C03F081
:103E100002033B613B690023FB60114B1B6B104AA3
:103E200043F0040313630E4B1B6B03F00403FB60AE
:103E3000FB68C0237B610223BB610023FB6100237D
:103E40003B6203237B6207F114031946054800F027
:103E5000BBFE00BF2837BD4680BD00BF0004014047
:103E6000003802400008024080B588B000AF78609A
:103E700007F10C0300221A605A609A60DA601A6136
:103E80007B681B68124A93421ED10023BB60114B12
:103E90001B6B104A43F0100313630E4B1B6B03F0B4
:103EA0001003BB60BB684FF48043FB6002233B619F
:103EB00000237B610023BB610123FB6107F10C033D
:103EC0001946054800F080FE00BF2037BD4680BD82
:103ED00000000140003802400010024080B58AB066
:103EE00000AF786007F1140300221A605A609A60EC
:103EF000DA601A617B681B681D4A934234D1002343
:103F00003B611C4B1B6C1B4A43F480231364194B0D
:103F10001B6C03F480233B613B690023FB60154B62
:103F20001B6B144A43F004031363124B1B6B03F027
:103F30000403FB60FB684FF440637B610223BB61B9
:103F40000023FB6103233B6207237B6207F1140319
:103F50001946094800F038FE00220521272000F00C
:103F60006AFD272000F083FD00BF2837BD4680BDD5
:103F700000480040003802400008024080B400AF12
:103F8000FEE780B400AFFEE780B400AFFEE780B488
:103F900000AFFEE780B400AFFEE780B400AF00BF23
:103FA000BD465DF8047B704780B500AF00F0E2F8D5
:103FB00006F094F80346012B01D006F07DFE00BF09
:103FC00080BD000080B500AF024802F0A7FA00BF34
:103FD00080BD00BF4C4A002080B500AF024803F00E
:103FE000A7FC00BF80BD00BF944A002080B586B00A
:103FF00000AF7860144A154BD31A7B617B693B6133
:10400000134B1B68002B02D1114B124A1A60104B44
:104010001A687B6813443A699A4207D207F0F8FAA3
:1040200003460C221A604FF0FF3309E0084B1B686F
:10403000FB60074B1A687B681344054A1360FB68F2
:1040400018461837BD4680BD00000220000400005D
:10405000DC0000206051002080B400AF064BD3F894
:104060008830054A43F47003C2F8883000BFBD466B
:104070005DF8047B704700BF00ED00E0DFF834D04E
:104080000D480E490E4A002302E0D458C4500433B0
:10409000C4188C42F9D30B4A0B4C002301E0136087
:1040A0000432A242FBD3FFF7D7FF07F0B7FAFEF7BF
:1040B00065F9704700000220000000207800002011
:1040C00000E400087800002060510020FEE70000B6
:1040D00080B500AF0E4B1B680D4A43F400731360AC
:1040E0000B4B1B680A4A43F480631360084B1B6840
:1040F000074A43F480731360032000F091FC0F2003
:1041000000F008F8FFF77CFC0023184680BD00BFD4
:10411000003C024080B582B000AF7860124B1A6854
:10412000124B1B7819464FF47A73B3FBF1F3B2FBD1
:10413000F3F3184600F0A9FC0346002B01D001233D
:104140000EE07B680F2B0AD8002279684FF0FF3011
:1041500000F071FC064A7B681360002300E0012335
:1041600018460837BD4680BD00000020080000202A
:104170000400002080B400AF064B1B781A46064BA3
:104180001B681344044A136000BFBD465DF8047BFE
:10419000704700BF080000200C4D002080B400AF25
:1041A000034B1B681846BD465DF8047B704700BF93
:1041B0000C4D002080B584B000AF7860FFF7EEFFB3
:1041C000B8607B68FB60FB68B3F1FF3F05D00A4B2A
:1041D0001B781A46FB681344FB6000BFFFF7DEFF45
:1041E0000246BB68D31AFA689A42F7D800BF00BFEC
:1041F0001037BD4680BD00BF0800002080B584B0E8
:1042000000AF78600023FB737B68002B01D1012392
:1042100033E07B681B6C002B09D17868FFF71CFC2E
:104220007B6800225A647B68002283F83C207B680C
:104230001B6C03F01003002B18D17B681B6C23F45C
:10424000885323F0020343F002027B681A64786803
:1042500000F01AFA7B6800225A647B681B6C23F01A
:10426000030343F001027B681A6401E00123FB733E
:104270007B68002283F83C20FB7B18461037BD4644
:1042800080BD000080B485B000AF78600023BB60C3
:104290007B6893F83C30012B01D10223B2E07B68AC
:1042A000012283F83C207B681B689B6803F00103B4
:1042B000012B18D07B681B689A687B681B6842F0EA
:1042C00001029A60524B1B68524AA2FB03239A0CCC
:1042D00013465B001344BB6002E0BB68013BBB605C
:1042E000BB68002BF9D17B681B689B6803F0010356
:1042F000012B7AD17B681B6C23F4E06323F001036C
:1043000043F480727B681A647B681B685B6803F403
:104310008063002B07D07B681B6C23F4405343F46D
:1043200080527B681A647B681B6C03F48053B3F57E
:10433000805F06D17B685B6C23F006027B685A6461
:1043400002E07B6800225A647B68002283F83C20EC
:10435000314BFB607B681B686FF022021A60FB68C0
:104360005B6803F01F03002B2AD17B681B682B4A74
:10437000934215D07B681B68294A934205D1264B8E
:104380005B6803F01F03002B0AD07B681B68254A7B
:10439000934236D1204B5B6803F01003002B30D1E1
:1043A0007B681B689B6803F04053002B29D17B6816
:1043B0001B689A687B681B6842F080429A6020E024
:1043C0007B681B68154A93421BD17B681B689B68FE
:1043D00003F04053002B14D17B681B689A687B68FC
:1043E0001B6842F080429A600BE07B681B6C43F0D4
:1043F00010027B681A647B685B6C43F001027B6887
:104400005A64002318461437BD465DF8047B704794
:104410000000002083DE1B430023014000200140F8
:10442000002101400022014080B483B000AF7860D9
:104430007B681B68DB6C18460C37BD465DF8047B57
:104440007047000080B485B000AF78603960002309
:10445000BB607B6893F83C30012B01D1022305E15E
:104460007B68012283F83C203B681B68092B25D917
:104470007B681B68D9683B681B689BB21A46134669
:104480005B0013441E3B072202FA03F3DA437B6806
:104490001B680A40DA607B681B68D9683B689A68C9
:1044A0003B681B689BB2184603465B0003441E3BF7
:1044B0009A407B681B680A43DA6022E07B681B68CD
:1044C00019693B681B689BB21A4613465B0013448C
:1044D000072202FA03F3DA437B681B680A401A6179
:1044E0007B681B6819693B689A683B681B689BB2CC
:1044F000184603465B0003449A407B681B680A43E6
:104500001A613B685B68062B24D87B681B68596B73
:104510003B685A6813469B001344053B1F2202FA6E
:1045200003F3DA437B681B680A405A637B681B68A5
:10453000596B3B681B689BB218463B685A68134628
:104540009B001344053B00FA03F27B681B680A4397
:104550005A634CE03B685B680C2B24D87B681B6873
:10456000196B3B685A6813469B001344233B1F2278
:1045700002FA03F3DA437B681B680A401A637B681C
:104580001B68196B3B681B689BB218463B685A68EE
:1045900013469B001344233B00FA03F27B681B681D
:1045A0000A431A6323E07B681B68D96A3B685A6830
:1045B00013469B001344413B1F2202FA03F3DA43E4
:1045C0007B681B680A40DA627B681B68D96A3B68B3
:1045D0001B689BB218463B685A6813469B001344FD
:1045E000413B00FA03F27B681B680A43DA62224B04
:1045F000FB607B681B68214A934209D13B681B68BA
:10460000122B05D1FB685B6843F48002FB685A609B
:104610007B681B68194A934223D13B681B68102BA7
:1046200003D03B681B68112B1BD1FB685B6843F40C
:104630000002FB685A603B681B68102B11D1104BBD
:104640001B68104AA2FB03239A0C13469B001344D9
:104650005B00BB6002E0BB68013BBB60BB68002B3A
:10466000F9D17B68002283F83C20002318461437D8
:10467000BD465DF8047B70470023014000200140E7
:104680000000002083DE1B4380B485B000AF78605B
:10469000794BFB60FB685B6823F44032FB685A602F
:1046A000FB685A687B685B681A43FB685A607B68E2
:1046B0001B685A687B681B6822F480725A607B68AA
:1046C0001B6859687B681B691A027B681B680A4370
:1046D0005A607B681B685A687B681B6822F04072CE
:1046E0005A607B681B6859687B689A687B681B689E
:1046F0000A435A607B681B689A687B681B6822F4CF
:1047000000629A607B681B6899687B68DA687B68DE
:104710001B680A439A607B689B6A584A934222D07E
:104720007B681B689A687B681B6822F070629A60DD
:104730007B681B6899687B689A6A7B681B680A4378
:104740009A607B681B689A687B681B6822F04052FD
:104750009A607B681B6899687B68DA6A7B681B686B
:104760000A439A600FE07B681B689A687B681B6845
:1047700022F070629A607B681B689A687B681B688D
:1047800022F040529A607B681B689A687B681B68BD
:1047900022F002029A607B681B6899687B681B7E26
:1047A0005A007B681B680A439A607B6893F8203044
:1047B000002B1BD07B681B685A687B681B6842F41F
:1047C00000625A607B681B685A687B681B6822F429
:1047D00060425A607B681B6859687B685B6A013B72
:1047E0005A037B681B680A435A6007E07B681B68B2
:1047F0005A687B681B6822F400625A607B681B68F9
:10480000DA6A7B681B6822F47002DA627B681B68D4
:10481000D96A7B68DB69013B1A057B681B680A4320
:10482000DA627B681B689A687B681B6822F40072F6
:104830009A607B681B6899687B6893F830305A02ED
:104840007B681B680A439A607B681B689A687B6870
:104850001B6822F480629A607B681B6899687B6899
:104860005B699A027B681B680A439A6000BF143731
:10487000BD465DF8047B7047002301400100000F36
:1048800080B485B000AF78607B6803F00703FB60FD
:104890000C4BDB68BB60BA684FF6FF031340BB608C
:1048A000FB681A02BB68134343F0BF6343F4003351
:1048B000BB60044ABB68D36000BF1437BD465DF8D7
:1048C000047B704700ED00E080B400AF044BDB6870
:1048D0001B0A03F007031846BD465DF8047B7047CA
:1048E00000ED00E080B483B000AF0346FB7197F9A0
:1048F0000730002B0BDBFB7903F01F02074997F908
:1049000007305B09012000FA02F241F8232000BFC2
:104910000C37BD465DF8047B704700BF00E100E046
:1049200080B483B000AF03463960FB7197F907305C
:10493000002B0ADB3B68DAB20C4997F90730120109
:10494000D2B20B4483F800230AE03B68DAB208498C
:10495000FB7903F00F03043B1201D2B20B441A7629
:1049600000BF0C37BD465DF8047B704700E100E0F6
:1049700000ED00E080B489B000AFF860B9607A6003
:10498000FB6803F00703FB61FB69C3F10703042B1A
:1049900028BF0423BB61FB690433062B02D9FB69E2
:1049A000033B00E000237B614FF0FF32BB6902FA5A
:1049B00003F3DA43BB681A407B699A404FF0FF313A
:1049C0007B6901FA03F3D9437B680B401343184614
:1049D0002437BD465DF8047B7047000080B582B087
:1049E00000AF78607B68013BB3F1807F01D3012386
:1049F0000FE00A4A7B68013B53600F214FF0FF3004
:104A0000FFF78EFF054B00229A60044B07221A60C5
:104A1000002318460837BD4680BD00BF10E000E007
:104A200080B582B000AF78607868FFF729FF00BFDB
:104A30000837BD4680BD80B586B000AF0346B9607B
:104A40007A60FB7300237B61FFF73EFF78617A6831
:104A5000B9687869FFF78EFF024697F90F30114663
:104A60001846FFF75DFF00BF1837BD4680BD80B513
:104A700082B000AF0346FB7197F907301846FFF785
:104A800031FF00BF0837BD4680BD80B582B000AFA2
:104A900078607868FFF7A2FF034618460837BD46DE
:104AA00080BD80B584B000AF78607B689B6DFB6093
:104AB000FFF774FBB8607B6893F83530DBB2022BEC
:104AC00008D07B6880225A657B68002283F83420F6
:104AD000012352E07B681B681A687B681B6822F020
:104AE00016021A607B681B685A697B681B6822F093
:104AF00080025A617B681B6C002B03D17B689B6C26
:104B0000002B07D07B681B681A687B681B6822F043
:104B100008021A607B681B681A687B681B6822F0B1
:104B200001021A6013E0FFF739FB0246BB68D31A93
:104B3000052B0CD97B6820225A657B68032283F8F9
:104B400035207B68002283F83420032315E07B683E
:104B50001B681B6803F00103002BE4D17B68DB6D4D
:104B60003F229A40FB689A607B68012283F83520D7
:104B70007B68002283F83420002318461037BD4696
:104B800080BD80B483B000AF78607B6893F8353027
:104B9000DBB2022B04D07B6880225A6501230CE033
:104BA0007B68052283F835207B681B681A687B6860
:104BB0001B6822F001021A60002318460C37BD461C
:104BC0005DF8047B7047000080B489B000AF786066
:104BD000396000237B6100233B610023BB6100231C
:104BE000FB616BE10122FB6902FA03F37B613B6825
:104BF0001B687A6913403B613A697B699A4240F0CD
:104C00005A813B685B6803F00303012B05D03B68C6
:104C10005B6803F00303022B30D17B689B68BB61A8
:104C2000FB695B00032202FA03F3DB43BA6913401A
:104C3000BB613B68DA68FB695B0002FA03F3BA699F
:104C40001343BB617B68BA699A607B685B68BB6130
:104C50000122FB6902FA03F3DB43BA691340BB612B
:104C60003B685B681B0903F00102FB6902FA03F36E
:104C7000BA691343BB617B68BA695A603B685B6879
:104C800003F00303032B17D07B68DB68BB61FB6970
:104C90005B00032202FA03F3DB43BA691340BB61F2
:104CA0003B689A68FB695B0002FA03F3BA69134335
:104CB000BB617B68BA69DA603B685B6803F0030339
:104CC000022B23D1FB69DA087B68083253F82230C3
:104CD000BB61FB6903F007039B000F2202FA03F399
:104CE000DB43BA691340BB613B681A69FB6903F097
:104CF00007039B0002FA03F3BA691343BB61FB6924
:104D0000DA087B680832B96943F822107B681B68AF
:104D1000BB61FB695B00032202FA03F3DB43BA6960
:104D20001340BB613B685B6803F00302FB695B00F7
:104D300002FA03F3BA691343BB617B68BA691A606C
:104D40003B685B6803F44033002B00F0B480002321
:104D5000FB60604B5B6C5F4A43F4804353645D4B84
:104D60005B6C03F48043FB60FB685B4AFB699B0858
:104D7000023352F82330BB61FB6903F003039B004D
:104D80000F2202FA03F3DB43BA691340BB617B686D
:104D9000524A93422BD07B68514A934225D07B687C
:104DA000504A93421FD07B684F4A934219D07B6888
:104DB0004E4A934213D07B684D4A93420DD07B6894
:104DC0004C4A934207D07B684B4A934201D1072358
:104DD0000EE008230CE006230AE0052308E0042384
:104DE00006E0032304E0022302E0012300E00023A5
:104DF000FA6902F0030292009340BA691343BB615F
:104E00003549FB699B080233BA6941F823203B4BC3
:104E10001B68BB613B69DB43BA691340BB613B68FC
:104E20005B6803F48033002B03D0BA693B691343FA
:104E3000BB61324ABB691360304B5B68BB613B6945
:104E4000DB43BA691340BB613B685B6803F4003322
:104E5000002B03D0BA693B691343BB61274ABB6986
:104E60005360264B9B68BB613B69DB43BA691340C7
:104E7000BB613B685B6803F48013002B03D0BA6905
:104E80003B691343BB611D4ABB6993601B4BDB68E5
:104E9000BB613B69DB43BA691340BB613B685B683C
:104EA00003F40013002B03D0BA693B691343BB61C1
:104EB000124ABB69D360FB690133FB61FB690F2BAD
:104EC0007FF690AE00BF00BF2437BD465DF8047B7F
:104ED000704700BF00380240003801400000024027
:104EE0000004024000080240000C02400010024092
:104EF0000014024000180240001C0240003C014027
:104F000080B483B000AF78600B467B8013467B7023
:104F10007B78002B03D07A887B689A6103E07B88DA
:104F20001A047B689A6100BF0C37BD465DF8047BAC
:104F30007047000080B483B000AF064B01221A60B6
:104F4000054B1B687B607B6800BF0C37BD465DF876
:104F5000047B704720000E420070004080B483B094
:104F600000AF064B00221A60054B1B687B607B6814
:104F700000BF0C37BD465DF8047B704720000E4231
:104F80000070004080B586B000AF78607B68002B71
:104F900001D1012364E27B681B6803F00103002B4D
:104FA00075D0A34B9B6803F00C03042B0CD0A04BD3
:104FB0009B6803F00C03082B12D19D4B5B6803F434
:104FC0008003B3F5800F0BD1994B1B6803F40033BA
:104FD000002B5BD07B685B68002B57D101233FE23D
:104FE0007B685B68B3F5803F06D1914B1B68904AA4
:104FF00043F4803313601DE07B685B68B3F5A02F3A
:105000000CD18B4B1B688A4A43F480231360884B76
:105010001B68874A43F4803313600BE0844B1B68A2
:10502000834A23F480331360814B1B68804A23F446
:10503000802313607B685B68002B13D0FFF7AEF80A
:10504000386108E0FFF7AAF802463B69D31A642BDF
:1050500001D9032304E2764B1B6803F40033002BD1
:10506000F0D014E0FFF79AF8386108E0FFF796F8FF
:1050700002463B69D31A642B01D90323F0E16C4B40
:105080001B6803F40033002BF0D100E000BF7B6805
:105090001B6803F00203002B63D0654B9B6803F091
:1050A0000C03002B0BD0624B9B6803F00C03082B06
:1050B0001CD15F4B5B6803F48003002B16D15C4B63
:1050C0001B6803F00203002B05D07B68DB68012B13
:1050D00001D00123C4E1564B1B6823F0F8027B6822
:1050E0001B69DB00524913430B603AE07B68DB68C5
:1050F000002B20D04F4B01221A60FFF74FF8386188
:1051000008E0FFF74BF802463B69D31A022B01D99E
:105110000323A5E1464B1B6803F00203002BF0D0EC
:10512000434B1B6823F0F8027B681B69DB00404996
:1051300013430B6015E03F4B00221A60FFF72EF877
:10514000386108E0FFF72AF802463B69D31A022BC0
:1051500001D9032384E1364B1B6803F00203002BC3
:10516000F0D17B681B6803F00803002B30D07B680C
:105170005B69002B16D0304B01221A60FFF70EF846
:10518000386108E0FFF70AF802463B69D31A022BA0
:1051900001D9032364E1264B5B6F03F00203002B6C
:1051A000F0D015E0244B00221A60FEF7F7FF3861BB
:1051B00008E0FEF7F3FF02463B69D31A022B01D940
:1051C00003234DE11A4B5B6F03F00203002BF0D178
:1051D0007B681B6803F00403002B00F0A080002311
:1051E000FB75134B1B6C03F08053002B0FD1002376
:1051F000BB600F4B1B6C0E4A43F0805313640C4B87
:105200001B6C03F08053BB60BB680123FB750B4B29
:105210001B6803F48073002B21D1084B1B68074ADD
:1052200043F480731360FEF7B9FF386111E000BFEB
:105230000038024000004742800E474200700040A4
:10524000FEF7ACFF02463B69D31A022B01D90323B8
:1052500006E1854B1B6803F48073002BF0D07B685C
:105260009B68012B06D1814B1B6F804A43F00103E1
:1052700013671CE07B689B68052B0CD17B4B1B6F75
:105280007A4A43F004031367784B1B6F774A43F065
:10529000010313670BE0754B1B6F744A23F0010386
:1052A0001367724B1B6F714A23F0040313677B680B
:1052B0009B68002B15D0FEF771FF38610AE0FEF7FE
:1052C0006DFF02463B69D31A41F28832934201D9FD
:1052D0000323C5E0654B1B6F03F00203002BEED0E8
:1052E00014E0FEF75BFF38610AE0FEF757FF024665
:1052F0003B69D31A41F28832934201D90323AFE0CC
:105300005A4B1B6F03F00203002BEED1FB7D012BE8
:1053100005D1564B1B6C554A23F0805313647B68B0
:105320009B69002B00F09B80504B9B6803F00C03A3
:10533000082B5CD07B689B69022B41D14C4B00222F
:105340001A60FEF72BFF386108E0FEF727FF0246E0
:105350003B69D31A022B01D9032381E0434B1B681D
:1053600003F00073002BF0D17B68DA697B681B6A5D
:105370001A437B685B6A9B011A437B689B6A5B08E4
:10538000013B1B041A437B68DB6A1B063749134346
:105390004B60374B01221A60FEF700FF386108E0CE
:1053A000FEF7FCFE02463B69D31A022B01D9032308
:1053B00056E02E4B1B6803F00073002BF0D04EE03C
:1053C0002B4B00221A60FEF7E9FE386108E0FEF779
:1053D000E5FE02463B69D31A022B01D903233FE0C5
:1053E000224B1B6803F00073002BF0D137E07B6881
:1053F0009B69012B01D1012332E01C4B5B68FB60F0
:105400007B689B69012B28D0FB6803F480027B68D2
:10541000DB699A4221D1FB6803F03F027B681B6A7B
:105420009A421AD1FA6847F6C07313407A68526AF2
:105430009201934211D1FB6803F440327B689B6A6E
:105440005B08013B1B049A4207D1FB6803F07062C2
:105450007B68DB6A1B069A4201D0012300E000232F
:1054600018461837BD4680BD007000400038024025
:105470006000474280B584B000AF786039607B68D7
:10548000002B01D10123CCE0684B1B6803F007031C
:105490003A689A420CD9654B3A68D2B21A70634B9B
:1054A0001B6803F007033A689A4201D00123B8E071
:1054B0007B681B6803F00203002B20D07B681B680D
:1054C00003F00403002B05D0594B9B68584A43F462
:1054D000E05393607B681B6803F00803002B05D042
:1054E000534B9B68524A43F460439360504B9B6814
:1054F00023F0F0027B689B684D4913438B607B6807
:105500001B6803F00103002B44D07B685B68012B10
:1055100007D1474B1B6803F40033002B19D101233B
:105520007FE07B685B68022B03D07B685B68032BA2
:1055300007D13F4B1B6803F00073002B09D10123F7
:105540006FE03B4B1B6803F00203002B01D10123EA
:1055500067E0374B9B6823F003027B685B68344944
:1055600013438B60FEF71AFEF8600AE0FEF716FEA2
:105570000246FB68D31A41F28832934201D90323D1
:105580004FE02B4B9B6803F00C027B685B689B0031
:105590009A42EBD1254B1B6803F007033A689A4205
:1055A0000CD2224B3A68D2B21A70204B1B6803F01F
:1055B00007033A689A4201D0012332E07B681B68F6
:1055C00003F00403002B08D0194B9B6823F4E0522E
:1055D0007B68DB68164913438B607B681B6803F0AC
:1055E0000803002B09D0124B9B6823F460427B68B0
:1055F0001B69DB000E4913438B6000F021F8024663
:105600000B4B9B681B0903F00F030A49CB5C22FA82
:1056100003F3094A1360094B1B681846FEF77AFD2D
:10562000002318461037BD4680BD00BF003C024035
:1056300000380240DCD800080000002004000020F0
:10564000B0B584B000AF002179600021F96000217D
:1056500039600021B9605249896801F00C010829BC
:105660000DD0082900F29480002902D0042903D02B
:105670008EE04C4BBB608EE04B4BBB608BE04849EF
:10568000496801F03F0179604549496801F48001AA
:10569000002924D042494968890908464FF0000191
:1056A00040F2FF144FF0000500EA040201EA05038E
:1056B0003D4901FB03F0002101FB02F144183A4986
:1056C000A2FB0101631819467B681A464FF00003DC
:1056D000FBF7B2FA02460B461346FB604AE0304B3A
:1056E0005B689B091A464FF0000340F2FF104FF031
:1056F000000102EA000403EA0105204629464FF0B2
:1057000000024FF000034B0143EAD0634201104610
:105710001946001B61EB05014FF000024FF000033A
:105720008B0143EA90638201121A63EB01034FF08D
:1057300000004FF00001D90041EA5271D00002464A
:105740000B46121945EB03034FF000004FF0000128
:10575000990241EA9251900202460B4610461946C0
:105760007B681A464FF00003FBF766FA02460B46C9
:105770001346FB600A4B5B681B0C03F00303013309
:105780005B003B60FA683B68B2FBF3F3BB6002E08E
:10579000044BBB6000BFBB6818461037BD46B0BDA8
:1057A000003802400024F40040787D0180B400AF4E
:1057B000034B1B681846BD465DF8047B704700BF6D
:1057C0000000002080B500AFFFF7F0FF0246054B58
:1057D0009B689B0A03F007030349CB5C22FA03F39F
:1057E000184680BD00380240ECD8000880B500AFF4
:1057F000FFF7DCFF0246054B9B685B0B03F00703DA
:105800000349CB5C22FA03F3184680BD00380240FE
:10581000ECD8000880B586B000AF786000237B61CB
:1058200000233B617B681B6803F00103002B05D15B
:105830007B681B6803F00403002B35D0624B002209
:105840001A60FEF7ABFC786108E0FEF7A7FC0246A1
:105850007B69D31A022B01D90323B0E05B4B1B6891
:1058600003F00063002BF0D17B685B689A017B68D2
:105870009B681B0755491343C1F88430524B0122E2
:105880001A60FEF78BFC786108E0FEF787FC0246A1
:105890007B69D31A022B01D9032390E04B4B1B6881
:1058A00003F00063002BF0D07B681B6803F0020359
:1058B000002B00F083800023FB60444B1B6C434AA9
:1058C00043F080531364414B1B6C03F08053FB6027
:1058D000FB683F4B1B683E4A43F480731360FEF73E
:1058E0005DFC786108E0FEF759FC02467B69D31A3B
:1058F000022B01D9032362E0354B1B6803F480734C
:10590000002BF0D0314B1B6F03F440733B613B69BC
:10591000002B2FD07B68DB6803F440733A699A420E
:1059200028D02A4B1B6F23F440733B61294B012283
:105930001A60284B00221A60244A3B691367234BE4
:105940001B6F03F00103012B14D1FEF727FC7861D4
:105950000AE0FEF723FC02467B69D31A41F2883243
:10596000934201D903232AE0184B1B6F03F0020373
:10597000002BEED07B68DB6803F44073B3F5407F07
:105980000DD1124B9B6823F4F8127B68DB6823F07F
:10599000704323F440730D4913438B6005E00B4BB8
:1059A0009B680A4A23F4F8139360084B1A6F7B68CC
:1059B000DB68C3F30B03054913430B670023184649
:1059C0001837BD4680BD00BF68004742003802401E
:1059D00000700040400E474280B582B000AF786052
:1059E0007B68002B01D1012383E07B685B7FDBB206
:1059F000002B05D17B6800221A777868FEF7A0F8A3
:105A00007B6802225A777B681B68CA225A627B68CD
:105A10001B6853225A62786800F097F80346002BFF
:105A200008D07B681B68FF225A627B6804225A7781
:105A300001235EE07B681B689B687A68126823F428
:105A4000E00323F0400393607B681B6899687B68E0
:105A50005A687B681B691A437B685B691A437B68D9
:105A60001B680A439A607B681B687A68D2681A616F
:105A70007B681B6819697B689B681A047B681B68D4
:105A80000A431A617B681B68DA687B681B6822F02E
:105A90008002DA607B681B689B6803F02003002BA0
:105AA0000ED1786800F029F80346002B08D07B68F7
:105AB0001B68FF225A627B6804225A77012318E090
:105AC0007B681B681A6C7B681B6822F480221A644E
:105AD0007B681B68196C7B689A697B681B680A4342
