:020000040800F2
:1000000000000220C11A0008D5190008DB190008F9
:10001000E1190008E7190008ED19000800000000C8
:10002000000000000000000000000000C1640008A3
:10003000F31900080000000011670008011A000809
:10004000111B0008111B0008111B0008111B0008E0
:10005000111B0008111B0008111B0008111B0008D0
:10006000111B0008111B0008111B0008111B0008C0
:10007000111B0008111B0008111B0008111B0008B0
:10008000111B0008111B0008111B0008111B0008A0
:10009000111B0008111B0008111B0008111B000890
:1000A000111B0008111B0008111B0008111B000880
:1000B000111B0008111B00081D1A0008111B000865
:1000C000111B0008111B0008111B0008111B000860
:1000D000111B0008111B0008111B0008111B000850
:1000E000111B0008111B0008111B0008111B000840
:1000F000111B0008111B0008111B0008111B000830
:10010000111B0008111B0008111B0008111B00081F
:10011000111B0008111B0008111B0008111B00080F
:10012000111B0008111B0008111B0008111B0008FF
:10013000111B0008111B0008111B0008111B0008EF
:10014000111B0008111B0008111B0008111B0008DF
:10015000111B0008111B0008111B0008111B0008CF
:10016000111B0008111B0008111B0008111B0008BF
:10017000111B0008111B0008111B000800000000E3
:08018000111B0008111B00080F
:1001900010B5054C237833B9044B13B10448AFF3C1
:1001A00000800123237010BD7400002000000000B7
:1001B0009079000808B5034B1BB103490348AFF31E
:1001C000008008BD00000000780000209079000841
:1001D00001F0FF01102A2BDB10F0070F08D010F8F8
:1001E000013B013A8B422DD010F0070F42B3F6D1FC
:1001F000F0B441EA012141EA014122F007047FF015
:1002000000070023F0E80256083C85EA010586EA6B
:10021000010685FA47F5A3FA87F586FA47F6A5FAA7
:1002200087F68EB9EED1F0BC01F0FF0102F00702B3
:1002300032B110F8013B013A83EA010313B1F8D15E
:100240000020704701387047002D06BF354603383F
:10025000073815F0010F07D1013015F4807F02BF78
:10026000013015F4C03F0130F0BC0138704700BFC9
:1002700081F0004102E000BF83F0004330B54FEA57
:1002800041044FEA430594EA050F08BF90EA020FC4
:100290001FBF54EA000C55EA020C7FEA645C7FEA57
:1002A000655C00F0E2804FEA5454D4EB5555B8BF7A
:1002B0006D420CDD2C4480EA020281EA030382EAEB
:1002C000000083EA010180EA020281EA0303362D7D
:1002D00088BF30BD11F0004F4FEA01314FF4801C50
:1002E0004CEA113102D0404261EB410113F0004F62
:1002F0004FEA03334CEA133302D0524263EB430319
:1003000094EA050F00F0A780A4F10104D5F1200EB6
:100310000DDB02FA0EFC22FA05F2801841F1000111
:1003200003FA0EF2801843FA05F359410EE0A5F1E5
:1003300020050EF1200E012A03FA0EFC28BF4CF016
:10034000020C43FA05F3C01851EBE37101F00045CC
:1003500007D54FF0000EDCF1000C7EEB00006EEBD9
:100360000101B1F5801F1BD3B1F5001F0CD3490863
:100370005FEA30004FEA3C0C04F101044FEA4452BA
:1003800012F5800F80F09A80BCF1004F08BF5FEA41
:10039000500C50F1000041EB045141EA050130BD21
:1003A0005FEA4C0C404141EB0101013C28BFB1F533
:1003B000801FE9D291F0000F04BF01460020B1FA7E
:1003C00081F308BF2033A3F10B03B3F120020CDA51
:1003D0000C3208DD02F1140CC2F10C0201FA0CF02F
:1003E00021FA02F10CE002F11402D8BFC2F1200C94
:1003F00001FA02F120FA0CFCDCBF41EA0C0190404A
:10040000E41AA2BF01EB0451294330BD6FEA040492
:100410001F3C1CDA0C340EDC04F11404C4F120027D
:1004200020FA04F001FA02F340EA030021FA04F38F
:1004300045EA030130BDC4F10C04C4F1200220FAE6
:1004400002F001FA04F340EA0300294630BD21FA24
:1004500004F0294630BD94F0000F83F4801306BFEA
:1004600081F480110134013D4EE77FEA645C18BFDE
:100470007FEA655C29D094EA050F08BF90EA020F75
:1004800005D054EA000C04BF1946104630BD91EA6D
:10049000030F1EBF0021002030BD5FEA545C05D170
:1004A0004000494128BF41F0004130BD14F58004AF
:1004B0003CBF01F5801130BD01F0004545F0FE4123
:1004C00041F470014FF0000030BD7FEA645C1ABF58
:1004D000194610467FEA655C1CBF0B46024650EA8F
:1004E000013406BF52EA033591EA030F41F40021BB
:1004F00030BD00BF90F0000F04BF0021704730B541
:100500004FF4806404F132044FF000054FF0000115
:1005100050E700BF90F0000F04BF0021704730B5D6
:100520004FF4806404F1320410F0004548BF4042AB
:100530004FF000013EE700BF42004FEAE2014FEA00
:1005400031014FEA02701FBF12F07F4393F07F4FDB
:1005500081F06051704732F07F4208BF704793F0DE
:100560007F4F04BF41F40021704730B54FF46074F1
:1005700001F0004521F000411CE700BF50EA0102F4
:1005800008BF704730B54FF000050AE050EA01029D
:1005900008BF704730B511F0004502D5404261EB0D
:1005A00041014FF4806404F132045FEA915C3FF44E
:1005B000D8AE4FF003025FEADC0C18BF03325FEAEB
:1005C000DC0C18BF033202EBDC02C2F1200300FA9C
:1005D00003FC20FA02F001FA03FE40EA0E0021FAC1
:1005E00002F11444BDE600BF70B54FF0FF0C4CF4AF
:1005F000E06C1CEA11541DBF1CEA135594EA0C0F61
:1006000095EA0C0F00F0DEF82C4481EA030621EA9B
:100610004C5123EA4C5350EA013518BF52EA0335D6
:1006200041F4801143F4801338D0A0FB02CE4FF088
:100630000005E1FB02E506F00042E0FB03E54FF0B8
:100640000006E1FB03569CF0000F18BF4EF0010EB0
:10065000A4F1FF04B6F5007F64F5407404D25FEAAC
:100660004E0E6D4146EB060642EAC62141EA55515F
:100670004FEAC52040EA5E504FEACE2EB4F1FD0CA1
:1006800088BFBCF5E06F1ED8BEF1004F08BF5FEA1F
:10069000500E50F1000041EB045170BD06F00046D1
:1006A00046EA010140EA020081EA0301B4EB5C047E
:1006B000C2BFD4EB0C0541EA045170BD41F4801176
:1006C0004FF0000E013C00F3AB8014F1360FDEBF9B
:1006D000002001F0004170BDC4F10004203C35DA77
:1006E0000C341BDC04F11404C4F1200500FA05F3FA
:1006F00020FA04F001FA05F240EA020001F000429B
:1007000021F0004110EBD37021FA04F642EB060110
:100710005EEA430E08BF20EAD37070BDC4F10C043A
:10072000C4F1200500FA04F320FA05F001FA04F2FE
:1007300040EA020001F0004110EBD37041F10001EA
:100740005EEA430E08BF20EAD37070BDC4F12005F5
:1007500000FA05F24EEA020E20FA04F301FA05F25D
:1007600043EA020321FA04F001F0004121FA04F205
:1007700020EA020000EBD3705EEA430E08BF20EAD5
:10078000D37070BD94F0000F0FD101F0004640000F
:1007900041EB010111F4801F08BF013CF7D041EA91
:1007A000060195F0000F18BF704703F00046520095
:1007B00043EB030313F4801F08BF013DF7D043EA66
:1007C0000603704794EA0C0F0CEA135518BF95EA1C
:1007D0000C0F0CD050EA410618BF52EA4306D1D1A3
:1007E00081EA030101F000414FF0000070BD50EAC2
:1007F000410606BF1046194652EA430619D094EA4C
:100800000C0F02D150EA013613D195EA0C0F05D135
:1008100052EA03361CBF104619460AD181EA030189
:1008200001F0004141F0FE4141F470014FF0000041
:1008300070BD41F0FE4141F4780170BD70B54FF0DC
:10084000FF0C4CF4E06C1CEA11541DBF1CEA13555C
:1008500094EA0C0F95EA0C0F00F0A7F8A4EB05043E
:1008600081EA030E52EA03354FEA013100F0888035
:100870004FEA03334FF0805545EA131343EA1263FE
:100880004FEA022245EA111545EA10654FEA0026B3
:100890000EF000419D4208BF964244F1FD0404F56C
:1008A000407402D25B084FEA3202B61A65EB0305C8
:1008B0005B084FEA32024FF480104FF4002CB6EB85
:1008C000020E75EB030E22BFB61A754640EA0C0005
:1008D0005B084FEA3202B6EB020E75EB030E22BF45
:1008E000B61A754640EA5C005B084FEA3202B6EB86
:1008F000020E75EB030E22BFB61A754640EA9C0045
:100900005B084FEA3202B6EB020E75EB030E22BF14
:10091000B61A754640EADC0055EA060E18D04FEAD2
:10092000051545EA16754FEA06164FEAC30343EA72
:1009300052734FEAC2025FEA1C1CC0D111F4801F3F
:100940000BD141EA00014FF000004FF0004CB6E738
:1009500011F4801F04BF01430020B4F1FD0C88BFD7
:10096000BCF5E06F3FF6AFAEB5EB030C04BFB6EBE2
:10097000020C5FEA500C50F1000041EB045170BDD5
:100980000EF0004E4EEA113114EB5C04C2BFD4EB02
:100990000C0541EA045170BD41F480114FF0000E86
:1009A000013C90E645EA060E8DE60CEA135594EA02
:1009B0000C0F08BF95EA0C0F3FF43BAF94EA0C0F05
:1009C0000AD150EA01347FF434AF95EA0C0F7FF47A
:1009D00025AF104619462CE795EA0C0F06D152EACE
:1009E00003353FF4FDAE1046194622E750EA4106B2
:1009F00018BF52EA43067FF4C5AE50EA41047FF4C3
:100A00000DAF52EA43057FF4EBAE12E74A0011D274
:100A100012F5001211D20DD56FF47873B3EB625258
:100A20000ED44FEAC12343F0004343EA505323FA64
:100A300002F070474FF00000704750EA013002D1D9
:100A40004FF0FF3070474FF00000704753B94AB97C
:100A5000002908BF00281CBF4FF0FF314FF0FF30C6
:100A600000F06EB9ADF1080C6DE904CE00F006F8A7
:100A7000DDF804E0DDE9022304B070472DE9F0471A
:100A8000089D04468C46002B40F083808A4217461E
:100A900047D9B2FA82F242B1C2F1200024FA00F042
:100AA0009140974040EA010C94404FEA1748230CCC
:100AB000BCFBF8F61FFA87FE08FB16C143EA0143A8
:100AC00006FB0EF1994209D9FB1806F1FF3080F0C0
:100AD0001981994240F21681023E3B445B1AA4B24E
:100AE000B3FBF8F008FB103344EA034400FB0EFEAE
:100AF000A64509D93C1900F1FF3380F00581A645D0
:100B000040F2028102383C4440EA0640A4EB0E0465
:100B100000261DB1D4400023C5E900433146BDE89D
:100B2000F08702B9FFDEB2FA82F2002A50D1CB1B65
:100B30004FEA174E1FFA87F80126B3FBFEFC210C83
:100B40000EFB1C3341EA034108FB0CF38B4207D92F
:100B500079180CF1FF3002D28B4200F2E980844612
:100B6000C91AA3B2B1FBFEF00EFB101143EA014417
:100B700008FB00F8A04507D93C1900F1FF3302D269
:100B8000A04500F2D9801846A4EB080440EA0C40C6
:100B9000BFE78B4209D9002D00F0B1800026C5E9DE
:100BA000000130463146BDE8F087B3FA83F6002EE7
:100BB0004AD18B4202D3824200F2B880841A61EBA0
:100BC000030101208C46002DA8D0C5E9004CA5E703
:100BD000C2F1200320FA03F6974001FA02F04FEA2F
:100BE000174ED9403043030CB1FBFEF61FFA87F8CD
:100BF0000EFB161143EA014306FB08F1994204FA81
:100C000002F409D9FB1806F1FF3C80F08D8099426F
:100C100040F28A80023E3B445B1A81B2B3FBFEF095
:100C20000EFB103341EA034100FB08F38B4207D966
:100C3000791800F1FF3C73D28B4271D902383944E4
:100C4000CB1A40EA064678E7C6F1200C03FA06F410
:100C500022FA0CF31C4320FA0CF701FA06F34FEAD0
:100C6000144E21FA0CF11F433B0CB1FBFEF91FFAA5
:100C700084F80EFB191143EA014109FB08FA8A4581
:100C800002FA06F200FA06F308D9611809F1FF30FA
:100C900048D28A4546D9A9F102092144A1EB0A01AB
:100CA000BFB2B1FBFEF00EFB101147EA014700FB9B
:100CB00008F8B84507D9E71900F1FF312ED2B84539
:100CC0002CD90238274440EA0940A7EB0807A0FBCB
:100CD00002894F45C64649461AD317D05DB1B3EBDA
:100CE0000E0267EB010707FA0CFCF2404CEA020225
:100CF000F740C5E9002700263146BDE8F0872E46BB
:100D000028460BE70646E9E61846FDE64345E5D2E8
:100D1000B8EB020E69EB04010138DFE70846D2E7C1
:100D200060468DE78146B9E7664675E730464AE793
:100D3000ACF1020C394413E702383C4424E700BF0D
:100D4000704700BF80B483B000AF0346FB80094BFF
:100D50001B6800225A6200BF064B1B685A6AFB8858
:100D60009A42F9D300BF00BF0C37BD465DF8047B43
:100D7000704700BF0C4A002080B582B000AF786099
:100D80007B681B7F012B40F08380454B1B68002B49
:100D90001AD10021786802F05BFC0346414A1360D7
:100DA0003F4B01221A607B681B681A6A7B681B68CC
:100DB00022F00A021A627B681B681A6A7B681B6849
:100DC00042F002021A6263E0354B1B68012B5FD1CF
:100DD0000021786802F03CFC0346334A13607B68CC
:100DE0001B6800225A62304B1A682E4B1B689A42CD
:100DF00007D92D4B1A682B4B1B68D31A2B4A13604B
:100E00000FE0284B1A68284B1B689A4209D9264BD9
:100E10001A68244B1B68D31A03F57F43FF33234A18
:100E20001360224B1B681846FFF764FB1AA3D3E933
:100E30000023FFF7D9FB02460B46104619464FF038
:100E400000024FF08043FFF7F9FC02460B461046C4
:100E50001946FFF7DBFD03469AB2154B1A80104B7B
:100E600000221A607B681B681A6A7B681B6822F084
:100E70000A021A627B681A687B681B68126A1A6227
:100E80000C4B1B68DA680B4B1B6822F00202DA601D
:100E900000BF0837BD4680BD9CC420B07268A13F2A
:100EA0009C0000209000002094000020980000206A
:100EB000A00000200C4A002080B500AF01224FF4B2
:100EC00000510C4801F06AF90A20FFF73BFF0022AD
:100ED0004FF40051074801F061F9074B1B68DA68CD
:100EE000054B1B6842F00202DA60044B1B8818466F
:100EF00080BD00BF000C02400C4A0020A000002072
:100F000080B500AF00F006FE00F036F800F0BAFA47
:100F100000F02CFA00F02EF900F08CF800F07EF9C9
:100F200000F0D0F906F048F800210C4801F094FEDA
:100F300003F04AF90A4A00210A4803F08FF90346F0
:100F4000094A1360094A0021094803F087F903465A
:100F5000084A136003F05CF9FEE700BF0C4A00206A
:100F6000087A0008B9150008584A00202C7A0008B1
:100F7000351600085C4A002080B594B000AF07F138
:100F8000200330220021184606F0DAF807F10C039E
:100F900000221A605A609A60DA601A610023BB600E
:100FA000224B1B6C214A43F0805313641F4B1B6C74
:100FB00003F08053BB60BB6800237B601C4B1B6845
:100FC0001B4A43F480431360194B1B6803F48043AE
:100FD0007B607B6802233B620123FB6210233B633F
:100FE0000023BB6307F12003184601F033F90346E1
:100FF000002B01D000F02EFB0F23FB6000233B6190
:1010000000237B610023BB610023FB6107F10C031C
:101010000021184601F096FB0346002B01D000F09A
:1010200019FB00BF5037BD4680BD00BF00380240ED
:101030000070004080B596B000AF07F14803002271
:101040001A605A609A60DA6007F1400300221A6061
:101050005A6007F1240300221A605A609A60DA602D
:101060001A615A619A613B1D20220021184606F040
:1010700067F83E4B3E4A1A603C4B4FF4A0725A60F0
:101080003A4B00229A60394B4FF47A72DA60374B50
:1010900000221A61354B00225A61344B80229A613A
:1010A000324801F0EBFC0346002B01D000F0D2FAED
:1010B0004FF48053BB6407F1480319462B4802F0F4
:1010C000FFF90346002B01D000F0C4FA274801F0D5
:1010D00024FD0346002B01D000F0BCFA00233B6442
:1010E00000237B6407F140031946204802F056FFB5
:1010F0000346002B01D000F0ADFA60237B62002391
:10110000BB620023FB6200237B630023BB630023DD
:10111000FB6307F124030C221946144802F00EF970
:101120000346002B01D000F095FA00237B600023DA
:10113000BB600023FB6000233B6100237B614FF415
:101140000053BB6100233B623B1D1946074802F078
:10115000A1FF0346002B01D000F07CFA034800F009
:10116000FFFB00BF5837BD4680BD00BFC04A00200E
:101170000000014080B58CB000AF07F10C032422C1
:101180000021184605F0DCFF3B1D00221A605A6062
:10119000214B4FF080421A601F4B00225A601E4BB9
:1011A00000229A601C4B4FF6FF72DA601A4B002245
:1011B0001A61194B00229A610323FB6000233B61F3
:1011C00001237B610023BB610A23FB6100233B6297
:1011D00001237B620023BB620A23FB6207F10C033D
:1011E00019460D4801F060FE0346002B01D000F0C7
:1011F00031FA00237B600023BB603B1D1946064883
:1012000002F0CCFE0346002B01D000F023FA00BF11
:101210003037BD4680BD00BF0C4B002080B58CB080
:1012200000AF07F10C0324220021184605F088FFC7
:101230003B1D00221A605A60204B214A1A601F4B46
:1012400000225A601D4B00229A601C4B4FF6FF7221
:10125000DA601A4B00221A61184B00229A610323AC
:10126000FB6000233B6101237B610023BB610A23F8
:10127000FB6100233B6201237B620023BB620A23E4
:10128000FB6207F10C0319460C4801F00DFE034602
:10129000002B01D000F0DEF900237B600023BB604F
:1012A0003B1D1946054802F079FE0346002B01D08C
:1012B00000F0D0F900BF3037BD4680BD784A00202D
:1012C0000004004080B586B000AF07F11003002293
:1012D0001A605A603B4600221A605A609A60DA60CF
:1012E000204B214A1A601F4B0F225A601D4B0022CF
:1012F0009A601C4B4FF6FE72DA601A4B00221A619C
:10130000184B00229A61174801F056FC0346002B47
:1013100001D000F09FF900233B6100237B6107F1BE
:10132000100319460F4802F039FE0346002B01D086
:1013300000F090F900233B6001237B600023BB6039
:101340000023FB603B4600221946064801F05AFF85
:101350000346002B01D000F07DF900BF1837BD46D1
:1013600080BD00BF0C4A00200008004080B592B04C
:1013700000AF07F1400300221A605A6007F124030E
:1013800000221A605A609A60DA601A615A619A61A2
:101390003B1D20220021184605F0D2FE374B384A6B
:1013A0001A60364B00225A60344B00229A60334B4D
:1013B00041F61F42DA60314B00221A612F4B0022A6
:1013C0005A612E4B00229A612C4801F0A6FB03467D
:1013D000002B01D000F03EF900233B6400237B6426
:1013E00007F140031946254802F0D8FD0346002BBB
:1013F00001D000F02FF960237B620023BB62002341
:10140000FB6200233B6300237B630023BB63002359
:10141000FB6307F1240300221946184801F08EFFF0
:101420000346002B01D000F015F907F12403042234
:101430001946124801F082FF0346002B01D000F04C
:1014400009F900237B600023BB600023FB600023BD
:101450003B6100237B614FF40053BB6100233B627F
:101460003B1D1946054802F015FE0346002B01D02E
:1014700000F0F0F800BF4837BD4680BDC4490020E9
:101480000004014080B58AB000AF07F114030022C8
:101490001A605A609A60DA601A6100233B61424B1D
:1014A0001B6B414A43F0100313633F4B1B6B03F06C
:1014B00010033B613B690023FB603B4B1B6B3A4ACB
:1014C00043F001031363384B1B6B03F00103FB6014
:1014D000FB680023BB60344B1B6B334A43F00803AB
:1014E0001363314B1B6B03F00803BB60BB68002325
:1014F0007B602D4B1B6B2C4A43F0040313632A4B78
:101500001B6B03F004037B607B6800233B60264B6E
:101510001B6B254A43F002031363234B1B6B03F041
:1015200002033B603B6800224FF4BC611F4800F09F
:1015300035FE00223C211E4800F030FE00224FF410
:1015400000511C4800F02AFE4FF4BC637B6101236C
:10155000BB610023FB6100233B6207F114031946C2
:10156000124800F07FFC3C237B610123BB61002318
:10157000FB6102233B6207F1140319460C4800F09B
:1015800071FC4FF400537B610123BB610023FB61BD
:1015900000233B6207F114031946064800F062FC81
:1015A00000BF2837BD4680BD003802400010024011
:1015B00000000240000C024080B58CB000AF7860A3
:1015C000194A07F11C0392E8030083E8030007F1BE
:1015D000240300221A605A609A6007F11C031A461D
:1015E0000A210A2005F0B6FCFFF766FC03461A46FE
:1015F0000E4B1A80C82000F0FFFA0C4B1B881A46CD
:1016000007F108030A49184605F0A2FD07F108038F
:101610001A4614210A2005F09DFC05F027FB4FF423
:101620007A7002F0ADFED8E7DC790008A200002055
:10163000D079000880B582B000AF78604FF4806147
:10164000034800F0C4FD4FF4FA6002F099FEF5E79C
:101650000010024080B400AF72B600BFFEE7000089
:1016600080B582B000AF00237B60124B5B6C114AE7
:1016700043F4804353640F4B5B6C03F480437B6003
:101680007B6800233B600B4B1B6C0A4A43F0805382
:101690001364084B1B6C03F080533B603B680022D3
:1016A0000F216FF0010000F0A6FB00BF0837BD4618
:1016B00080BD00BF0038024080B485B000AF7860C4
:1016C0007B681B680B4A93420DD10023FB600A4BD9
:1016D0005B6C094A43F001035364074B5B6C03F0F6
:1016E0000103FB60FB6800BF1437BD465DF8047B57
:1016F000704700BF000001400038024080B58CB048
:1017000000AF786007F11C0300221A605A609A60EB
:10171000DA601A617B681B68B3F1804F4BD10023FC
:10172000BB613F4B1B6C3E4A43F0010313643C4BCF
:101730001B6C03F00103BB61BB6900237B61384B69
:101740001B6B374A43F001031363354B1B6B03F0EC
:1017500001037B617B6900233B61314B1B6B304A8A
:1017600043F0020313632E4B1B6B03F002033B6138
:101770003B694FF40043FB6102233B6200237B6221
:101780000023BB620123FB6207F11C0319462548B5
:1017900000F068FB0823FB6102233B6200237B62AD
:1017A0000023BB620123FB6207F11C0319461E489C
:1017B00000F058FB30E07B681B681C4A93422BD139
:1017C0000023FB60164B1B6C154A43F002031364A5
:1017D000134B1B6C03F00203FB60FB680023BB6030
:1017E0000F4B1B6B0E4A43F0010313630C4B1B6B37
:1017F00003F00103BB60BB68C023FB6102233B62B3
:1018000000237B620023BB620223FB6207F11C03FF
:101810001946044800F026FB00BF3037BD4680BDA6
:101820000038024000000240000402400004004072
:1018300080B58AB000AF786007F1140300221A6007
:101840005A609A60DA601A617B681B681D4A93428D
:1018500034D100233B611C4B1B6C1B4A43F0040337
:101860001364194B1B6C03F004033B613B690023B9
:10187000FB60154B1B6B144A43F008031363124BB8
:101880001B6B03F00803FB60FB684FF480537B6124
:101890000223BB610023FB6100233B6202237B62C6
:1018A00007F114031946094800F0DCFA002205216B
:1018B0001E2000F0A0FA1E2000F0B9FA00BF283761
:1018C000BD4680BD0008004000380240000C0240C8
:1018D00080B58AB000AF786007F1140300221A6067
:1018E0005A609A60DA601A617B681B68194A9342F1
:1018F0002BD100233B61184B5B6C174A43F002036A
:101900005364154B5B6C03F002033B613B6900239E
:10191000FB60114B1B6B104A43F0040313630E4B27
:101920001B6B03F00403FB60FB68C0237B61022395
:10193000BB610023FB6100233B6203237B6207F151
:1019400014031946054800F08DFA00BF2837BD463C
:1019500080BD00BF00040140003802400008024082
:1019600080B588B000AF786007F10C0300221A60E0
:101970005A609A60DA601A617B681B68124A934267
:101980001ED10023BB60114B1B6B104A43F01003A8
:1019900013630E4B1B6B03F01003BB60BB684FF46B
:1019A0008043FB6002233B6100237B610023BB611A
:1019B0000123FB6107F10C031946054800F052FAB8
:1019C00000BF2037BD4680BD000001400038024006
:1019D0000010024080B400AFFEE780B400AFFEE725
:1019E00080B400AFFEE780B400AFFEE780B400AF84
:1019F000FEE780B400AF00BFBD465DF8047B7047D2
:101A000080B500AF00F0D8F804F0C8F80346012B09
:101A100001D004F0B1FE00BF80BD000080B500AF72
:101A2000024801F0E7FA00BF80BD00BF0C4A002069
:101A300080B586B000AF7860144A154BD31A7B612D
:101A40007B693B61134B1B68002B02D1114B124A7F
:101A50001A60104B1A687B6813443A699A4207D29D
:101A600005F036FB03460C221A604FF0FF3309E005
:101A7000084B1B68FB60074B1A687B681344054AD8
:101A80001360FB6818461837BD4680BD0000022071
:101A900000040000A4000020A84F002080B400AF84
:101AA000064BD3F88830054A43F47003C2F88830F7
:101AB00000BFBD465DF8047B704700BF00ED00E04D
:101AC000DFF834D00D480E490E4A002302E0D45806
:101AD000C4500433C4188C42F9D30B4A0B4C002376
:101AE00001E013600432A242FBD3FFF7D7FF05F0F9
:101AF000F5FAFFF705FA7047000002200000002009
:101B0000740000200885000874000020A84F002001
:101B1000FEE7000080B500AF0E4B1B680D4A43F492
:101B2000007313600B4B1B680A4A43F48063136015
:101B3000084B1B68074A43F480731360032000F0CE
:101B40004FF90F2000F008F8FFF78AFD0023184630
:101B500080BD00BF003C024080B582B000AF78601D
:101B6000124B1A68124B1B7819464FF47A73B3FB69
:101B7000F1F3B2FBF3F3184600F067F90346002BCC
:101B800001D001230EE07B680F2B0AD80022796870
:101B90004FF0FF3000F02FF9064A7B6813600023F6
:101BA00000E0012318460837BD4680BD0000002034
:101BB000080000200400002080B400AF064B1B7812
:101BC0001A46064B1B681344044A136000BFBD4607
:101BD0005DF8047B704700BF08000020544B0020D4
:101BE00080B400AF034B1B681846BD465DF8047B0C
:101BF000704700BF544B002080B584B000AF7860C0
:101C0000FFF7EEFFB8607B68FB60FB68B3F1FF3F56
:101C100005D00A4B1B781A46FB681344FB6000BFD3
:101C2000FFF7DEFF0246BB68D31AFA689A42F7D87C
:101C300000BF00BF1037BD4680BD00BF08000020B8
:101C400080B485B000AF78607B6803F00703FB6069
:101C50000C4BDB68BB60BA684FF6FF031340BB60F8
:101C6000FB681A02BB68134343F0BF6343F40033BD
:101C7000BB60044ABB68D36000BF1437BD465DF843
:101C8000047B704700ED00E080B400AF044BDB68DC
:101C90001B0A03F007031846BD465DF8047B704736
:101CA00000ED00E080B483B000AF0346FB7197F90C
:101CB0000730002B0BDBFB7903F01F02074997F974
:101CC00007305B09012000FA02F241F8232000BF2F
:101CD0000C37BD465DF8047B704700BF00E100E0B3
:101CE00080B483B000AF03463960FB7197F90730C9
:101CF000002B0ADB3B68DAB20C4997F90730120176
:101D0000D2B20B4483F800230AE03B68DAB20849F8
:101D1000FB7903F00F03043B1201D2B20B441A7695
:101D200000BF0C37BD465DF8047B704700E100E062
:101D300000ED00E080B489B000AFF860B9607A606F
:101D4000FB6803F00703FB61FB69C3F10703042B86
:101D500028BF0423BB61FB690433062B02D9FB694E
:101D6000033B00E000237B614FF0FF32BB6902FAC6
:101D700003F3DA43BB681A407B699A404FF0FF31A6
:101D80007B6901FA03F3D9437B680B401343184680
:101D90002437BD465DF8047B7047000080B582B0F3
:101DA00000AF78607B68013BB3F1807F01D30123F2
:101DB0000FE00A4A7B68013B53600F214FF0FF3070
:101DC000FFF78EFF054B00229A60044B07221A6032
:101DD000002318460837BD4680BD00BF10E000E074
:101DE00080B582B000AF78607868FFF729FF00BF48
:101DF0000837BD4680BD80B586B000AF0346B960E8
:101E00007A60FB7300237B61FFF73EFF78617A689D
:101E1000B9687869FFF78EFF024697F90F301146CF
:101E20001846FFF75DFF00BF1837BD4680BD80B57F
:101E300082B000AF0346FB7197F907301846FFF7F1
:101E400031FF00BF0837BD4680BD80B582B000AF0E
:101E500078607868FFF7A2FF034618460837BD464A
:101E600080BD000080B489B000AF78603960002385
:101E70007B6100233B610023BB610023FB616BE1BD
:101E80000122FB6902FA03F37B613B681B687A69F4
:101E900013403B613A697B699A4240F05A813B6842
:101EA0005B6803F00303012B05D03B685B6803F01C
:101EB0000303022B30D17B689B68BB61FB695B002D
:101EC000032202FA03F3DB43BA691340BB613B68A8
:101ED000DA68FB695B0002FA03F3BA691343BB617A
:101EE0007B68BA699A607B685B68BB610122FB69A9
:101EF00002FA03F3DB43BA691340BB613B685B68DA
:101F00001B0903F00102FB6902FA03F3BA691343E8
:101F1000BB617B68BA695A603B685B6803F0030386
:101F2000032B17D07B68DB68BB61FB695B00032276
:101F300002FA03F3DB43BA691340BB613B689A685A
:101F4000FB695B0002FA03F3BA691343BB617B6868
:101F5000BA69DA603B685B6803F00303022B23D1A4
:101F6000FB69DA087B68083253F82230BB61FB69F1
:101F700003F007039B000F2202FA03F3DB43BA6965
:101F80001340BB613B681A69FB6903F007039B00C0
:101F900002FA03F3BA691343BB61FB69DA087B6891
:101FA0000832B96943F822107B681B68BB61FB6982
:101FB0005B00032202FA03F3DB43BA691340BB61FF
:101FC0003B685B6803F00302FB695B0002FA03F302
:101FD000BA691343BB617B68BA691A603B685B6886
:101FE00003F44033002B00F0B4800023FB60604B0F
:101FF0005B6C5F4A43F4804353645D4B5B6C03F45A
:102000008043FB60FB685B4AFB699B08023352F824
:102010002330BB61FB6903F003039B000F2202FA2C
:1020200003F3DB43BA691340BB617B68524A9342B6
:102030002BD07B68514A934225D07B68504A93420B
:102040001FD07B684F4A934219D07B684E4A934217
:1020500013D07B684D4A93420DD07B684C4A934223
:1020600007D07B684B4A934201D107230EE0082337
:102070000CE006230AE0052308E0042306E003231E
:1020800004E0022302E0012300E00023FA6902F0E9
:10209000030292009340BA691343BB613549FB695F
:1020A0009B080233BA6941F823203B4B1B68BB6194
:1020B0003B69DB43BA691340BB613B685B6803F46F
:1020C0008033002B03D0BA693B691343BB61324AAA
:1020D000BB691360304B5B68BB613B69DB43BA692A
:1020E0001340BB613B685B6803F40033002B03D0F3
:1020F000BA693B691343BB61274ABB695360264BEE
:102100009B68BB613B69DB43BA691340BB613B68B9
:102110005B6803F48013002B03D0BA693B69134357
:10212000BB611D4ABB6993601B4BDB68BB613B69AC
:10213000DB43BA691340BB613B685B6803F400137F
:10214000002B03D0BA693B691343BB61124ABB69D8
:10215000D360FB690133FB61FB690F2B7FF690AE07
:1021600000BF00BF2437BD465DF8047B704700BF49
:1021700000380240003801400000024000040240E4
:1021800000080240000C024000100240001402400F
:1021900000180240001C0240003C014080B483B0A3
:1021A00000AF78600B467B8013467B707B78002BFA
:1021B00003D07A887B689A6103E07B881A047B6885
:1021C0009A6100BF0C37BD465DF8047B704780B450
:1021D00085B000AF78600B467B807B685B69FB60F5
:1021E0007A88FB6813401A04FB68D9437B880B404C
:1021F0001A437B689A6100BF1437BD465DF8047BC3
:102200007047000080B483B000AF064B01221A6013
:10221000054B1B687B607B6800BF0C37BD465DF8D3
:10222000047B704720000E420070004080B483B0F1
:1022300000AF064B00221A60054B1B687B607B6871
:1022400000BF0C37BD465DF8047B704720000E428E
:102250000070004080B586B000AF78607B68002BCE
:1022600001D1012364E27B681B6803F00103002BAA
:1022700075D0A34B9B6803F00C03042B0CD0A04B30
:102280009B6803F00C03082B12D19D4B5B6803F491
:102290008003B3F5800F0BD1994B1B6803F4003317
:1022A000002B5BD07B685B68002B57D101233FE29A
:1022B0007B685B68B3F5803F06D1914B1B68904A01
:1022C00043F4803313601DE07B685B68B3F5A02F97
:1022D0000CD18B4B1B688A4A43F480231360884BD4
:1022E0001B68874A43F4803313600BE0844B1B6800
:1022F000834A23F480331360814B1B68804A23F4A4
:10230000802313607B685B68002B13D0FFF768FCA9
:10231000386108E0FFF764FC02463B69D31A642B7E
:1023200001D9032304E2764B1B6803F40033002B2E
:10233000F0D014E0FFF754FC386108E0FFF750FCE0
:1023400002463B69D31A642B01D90323F0E16C4B9D
:102350001B6803F40033002BF0D100E000BF7B6862
:102360001B6803F00203002B63D0654B9B6803F0EE
:102370000C03002B0BD0624B9B6803F00C03082B63
:102380001CD15F4B5B6803F48003002B16D15C4BC0
:102390001B6803F00203002B05D07B68DB68012B70
:1023A00001D00123C4E1564B1B6823F0F8027B687F
:1023B0001B69DB00524913430B603AE07B68DB6822
:1023C000002B20D04F4B01221A60FFF709FC386127
:1023D00008E0FFF705FC02463B69D31A022B01D93E
:1023E0000323A5E1464B1B6803F00203002BF0D04A
:1023F000434B1B6823F0F8027B681B69DB004049F4
:1024000013430B6015E03F4B00221A60FFF7E8FB17
:10241000386108E0FFF7E4FB02463B69D31A022B60
:1024200001D9032384E1364B1B6803F00203002B20
:10243000F0D17B681B6803F00803002B30D07B6869
:102440005B69002B16D0304B01221A60FFF7C8FBE6
:10245000386108E0FFF7C4FB02463B69D31A022B40
:1024600001D9032364E1264B5B6F03F00203002BC9
:10247000F0D015E0244B00221A60FFF7B1FB386161
:1024800008E0FFF7ADFB02463B69D31A022B01D9E6
:1024900003234DE11A4B5B6F03F00203002BF0D1D5
:1024A0007B681B6803F00403002B00F0A08000236E
:1024B000FB75134B1B6C03F08053002B0FD10023D3
:1024C000BB600F4B1B6C0E4A43F0805313640C4BE4
:1024D0001B6C03F08053BB60BB680123FB750B4B87
:1024E0001B6803F48073002B21D1084B1B68074A3B
:1024F00043F480731360FFF773FB386111E000BF92
:102500000038024000004742800E47420070004001
:10251000FFF766FB02463B69D31A022B01D903235E
:1025200006E1854B1B6803F48073002BF0D07B68B9
:102530009B68012B06D1814B1B6F804A43F001033E
:1025400013671CE07B689B68052B0CD17B4B1B6FD2
:102550007A4A43F004031367784B1B6F774A43F0C2
:10256000010313670BE0754B1B6F744A23F00103E3
:102570001367724B1B6F714A23F0040313677B6868
:102580009B68002B15D0FFF72BFB38610AE0FFF7A3
:1025900027FB02463B69D31A41F28832934201D9A4
:1025A0000323C5E0654B1B6F03F00203002BEED045
:1025B00014E0FFF715FB38610AE0FFF711FB024654
:1025C0003B69D31A41F28832934201D90323AFE029
:1025D0005A4B1B6F03F00203002BEED1FB7D012B46
:1025E00005D1564B1B6C554A23F0805313647B680E
:1025F0009B69002B00F09B80504B9B6803F00C0301
:10260000082B5CD07B689B69022B41D14C4B00228C
:102610001A60FFF7E5FA386108E0FFF7E1FA0246D1
:102620003B69D31A022B01D9032381E0434B1B687A
:1026300003F00073002BF0D17B68DA697B681B6ABA
:102640001A437B685B6A9B011A437B689B6A5B0841
:10265000013B1B041A437B68DB6A1B0637491343A3
:102660004B60374B01221A60FFF7BAFA386108E075
:10267000FFF7B6FA02463B69D31A022B01D90323AE
:1026800056E02E4B1B6803F00073002BF0D04EE099
:102690002B4B00221A60FFF7A3FA386108E0FFF71E
:1026A0009FFA02463B69D31A022B01D903233FE06C
:1026B000224B1B6803F00073002BF0D137E07B68DE
:1026C0009B69012B01D1012332E01C4B5B68FB604D
:1026D0007B689B69012B28D0FB6803F480027B6830
:1026E000DB699A4221D1FB6803F03F027B681B6AD9
:1026F0009A421AD1FA6847F6C07313407A68526A50
:102700009201934211D1FB6803F440327B689B6ACB
:102710005B08013B1B049A4207D1FB6803F070621F
:102720007B68DB6A1B069A4201D0012300E000238C
:1027300018461837BD4680BD007000400038024082
:102740006000474280B584B000AF786039607B6834
:10275000002B01D10123CCE0684B1B6803F0070379
:102760003A689A420CD9654B3A68D2B21A70634BF8
:102770001B6803F007033A689A4201D00123B8E0CE
:102780007B681B6803F00203002B20D07B681B686A
:1027900003F00403002B05D0594B9B68584A43F4BF
:1027A000E05393607B681B6803F00803002B05D09F
:1027B000534B9B68524A43F460439360504B9B6871
:1027C00023F0F0027B689B684D4913438B607B6864
:1027D0001B6803F00103002B44D07B685B68012B6E
:1027E00007D1474B1B6803F40033002B19D1012399
:1027F0007FE07B685B68022B03D07B685B68032B00
:1028000007D13F4B1B6803F00073002B09D1012354
:102810006FE03B4B1B6803F00203002B01D1012347
:1028200067E0374B9B6823F003027B685B683449A1
:1028300013438B60FFF7D4F9F8600AE0FFF7D0F993
:102840000246FB68D31A41F28832934201D903232E
:102850004FE02B4B9B6803F00C027B685B689B008E
:102860009A42EBD1254B1B6803F007033A689A4262
:102870000CD2224B3A68D2B21A70204B1B6803F07C
:1028800007033A689A4201D0012332E07B681B6853
:1028900003F00403002B08D0194B9B6823F4E0528B
:1028A0007B68DB68164913438B607B681B6803F009
:1028B0000803002B09D0124B9B6823F460427B680D
:1028C0001B69DB000E4913438B6000F021F80246C0
:1028D0000B4B9B681B0903F00F030A49CB5C22FAE0
:1028E00003F3094A1360094B1B681846FFF734F9D4
:1028F000002318461037BD4680BD00BF003C024093
:1029000000380240507A0008000000200400002037
:10291000B0B584B000AF002179600021F9600021DA
:1029200039600021B9605249896801F00C01082919
:102930000DD0082900F29480002902D0042903D088
:102940008EE04C4BBB608EE04B4BBB608BE048494C
:10295000496801F03F0179604549496801F4800107
:10296000002924D042494968890908464FF00001EE
:1029700040F2FF144FF0000500EA040201EA0503EB
:102980003D4901FB03F0002101FB02F144183A49E3
:10299000A2FB0101631819467B681A464FF0000339
:1029A000FEF754F802460B461346FB604AE0304BF4
:1029B0005B689B091A464FF0000340F2FF104FF08E
:1029C000000102EA000403EA0105204629464FF00F
:1029D00000024FF000034B0143EAD063420110466E
:1029E0001946001B61EB05014FF000024FF0000398
:1029F0008B0143EA90638201121A63EB01034FF0EB
:102A000000004FF00001D90041EA5271D0000246A7
:102A10000B46121945EB03034FF000004FF0000185
:102A2000990241EA9251900202460B46104619461D
:102A30007B681A464FF00003FEF708F802460B4683
:102A40001346FB600A4B5B681B0C03F00303013366
:102A50005B003B60FA683B68B2FBF3F3BB6002E0EB
:102A6000044BBB6000BFBB6818461037BD46B0BD05
:102A7000003802400024F40040787D0180B582B027
:102A800000AF78607B68002B01D1012341E07B68B7
:102A900093F83D30DBB2002B06D17B68002283F82F
:102AA0003C207868FEF708FE7B68022283F83D2010
:102AB0007B681A687B6804331946104600F034FEC0
:102AC0007B68012283F846207B68012283F83E2040
:102AD0007B68012283F83F207B68012283F8402035
:102AE0007B68012283F841207B68012283F8422021
:102AF0007B68012283F843207B68012283F844200D
:102B00007B68012283F845207B68012283F83D2001
:102B1000002318460837BD4680BD80B582B000AF9F
:102B200078607B68002B01D1012341E07B6893F83A
:102B30003D30DBB2002B06D17B68002283F83C20BD
:102B40007868FEF7C5FE7B68022283F83D207B682B
:102B50001A687B6804331946104600F0E5FD7B686F
:102B6000012283F846207B68012283F83E207B689F
:102B7000012283F83F207B68012283F840207B6894
:102B8000012283F841207B68012283F842207B6880
:102B9000012283F843207B68012283F844207B686C
:102BA000012283F845207B68012283F83D20002321
:102BB00018460837BD4680BD80B582B000AF78604A
:102BC0007B68002B01D1012341E07B6893F83D3005
:102BD000DBB2002B06D17B68002283F83C207868AA
:102BE000FEF726FE7B68022283F83D207B681A6888
:102BF0007B6804331946104600F096FD7B6801227D
:102C000083F846207B68012283F83E207B680122FE
:102C100083F83F207B68012283F840207B680122F3
:102C200083F841207B68012283F842207B680122DF
:102C300083F843207B68012283F844207B680122CB
:102C400083F845207B68012283F83D200023184645
:102C50000837BD4680BD000080B584B000AF786005
:102C600039600023FB733B68002B04D17B6893F829
:102C70003E30DBB213E03B68042B04D17B6893F851
:102C80003F30DBB20BE03B68082B04D17B6893F844
:102C90004030DBB203E07B6893F84130DBB2BB73BA
:102CA0003B68002B04D17B6893F84230DBB213E021
:102CB0003B68042B04D17B6893F84330DBB20BE014
:102CC0003B68082B04D17B6893F84430DBB203E007
:102CD0007B6893F84530DBB27B73BB7B012B02D161
:102CE0007B7B012B01D00123CCE03B68002B04D17E
:102CF0007B68022283F83E2013E03B68042B04D15A
:102D00007B68022283F83F200BE03B68082B04D14C
:102D10007B68022283F8402003E07B68022283F86C
:102D200041203B68002B04D17B68022283F84220BB
:102D300013E03B68042B04D17B68022283F8432014
:102D40000BE03B68082B04D17B68022283F8442007
:102D500003E07B68022283F845203B680C2B41D8B6
:102D600001A252F823F000BF9D2D0008E52D0008B8
:102D7000E52D0008E52D0008AF2D0008E52D000821
:102D8000E52D0008E52D0008C12D0008E52D0008FF
:102D9000E52D0008E52D0008D32D00087B681B6891
:102DA000DA687B681B6842F00202DA601DE07B682B
:102DB0001B68DA687B681B6842F00402DA6014E082
:102DC0007B681B68DA687B681B6842F00802DA607F
:102DD0000BE07B681B68DA687B681B6842F01002B6
:102DE000DA6002E00123FB7300BFFB7B002B48D1BC
:102DF0007B681B6801223968184601F0A9F87B68D6
:102E00001B68224A934222D07B681B68B3F1804F33
:102E10001DD07B681B681E4A934218D07B681B68D4
:102E20001C4A934213D07B681B681B4A93420ED006
:102E30007B681B68194A934209D07B681B68184A53
:102E4000934204D07B681B68164A934211D17B6879
:102E50001B689B6803F00703BB60BB68062B10D0A0
:102E60007B681B681A687B681B6842F001021A6065
:102E700007E07B681B681A687B681B6842F00102E8
:102E80001A60FB7B18461037BD4680BD000001402C
:102E90000004004000080040000C00400004014015
:102EA000004001400018004080B586B000AF786057
:102EB00039607B68002B01D1012397E07B6893F890
:102EC0003D30DBB2002B06D17B68002283F83C202A
:102ED0007868FEF713FC7B68022283F83D207B684C
:102EE0001B689B687A68126823F4804323F0070309
:102EF00093607B681A687B6804331946104600F0BB
:102F000013FC7B681B689B687B617B681B689B6903
:102F10003B617B681B681B6AFB603B681B687A69C6
:102F200013437B613B6923F4407323F003033B614C
:102F30003B689A683B689B691B0213433A691343D9
:102F40003B613B6923F4406323F00C033B613B6925
:102F500023F4704323F0F0033B613B68DA683B687D
:102F6000DB691B0213433A6913433B613B681B69EE
:102F70001A013B681B6A1B0313433A6913433B6105
:102F8000FB6823F02203FB60FB6823F08803FB60EF
:102F90003B685A683B685B691B011343FA6813433B
:102FA000FB607B681B687A699A607B681B683A697A
:102FB0009A617B681B68FA681A627B68012283F851
:102FC00046207B68012283F83E207B68012283F83B
:102FD0003F207B68012283F842207B68012283F82E
:102FE00043207B68012283F83D20002318461837D0
:102FF000BD4680BD80B582B000AF78607B681B683D
:103000001B6903F00203022B22D17B681B68DB687B
:1030100003F00203022B1BD17B681B686FF00202D6
:103020001A617B6801221A777B681B689B6903F031
:103030000303002B03D07868FDF79EFE05E0786857
:1030400000F054FB786800F05BFB7B6800221A7785
:103050007B681B681B6903F00403042B22D17B6887
:103060001B68DB6803F00403042B1BD17B681B681F
:103070006FF004021A617B6802221A777B681B6872
:103080009B6903F44073002B03D07868FDF774FE4E
:1030900005E0786800F02AFB786800F031FB7B6877
:1030A00000221A777B681B681B6903F00803082B52
:1030B00022D17B681B68DB6803F00803082B1BD157
:1030C0007B681B686FF008021A617B6804221A771C
:1030D0007B681B68DB6903F00303002B03D078686F
:1030E000FDF74AFE05E0786800F000FB786800F024
:1030F00007FB7B6800221A777B681B681B6903F05B
:103100001003102B22D17B681B68DB6803F01003CF
:10311000102B1BD17B681B686FF010021A617B6853
:1031200008221A777B681B68DB6903F44073002B65
:1031300003D07868FDF720FE05E0786800F0D6FA45
:10314000786800F0DDFA7B6800221A777B681B68DC
:103150001B6903F00103012B0ED17B681B68DB6840
:1031600003F00103012B07D17B681B686FF001029C
:103170001A61786800F0B0FA7B681B681B6903F07D
:103180008003802B0ED17B681B68DB6803F0800313
:10319000802B07D17B681B686FF080021A6178680A
:1031A00000F0D4FF7B681B681B6903F04003402BD1
:1031B0000ED17B681B68DB6803F04003402B07D10E
:1031C0007B681B686FF040021A61786800F0A2FA11
:1031D0007B681B681B6903F02003202B0ED17B68E2
:1031E0001B68DB6803F02003202B07D17B681B687A
:1031F0006FF020021A61786800F09EFF00BF083768
:10320000BD4680BD80B586B000AFF860B9607A6019
:103210000023FB75FB6893F83C30012B01D102239E
:1032200088E0FB68012283F83C207B68002B1BD1DF
:10323000FB681868BB681968BB685A68BB68DB68BC
:1032400000F0C2FCFB681B689A69FB681B6822F0EF
:103250000C029A61FB681B689969BB689A68FB68F5
:103260001B680A439A6160E07B68042B1CD1FB68F1
:103270001868BB681968BB685A68BB68DB6800F0EF
:1032800046FDFB681B689A69FB681B6822F4406274
:103290009A61FB681B689969BB689B681A02FB68A6
:1032A0001B680A439A6140E07B68082B1BD1FB68CE
:1032B0001868BB681968BB685A68BB68DB6800F0AF
:1032C00093FDFB681B68DA69FB681B6822F00C023F
:1032D000DA61FB681B68D969BB689A68FB681B6880
:1032E0000A43DA6121E07B680C2B1CD1FB6818686B
:1032F000BB681968BB685A68BB68DB6800F0B0FD42
:10330000FB681B68DA69FB681B6822F44062DA61BB
:10331000FB681B68D969BB689B681A02FB681B685D
:103320000A43DA6101E00123FB75FB68002283F8A0
:103330003C20FB7D18461837BD4680BD80B586B061
:1033400000AFF860B9607A600023FB75FB6893F802
:103350003C30012B01D10223AEE0FB68012283F84F
:103360003C207B680C2B00F29F8001A252F823F0D6
:10337000A5330008A9340008A9340008A9340008BE
:10338000E5330008A9340008A9340008A93400086E
:1033900027340008A9340008A9340008A93400081B
:1033A00067340008FB681B68B968184600F05CFACF
:1033B000FB681B689A69FB681B6842F008029A6107
:1033C000FB681B689A69FB681B6822F004029A611B
:1033D000FB681B689969BB681A69FB681B680A432C
:1033E0009A6164E0FB681B68B968184600F0ACFAA3
:1033F000FB681B689A69FB681B6842F400629A616B
:10340000FB681B689A69FB681B6822F480629A61FA
:10341000FB681B689969BB681B691A02FB681B681B
:103420000A439A6143E0FB681B68B968184600F0DC
:1034300001FBFB681B68DA69FB681B6842F0080245
:10344000DA61FB681B68DA69FB681B6822F004021A
:10345000DA61FB681B68D969BB681A69FB681B687D
:103460000A43DA6123E0FB681B68B968184600F07C
:1034700055FBFB681B68DA69FB681B6842F4006255
:10348000DA61FB681B68DA69FB681B6822F48062FA
:10349000DA61FB681B68D969BB681B691A02FB68A3
:1034A0001B680A43DA6102E00123FB7500BFFB6879
:1034B000002283F83C20FB7D18461837BD4680BDAE
:1034C00080B584B000AF786039600023FB737B68FF
:1034D00093F83C30012B01D10223B4E07B68012238
:1034E00083F83C207B68022283F83D207B681B68C0
:1034F0009B68BB60BB6823F07703BB60BB6823F4A9
:103500007F43BB607B681B68BA689A603B681B6836
:10351000B3F5005F3ED0B3F5005F00F28780B3F5EE
:10352000805F00F08680B3F5805F7FD8702B1AD063
:10353000702B7BD8602B50D0602B77D8502B3CD091
:10354000502B73D8402B58D0402B6FD8302B64D0E1
:10355000302B6BD8202B60D0202B67D8002B5CD071
:10356000102B5AD062E07B6818683B6899683B680A
:103570005A683B68DB6800F0CBFC7B681B689B6883
:10358000BB60BB6843F07703BB607B681B68BA68AD
:103590009A604FE07B6818683B6899683B685A6896
:1035A0003B68DB6800F0B4FC7B681B689A687B684A
:1035B0001B6842F480429A603CE07B6818683B6874
:1035C00059683B68DB681A4600F072FB7B681B6831
:1035D0005021184600F081FC2CE07B6818683B689D
:1035E00059683B68DB681A4600F0CEFB7B681B68B5
:1035F0006021184600F071FC1CE07B6818683B688D
:1036000059683B68DB681A4600F052FB7B681B6810
:103610004021184600F061FC0CE07B681A683B68AA
:103620001B681946104600F058FC03E00123FB73A9
:1036300000E000BF7B68012283F83D207B68002208
:1036400083F83C20FB7B18461037BD4680BD000048
:1036500080B485B000AF786039600023FB603B68C0
:103660000C2B31D801A252F823F000BFA13600087C
:10367000C9360008C9360008C9360008AB3600084C
:10368000C9360008C9360008C9360008B536000832
:10369000C9360008C9360008C9360008BF36000818
:1036A0007B681B685B6BFB600FE07B681B689B6B38
:1036B000FB600AE07B681B68DB6BFB6005E07B68F6
:1036C0001B681B6CFB6000E000BFFB6818461437EA
:1036D000BD465DF8047B704780B483B000AF78606E
:1036E00000BF0C37BD465DF8047B704780B483B0E3
:1036F00000AF786000BF0C37BD465DF8047B7047B3
:1037000080B483B000AF786000BF0C37BD465DF871
:10371000047B704780B483B000AF786000BF0C3783
:10372000BD465DF8047B704780B485B000AF78601B
:1037300039607B681B68FB607B68404A934213D00A
:103740007B68B3F1804F0FD07B683D4A93420BD02A
:103750007B683C4A934207D07B683B4A934203D044
:103760007B683A4A934208D1FB6823F07003FB6000
:103770003B685B68FA681343FB607B682F4A93429F
:103780002BD07B68B3F1804F27D07B682C4A9342C3
:1037900023D07B682B4A93421FD07B682A4A9342EE
:1037A0001BD07B68294A934217D07B68284A9342F2
:1037B00013D07B68274A93420FD07B68264A9342F6
:1037C0000BD07B68254A934207D07B68244A9342FA
:1037D00003D07B68234A934208D1FB6823F44073EB
:1037E000FB603B68DB68FA681343FB60FB6823F00F
:1037F00080023B685B691343FB607B68FA681A6070
:103800003B689A687B68DA623B681A687B689A62F0
:103810007B680A4A934203D07B680C4A934203D1E7
:103820003B681A697B681A637B6801225A6100BF92
:103830001437BD465DF8047B704700BF00000140AF
:103840000004004000080040000C0040000401405B
:103850000040014000440140004801400018004081
:10386000001C00400020004080B487B000AF7860AA
:1038700039607B681B6A23F001027B681A627B68EF
:103880001B6A7B617B685B683B617B689B69FB6053
:10389000FB6823F07003FB60FB6823F00303FB600D
:1038A0003B681B68FA681343FB607B6923F00203E3
:1038B0007B613B689B687A6913437B617B68204A24
:1038C000934203D07B681F4A93420CD17B6923F05B
:1038D00008037B613B68DB687A6913437B617B6922
:1038E00023F004037B617B68154A934203D07B6815
:1038F000144A934211D13B6923F480733B613B69C5
:1039000023F400733B613B685B693A6913433B6195
:103910003B689B693A6913433B617B683A695A602B
:103920007B68FA689A613B685A687B685A637B686F
:103930007A691A6200BF1C37BD465DF8047B704788
:10394000000001400004014080B487B000AF7860FF
:1039500039607B681B6A23F010027B681A627B68FF
:103960001B6A7B617B685B683B617B689B69FB6072
:10397000FB6823F4E043FB60FB6823F44073FB60C7
:103980003B681B681B02FA681343FB607B6923F0EA
:1039900020037B613B689B681B017A6913437B6151
:1039A0007B68224A934203D07B68214A93420DD11F
:1039B0007B6923F080037B613B68DB681B017A69CC
:1039C00013437B617B6923F040037B617B68174A6B
:1039D000934203D07B68164A934213D13B6923F488
:1039E00080633B613B6923F400633B613B685B6937
:1039F0009B003A6913433B613B689B699B003A69B2
:103A000013433B617B683A695A607B68FA689A6144
:103A10003B685A687B689A637B687A691A6200BF60
:103A20001C37BD465DF8047B704700BF00000140B5
:103A30000004014080B487B000AF786039607B68D3
:103A40001B6A23F480727B681A627B681B6A7B6145
:103A50007B685B683B617B68DB69FB60FB6823F02C
:103A60007003FB60FB6823F00303FB603B681B688B
:103A7000FA681343FB607B6923F400737B613B6846
:103A80009B681B027A6913437B617B68214A9342DE
:103A900003D07B68204A93420DD17B6923F40063F5
:103AA0007B613B68DB681B027A6913437B617B693E
:103AB00023F480637B617B68164A934203D07B6862
:103AC000154A934213D13B6923F480533B613B6910
:103AD00023F400533B613B685B691B013A69134364
:103AE0003B613B689B691B013A6913433B617B68FF
:103AF0003A695A607B68FA68DA613B685A687B68A1
:103B0000DA637B687A691A6200BF1C37BD465DF8CC
:103B1000047B7047000001400004014080B487B07E
:103B200000AF786039607B681B6A23F480527B6841
:103B30001A627B681B6A3B617B685B687B617B68A0
:103B4000DB69FB60FB6823F4E043FB60FB6823F464
:103B50004073FB603B681B681B02FA681343FB6001
:103B60003B6923F400533B613B689B681B033A6944
:103B700013433B617B68124A934203D07B68114A2E
:103B8000934209D17B6923F480437B613B685B6985
:103B90009B017A6913437B617B687A695A607B6811
:103BA000FA68DA613B685A687B681A647B683A692C
:103BB0001A6200BF1C37BD465DF8047B704700BF2A
:103BC000000001400004014080B487B000AFF860FD
:103BD000B9607A603B60FB681B6A23F00102FB68F6
:103BE0001A62FB689B697B61FB681B6A3B61FB682F
:103BF000284A93421BD0FB68B3F1804F17D0FB6873
:103C0000254A934213D0FB68244A93420FD0FB68A5
:103C1000234A93420BD0FB68224A934207D0FB68A9
:103C2000214A934203D0FB68204A934201D10123E9
:103C300000E00023002B08D07B6923F003037B61A5
:103C40007A697B6813437B6103E07B6943F001037E
:103C50007B617B6923F0F0037B613B681B01DBB276
:103C60007A6913437B613B6923F00A033B61BB68BC
:103C700003F00A033A6913433B61FB687A699A616E
:103C8000FB683A691A6200BF1C37BD465DF8047BC9
:103C9000704700BF000001400004004000080040E1
:103CA000000C0040000401400040014000180040AA
:103CB00080B487B000AFF860B9607A60FB681B6AB7
:103CC0007B61FB681B6A23F00102FB681A62FB68D8
:103CD0009B693B613B6923F0F0033B617B681B01FF
:103CE0003A6913433B617B6923F00A037B617A697C
:103CF000BB6813437B61FB683A699A61FB687A6928
:103D00001A6200BF1C37BD465DF8047B704780B463
:103D100087B000AFF860B9607A603B60FB681B6AEF
:103D200023F01002FB681A62FB689B697B61FB68E9
:103D30001B6A3B617B6923F440737B617B681B02D8
:103D40007A6913437B617B6923F470437B613B6831
:103D50001B039BB27A6913437B613B6923F0A00389
:103D60003B61BB681B0103F0A0033A6913433B614D
:103D7000FB687A699A61FB683A691A6200BF1C376E
:103D8000BD465DF8047B704780B487B000AFF86033
:103D9000B9607A60FB681B6A23F01002FB681A6244
:103DA000FB689B697B61FB681B6A3B617B6923F451
:103DB00070437B617B681B037A6913437B613B69BA
:103DC00023F0A0033B61BB681B013A6913433B61CD
:103DD000FB687A699A61FB683A691A6200BF1C370E
:103DE000BD465DF8047B704780B487B000AFF860D3
:103DF000B9607A603B60FB681B6A23F48072FB68E1
:103E00001A62FB68DB697B61FB681B6A3B617B694B
:103E100023F003037B617A697B6813437B617B69D1
:103E200023F0F0037B613B681B01DBB27A6913432B
:103E30007B613B6923F420633B61BB681B0203F495
:103E400020633A6913433B61FB687A69DA61FB6876
:103E50003A691A6200BF1C37BD465DF8047B7047A3
:103E600080B487B000AFF860B9607A603B60FB68EF
:103E70001B6A23F48052FB681A62FB68DB697B6172
:103E8000FB681B6A3B617B6923F440737B617B6841
:103E90001B027A6913437B617B6923F470437B6166
:103EA0003B681B039BB27A6913437B613B6923F434
:103EB00020433B61BB681B0303F420433A6913436F
:103EC0003B61FB687A69DA61FB683A691A6200BF94
:103ED0001C37BD465DF8047B704780B485B000AFE9
:103EE000786039607B689B68FB60FB6823F0700337
:103EF000FB603A68FB68134343F00703FB607B6891
:103F0000FA689A6000BF1437BD465DF8047B7047BD
:103F100080B487B000AFF860B9607A603B60FB683E
:103F20009B687B617B6923F47F437B613B681A025A
:103F30007B681A43BB6813437A6913437B61FB6850
:103F40007A699A6000BF1C37BD465DF8047B7047F4
:103F500080B487B000AFF860B9607A60BB6803F0E6
:103F60001F03012202FA03F37B61FB681A6A7B6973
:103F7000DB431A40FB681A62FB681A6ABB6803F0ED
:103F80001F03796801FA03F31A43FB681A6200BF42
:103F90001C37BD465DF8047B7047000080B485B0D7
:103FA00000AF786039607B6893F83C30012B01D119
:103FB00002235AE07B68012283F83C207B680222BE
:103FC00083F83D207B681B685B68FB607B681B682F
:103FD0009B68BB60FB6823F07003FB603B681B6859
:103FE000FA681343FB607B681B68FA685A607B6859
:103FF0001B68214A934222D07B681B68B3F1804F33
:104000001DD07B681B681D4A934218D07B681B68D3
:104010001B4A934213D07B681B681A4A93420ED006
:104020007B681B68184A934209D07B681B68174A53
:10403000934204D07B681B68154A93420CD1BB683D
:1040400023F08003BB603B685B68BA681343BB60C6
:104050007B681B68BA689A607B68012283F83D2000
:104060007B68002283F83C20002318461437BD46A5
:104070005DF8047B704700BF000001400004004071
:1040800000080040000C00400004014000400140D6
:104090000018004080B485B000AF7860396000231C
:1040A000FB607B6893F83C30012B01D102233DE09B
:1040B0007B68012283F83C20FB6823F0FF023B6809
:1040C000DB681343FB60FB6823F440723B689B682A
:1040D0001343FB60FB6823F480623B685B68134317
:1040E000FB60FB6823F400623B681B681343FB60C2
:1040F000FB6823F480523B681B691343FB60FB6839
:1041000023F400523B685B691343FB60FB6823F4B4
:1041100080423B68DB691343FB607B681B68FA687D
:104120005A647B68002283F83C2000231846143729
:10413000BD465DF8047B704780B483B000AF786003
:1041400000BF0C37BD465DF8047B704780B483B078
:1041500000AF786000BF0C37BD465DF8047B704748
:1041600080B483B000AF03463960FB7197F9073024
:10417000002B0ADB3B68DAB20C4997F907301201D1
:10418000D2B20B4483F800230AE03B68DAB2084954
:10419000FB7903F00F03043B1201D2B20B441A76F1
:1041A00000BF0C37BD465DF8047B704700E100E0BE
:1041B00000ED00E080B500AF00216FF00400FFF7D4
:1041C000CFFF00BF80BD000080B483B000AFEFF32D
:1041D00005833B603B68002B03D06FF005037B60D9
:1041E0000CE00A4B1B68002B05D1084B01221A601A
:1041F00000237B6002E04FF0FF337B607B68184652
:104200000C37BD465DF8047B704700BFA800002056
:1042100080B582B000AFEFF305833B603B68002BB5
:1042200003D06FF005037B6010E00B4B1B68012B84
:1042300009D1FFF7BFFF084B02221A6001F066F8B0
:1042400000237B6002E04FF0FF337B607B68184601
:104250000837BD4680BD00BFA800002080B58EB0E5
:1042600004AFF860B9607A6000233B61EFF3058327
:104270007B617B69002B7ED1FB68002B7BD0802388
:104280003B621823FB6100237B624FF0FF33BB616D
:104290007B68002B45D07B681B68002B02D07B68B5
:1042A0001B687B627B689B69002B02D07B689B69E3
:1042B000FB61FB69002B08D0FB69382B05D87B68B4
:1042C0005B6803F00103002B01D0002354E07B68FE
:1042D0005B69002B03D07B685B699B083B627B6852
:1042E0009B68002B0ED07B68DB685B2B0AD97B6850
:1042F0001B69002B06D07B685B69002B02D0012371
:10430000BB6110E07B689B68002B0CD17B68DB688D
:10431000002B08D17B681B69002B04D10023BB61F3
:1043200001E00023BB61BB69012B10D17B681B69D5
:104330007A68926802920193FB690093BB683A6ABB
:10434000796AF86800F00CFE03463B6113E0BB6934
:10435000002B10D13B6A9AB207F110030193FB695D
:104360000093BB68796AF86800F057FE0346012B9A
:1043700001D000233B613B6918462837BD4680BD0C
:1043800080B584B000AF7860EFF30583BB60BB6895
:10439000002B03D06FF00503FB6007E00023FB60F8
:1043A0007B68002B02D0786800F07CFFFB68184621
:1043B0001037BD4680BD000080B485B000AFF86006
:1043C000B9607A60FB68074A1A60BB68064A1A60DF
:1043D0007B6880221A6000BF1437BD465DF8047BFD
:1043E000704700BFAC0000200801002080B485B0F9
:1043F00000AFF860B9607A60FB68074A1A60BB6872
:10440000064A1A607B684FF480721A6000BF143746
:10441000BD465DF8047B704708030020640300205C
:1044200080B483B000AF78607B6803F108027B68DA
:104430005A607B684FF0FF329A607B6803F1080294
:104440007B68DA607B6803F108027B681A617B682D
:1044500000221A6000BF0C37BD465DF8047B704730
:1044600080B483B000AF78607B6800221A6100BF1F
:104470000C37BD465DF8047B704780B485B000AF53
:10448000786039607B685B68FB603B68FA685A60FB
:10449000FB689A683B689A60FB689B683A685A6058
:1044A000FB683A689A603B687A681A617B681B68A7
:1044B0005A1C7B681A6000BF1437BD465DF8047B48
:1044C000704780B485B000AF786039603B681B6886
:1044D000BB60BB68B3F1FF3F03D17B681B69FB6026
:1044E0000CE07B680833FB6002E0FB685B68FB6004
:1044F000FB685B681B68BA689A42F6D2FB685A6828
:104500003B685A603B685B683A689A603B68FA6847
:104510009A60FB683A685A603B687A681A617B68FF
:104520001B685A1C7B681A6000BF1437BD465DF8D3
:10453000047B704780B485B000AF78607B681B69EE
:10454000FB607B685B687A6892689A607B689B68AE
:104550007A6852685A60FB685B687A689A4203D14D
:104560007B689A68FB685A607B6800221A61FB6866
:104570001B685A1EFB681A60FB681B6818461437D4
:10458000BD465DF8047B704780B584B000AF7860AD
:1045900039607B68FB60FB68002B0AD14FF0500349
:1045A00083F31188BFF36F8FBFF34F8FBB6000BFE2
:1045B000FEE702F04FF8FB681A68FB68DB6BF968EE
:1045C000096C01FB03F31A44FB689A60FB68002244
:1045D0009A63FB681A68FB685A60FB681A68FB6894
:1045E000DB6B013BF968096C01FB03F31A44FB68C0
:1045F000DA60FB68FF2283F84420FB68FF2283F81F
:1046000045203B68002B14D1FB681B69002B1AD096
:10461000FB681033184601F003F90346002B12D053
:104620000C4B4FF080521A60BFF34F8FBFF36F8F68
:1046300009E0FB6810331846FFF7F2FEFB682433ED
:104640001846FFF7EDFE02F035F801231846103743
:10465000BD4680BD04ED00E080B58EB002AFF860CD
:10466000B9607A603B60FB68002B0AD14FF05003C1
:1046700083F31188BFF36F8FBFF34F8FBB6200BF0F
:10468000FEE73B68002B0AD14FF0500383F31188FB
:10469000BFF36F8FBFF34F8F7B6200BFFEE77B6876
:1046A000002B02D0BB68002B01D0012300E00023C7
:1046B000002B0AD14FF0500383F31188BFF36F8FA3
:1046C000BFF34F8F3B6200BFFEE77B68002B02D138
:1046D000BB68002B01D1012300E00023002B0AD18D
:1046E0004FF0500383F31188BFF36F8FBFF34F8FE9
:1046F000FB6100BFFEE750237B617B69502B0AD032
:104700004FF0500383F31188BFF36F8FBFF34F8FC8
:10471000BB6100BFFEE77B693B68FB62FB6A002B65
:104720000DD0FB6A012283F8462097F83820FB6AF7
:10473000009313467A68B968F86800F005F8FB6AD8
:1047400018463037BD4680BD80B584B000AFF860F4
:10475000B9607A60FB70BB68002B03D1BB69BA6992
:104760001A6002E0BB697A681A60BB69FA68DA63AA
:10477000BB69BA681A640121B869FFF705FFBB6914
:10478000FA7883F84C2000BF1037BD4680BD00008A
:1047900080B58EB000AFF860B9607A603B600023EE
:1047A0007B63FB683B633B6B002B0AD14FF05003EC
:1047B00083F31188BFF36F8FBFF34F8FBB6200BFCE
:1047C000FEE7BB68002B03D13B6B1B6C002B01D1B8
:1047D000012300E00023002B0AD14FF0500383F3A4
:1047E0001188BFF36F8FBFF34F8F7B6200BFFEE76F
:1047F0003B68022B03D13B6BDB6B012B01D1012307
:1048000000E00023002B0AD14FF0500383F31188FE
:10481000BFF36F8FBFF34F8F3B6200BFFEE701F026
:10482000BDF90346002B02D17B68002B01D1012387
:1048300000E00023002B0AD14FF0500383F31188CE
:10484000BFF36F8FBFF34F8FFB6100BFFEE701F037
:1048500001FF3B6B9A6B3B6BDB6B9A4202D33B686D
:10486000022B29D13A68B968386B00F00BFAF8626C
:104870003B6B5B6A002B10D03B6B2433184600F077
:10488000CFFF0346002B13D03F4B4FF080521A60EE
:10489000BFF34F8FBFF36F8F0AE0FB6A002B07D087
:1048A000394B4FF080521A60BFF34F8FBFF36F8FB9
:1048B00001F000FF012363E07B68002B03D101F0CE
:1048C000F9FE00235CE07B6B002B06D107F114039B
:1048D000184601F009F801237B6301F0EBFE00F0BC
:1048E0007BFD01F0B7FE3B6B93F844305BB2B3F154
:1048F000FF3F03D13B6B002283F844203B6B93F8CE
:1049000045305BB2B3F1FF3F03D13B6B002283F82C
:10491000452001F0CFFE3A1D07F114031146184659
:1049200000F0F8FF0346002B24D1386B00F0A2FA08
:104930000346002B18D03B6B10337A68114618469B
:1049400000F01EFF386B00F02DFA00F053FD034617
:10495000002B7FF47CAF0C4B4FF080521A60BFF3FA
:104960004F8FBFF36F8F72E7386B00F01BFA00F0C8
:1049700041FD6CE7386B00F015FA00F03BFD0023B9
:1049800018463837BD4680BD04ED00E080B590B0D4
:1049900000AFF860B9607A603B60FB68BB63BB6BDB
:1049A000002B0AD14FF0500383F31188BFF36F8FB0
:1049B000BFF34F8FBB6200BFFEE7BB68002B03D184
:1049C000BB6B1B6C002B01D1012300E00023002BEB
:1049D0000AD14FF0500383F31188BFF36F8FBFF3F9
:1049E0004F8F7B6200BFFEE73B68022B03D1BB6B9E
:1049F000DB6B012B01D1012300E00023002B0AD146
:104A00004FF0500383F31188BFF36F8FBFF34F8FC5
:104A10003B6200BFFEE701F0FFFEEFF311824FF0B3
:104A2000500383F31188BFF36F8FBFF34F8FFA6189
:104A3000BB61FB697B63BB6B9A6BBB6BDB6B9A42A5
:104A400002D33B68022B2FD1BB6B93F8453087F81C
:104A50003330BB6B9B6BFB623A68B968B86B00F094
:104A600011F997F93330B3F1FF3F12D1BB6B5B6A99
:104A7000002B16D0BB6B2433184600F0D1FE034642
:104A8000002B0ED07B68002B0BD07B6801221A60B4
:104A900007E097F833300133DBB25AB2BB6B83F8CF
:104AA00045200123FB6301E00023FB637B6B7B61FB
:104AB0007B6983F3118800BFFB6B18464037BD4606
:104AC00080BD000080B58CB000AFF860B9607A603E
:104AD0000023FB62FB68BB62BB6A002B0AD14FF06C
:104AE000500383F31188BFF36F8FBFF34F8F3B6287
:104AF00000BFFEE7BB68002B03D1BB6A1B6C002B19
:104B000001D1012300E00023002B0AD14FF0500314
:104B100083F31188BFF36F8FBFF34F8FFB6100BF2B
:104B2000FEE701F03BF80346002B02D17B68002B27
:104B300001D1012300E00023002B0AD14FF05003E4
:104B400083F31188BFF36F8FBFF34F8FBB6100BF3B
:104B5000FEE701F07FFDBB6A9B6B7B627B6A002BEB
:104B60001FD0B968B86A00F0F7F87B6A5A1EBB6AB2
:104B70009A63BB6A1B69002B0FD0BB6A10331846BF
:104B800000F04EFE0346002B07D03D4B4FF0805205
:104B90001A60BFF34F8FBFF36F8F01F08BFD0123BE
:104BA00069E07B68002B03D101F084FD002362E003
:104BB000FB6A002B06D107F11003184600F094FEA3
:104BC0000123FB6201F076FD00F006FC01F042FDDE
:104BD000BB6A93F844305BB2B3F1FF3F03D1BB6AC9
:104BE000002283F84420BB6A93F845305BB2B3F1EE
:104BF000FF3F03D1BB6A002283F8452001F05AFD34
:104C00003A1D07F110031146184600F083FE0346D3
:104C1000002B23D1B86A00F017F90346002B17D0F8
:104C2000BB6A24337A681146184600F0A9FDB86AB9
:104C300000F0B8F800F0DEFB0346002B89D1104BE2
:104C40004FF080521A60BFF34F8FBFF36F8F80E732
:104C5000B86A00F0A7F800F0CDFB7AE7B86A00F078
:104C6000A1F800F0C7FBB86A00F0EEF80346002B8D
:104C70003FF46FAF002318463037BD4680BD00BFFC
:104C800004ED00E080B586B000AFF860B9607A60EE
:104C900000237B61FB689B6B3B61FB681B6C002BFB
:104CA0000DD1FB681B68002B4DD1FB689B68184633
:104CB00000F092FF7861FB6800229A6043E07B6815
:104CC000002B19D1FB685868FB681B6C1A46B96841
:104CD00002F028FAFB685A68FB681B6C1A44FB68F0
:104CE0005A60FB685A68FB689B689A422BD3FB6842
:104CF0001A68FB685A6026E0FB68D868FB681B6C82
:104D00001A46B96802F00EFAFB68DA68FB681B6C99
:104D10005B421A44FB68DA60FB68DA68FB681B6870
:104D20009A4207D2FB689A68FB681B6C5B421A4484
:104D3000FB68DA607B68022B05D13B69002B02D04F
:104D40003B69013B3B613B695A1CFB689A637B6989
:104D500018461837BD4680BD80B582B000AF786078
:104D600039607B681B6C002B18D07B68DA687B6825
:104D70001B6C1A447B68DA607B68DA687B689B6826
:104D80009A4203D37B681A687B68DA607B68D968CB
:104D90007B681B6C1A46386802F0C4F900BF0837FC
:104DA000BD4680BD80B584B000AF786001F052FC94
:104DB0007B6893F84530FB7311E07B685B6A002BDE
:104DC00012D07B682433184600F02AFD0346002BDE
:104DD00001D000F001FEFB7B013BDBB2FB7397F9D6
:104DE0000F30002BE9DC00E000BF7B68FF2283F876
:104DF000452001F05FFC01F02DFC7B6893F8443006
:104E0000BB7311E07B681B69002B12D07B681033E9
:104E1000184600F005FD0346002B01D000F0DCFD34
:104E2000BB7B013BDBB2BB7397F90E30002BE9DC97
:104E300000E000BF7B68FF2283F8442001F03AFCC9
:104E400000BF1037BD4680BD80B584B000AF78602C
:104E500001F000FC7B689B6B002B02D10123FB60FF
:104E600001E00023FB6001F025FCFB6818461037C9
:104E7000BD4680BD80B584B000AF786001F0EAFB2C
:104E80007B689A6B7B68DB6B9A4202D10123FB60E3
:104E900001E00023FB6001F00DFCFB6818461037B1
:104EA000BD4680BD80B485B000AF78603960002316
:104EB000FB6014E00F4AFB6852F83330002B0BD133
:104EC0000C49FB683A6841F833200A4AFB68DB006A
:104ED00013447A685A6006E0FB680133FB60FB68A4
:104EE000072BE7D900BF00BF1437BD465DF8047B30
:104EF000704700BF584B002080B586B000AFF86007
:104F0000B9607A60FB687B6101F0A4FB7B6993F870
:104F100044305BB2B3F1FF3F03D17B69002283F8D9
:104F200044207B6993F845305BB2B3F1FF3F03D176
:104F30007B69002283F8452001F0BCFB7B699B6BF9
:104F4000002B06D17B6924337A68B968184600F0D3
:104F50003BFC7869FFF726FF00BF1837BD4680BDD0
:104F600080B58EB004AFF860B9607A603B607B6B4F
:104F7000002B0AD14FF0500383F31188BFF36F8FDA
:104F8000BFF34F8F3B6200BFFEE7BB6B002B0AD124
:104F90004FF0500383F31188BFF36F8FBFF34F8F30
:104FA000FB6100BFFEE75C233B613B695C2B0AD0E1
:104FB0004FF0500383F31188BFF36F8FBFF34F8F10
:104FC000BB6100BFFEE73B69BB6B002B1ED07B6B58
:104FD000002B1BD0BB6B7B627B6A7A6B1A637B6A8C
:104FE000022283F85920002303937B6A029307F17E
:104FF000140301933B6B00933B687A68B968F868C7
:1050000000F050F8786A00F0DDF801E000237B61E1
:105010007B6918462837BD4680BD80B58CB004AF8B
:10502000F860B9603B601346FB80FB889B00184624
:1050300001F032FC78617B69002B0ED05C2001F01E
:105040002BFCF861FB69002B03D0FB697A691A63BA
:1050500005E0786901F0ECFC01E00023FB61FB69ED
:10506000002B17D0FB69002283F85920FA8800230F
:105070000393FB690293FB6A0193BB6A00933B684D
:10508000B968F86800F00EF8F86900F09BF80123A1
:10509000BB6102E04FF0FF33BB61BB6918462037AC
:1050A000BD4680BD80B588B000AFF860B9607A6059
:1050B0003B603B6B186B7B689B001A46A52102F096
:1050C0003FF83B6B1A6B7B6803F18043013B9B000D
:1050D0001344BB61BB6923F00703BB61BB6903F0E9
:1050E0000703002B0AD04FF0500383F31188BFF35E
:1050F0006F8FBFF34F8F7B6100BFFEE7BB68002B54
:105100001FD00023FB6112E0BA68FB6913441978D1
:105110003A6BFB69134434330A461A70BA68FB6968
:1051200013441B78002B06D0FB690133FB61FB693C
:105130000F2BE9D900E000BF3B6B002283F843202E
:1051400003E03B6B002283F83420BB6A372B01D984
:105150003723BB623B6BBA6ADA623B6BBA6ADA64CA
:105160003B6B00221A653B6B04331846FFF778F956
:105170003B6B18331846FFF773F93B6B3A6B1A61B8
:10518000BB6AC3F138023B6B9A613B6B3A6B5A6264
:105190003B6B00225A653B6B002283F858203A682B
:1051A000F968B86901F028F902463B6B1A60FB6A9E
:1051B000002B02D0FB6A3A6B1A6000BF2037BD4655
:1051C00080BD000080B582B000AF786001F042FA87
:1051D0002D4B1B6801332C4A13602C4B1B68002B92
:1051E00009D12A4A7B681360274B1B68012B10D119
:1051F00000F016FC0DE0264B1B68002B09D1234B59
:105200001B68DA6A7B68DB6A9A4202D81F4A7B68AD
:105210001360204B1B6801331E4A13601D4B1A6834
:105220007B685A647B68DA6A1B4B1B689A4203D915
:105230007B68DB6A184A13607B68DA6A13469B0056
:1052400013449B00154A1A447B68043319461046E0
:10525000FFF713F901F02EFA0D4B1B68002B0ED04F
:105260000A4B1B68DA6A7B68DB6A9A4207D20C4BEE
:105270004FF080521A60BFF34F8FBFF36F8F00BFA4
:105280000837BD4680BD00BF380C002064070020F1
:10529000440C0020540C0020400C00206807002023
:1052A00004ED00E080B584B000AF78600023FB60BF
:1052B0007B68002B17D0134B1B68002B0AD04FF0D4
:1052C000500383F31188BFF36F8FBFF34F8FBB6021
:1052D00000BFFEE700F080F80021786800F0EAFCEB
:1052E00000F088F8F860FB68002B07D1064B4FF000
:1052F00080521A60BFF34F8FBFF36F8F00BF10371C
:10530000BD4680BD600C002004ED00E080B58AB091
:1053100004AF0023BB6000237B603A46391D07F1D0
:1053200008031846FFF748F839687B68BA680292A4
:1053300001930023009300230A4621492148FFF7E7
:105340000FFE0346204A13601F4B1B68002B02D040
:1053500001237B6101E000237B617B69012B02D18A
:1053600000F0FCFC78617B69012B16D14FF05003F3
:1053700083F31188BFF36F8FBFF34F8F3B6100BF83
:10538000124B4FF0FF321A60114B01221A60114B81
:1053900000221A6001F0BCF80EE07B69B3F1FF3F18
:1053A0000AD14FF0500383F31188BFF36F8FBFF31F
:1053B0004F8FFB6000BFFEE700BF1837BD4680BDC2
:1053C000F0790008F15900085C0C0020580C00200E
:1053D000440C00203C0C002080B400AF044B1B6840
:1053E0000133034A136000BFBD465DF8047B70477C
:1053F000600C002080B584B000AF0023FB60002368
:10540000BB60424B1B68002B0AD14FF0500383F363
:105410001188BFF36F8FBFF34F8F3B6000BFFEE774
:1054200001F018F9394B1B68013B384A1360374BC0
:105430001B68002B62D1364B1B68002B5ED02FE01F
:10544000344BDB68DB68FB60FB6818331846FFF7FA
:1054500071F8FB6804331846FFF76CF8FB68DA6AEA
:105460002D4B1B689A4203D9FB68DB6A2A4A1360FA
:10547000FB68DA6A13469B0013449B00274A1A44D0
:10548000FB68043319461046FEF7F7FFFB68DA6A3B
:10549000234B1B68DB6A9A4202D3224B01221A601B
:1054A0001C4B1B68002BCBD1FB68002B01D000F0FC
:1054B00055FB1D4B1B687B607B68002B10D000F0F8
:1054C00047F80346002B02D0164B01221A607B6876
:1054D000013B7B607B68002BF1D1134B00221A60EB
:1054E000104B1B68002B09D00123BB600F4B4FF002
:1054F00080521A60BFF34F8FBFF36F8F01F0DAF85D
:10550000BB6818461037BD4680BD00BF600C002048
:10551000380C0020F80B0020400C00206807002009
:10552000640700204C0C0020480C002004ED00E033
:1055300080B483B000AF054B1B687B607B68184666
:105540000C37BD465DF8047B704700BF3C0C002063
:1055500080B586B000AF00237B614F4B1B68002BEA
:1055600040F08F804D4B1B6801333B614B4A3B69D8
:1055700013603B69002B20D1494B1B681B68002B33
:105580000AD04FF0500383F31188BFF36F8FBFF33E
:105590004F8F3B6000BFFEE7414B1B68FB60414BF8
:1055A0001B683F4A13603F4AFB6813603E4B1B6811
:1055B00001333D4A136000F0D1FA3C4B1B683A6955
:1055C0009A4249D3364B1B681B68002B04D1374BDA
:1055D0004FF0FF321A603FE0314B1B68DB68DB683D
:1055E000BB60BB685B687B603A697B689A4203D2A8
:1055F0002E4A7B6813602FE0BB6804331846FEF721
:1056000099FFBB689B6A002B04D0BB68183318460F
:10561000FEF790FFBB68DA6A254B1B689A4203D9F4
:10562000BB68DB6A224A1360BB68DA6A13469B00D8
:1056300013449B001F4A1A44BB68043319461046A2
:10564000FEF71BFFBB68DA6A1B4B1B68DB6A9A42DA
:10565000B8D301237B61B5E7174B1B68DA6A15499C
:1056600013469B0013449B000B441B68012B01D97C
:1056700001237B61114B1B68002B07D001237B6149
:1056800004E00F4B1B6801330D4A13607B69184619
:105690001837BD4680BD00BF600C00203C0C0020C8
:1056A000F00B0020F40B0020500C0020580C0020C0
:1056B000400C002068070020640700204C0C0020EC
:1056C000480C002080B485B000AF284B1B68002B2D
:1056D00003D0274B01221A6041E0254B00221A60BB
:1056E000244B1B68FB6010E0FB68002B0AD14FF0D5
:1056F000500383F31188BFF36F8FBFF34F8F7B602D
:1057000000BFFEE7FB68013BFB601B49FA681346DC
:105710009B0013449B000B441B68002BE4D0FA68E9
:1057200013469B0013449B00134A1344BB60BB68A1
:105730005B685A68BB685A60BB685A68BB680833C4
:105740009A4204D1BB685B685A68BB685A60BB6800
:105750005B68DB68094A1360064AFB68136000BF98
:105760001437BD465DF8047B704700BF600C002015
:105770004C0C0020400C002068070020640700202B
:1057800080B584B000AF786039607B68002B0AD1A7
:105790004FF0500383F31188BFF36F8FBFF34F8F28
:1057A000FB6000BFFEE7074B1B681833194678689B
:1057B000FEF787FE0121386800F07CFA00BF103741
:1057C000BD4680BD6407002080B586B000AFF8609C
:1057D000B9607A60FB68002B0AD14FF0500383F365
:1057E0001188BFF36F8FBFF34F8F7B6100BFFEE760
:1057F0000A4B1B6818331946F868FEF73EFE7B68B3
:10580000002B02D04FF0FF33BB607968B86800F01E
:1058100051FA00BF1837BD4680BD00BF64070020A5
:1058200080B586B000AF78607B68DB68DB683B6181
:105830003B69002B0AD14FF0500383F31188BFF36B
:105840006F8FBFF34F8FFB6000BFFEE73B691833DC
:105850001846FEF76FFE1E4B1B68002B1DD13B69DF
:1058600004331846FEF766FE3B69DA6A194B1B687B
:105870009A4203D93B69DB6A164A13603B69DA6ACC
:1058800013469B0013449B00134A1A443B6904339C
:1058900019461046FEF7F1FD05E03B69183319463D
:1058A0000E48FEF7EAFD3B69DA6A0D4B1B68DB6ABE
:1058B0009A4205D901237B610A4B01221A6001E05B
:1058C00000237B617B6918461837BD4680BD00BF49
:1058D000600C0020400C002068070020F80B00201E
:1058E000640700204C0C002080B483B000AF7860C7
:1058F000064B1A687B681A60054B1A687B685A6009
:1059000000BF0C37BD465DF8047B7047500C00208B
:105910003C0C002080B588B000AF786039607B68AF
:10592000002B0AD14FF0500383F31188BFF36F8F20
:10593000BFF34F8F3B6100BFFEE73B68002B0AD1EE
:105940004FF0500383F31188BFF36F8FBFF34F8F76
:10595000FB6000BFFEE700F07DFE1D4B1B68BB61D6
:105960007B685B68BA69D31A7B613B681B68B3F1DB
:10597000FF3F02D10023FB6123E07B681A68154BCF
:105980001B689A4207D07B685B68BA699A4202D367
:105990000123FB6115E03B681B687A699A420BD2D0
:1059A0003B681A687B69D21A3B681A607868FFF70F
:1059B0009BFF0023FB6104E03B6800221A60012387
:1059C000FB6100F077FEFB6918462037BD4680BDBD
:1059D0003C0C0020500C002080B400AF034B01228F
:1059E0001A6000BFBD465DF8047B70474C0C002078
:1059F00080B582B000AF786000F052F8064B1B68AB
:105A0000012BF9D9054B4FF080521A60BFF34F8F2D
:105A1000BFF36F8FF0E700BF6807002004ED00E0E0
:105A200080B582B000AF00237B600CE07A6813463B
:105A30009B0013449B00124A13441846FEF7F0FCE7
:105A40007B6801337B607B68372BEFD90D48FEF70D
:105A5000E7FC0D48FEF7E4FC0C48FEF7E1FC0C48BF
:105A6000FEF7DEFC0B48FEF7DBFC0B4B054A1A6029
:105A70000A4B054A1A6000BF0837BD4680BD00BF0B
:105A800068070020C80B0020DC0B0020F80B00206A
:105A90000C0C0020240C0020F00B0020F40B002044
:105AA00080B582B000AF19E000F0D4FD104BDB6888
:105AB000DB687B607B6804331846FEF73BFD0D4BCB
:105AC0001B68013B0B4A13600B4B1B68013B0A4AE6
:105AD000136000F0EFFD786800F010F8064B1B68CB
