:020000040800F2
:100000000000022091100008B90F0008BF0F00087F
:10001000C50F0008CB0F0008D10F0008000000003A
:100020000000000000000000000000005153000824
:10003000D70F000800000000A1550008E50F0008D8
:10004000E1100008E1100008E1100008E1100008CC
:10005000E1100008E1100008E1100008E1100008BC
:10006000E1100008E1100008E1100008E1100008AC
:10007000E1100008E1100008E1100008E11000089C
:10008000E1100008E1100008E1100008E11000088C
:10009000E1100008E1100008E1100008E11000087C
:1000A000E1100008E1100008E1100008E11000086C
:1000B000E1100008E1100008E1100008E11000085C
:1000C000E1100008E1100008E1100008E11000084C
:1000D000E1100008E1100008E1100008E11000083C
:1000E000E1100008E1100008E1100008E11000082C
:1000F000E1100008E1100008E1100008E11000081C
:10010000E1100008E1100008E1100008E11000080B
:10011000E1100008E1100008E1100008E1100008FB
:10012000E1100008E1100008E1100008E1100008EB
:10013000E1100008E1100008E1100008E1100008DB
:10014000E1100008E1100008E1100008E1100008CB
:10015000E1100008E1100008E1100008E1100008BB
:10016000E1100008E1100008E1100008E1100008AB
:10017000E1100008E1100008E11000080000000094
:08018000E1100008E110000885
:1001900010B5054C237833B9044B13B10448AFF3C1
:1001A00000800123237010BD7400002000000000B7
:1001B0002068000808B5034B1BB103490348AFF39F
:1001C000008008BD000000007800002020680008C2
:1001D00001F0FF01102A2BDB10F0070F08D010F8F8
:1001E000013B013A8B422DD010F0070F42B3F6D1FC
:1001F000F0B441EA012141EA014122F007047FF015
:1002000000070023F0E80256083C85EA010586EA6B
:10021000010685FA47F5A3FA87F586FA47F6A5FAA7
:1002200087F68EB9EED1F0BC01F0FF0102F00702B3
:1002300032B110F8013B013A83EA010313B1F8D15E
:100240000020704701387047002D06BF354603383F
:10025000073815F0010F07D1013015F4807F02BF78
:10026000013015F4C03F0130F0BC0138704700BFC9
:1002700053B94AB9002908BF00281CBF4FF0FF310D
:100280004FF0FF3000F06EB9ADF1080C6DE904CE0F
:1002900000F006F8DDF804E0DDE9022304B0704761
:1002A0002DE9F047089D04468C46002B40F08380E2
:1002B0008A42174647D9B2FA82F242B1C2F120000F
:1002C00024FA00F09140974040EA010C94404FEA34
:1002D0001748230CBCFBF8F61FFA87FE08FB16C173
:1002E00043EA014306FB0EF1994209D9FB1806F1D6
:1002F000FF3080F01981994240F21681023E3B4462
:100300005B1AA4B2B3FBF8F008FB103344EA0344D1
:1003100000FB0EFEA64509D93C1900F1FF3380F021
:100320000581A64540F2028102383C4440EA06407D
:10033000A4EB0E0400261DB1D4400023C5E9004300
:100340003146BDE8F08702B9FFDEB2FA82F2002A38
:1003500050D1CB1B4FEA174E1FFA87F80126B3FB8B
:10036000FEFC210C0EFB1C3341EA034108FB0CF39D
:100370008B4207D979180CF1FF3002D28B4200F280
:10038000E9808446C91AA3B2B1FBFEF00EFB10113E
:1003900043EA014408FB00F8A04507D93C1900F1E5
:1003A000FF3302D2A04500F2D9801846A4EB08041E
:1003B00040EA0C40BFE78B4209D9002D00F0B18024
:1003C0000026C5E9000130463146BDE8F087B3FAA2
:1003D00083F6002E4AD18B4202D3824200F2B880CB
:1003E000841A61EB030101208C46002DA8D0C5E9D9
:1003F000004CA5E7C2F1200320FA03F6974001FA6A
:1004000002F04FEA174ED9403043030CB1FBFEF621
:100410001FFA87F80EFB161143EA014306FB08F1A9
:10042000994204FA02F409D9FB1806F1FF3C80F066
:100430008D80994240F28A80023E3B445B1A81B231
:10044000B3FBFEF00EFB103341EA034100FB08F35F
:100450008B4207D9791800F1FF3C73D28B4271D9D6
:1004600002383944CB1A40EA064678E7C6F1200C38
:1004700003FA06F422FA0CF31C4320FA0CF701FAF3
:1004800006F34FEA144E21FA0CF11F433B0CB1FB6B
:10049000FEF91FFA84F80EFB191143EA014109FB2A
:1004A00008FA8A4502FA06F200FA06F308D961183A
:1004B00009F1FF3048D28A4546D9A9F10209214401
:1004C000A1EB0A01BFB2B1FBFEF00EFB101147EA2F
:1004D000014700FB08F8B84507D9E71900F1FF31DB
:1004E0002ED2B8452CD90238274440EA0940A7EB60
:1004F0000807A0FB02894F45C64649461AD317D0C4
:100500005DB1B3EB0E0267EB010707FA0CFCF2409A
:100510004CEA0202F740C5E9002700263146BDE853
:10052000F0872E4628460BE70646E9E61846FDE624
:100530004345E5D2B8EB020E69EB04010138DFE771
:100540000846D2E760468DE78146B9E7664675E71B
:1005500030464AE7ACF1020C394413E702383C4418
:1005600024E700BF704700BF80B500AF00F0BAFDC0
:1005700000F054F800F030FA00F0A2F900F04CF965
:1005800000F0AAF802F06CFD154A0021154802F0AF
:10059000B1FD0346144A1360144A0021144802F0C6
:1005A000A9FD0346134A1360134A0021134802F0C1
:1005B000A1FD0346124A1360124A0021124802F0BC
:1005C00099FD0346114A1360114A0021114802F0B7
:1005D00091FD0346104A136002F066FDFEE700BF7E
:1005E000BC680008C50A0008FC490020E068000853
:1005F000E50A0008F849002004690008290B0008F2
:10060000004A002028690008190C0008F44900205D
:100610004C690008090D0008944A002080B594B088
:1006200000AF07F1200330220021184605F0D0FC6E
:1006300007F10C0300221A605A609A60DA601A61AE
:100640000023BB60224B1B6C214A43F08053136490
:100650001F4B1B6C03F08053BB60BB6800237B60A7
:100660001C4B1B681B4A43F480431360194B1B68E7
:1006700003F480437B607B6802233B620123FB62BF
:1006800010233B630023BB6307F12003184601F0EE
:100690009DF80346002B01D000F052FB0F23FB60B6
:1006A00000233B6100237B610023BB610023FB61CE
:1006B00007F10C030021184601F000FB0346002B54
:1006C00001D000F03DFB00BF5037BD4680BD00BFEC
:1006D000003802400070004080B596B000AF07F1CE
:1006E000480300221A605A609A60DA6007F14003FA
:1006F00000221A605A6007F1240300221A605A602F
:100700009A60DA601A615A619A613B1D20220021C9
:10071000184605F05DFC3E4B3E4A1A603C4B4FF4D8
:10072000A0725A603A4B00229A60394B4FF47A72A9
:10073000DA60374B00221A61354B00225A61344B84
:1007400080229A61324801F055FC0346002B01D00B
:1007500000F0F6FA4FF48053BB6407F148031946E2
:100760002B4801F0A3FF0346002B01D000F0E8FA6C
:10077000274801F08EFC0346002B01D000F0E0FA80
:1007800000233B6400237B6407F1400319462048A3
:1007900002F064FB0346002B01D000F0D1FA602385
:1007A0007B620023BB620023FB6200237B63002388
:1007B000BB630023FB6307F124030C221946144892
:1007C00001F0B2FE0346002B01D000F0B9FA00237D
:1007D0007B600023BB600023FB6000233B610023A0
:1007E0007B614FF40053BB6100233B623B1D194604
:1007F000074802F0AFFB0346002B01D000F0A0FA3F
:10080000034800F09FFB00BF5837BD4680BD00BFC6
:10081000044A00200000014080B58CB000AF07F111
:100820000C0324220021184605F0D2FB3B1D0022B8
:100830001A605A60214B4FF080421A601F4B002211
:100840005A601E4B00229A601C4B4FF6FF72DA6012
:100850001A4B00221A61194B00229A610323FB6094
:1008600000233B6101237B610023BB610A23FB6101
:1008700000233B6201237B620023BB620A23FB62ED
:1008800007F10C0319460D4801F01AFD0346002B31
:1008900001D000F055FA00237B600023BB603B1DB4
:1008A0001946064802F0DAFA0346002B01D000F0A0
:1008B00047FA00BF3037BD4680BD00BF4C4A00201C
:1008C00080B592B000AF07F1400300221A605A6071
:1008D00007F1240300221A605A609A60DA601A61F4
:1008E0005A619A613B1D20220021184605F070FBD9
:1008F000374B384A1A60364B00225A60344B00227C
:100900009A60334B41F61F42DA60314B00221A6184
:100910002F4B00225A612E4B00229A612C4801F085
:10092000B8FB0346002B01D000F00AFA00233B6419
:1009300000237B6407F140031946254802F08EFA34
:100940000346002B01D000F0FBF960237B620023FB
:10095000BB620023FB6200233B6300237B63002315
:10096000BB630023FB6307F12403002219461848E8
:1009700001F0DAFD0346002B01D000F0E1F907F1A8
:10098000240304221946124801F0CEFD0346002B31
:1009900001D000F0D5F900237B600023BB60002369
:1009A000FB6000233B6100237B614FF40053BB617C
:1009B00000233B623B1D1946054802F0CBFA034673
:1009C000002B01D000F0BCF900BF4837BD4680BD08
:1009D000AC4900200004014080B58AB000AF07F1A7
:1009E000140300221A605A609A60DA601A610023C8
:1009F0003B61314B1B6B304A43F0100313632E4BAA
:100A00001B6B03F010033B613B690023FB602A4B27
:100A10001B6B294A43F001031363274B1B6B03F045
:100A20000103FB60FB680023BB60234B1B6B224A66
:100A300043F004031363204B1B6B03F00403BB6000
:100A4000BB6800237B601C4B1B6B1B4A43F00203FB
:100A50001363194B1B6B03F002037B607B6800225E
:100A60004FF4BC61154800F055FE00223C211448AB
:100A700000F050FE4FF4BC637B610123BB61002397
:100A8000FB6100233B6207F1140319460B4800F099
:100A9000A5FC3C237B610123BB610023FB61022396
:100AA0003B6207F114031946054800F097FC00BFAC
:100AB0002837BD4680BD00BF00380240001002400C
:100AC0000000024080B582B000AF78604FF48061D2
:100AD000034800F038FE41F2883002F09DFBF5E754
:100AE0000010024080B588B000AF786005F0ACF926
:100AF0000C4A07F10C0307CA83E8070007F1180343
:100B000000221A605A6007F10C031A460A210A20D3
:100B100005F068F904F0F2FF4FF47A7002F07CFB04
:100B2000F1E700BF746800082DE9B04384B000AF5E
:100B300078604FF000024FF00003C7E90223002164
:100B4000334801F0F5FA0421314801F0F1FA25E0CB
:100B5000012204212F4800F0DDFD002208212D484C
:100B600000F0D8FD012220212A4800F0D3FD002208
:100B70001021284800F0CEFDD7E90223541C43F190
:100B80000005C7E90245224B1B68BA685A63204B2F
:100B90001B68BA689A630A2002F03EFBD7E9022379
:100BA00040F69F704FF00001994208BF9042CFD2AB
:100BB00026E000220421174800F0ACFD01220821A4
:100BC000144800F0A7FD00222021124800F0A2FDE9
:100BD000012210210F4800F09DFDD7E9022312F1F8
:100BE000FF3843F1FF39C7E90289094B1B68BA682E
:100BF0005A63074B1B68BA689A630A2002F00CFB21
:100C0000D7E902231343D4D10A2002F005FBC5E73C
:100C1000AC4900200000024080B58CB000AF786085
:100C20003C21364801F0F2FB344B1B685B6AFB62E7
:100C300000F0BEFA786200F0BBFA02467B6AD31A73
:100C4000B3F57A7FF7D92D4B1B685B6A3B622B4B60
:100C50001B681B6803F01003102B10D13A6AFB6A63
:100C60009A4204DAFA6A3B6AD31ABB6217E03B6A1B
:100C7000C3F57F43FF33FA6A1344BB620FE03A6A5D
:100C8000FB6A9A4204DD3A6AFB6AD31ABB6206E049
:100C9000FB6AC3F57F43FF333A6A1344BB6207F133
:100CA0000803BA6A1649184605F09AF907F10803CD
:100CB0001A4614210A2005F095F8104B1B681B6892
:100CC00003F01003102B0CBF01230023DBB2FB83C6
:100CD000FA8B07F108030B49184605F081F907F173
:100CE00008031A461E210A2005F07CF8034B1B68F6
:100CF0005B6AFB6200F05CFA78629CE74C4A002079
:100D0000886800089468000880B582B000AF7860F9
:100D10000C210A4801F00CFA084B1B684B221A649C
:100D200041F2883002F078FA044B1B683C221A64C6
:100D300041F2883002F070FAEEE700BF044A00206A
:100D400080B400AF72B600BFFEE7000080B582B08D
:100D500000AF00237B60124B5B6C114A43F480436D
:100D600053640F4B5B6C03F480437B607B68002310
:100D70003B600B4B1B6C0A4A43F080531364084BD7
:100D80001B6C03F080533B603B6800220F216FF027
:100D9000010000F0FAFA00BF0837BD4680BD00BF71
:100DA0000038024080B485B000AF78607B681B6873
:100DB0000B4A93420DD10023FB600A4B5B6C094A3E
:100DC00043F001035364074B5B6C03F00103FB60CA
:100DD000FB6800BF1437BD465DF8047B704700BF59
:100DE000000001400038024080B58AB000AF786052
:100DF00007F1140300221A605A609A60DA601A61DF
:100E00007B681B68B3F1804F4AD100233B61264BBE
:100E10001B6C254A43F001031364234B1B6C03F046
:100E200001033B613B690023FB601F4B1B6B1E4AA8
:100E300043F0010313631C4B1B6B03F00103FB60C6
:100E4000FB680023BB60184B1B6B174A43F002037F
:100E50001363154B1B6B03F00203BB60BB684FF4BD
:100E600000437B610223BB610023FB6100233B62E3
:100E700001237B6207F1140319460C4800F0AEFA17
:100E800008237B610223BB610023FB6100233B62DB
:100E900001237B6207F114031946054800F09EFA0E
:100EA00000BF2837BD4680BD003802400000024028
:100EB0000004024080B58AB000AF786007F11403E7
:100EC00000221A605A609A60DA601A617B681B68B7
:100ED000194A93422BD100233B61184B5B6C174A94
:100EE00043F002035364154B5B6C03F002033B6158
:100EF0003B690023FB60114B1B6B104A43F004035A
:100F000013630E4B1B6B03F00403FB60FB68C023F1
:100F10007B610223BB610023FB6100233B6203234F
:100F20007B6207F114031946054800F057FA00BF29
:100F30002837BD4680BD00BF000401400038024094
:100F40000008024080B588B000AF786007F10C035C
:100F500000221A605A609A60DA601A617B681B6826
:100F6000124A93421ED10023BB60114B1B6B104AE7
:100F700043F0100313630E4B1B6B03F01003BB60B5
:100F8000BB684FF48043FB6002233B6100237B611D
:100F90000023BB610123FB6107F10C0319460548DF
:100FA00000F01CFA00BF2037BD4680BD00000140A4
:100FB000003802400010024080B400AFFEE780B469
:100FC00000AFFEE780B400AFFEE780B400AFFEE7FD
:100FD00080B400AFFEE780B400AF00BFBD465DF84F
:100FE000047B704780B500AF00F0CEF803F022FD1F
:100FF0000346012B01D004F007FB00BF80BD0000B9
:1010000080B586B000AF7860144A154BD31A7B6167
:101010007B693B61134B1B68002B02D1114B124AB9
:101020001A60104B1A687B6813443A699A4207D2D7
:1010300004F096FF03460C221A604FF0FF3309E0DC
:10104000084B1B68FB60074B1A687B681344054A12
:101050001360FB6818461837BD4680BD00000220AB
:101060000004000090000020F04E002080B400AF8B
:10107000064BD3F88830054A43F47003C2F8883031
:1010800000BFBD465DF8047B704700BF00ED00E087
:10109000DFF834D00D480E490E4A002302E0D45840
:1010A000C4500433C4188C42F9D30B4A0B4C0023B0
:1010B00001E013600432A242FBD3FFF7D7FF04F034
:1010C00055FFFFF751FA7047000002200000002092
:1010D000740000202874000874000020EC4E0020EA
:1010E000FEE7000080B500AF0E4B1B680D4A43F4CD
:1010F000007313600B4B1B680A4A43F48063136050
:10110000084B1B68074A43F480731360032000F008
:1011100031F90F2000F008F8FFF718FE00231846F9
:1011200080BD00BF003C024080B582B000AF786057
:10113000124B1A68124B1B7819464FF47A73B3FBA3
:10114000F1F3B2FBF3F3184600F03BF90346002B32
:1011500001D001230EE07B680F2B0AD800227968AA
:101160004FF0FF3000F011F9064A7B68136000234E
:1011700000E0012318460837BD4680BD000000206E
:10118000080000200400002080B400AF064B1B784C
:101190001A46064B1B681344044A136000BFBD4641
:1011A0005DF8047B704700BF08000020984A0020CB
:1011B00080B400AF034B1B681846BD465DF8047B46
:1011C000704700BF984A002080B584B000AF7860B7
:1011D000FFF7EEFFB8607B68FB60FB68B3F1FF3F91
:1011E00005D00A4B1B781A46FB681344FB6000BF0E
:1011F000FFF7DEFF0246BB68D31AFA689A42F7D8B7
:1012000000BF00BF1037BD4680BD00BF08000020F2
:1012100080B485B000AF78607B6803F00703FB60A3
:101220000C4BDB68BB60BA684FF6FF031340BB6032
:10123000FB681A02BB68134343F0BF6343F40033F7
:10124000BB60044ABB68D36000BF1437BD465DF87D
:10125000047B704700ED00E080B400AF044BDB6816
:101260001B0A03F007031846BD465DF8047B704770
:1012700000ED00E080B483B000AF03463960FB713D
:1012800097F90730002B0ADB3B68DAB20C4997F973
:1012900007301201D2B20B4483F800230AE03B6806
:1012A000DAB20849FB7903F00F03043B1201D2B212
:1012B0000B441A7600BF0C37BD465DF8047B7047BF
:1012C00000E100E000ED00E080B489B000AFF8601C
:1012D000B9607A60FB6803F00703FB61FB69C3F147
:1012E0000703042B28BF0423BB61FB690433062BCF
:1012F00002D9FB69033B00E000237B614FF0FF3222
:10130000BB6902FA03F3DA43BB681A407B699A406F
:101310004FF0FF317B6901FA03F3D9437B680B403F
:10132000134318462437BD465DF8047B7047000020
:1013300080B582B000AF78607B68013BB3F1807FFD
:1013400001D301230FE00A4A7B68013B53600F2160
:101350004FF0FF30FFF78EFF054B00229A60044BE1
:1013600007221A60002318460837BD4680BD00BF1B
:1013700010E000E080B582B000AF78607868FFF7D9
:1013800047FF00BF0837BD4680BD80B586B000AFBF
:101390000346B9607A60FB7300237B61FFF75CFF53
:1013A00078617A68B9687869FFF78EFF024697F925
:1013B0000F3011461846FFF75DFF00BF1837BD46D6
:1013C00080BD80B582B000AF78607868FFF7B0FF6D
:1013D000034618460837BD4680BD000080B489B07A
:1013E00000AF7860396000237B6100233B610023FC
:1013F000BB610023FB616BE10122FB6902FA03F38D
:101400007B613B681B687A6913403B613A697B6981
:101410009A4240F05A813B685B6803F00303012B5A
:1014200005D03B685B6803F00303022B30D17B6877
:101430009B68BB61FB695B00032202FA03F3DB4399
:10144000BA691340BB613B68DA68FB695B0002FA6A
:1014500003F3BA691343BB617B68BA699A607B681E
:101460005B68BB610122FB6902FA03F3DB43BA69E3
:101470001340BB613B685B681B0903F00102FB6919
:1014800002FA03F3BA691343BB617B68BA695A6015
:101490003B685B6803F00303032B17D07B68DB68B2
:1014A000BB61FB695B00032202FA03F3DB43BA6909
:1014B0001340BB613B689A68FB695B0002FA03F367
:1014C000BA691343BB617B68BA69DA603B685B68E1
:1014D00003F00303022B23D1FB69DA087B6808328F
:1014E00053F82230BB61FB6903F007039B000F2216
:1014F00002FA03F3DB43BA691340BB613B681A6924
:10150000FB6903F007039B0002FA03F3BA69134374
:10151000BB61FB69DA087B680832B96943F82210BD
:101520007B681B68BB61FB695B00032202FA03F363
:10153000DB43BA691340BB613B685B6803F003029D
:10154000FB695B0002FA03F3BA691343BB617B6872
:10155000BA691A603B685B6803F44033002B00F003
:10156000B4800023FB60604B5B6C5F4A43F48043B4
:1015700053645D4B5B6C03F48043FB60FB685B4A28
:10158000FB699B08023352F82330BB61FB6903F00F
:1015900003039B000F2202FA03F3DB43BA691340F3
:1015A000BB617B68524A93422BD07B68514A93427D
:1015B00025D07B68504A93421FD07B684F4A9342A4
:1015C00019D07B684E4A934213D07B684D4A9342B0
:1015D0000DD07B684C4A934207D07B684B4A9342BC
:1015E00001D107230EE008230CE006230AE00523BF
:1015F00008E0042306E0032304E0022302E00123C1
:1016000000E00023FA6902F0030292009340BA69F5
:101610001343BB613549FB699B080233BA6941F842
:1016200023203B4B1B68BB613B69DB43BA6913401A
:10163000BB613B685B6803F48033002B03D0BA695D
:101640003B691343BB61324ABB691360304B5B6833
:10165000BB613B69DB43BA691340BB613B685B68B4
:1016600003F40033002B03D0BA693B691343BB6119
:10167000274ABB695360264B9B68BB613B69DB43D0
:10168000BA691340BB613B685B6803F48013002BAD
:1016900003D0BA693B691343BB611D4ABB699360C0
:1016A0001B4BDB68BB613B69DB43BA691340BB6121
:1016B0003B685B6803F40013002B03D0BA693B69F5
:1016C0001343BB61124ABB69D360FB690133FB6101
:1016D000FB690F2B7FF690AE00BF00BF2437BD46DD
:1016E0005DF8047B704700BF0038024000380140BD
:1016F000000002400004024000080240000C0240CA
:10170000001002400014024000180240001C024079
:10171000003C014080B483B000AF78600B467B8012
:1017200013467B707B78002B03D07A887B689A61A4
:1017300003E07B881A047B689A6100BF0C37BD46C2
:101740005DF8047B704780B485B000AF78600B46CD
:101750007B807B685B69FB607A88FB6813401A04B6
:10176000FB68D9437B880B401A437B689A6100BFB2
:101770001437BD465DF8047B7047000080B483B029
:1017800000AF064B01221A60054B1B687B607B682B
:1017900000BF0C37BD465DF8047B704720000E4249
:1017A0000070004080B483B000AF064B00221A6086
:1017B000054B1B687B607B6800BF0C37BD465DF83E
:1017C000047B704720000E420070004080B586B058
:1017D00000AF78607B68002B01D1012364E27B6855
:1017E0001B6803F00103002B75D0A34B9B6803F02B
:1017F0000C03042B0CD0A04B9B6803F00C03082BAC
:1018000012D19D4B5B6803F48003B3F5800F0BD1BD
:10181000994B1B6803F40033002B5BD07B685B683B
:10182000002B57D101233FE27B685B68B3F5803F13
:1018300006D1914B1B68904A43F4803313601DE03E
:101840007B685B68B3F5A02F0CD18B4B1B688A4A71
:1018500043F480231360884B1B68874A43F480332A
:1018600013600BE0844B1B68834A23F480331360BE
:10187000814B1B68804A23F4802313607B685B687C
:10188000002B13D0FFF794FC386108E0FFF790FCC1
:1018900002463B69D31A642B01D9032304E2764B39
:1018A0001B6803F40033002BF0D014E0FFF780FC3A
:1018B000386108E0FFF77CFC02463B69D31A642BD1
:1018C00001D90323F0E16C4B1B6803F40033002BB8
:1018D000F0D100E000BF7B681B6803F00203002B1F
:1018E00063D0654B9B6803F00C03002B0BD0624B5D
:1018F0009B6803F00C03082B1CD15F4B5B6803F45F
:101900008003002B16D15C4B1B6803F00203002BF5
:1019100005D07B68DB68012B01D00123C4E1564B65
:101920001B6823F0F8027B681B69DB0052491343F4
:101930000B603AE07B68DB68002B20D04F4B012224
:101940001A60FFF735FC386108E0FFF731FC02460A
:101950003B69D31A022B01D90323A5E1464B1B682F
:1019600003F00203002BF0D0434B1B6823F0F80276
:101970007B681B69DB00404913430B6015E03F4B5C
:1019800000221A60FFF714FC386108E0FFF710FC32
:1019900002463B69D31A022B01D9032384E1364B5B
:1019A0001B6803F00203002BF0D17B681B6803F077
:1019B0000803002B30D07B685B69002B16D0304BBE
:1019C00001221A60FFF7F4FB386108E0FFF7F0FB33
:1019D00002463B69D31A022B01D9032364E1264B4B
:1019E0005B6F03F00203002BF0D015E0244B0022C4
:1019F0001A60FFF7DDFB386108E0FFF7D9FB02460C
:101A00003B69D31A022B01D903234DE11A4B5B6FBB
:101A100003F00203002BF0D17B681B6803F0040382
:101A2000002B00F0A0800023FB75134B1B6C03F010
:101A30008053002B0FD10023BB600F4B1B6C0E4A51
:101A400043F0805313640C4B1B6C03F08053BB605A
:101A5000BB680123FB750B4B1B6803F48073002BE1
:101A600021D1084B1B68074A43F480731360FFF7CA
:101A70009FFB386111E000BF003802400000474280
:101A8000800E474200700040FFF792FB02463B6920
:101A9000D31A022B01D9032306E1854B1B6803F4FB
:101AA0008073002BF0D07B689B68012B06D1814BA3
:101AB0001B6F804A43F0010313671CE07B689B683F
:101AC000052B0CD17B4B1B6F7A4A43F00403136741
:101AD000784B1B6F774A43F0010313670BE0754B9C
:101AE0001B6F744A23F001031367724B1B6F714A1B
:101AF00023F0040313677B689B68002B15D0FFF766
:101B000057FB38610AE0FFF753FB02463B69D31AE3
:101B100041F28832934201D90323C5E0654B1B6F24
:101B200003F00203002BEED014E0FFF741FB386115
:101B30000AE0FFF73DFB02463B69D31A41F28832C7
:101B4000934201D90323AFE05A4B1B6F03F002030A
:101B5000002BEED1FB7D012B05D1564B1B6C554A5A
:101B600023F0805313647B689B69002B00F09B80FB
:101B7000504B9B6803F00C03082B5CD07B689B697F
:101B8000022B41D14C4B00221A60FFF711FB386148
:101B900008E0FFF70DFB02463B69D31A022B01D97F
:101BA000032381E0434B1B6803F00073002BF0D14B
:101BB0007B68DA697B681B6A1A437B685B6A9B01F6
:101BC0001A437B689B6A5B08013B1B041A437B68D2
:101BD000DB6A1B06374913434B60374B01221A60FF
:101BE000FFF7E6FA386108E0FFF7E2FA02463B69E0
:101BF000D31A022B01D9032356E02E4B1B6803F0A6
:101C00000073002BF0D04EE02B4B00221A60FFF740
:101C1000CFFA386108E0FFF7CBFA02463B69D31AE6
:101C2000022B01D903233FE0224B1B6803F0007312
:101C3000002BF0D137E07B689B69012B01D1012398
:101C400032E01C4B5B68FB607B689B69012B28D0F2
:101C5000FB6803F480027B68DB699A4221D1FB6850
:101C600003F03F027B681B6A9A421AD1FA6847F672
:101C7000C07313407A68526A9201934211D1FB6893
:101C800003F440327B689B6A5B08013B1B049A4269
:101C900007D1FB6803F070627B68DB6A1B069A421F
:101CA00001D0012300E0002318461837BD4680BD4F
:101CB00000700040003802406000474280B584B0A8
:101CC00000AF786039607B68002B01D10123CCE044
:101CD000684B1B6803F007033A689A420CD9654BBE
:101CE0003A68D2B21A70634B1B6803F007033A6874
:101CF0009A4201D00123B8E07B681B6803F002031D
:101D0000002B20D07B681B6803F00403002B05D058
:101D1000594B9B68584A43F4E05393607B681B68B7
:101D200003F00803002B05D0534B9B68524A43F441
:101D300060439360504B9B6823F0F0027B689B6884
:101D40004D4913438B607B681B6803F00103002B34
:101D500044D07B685B68012B07D1474B1B6803F4B9
:101D60000033002B19D101237FE07B685B68022BD5
:101D700003D07B685B68032B07D13F4B1B6803F0E4
:101D80000073002B09D101236FE03B4B1B6803F06C
:101D90000203002B01D1012367E0374B9B6823F03E
:101DA00003027B685B68344913438B60FFF700FADA
:101DB000F8600AE0FFF7FCF90246FB68D31A41F22B
:101DC0008832934201D903234FE02B4B9B6803F0E9
:101DD0000C027B685B689B009A42EBD1254B1B6829
:101DE00003F007033A689A420CD2224B3A68D2B207
:101DF0001A70204B1B6803F007033A689A4201D01F
:101E0000012332E07B681B6803F00403002B08D039
:101E1000194B9B6823F4E0527B68DB681649134337
:101E20008B607B681B6803F00803002B09D0124B02
:101E30009B6823F460427B681B69DB000E491343F7
:101E40008B6000F021F802460B4B9B681B0903F0E6
:101E50000F030A49CB5C22FA03F3094A1360094BCA
:101E60001B681846FFF760F9002318461037BD4677
:101E700080BD00BF003C024000380240706900088D
:101E80000000002004000020B0B584B000AF0021A5
:101E900079600021F960002139600021B960524960
:101EA000896801F00C0108290DD0082900F29480FE
:101EB000002902D0042903D08EE04C4BBB608EE099
:101EC0004B4BBB608BE04849496801F03F017960AA
:101ED0004549496801F48001002924D042494968F4
:101EE000890908464FF0000140F2FF144FF0000549
:101EF00000EA040201EA05033D4901FB03F0002169
:101F000001FB02F144183A49A2FB0101631819468A
:101F10007B681A464FF00003FEF7AAF902460B460B
:101F20001346FB604AE0304B5B689B091A464FF052
:101F3000000340F2FF104FF0000102EA000403EA40
:101F40000105204629464FF000024FF000034B01E7
:101F500043EAD063420110461946001B61EB0501BC
:101F60004FF000024FF000038B0143EA90638201BF
:101F7000121A63EB01034FF000004FF00001D9008B
:101F800041EA5271D00002460B46121945EB030399
:101F90004FF000004FF00001990241EA9251900287
:101FA00002460B46104619467B681A464FF000035E
:101FB000FEF75EF902460B461346FB600A4B5B6870
:101FC0001B0C03F0030301335B003B60FA683B68C2
:101FD000B2FBF3F3BB6002E0044BBB6000BFBB6825
:101FE00018461037BD46B0BD003802400024F4004A
:101FF00040787D0180B582B000AF78607B68002BAF
:1020000001D1012341E07B6893F83D30DBB2002B26
:1020100006D17B68002283F83C207868FEF7C2FE78
:102020007B68022283F83D207B681A687B68043352
:102030001946104600F002FC7B68012283F8462016
:102040007B68012283F83E207B68012283F83F20D1
:102050007B68012283F840207B68012283F84120BD
:102060007B68012283F842207B68012283F84320A9
:102070007B68012283F844207B68012283F8452095
:102080007B68012283F83D20002318460837BD46AF
:1020900080BD80B582B000AF78607B68002B01D135
:1020A000012341E07B6893F83D30DBB2002B06D181
:1020B0007B68002283F83C207868FEF7FBFE7B6893
:1020C000022283F83D207B681A687B680433194636
:1020D000104600F0B3FB7B68012283F846207B6842
:1020E000012283F83E207B68012283F83F207B6831
:1020F000012283F840207B68012283F841207B681D
:10210000012283F842207B68012283F843207B6808
:10211000012283F844207B68012283F845207B68F4
:10212000012283F83D20002318460837BD4680BDB4
:1021300080B584B000AF786039603B68002B09D16E
:102140007B6893F83E30DBB2012B14BF01230023E0
:10215000DBB222E03B68042B09D17B6893F83F3067
:10216000DBB2012B14BF01230023DBB215E03B6877
:10217000082B09D17B6893F84030DBB2012B14BFE8
:1021800001230023DBB208E07B6893F84130DBB227
:10219000012B14BF01230023DBB2002B01D001234C
:1021A0007CE03B68002B04D17B68022283F83E2050
:1021B00013E03B68042B04D17B68022283F83F20A4
:1021C0000BE03B68082B04D17B68022283F8402097
:1021D00003E07B68022283F841207B681B680122B0
:1021E0003968184600F014FE7B681B682D4A93423C
:1021F00004D07B681B682C4A934201D1012300E084
:102200000023002B07D07B681B685A6C7B681B6817
:1022100042F400425A647B681B68224A934222D0EF
:102220007B681B68B3F1804F1DD07B681B681F4A19
:10223000934218D07B681B681D4A934213D07B6879
:102240001B681C4A93420ED07B681B68164A934257
:1022500009D07B681B68184A934204D07B681B68CE
:10226000164A934211D17B681B689B6803F00703F1
:10227000FB60FB68062B10D07B681B681A687B68C4
:102280001B6842F001021A6007E07B681B681A684D
:102290007B681B6842F001021A6000231846103761
:1022A000BD4680BD00000140000401400004004024
:1022B00000080040000C00400040014000180040B1
:1022C00080B586B000AF786039607B68002B01D1A3
:1022D000012397E07B6893F83D30DBB2002B06D1F9
:1022E0007B68002283F83C207868FEF77DFD7B68E0
:1022F000022283F83D207B681B689B687A6812681D
:1023000023F4804323F0070393607B681A687B689B
:1023100004331946104600F091FA7B681B689B68ED
:102320007B617B681B689B693B617B681B681B6AE0
:10233000FB603B681B687A6913437B613B6923F44C
:10234000407323F003033B613B689A683B689B69D9
:102350001B0213433A6913433B613B6923F4406317
:1023600023F00C033B613B6923F4704323F0F0033B
:102370003B613B68DA683B68DB691B0213433A69DF
:1023800013433B613B681B691A013B681B6A1B03D3
:1023900013433A6913433B61FB6823F02203FB605C
:1023A000FB6823F08803FB603B685A683B685B6905
:1023B0001B011343FA681343FB607B681B687A694F
:1023C0009A607B681B683A699A617B681B68FA6847
:1023D0001A627B68012283F846207B68012283F819
:1023E0003E207B68012283F83F207B68012283F82E
:1023F00042207B68012283F843207B68012283F816
:102400003D20002318461837BD4680BD80B584B0F6
:1024100000AF786039607B6893F83E30FB737B686F
:1024200093F83F30BB737B6893F842307B737B68D3
:1024300093F843303B733B68002B10D1FB7B012B9F
:1024400002D17B7B012B01D0012369E07B68022252
:1024500083F83E207B68022283F8422031E03B680B
:10246000042B10D1BB7B012B02D13B7B012B01D074
:10247000012355E07B68022283F83F207B6802221B
:1024800083F843201DE0FB7B012B08D1BB7B012B94
:1024900005D17B7B012B02D13B7B012B01D001239A
:1024A0003EE07B68022283F83E207B68022283F8AC
:1024B0003F207B68022283F842207B68022283F857
:1024C00043203B68002B03D03B68042B08D00FE06F
:1024D0007B681B6801220021184600F099FC16E079
:1024E0007B681B6801220421184600F091FC0EE075
:1024F0007B681B6801220021184600F089FC7B687C
:102500001B6801220421184600F082FC00BF7B6892
:102510001B681A687B681B6842F001021A6000237E
:1025200018461037BD4680BD80B586B000AFF86054
:10253000B9607A600023FB75FB6893F83C30012B8F
:1025400001D10223AEE0FB68012283F83C207B68C6
:102550000C2B00F29F8001A252F823F09125000875
:10256000952600089526000895260008D125000824
:1025700095260008952600089526000813260008D1
:102580009526000895260008952600085326000881
:10259000FB681B68B968184600F0F0F9FB681B6817
:1025A0009A69FB681B6842F008029A61FB681B6825
:1025B0009A69FB681B6822F004029A61FB681B6839
:1025C0009969BB681A69FB681B680A439A6164E0F1
:1025D000FB681B68B968184600F040FAFB681B6886
:1025E0009A69FB681B6842F400629A61FB681B6889
:1025F0009A69FB681B6822F480629A61FB681B6819
:102600009969BB681B691A02FB681B680A439A61D7
:1026100043E0FB681B68B968184600F095FAFB6850
:102620001B68DA69FB681B6842F00802DA61FB6824
:102630001B68DA69FB681B6822F00402DA61FB6838
:102640001B68D969BB681A69FB681B680A43DA61B1
:1026500023E0FB681B68B968184600F0E9FAFB68DC
:102660001B68DA69FB681B6842F40062DA61FB6888
:102670001B68DA69FB681B6822F48062DA61FB6818
:102680001B68D969BB681B691A02FB681B680A438F
:10269000DA6102E00123FB7500BFFB68002283F8CA
:1026A0003C20FB7D18461837BD4680BD80B584B000
:1026B00000AF786039600023FB737B6893F83C308F
:1026C000012B01D10223B4E07B68012283F83C2076
:1026D0007B68022283F83D207B681B689B68BB6097
:1026E000BB6823F07703BB60BB6823F47F43BB6008
:1026F0007B681B68BA689A603B681B68B3F5005F2B
:102700003ED0B3F5005F00F28780B3F5805F00F044
:102710008680B3F5805F7FD8702B1AD0702B7BD862
:10272000602B50D0602B77D8502B3CD0502B73D8D7
:10273000402B58D0402B6FD8302B64D0302B6BD827
:10274000202B60D0202B67D8002B5CD0102B5AD0C8
:1027500062E07B6818683B6899683B685A683B6828
:10276000DB6800F035FB7B681B689B68BB60BB685F
:1027700043F07703BB607B681B68BA689A604FE0E0
:102780007B6818683B6899683B685A683B68DB68F7
:1027900000F01EFB7B681B689A687B681B6842F42C
:1027A00080429A603CE07B6818683B6859683B68E7
:1027B000DB681A4600F092FA7B681B6850211846C5
:1027C00000F0EBFA2CE07B6818683B6859683B68BE
:1027D000DB681A4600F0B1FA7B681B686021184676
:1027E00000F0DBFA1CE07B6818683B6859683B68BE
:1027F000DB681A4600F072FA7B681B6840211846B5
:1028000000F0CBFA0CE07B681A683B681B6819463D
:10281000104600F0C2FA03E00123FB7300E000BFA2
:102820007B68012283F83D207B68002283F83C20EE
:10283000FB7B18461037BD4680BD000080B485B0D4
:1028400000AF786039607B681B68FB607B68404A3A
:10285000934213D07B68B3F1804F0FD07B683D4A21
:1028600093420BD07B683C4A934207D07B683B4A3B
:10287000934203D07B683A4A934208D1FB6823F025
:102880007003FB603B685B68FA681343FB607B681E
:102890002F4A93422BD07B68B3F1804F27D07B68BF
:1028A0002C4A934223D07B682B4A93421FD07B68EB
:1028B0002A4A93421BD07B68294A934217D07B68EF
:1028C000284A934213D07B68274A93420FD07B68F3
:1028D000264A93420BD07B68254A934207D07B68F7
:1028E000244A934203D07B68234A934208D1FB6871
:1028F00023F44073FB603B68DB68FA681343FB60BA
:10290000FB6823F080023B685B691343FB607B68D4
:10291000FA681A603B689A687B68DA623B681A68F2
:102920007B689A627B680A4A934203D07B680C4AB0
:10293000934203D13B681A697B681A637B68012262
:102940005A6100BF1437BD465DF8047B704700BF75
:10295000000001400004004000080040000C00405E
:102960000004014000400140004401400048014093
:1029700000180040001C00400020004080B487B0D8
:1029800000AF786039607B681B6A23F001027B68C6
:102990001A627B681B6A7B617B685B683B617B6852
:1029A0009B69FB60FB6823F07003FB60FB6823F00E
:1029B0000303FB603B681B68FA681343FB607B6999
:1029C00023F002037B613B689B687A6913437B6158
:1029D0007B68204A934203D07B681F4A93420CD104
:1029E0007B6923F008037B613B68DB687A691343EA
:1029F0007B617B6923F004037B617B68154A93420A
:102A000003D07B68144A934211D13B6923F480734D
:102A10003B613B6923F400733B613B685B693A6946
:102A200013433B613B689B693A6913433B617B6895
:102A30003A695A607B68FA689A613B685A687B68B1
:102A40005A637B687A691A6200BF1C37BD465DF81D
:102A5000047B7047000001400004014080B487B04F
:102A600000AF786039607B681B6A23F010027B68D6
:102A70001A627B681B6A7B617B685B683B617B6871
:102A80009B69FB60FB6823F4E043FB60FB6823F475
:102A90004073FB603B681B681B02FA681343FB60D2
:102AA0007B6923F020037B613B689B681B017A698B
:102AB00013437B617B68224A934203D07B68214A9F
:102AC00093420DD17B6923F080037B613B68DB6817
:102AD0001B017A6913437B617B6923F040037B61AF
:102AE0007B68174A934203D07B68164A934213D1FE
:102AF0003B6923F480633B613B6923F400633B61E2
:102B00003B685B699B003A6913433B613B689B6987
:102B10009B003A6913433B617B683A695A607B6862
:102B2000FA689A613B685A687B689A637B687A693D
:102B30001A6200BF1C37BD465DF8047B704700BFBA
:102B4000000001400004014080B487B000AF78600D
:102B500039607B681B6A23F480727B681A627B6829
:102B60001B6A7B617B685B683B617B68DB69FB6040
:102B7000FB6823F07003FB60FB6823F00303FB603A
:102B80003B681B68FA681343FB607B6923F400739E
:102B90007B613B689B681B027A6913437B617B689E
:102BA000214A934203D07B68204A93420DD17B692E
:102BB00023F400637B613B68DB681B027A69134383
:102BC0007B617B6923F480637B617B68164A934257
:102BD00003D07B68154A934213D13B6923F4805399
:102BE0003B613B6923F400533B613B685B691B011C
:102BF0003A6913433B613B689B691B013A69134384
:102C00003B617B683A695A607B68FA68DA613B68C5
:102C10005A687B68DA637B687A691A6200BF1C377E
:102C2000BD465DF8047B7047000001400004014090
:102C300080B487B000AF786039607B681B6A23F48A
:102C400080527B681A627B681B6A3B617B685B68A9
:102C50007B617B68DB69FB60FB6823F4E043FB601E
:102C6000FB6823F44073FB603B681B681B02FA6837
:102C70001343FB603B6923F400533B613B689B6853
:102C80001B033A6913433B617B68124A934203D0AA
:102C90007B68114A934209D17B6923F480437B61AD
:102CA0003B685B699B017A6913437B617B687A6946
:102CB0005A607B68FA68DA613B685A687B681A6414
:102CC0007B683A691A6200BF1C37BD465DF8047B19
:102CD000704700BF000001400004014080B487B08D
:102CE00000AFF860B9607A60FB681B6A7B61FB68C3
:102CF0001B6A23F00102FB681A62FB689B693B6157
:102D00003B6923F0F0033B617B681B013A69134385
:102D10003B617B6923F00A037B617A69BB681343DB
:102D20007B61FB683A699A61FB687A691A6200BF45
:102D30001C37BD465DF8047B704780B487B000AF98
:102D4000F860B9607A60FB681B6A23F01002FB68C8
:102D50001A62FB689B697B61FB681B6A3B617B694C
:102D600023F470437B617B681B037A6913437B61A7
:102D70003B6923F0A0033B61BB681B013A69134325
:102D80003B61FB687A699A61FB683A691A6200BF25
:102D90001C37BD465DF8047B704780B485B000AF3A
:102DA000786039607B689B68FB60FB6823F0700388
:102DB000FB603A68FB68134343F00703FB607B68E2
:102DC000FA689A6000BF1437BD465DF8047B70470F
:102DD00080B487B000AFF860B9607A603B60FB6890
:102DE0009B687B617B6923F47F437B613B681A02AC
:102DF0007B681A43BB6813437A6913437B61FB68A2
:102E00007A699A6000BF1C37BD465DF8047B704745
:102E100080B487B000AFF860B9607A60BB6803F037
:102E20001F03012202FA03F37B61FB681A6A7B69C4
:102E3000DB431A40FB681A62FB681A6ABB6803F03E
:102E40001F03796801FA03F31A43FB681A6200BF93
:102E50001C37BD465DF8047B7047000080B485B028
:102E600000AF786039607B6893F83C30012B01D16A
:102E700002235AE07B68012283F83C207B6802220F
:102E800083F83D207B681B685B68FB607B681B6880
:102E90009B68BB60FB6823F07003FB603B681B68AA
:102EA000FA681343FB607B681B68FA685A607B68AA
:102EB0001B68214A934222D07B681B68B3F1804F84
:102EC0001DD07B681B681D4A934218D07B681B6825
:102ED0001B4A934213D07B681B681A4A93420ED058
:102EE0007B681B68184A934209D07B681B68174AA5
:102EF000934204D07B681B68154A93420CD1BB688F
:102F000023F08003BB603B685B68BA681343BB6017
:102F10007B681B68BA689A607B68012283F83D2051
:102F20007B68002283F83C20002318461437BD46F6
:102F30005DF8047B704700BF0000014000040040C2
:102F400000080040000C0040000401400040014027
:102F50000018004080B485B000AF7860396000236D
:102F6000FB607B6893F83C30012B01D102233DE0EC
:102F70007B68012283F83C20FB6823F0FF023B685A
:102F8000DB681343FB60FB6823F440723B689B687B
:102F90001343FB60FB6823F480623B685B68134368
:102FA000FB60FB6823F400623B681B681343FB6013
:102FB000FB6823F480523B681B691343FB60FB688A
:102FC00023F400523B685B691343FB60FB6823F406
:102FD00080423B68DB691343FB607B681B68FA68CF
:102FE0005A647B68002283F83C200023184614377B
:102FF000BD465DF8047B704780B483B000AF0346E4
:103000003960FB7197F90730002B0ADB3B68DAB2B5
:103010000C4997F907301201D2B20B4483F8002310
:103020000AE03B68DAB20849FB7903F00F03043B7E
:103030001201D2B20B441A7600BF0C37BD465DF8C0
:10304000047B704700E100E000ED00E080B500AFD8
:1030500000216FF00400FFF7CFFF00BF80BD00002C
:1030600080B483B000AFEFF305833B603B68002B77
:1030700003D06FF005037B600CE00A4B1B68002B4C
:1030800005D1084B01221A6000237B6002E04FF05B
:10309000FF337B607B6818460C37BD465DF8047BC8
:1030A000704700BF9400002080B582B000AFEFF3FE
:1030B00005833B603B68002B03D06FF005037B600A
:1030C00010E00B4B1B68012B09D1FFF7BFFF084B2A
:1030D00002221A6001F066F800237B6002E04FF0E4
:1030E000FF337B607B6818460837BD4680BD00BF54
:1030F0009400002080B58EB004AFF860B9607A60AB
:1031000000233B61EFF305837B617B69002B7ED15C
:10311000FB68002B7BD080233B621823FB610023DC
:103120007B624FF0FF33BB617B68002B45D07B682F
:103130001B68002B02D07B681B687B627B689B69E5
:10314000002B02D07B689B69FB61FB69002B08D0D8
:10315000FB69382B05D87B685B6803F00103002B03
:1031600001D0002354E07B685B69002B03D07B68AF
:103170005B699B083B627B689B68002B0ED07B6879
:10318000DB685B2B0AD97B681B69002B06D07B6848
:103190005B69002B02D00123BB6110E07B689B6858
:1031A000002B0CD17B68DB68002B08D17B681B6986
:1031B000002B04D10023BB6101E00023BB61BB698C
:1031C000012B10D17B681B697A6892680292019387
:1031D000FB690093BB683A6A796AF86800F00CFEF4
:1031E00003463B6113E0BB69002B10D13B6A9AB2E6
:1031F00007F110030193FB690093BB68796AF868D3
:1032000000F057FE0346012B01D000233B613B69D0
:1032100018462837BD4680BD80B584B000AF7860C1
:10322000EFF30583BB60BB68002B03D06FF0050391
:10323000FB6007E00023FB607B68002B02D078680E
:1032400000F07CFFFB6818461037BD4680BD0000CB
:1032500080B485B000AFF860B9607A60FB68074A57
:103260001A60BB68064A1A607B6880221A6000BF39
:103270001437BD465DF8047B704700BF98000020FE
:10328000F400002080B485B000AFF860B9607A60C7
:10329000FB68074A1A60BB68064A1A607B684FF4ED
:1032A00080721A6000BF1437BD465DF8047B70471A
:1032B000F40200205003002080B483B000AF786097
:1032C0007B6803F108027B685A607B684FF0FF322D
:1032D0009A607B6803F108027B68DA607B6803F11F
:1032E00008027B681A617B6800221A6000BF0C37F5
:1032F000BD465DF8047B704780B483B000AF786052
:103300007B6800221A6100BF0C37BD465DF8047B64
:10331000704780B485B000AF786039607B685B68C7
:10332000FB603B68FA685A60FB689A683B689A6081
:10333000FB689B683A685A60FB683A689A603B6829
:103340007A681A617B681B685A1C7B681A6000BF28
:103350001437BD465DF8047B704780B485B000AF7C
:10336000786039603B681B68BB60BB68B3F1FF3FA6
:1033700003D17B681B69FB600CE07B680833FB6052
:1033800002E0FB685B68FB60FB685B681B68BA680F
:103390009A42F6D2FB685A683B685A603B685B68A1
:1033A0003A689A603B68FA689A60FB683A685A60C3
:1033B0003B687A681A617B681B685A1C7B681A60D4
:1033C00000BF1437BD465DF8047B704780B485B0FC
:1033D00000AF78607B681B69FB607B685B687A681C
:1033E00092689A607B689B687A6852685A60FB684A
:1033F0005B687A689A4203D17B689A68FB685A6076
:103400007B6800221A61FB681B685A1EFB681A6001
:10341000FB681B6818461437BD465DF8047B70478F
:1034200080B584B000AF786039607B68FB60FB6872
:10343000002B0AD14FF0500383F31188BFF36F8F35
:10344000BFF34F8FBB6000BFFEE702F04BF8FB6895
:103450001A68FB68DB6BF968096C01FB03F31A441B
:10346000FB689A60FB6800229A63FB681A68FB6835
:103470005A60FB681A68FB68DB6B013BF968096CF2
:1034800001FB03F31A44FB68DA60FB68FF2283F850
:103490004420FB68FF2283F845203B68002B14D1B1
:1034A000FB681B69002B1AD0FB681033184601F02B
:1034B00003F90346002B12D00C4B4FF080521A60D8
:1034C000BFF34F8FBFF36F8F09E0FB6810331846CF
:1034D000FFF7F2FEFB6824331846FFF7EDFE02F01B
:1034E00031F8012318461037BD4680BD04ED00E0D9
:1034F00080B58EB002AFF860B9607A603B60FB685F
:10350000002B0AD14FF0500383F31188BFF36F8F64
:10351000BFF34F8FBB6200BFFEE73B68002B0AD1B1
:103520004FF0500383F31188BFF36F8FBFF34F8FBA
:103530007B6200BFFEE77B68002B02D0BB68002BDC
:1035400001D0012300E00023002B0AD14FF05003EB
:1035500083F31188BFF36F8FBFF34F8F3B6200BFC0
:10356000FEE77B68002B02D1BB68002B01D1012351
:1035700000E00023002B0AD14FF0500383F31188A1
:10358000BFF36F8FBFF34F8FFB6100BFFEE7502388
:103590007B617B69502B0AD04FF0500383F3118875
:1035A000BFF36F8FBFF34F8FBB6100BFFEE77B6937
:1035B0003B68FB62FB6A002B0DD0FB6A012283F89B
:1035C000462097F83820FB6A009313467A68B9685A
:1035D000F86800F005F8FB6A18463037BD4680BD34
:1035E00080B584B000AFF860B9607A60FB70BB68EA
:1035F000002B03D1BB69BA691A6002E0BB697A6823
:103600001A60BB69FA68DA63BB69BA681A64012197
:10361000B869FFF705FFBB69FA7883F84C2000BF53
:103620001037BD4680BD000080B58EB000AFF86099
:10363000B9607A603B6000237B63FB683B633B6B54
:10364000002B0AD14FF0500383F31188BFF36F8F23
:10365000BFF34F8FBB6200BFFEE7BB68002B03D1F7
:103660003B6B1B6C002B01D1012300E00023002BDE
:103670000AD14FF0500383F31188BFF36F8FBFF36C
:103680004F8F7B6200BFFEE73B68022B03D13B6B91
:10369000DB6B012B01D1012300E00023002B0AD1B9
:1036A0004FF0500383F31188BFF36F8FBFF34F8F39
:1036B0003B6200BFFEE701F0BDF90346002B02D1DB
:1036C0007B68002B01D1012300E00023002B0AD1ED
:1036D0004FF0500383F31188BFF36F8FBFF34F8F09
:1036E000FB6100BFFEE701F0FDFE3B6B9A6B3B6B9D
:1036F000DB6B9A4202D33B68022B29D13A68B96846
:10370000386B00F00BFAF8623B6B5B6A002B10D051
:103710003B6B2433184600F0CFFF0346002B13D039
:103720003F4B4FF080521A60BFF34F8FBFF36F8F44
:103730000AE0FB6A002B07D0394B4FF080521A6029
:10374000BFF34F8FBFF36F8F01F0FCFE012363E0E7
:103750007B68002B03D101F0F5FE00235CE07B6B5E
:10376000002B06D107F11403184601F009F80123D4
:103770007B6301F0E7FE00F07BFD01F0B3FE3B6BE5
:1037800093F844305BB2B3F1FF3F03D13B6B0022AF
:1037900083F844203B6B93F845305BB2B3F1FF3FB5
:1037A00003D13B6B002283F8452001F0CBFE3A1D8C
:1037B00007F114031146184600F0F8FF0346002BEA
:1037C00024D1386B00F0A2FA0346002B18D03B6BD3
:1037D00010337A681146184600F01EFF386B00F06F
:1037E0002DFA00F053FD0346002B7FF47CAF0C4B09
:1037F0004FF080521A60BFF34F8FBFF36F8F72E7A5
:10380000386B00F01BFA00F041FD6CE7386B00F0FC
:1038100015FA00F03BFD002318463837BD4680BD41
:1038200004ED00E080B590B000AFF860B9607A6058
:103830003B60FB68BB63BB6B002B0AD14FF05003AE
:1038400083F31188BFF36F8FBFF34F8FBB6200BF4D
:10385000FEE7BB68002B03D1BB6B1B6C002B01D1B7
:10386000012300E00023002B0AD14FF0500383F323
:103870001188BFF36F8FBFF34F8F7B6200BFFEE7EE
:103880003B68022B03D1BB6BDB6B012B01D1012306
:1038900000E00023002B0AD14FF0500383F311887E
:1038A000BFF36F8FBFF34F8F3B6200BFFEE701F0A6
:1038B000FBFEEFF311824FF0500383F31188BFF347
:1038C0006F8FBFF34F8FFA61BB61FB697B63BB6B8B
:1038D0009A6BBB6BDB6B9A4202D33B68022B2FD1F6
:1038E000BB6B93F8453087F83330BB6B9B6BFB6247
:1038F0003A68B968B86B00F011F997F93330B3F151
:10390000FF3F12D1BB6B5B6A002B16D0BB6B24331D
:10391000184600F0D1FE0346002B0ED07B68002B2A
:103920000BD07B6801221A6007E097F8333001332F
:10393000DBB25AB2BB6B83F845200123FB6301E085
:103940000023FB637B6B7B617B6983F3118800BF82
:10395000FB6B18464037BD4680BD000080B58CB07B
:1039600000AFF860B9607A600023FB62FB68BB625D
:10397000BB6A002B0AD14FF0500383F31188BFF3C9
:103980006F8FBFF34F8F3B6200BFFEE7BB68002B1A
:1039900003D1BB6A1B6C002B01D1012300E0002383
:1039A000002B0AD14FF0500383F31188BFF36F8FC0
:1039B000BFF34F8FFB6100BFFEE701F03BF803460A
:1039C000002B02D17B68002B01D1012300E00023F2
:1039D000002B0AD14FF0500383F31188BFF36F8F90
:1039E000BFF34F8FBB6100BFFEE701F07BFDBB6AF9
:1039F0009B6B7B627B6A002B1FD0B968B86A00F0B2
:103A0000F7F87B6A5A1EBB6A9A63BB6A1B69002B74
:103A10000FD0BB6A1033184600F04EFE0346002B51
:103A200007D03D4B4FF080521A60BFF34F8FBFF36A
:103A30006F8F01F087FD012369E07B68002B03D1C4
:103A400001F080FD002362E0FB6A002B06D107F144
:103A50001003184600F094FE0123FB6201F072FD92
:103A600000F006FC01F03EFDBB6A93F844305BB207
:103A7000B3F1FF3F03D1BB6A002283F84420BB6A45
:103A800093F845305BB2B3F1FF3F03D1BB6A00222C
:103A900083F8452001F056FD3A1D07F11003114649
:103AA000184600F083FE0346002B23D1B86A00F0CD
:103AB00017F90346002B17D0BB6A24337A681146E6
:103AC000184600F0A9FDB86A00F0B8F800F0DEFB77
:103AD0000346002B89D1104B4FF080521A60BFF380
:103AE0004F8FBFF36F8F80E7B86A00F0A7F800F040
:103AF000CDFB7AE7B86A00F0A1F800F0C7FBB86A1E
:103B000000F0EEF80346002B3FF46FAF0023184699
:103B10003037BD4680BD00BF04ED00E080B586B003
:103B200000AFF860B9607A6000237B61FB689B6B33
:103B30003B61FB681B6C002B0DD1FB681B68002BE5
:103B40004DD1FB689B68184600F092FF7861FB68D6
:103B500000229A6043E07B68002B19D1FB6858680B
:103B6000FB681B6C1A46B96802F024FAFB685A68B5
:103B7000FB681B6C1A44FB685A60FB685A68FB6858
:103B80009B689A422BD3FB681A68FB685A6026E050
:103B9000FB68D868FB681B6C1A46B96802F00AFA21
:103BA000FB68DA68FB681B6C5B421A44FB68DA60EE
:103BB000FB68DA68FB681B689A4207D2FB689A6860
:103BC000FB681B6C5B421A44FB68DA607B68022B63
:103BD00005D13B69002B02D03B69013B3B613B694E
:103BE0005A1CFB689A637B6918461837BD4680BD2E
:103BF00080B582B000AF786039607B681B6C002BA9
:103C000018D07B68DA687B681B6C1A447B68DA60C2
:103C10007B68DA687B689B689A4203D37B681A6882
:103C20007B68DA607B68D9687B681B6C1A463868E9
:103C300002F0C0F900BF0837BD4680BD80B584B032
:103C400000AF786001F04EFC7B6893F84530FB7361
:103C500011E07B685B6A002B12D07B682433184626
:103C600000F02AFD0346002B01D000F001FEFB7B93
:103C7000013BDBB2FB7397F90F30002BE9DC00E06E
:103C800000BF7B68FF2283F8452001F05BFC01F058
:103C900029FC7B6893F84430BB7311E07B681B6997
:103CA000002B12D07B681033184600F005FD034648
:103CB000002B01D000F0DCFDBB7B013BDBB2BB7312
:103CC00097F90E30002BE9DC00E000BF7B68FF2293
:103CD00083F8442001F036FC00BF1037BD4680BD9C
:103CE00080B584B000AF786001F0FCFB7B689B6B13
:103CF000002B02D10123FB6001E00023FB6001F0F7
:103D000021FCFB6818461037BD4680BD80B584B0E5
:103D100000AF786001F0E6FB7B689A6B7B68DB6B39
:103D20009A4202D10123FB6001E00023FB6001F015
:103D300009FCFB6818461037BD4680BD80B485B0CD
:103D400000AF786039600023FB6014E00F4AFB6825
:103D500052F83330002B0BD10C49FB683A6841F81C
:103D600033200A4AFB68DB0013447A685A6006E095
:103D7000FB680133FB60FB68072BE7D900BF00BF7E
:103D80001437BD465DF8047B704700BF9C4A002095
:103D900080B586B000AFF860B9607A60FB687B617F
:103DA00001F0A0FB7B6993F844305BB2B3F1FF3FB5
:103DB00003D17B69002283F844207B6993F8453066
:103DC0005BB2B3F1FF3F03D17B69002283F845204A
:103DD00001F0B8FB7B699B6B002B06D17B69243318
:103DE0007A68B968184600F03BFC7869FFF726FF4F
:103DF00000BF1837BD4680BD80B58EB004AFF860F7
:103E0000B9607A603B607B6B002B0AD14FF05003A6
:103E100083F31188BFF36F8FBFF34F8F3B6200BFF7
:103E2000FEE7BB6B002B0AD14FF0500383F31188E0
:103E3000BFF36F8FBFF34F8FFB6100BFFEE75C23C3
:103E40003B613B695C2B0AD04FF0500383F3118830
:103E5000BFF36F8FBFF34F8FBB6100BFFEE73B69BE
:103E6000BB6B002B1ED07B6B002B1BD0BB6B7B6214
:103E70007B6A7A6B1A637B6A022283F859200023DB
:103E800003937B6A029307F1140301933B6B009346
:103E90003B687A68B968F86800F050F8786A00F012
:103EA000DDF801E000237B617B6918462837BD46B9
:103EB00080BD80B58CB004AFF860B9603B6013463C
:103EC000FB80FB889B00184601F02EFC78617B6923
:103ED000002B0ED05C2001F027FCF861FB69002B61
:103EE00003D0FB697A691A6305E0786901F0E8FCA0
:103EF00001E00023FB61FB69002B17D0FB69002266
:103F000083F85920FA8800230393FB690293FB6A24
:103F10000193BB6A00933B68B968F86800F00EF83B
:103F2000F86900F09BF80123BB6102E04FF0FF331A
:103F3000BB61BB6918462037BD4680BD80B588B0DF
:103F400000AFF860B9607A603B603B6B186B7B68D0
:103F50009B001A46A52102F03BF83B6B1A6B7B686D
:103F600003F18043013B9B001344BB61BB6923F019
:103F70000703BB61BB6903F00703002B0AD04FF0B6
:103F8000500383F31188BFF36F8FBFF34F8F7B61B3
:103F900000BFFEE7BB68002B1FD00023FB6112E0CF
:103FA000BA68FB69134419783A6BFB6913443433DC
:103FB0000A461A70BA68FB6913441B78002B06D0B6
:103FC000FB690133FB61FB690F2BE9D900E000BFFE
:103FD0003B6B002283F8432003E03B6B002283F815
:103FE0003420BB6A372B01D93723BB623B6BBA6ADB
:103FF000DA623B6BBA6ADA643B6B00221A653B6B90
:1040000004331846FFF778F93B6B18331846FFF76F
:1040100073F93B6B3A6B1A61BB6AC3F138023B6BB5
:104020009A613B6B3A6B5A623B6B00225A653B6B61
:10403000002283F858203A68F968B86901F028F935
:1040400002463B6B1A60FB6A002B02D0FB6A3A6B9C
:104050001A6000BF2037BD4680BD000080B582B029
:1040600000AF786001F03EFA2D4B1B6801332C4AFB
:1040700013602C4B1B68002B09D12A4A7B68136004
:10408000274B1B68012B10D100F016FC0DE0264BCE
:104090001B68002B09D1234B1B68DA6A7B68DB6A3B
:1040A0009A4202D81F4A7B681360204B1B68013379
:1040B0001E4A13601D4B1A687B685A647B68DA6A73
:1040C0001B4B1B689A4203D97B68DB6A184A136052
:1040D0007B68DA6A13469B0013449B00154A1A4416
:1040E0007B68043319461046FFF713F901F02AFAEA
:1040F0000D4B1B68002B0ED00A4B1B68DA6A7B68DD
:10410000DB6A9A4207D20C4B4FF080521A60BFF321
:104110004F8FBFF36F8F00BF0837BD4680BD00BF14
:10412000240C002050070020300C0020400C002000
:104130002C0C00205407002004ED00E080B584B072
:1041400000AF78600023FB607B68002B17D0134B17
:104150001B68002B0AD04FF0500383F31188BFF384
:104160006F8FBFF34F8FBB6000BFFEE700F080F89A
:104170000021786800F0EAFC00F088F8F860FB683D
:10418000002B07D1064B4FF080521A60BFF34F8FC0
:10419000BFF36F8F00BF1037BD4680BD4C0C0020B1
:1041A00004ED00E080B58AB004AF0023BB600023BB
:1041B0007B603A46391D07F108031846FFF748F8B7
:1041C00039687B68BA680292019300230093002348
:1041D0000A4621492148FFF70FFE0346204A136093
:1041E0001F4B1B68002B02D001237B6101E00023E1
:1041F0007B617B69012B02D100F0FCFC78617B695B
:10420000012B16D14FF0500383F31188BFF36F8F4A
:10421000BFF34F8F3B6100BF124B4FF0FF321A606C
:10422000114B01221A60114B00221A6001F0B8F8FC
:104230000EE07B69B3F1FF3F0AD14FF0500383F3E7
:104240001188BFF36F8FBFF34F8FFB6000BFFEE796
:1042500000BF1837BD4680BDA46800088948000823
:10426000480C0020440C0020300C0020280C0020BA
:1042700080B400AF044B1B680133034A136000BFD6
:10428000BD465DF8047B70474C0C002080B584B0BF
:1042900000AF0023FB600023BB60424B1B68002B78
:1042A0000AD14FF0500383F31188BFF36F8FBFF330
:1042B0004F8F3B6000BFFEE701F014F9394B1B68DC
:1042C000013B384A1360374B1B68002B62D1364BD9
:1042D0001B68002B5ED02FE0344BDB68DB68FB6093
:1042E000FB6818331846FFF771F8FB68043318466B
:1042F000FFF76CF8FB68DA6A2D4B1B689A4203D90A
:10430000FB68DB6A2A4A1360FB68DA6A13469B0083
:1043100013449B00274A1A44FB680433194610468D
:10432000FEF7F7FFFB68DA6A234B1B68DB6A9A42E9
:1043300002D3224B01221A601C4B1B68002BCBD1ED
:10434000FB68002B01D000F055FB1D4B1B687B6008
:104350007B68002B10D000F047F80346002B02D0FA
:10436000164B01221A607B68013B7B607B68002B47
:10437000F1D1134B00221A60104B1B68002B09D09F
:104380000123BB600F4B4FF080521A60BFF34F8F79
:10439000BFF36F8F01F0D6F8BB6818461037BD46E3
:1043A00080BD00BF4C0C0020240C0020E40B00203A
:1043B0002C0C00205407002050070020380C00204F
:1043C000340C002004ED00E080B483B000AF054B56
:1043D0001B687B607B6818460C37BD465DF8047B24
:1043E000704700BF280C002080B586B000AF0023C6
:1043F0007B614F4B1B68002B40F08F804D4B1B683F
:1044000001333B614B4A3B6913603B69002B20D170
:10441000494B1B681B68002B0AD04FF0500383F3F5
:104420001188BFF36F8FBFF34F8F3B6000BFFEE774
:10443000414B1B68FB60414B1B683F4A13603F4A7E
:10444000FB6813603E4B1B6801333D4A136000F06C
:10445000D1FA3C4B1B683A699A4249D3364B1B68E8
:104460001B68002B04D1374B4FF0FF321A603FE03E
:10447000314B1B68DB68DB68BB60BB685B687B60DB
:104480003A697B689A4203D22E4A7B6813602FE018
:10449000BB6804331846FEF799FFBB689B6A002B84
:1044A00004D0BB6818331846FEF790FFBB68DA6A81
:1044B000254B1B689A4203D9BB68DB6A224A13600A
:1044C000BB68DA6A13469B0013449B001F4A1A44D8
:1044D000BB68043319461046FEF71BFFBB68DA6A57
:1044E0001B4B1B68DB6A9A42B8D301237B61B5E79B
:1044F000174B1B68DA6A154913469B0013449B004F
:104500000B441B68012B01D901237B61114B1B68F4
:10451000002B07D001237B6104E00F4B1B680133A4
:104520000D4A13607B6918461837BD4680BD00BF31
:104530004C0C0020280C0020DC0B0020E00B00209D
:104540003C0C0020440C00202C0C002054070020C0
:1045500050070020380C0020340C002080B485B0B7
:1045600000AF284B1B68002B03D0274B01221A6099
:1045700041E0254B00221A60244B1B68FB6010E0D1
:10458000FB68002B0AD14FF0500383F31188BFF36F
:104590006F8FBFF34F8F7B6000BFFEE7FB68013B6F
:1045A000FB601B49FA6813469B0013449B000B44B5
:1045B0001B68002BE4D0FA6813469B0013449B0051
:1045C000134A1344BB60BB685B685A68BB685A6097
:1045D000BB685A68BB6808339A4204D1BB685B6801
:1045E0005A68BB685A60BB685B68DB68094A13603D
:1045F000064AFB68136000BF1437BD465DF8047BB4
:10460000704700BF4C0C0020380C00202C0C002000
:10461000540700205007002080B584B000AF7860B8
:1046200039607B68002B0AD14FF0500383F3118867
:10463000BFF36F8FBFF34F8FFB6000BFFEE7074BE9
:104640001B68183319467868FEF787FE0121386821
:1046500000F07CFA00BF1037BD4680BD5007002037
:1046600080B586B000AFF860B9607A60FB68002B57
:104670000AD14FF0500383F31188BFF36F8FBFF35C
:104680004F8F7B6100BFFEE70A4B1B68183319464A
:10469000F868FEF73EFE7B68002B02D04FF0FF3338
:1046A000BB607968B86800F051FA00BF1837BD46A2
:1046B00080BD00BF5007002080B586B000AF786095
:1046C0007B68DB68DB683B613B69002B0AD14FF0FC
:1046D000500383F31188BFF36F8FBFF34F8FFB60DD
:1046E00000BFFEE73B6918331846FEF76FFE1E4B0E
:1046F0001B68002B1DD13B6904331846FEF766FE8C
:104700003B69DA6A194B1B689A4203D93B69DB6A39
:10471000164A13603B69DA6A13469B0013449B00F8
:10472000134A1A443B69043319461046FEF7F1FD5B
:1047300005E03B69183319460E48FEF7EAFD3B6970
:10474000DA6A0D4B1B68DB6A9A4205D901237B614B
:104750000A4B01221A6001E000237B617B69184645
:104760001837BD4680BD00BF4C0C00202C0C00202B
:1047700054070020E40B002050070020380C0020D4
:1047800080B483B000AF7860064B1A687B681A600B
:10479000054B1A687B685A6000BF0C37BD465DF850
:1047A000047B70473C0C0020280C002080B588B0AA
:1047B00000AF786039607B68002B0AD14FF050035E
:1047C00083F31188BFF36F8FBFF34F8F3B6100BF3F
:1047D000FEE73B68002B0AD14FF0500383F31188AA
:1047E000BFF36F8FBFF34F8FFB6000BFFEE700F09A
:1047F00079FE1D4B1B68BB617B685B68BA69D31A85
:104800007B613B681B68B3F1FF3F02D10023FB6172
:1048100023E07B681A68154B1B689A4207D07B68B7
:104820005B68BA699A4202D30123FB6115E03B68D9
:104830001B687A699A420BD23B681A687B69D21A64
:104840003B681A607868FFF79BFF0023FB6104E078
:104850003B6800221A600123FB6100F073FEFB69D4
:1048600018462037BD4680BD280C00203C0C002097
:1048700080B400AF034B01221A6000BFBD465DF853
:10488000047B7047380C002080B582B000AF7860A0
:1048900000F052F8064B1B68012BF9D9054B4FF07D
:1048A00080521A60BFF34F8FBFF36F8FF0E700BFE6
:1048B0005407002004ED00E080B582B000AF002373
:1048C0007B600CE07A6813469B0013449B00124AFD
:1048D00013441846FEF7F0FC7B6801337B607B686D
:1048E000372BEFD90D48FEF7E7FC0D48FEF7E4FC47
:1048F0000C48FEF7E1FC0C48FEF7DEFC0B48FEF727
:10490000DBFC0B4B054A1A600A4B054A1A6000BFD4
:104910000837BD4680BD00BF54070020B40B0020FF
:10492000C80B0020E40B0020F80B0020100C002026
:10493000DC0B0020E00B002080B582B000AF19E056
:1049400000F0D0FD104BDB68DB687B607B680433D4
:104950001846FEF73BFD0D4B1B68013B0B4A1360ED
:104960000B4B1B68013B0A4A136000F0EBFD7868B3
:1049700000F010F8064B1B68002BE1D100BF00BF10
:104980000837BD4680BD00BFF80B0020240C002076
:104990000C0C002080B584B000AF78607B6893F881
:1049A0005930002B08D17B681B6B184600F088FF3C
:1049B000786800F085FF18E07B6893F85930012B88
:1049C00003D1786800F07CFF0FE07B6893F85930E2
:1049D000022B0AD04FF0500383F31188BFF36F8F7F
:1049E000BFF34F8FFB6000BFFEE700BF1037BD462F
:1049F00080BD000080B483B000AF0C4B1B681B6807
:104A0000002B04D10A4B4FF0FF321A6008E0074B2D
:104A10001B68DB68DB687B607B685B68044A13604B
:104A200000BF0C37BD465DF8047B7047DC0B0020EF
:104A3000440C002080B483B000AF0B4B1B68002BEC
:104A400002D101237B6008E0084B1B68002B02D1D8
:104A500002237B6001E000237B607B6818460C37F3
:104A6000BD465DF8047B7047300C00204C0C0020E4
:104A700080B586B000AF78607B683B6100237B61C6
:104A80007B68002B56D02E4B1B683A699A420AD09D
:104A90004FF0500383F31188BFF36F8FBFF34F8F35
:104AA000FB6000BFFEE73B691B6D002B0AD14FF096
:104AB000500383F31188BFF36F8FBFF34F8FBB6039
:104AC00000BFFEE73B691B6D5A1E3B691A653B69D7
:104AD000DA6A3B69DB6C9A422CD03B691B6D002B78
:104AE00028D13B6904331846FEF770FC3B69DA6C49
:104AF0003B69DA623B69DB6AC3F138023B699A6160
:104B00003B69DA6A0F4B1B689A4203D93B69DB6A3F
:104B10000C4A13603B69DA6A13469B0013449B00FE
:104B2000094A1A443B69043319461046FEF7F1FB63
:104B300001237B617B6918461837BD4680BD00BFE5
:104B4000500700202C0C00205407002080B584B0B2
:104B500000AF78603960214B1B68FB60204B1B68FD
:104B600004331846FEF732FC7B68B3F1FF3F0AD1ED
:104B70003B68002B07D01A4B1B68043319461948B1
:104B8000FEF7C7FB26E0FA687B681344BB60144B52
:104B90001B68BA685A60BA68FB689A4209D2124B1D
:104BA0001A680F4B1B68043319461046FEF7D5FBF5
:104BB00010E00E4B1A680A4B1B6804331946104666
:104BC000FEF7CBFB0A4B1B68BA689A4202D2084A2E
:104BD000BB68136000BF1037BD4680BD280C0020A5
:104BE00050070020100C0020E00B0020DC0B002000
:104BF000440C002080B58AB004AF00237B6100F034
:104C000007FB1C4B1B68002B21D00023FB600023FB
:104C1000BB603A1D07F1080107F10C031846FEF7C7
:104C200031FB7968BB68FA68029201930223009312
:104C300000230A4610491148FFF7DEF80346104AE0
:104C400013600F4B1B68002B01D001237B617B6934
:104C5000002B0AD14FF0500383F31188BFF36F8FFD
:104C6000BFF34F8F3B6100BFFEE77B6918461837E3
:104C7000BD4680BD800C0020AC680008B94D00081E
:104C8000840C002080B58AB000AFF860B9607A600B
:104C90003B6000237B62FB68002B0AD14FF050037E
:104CA00083F31188BFF36F8FBFF34F8F3B6200BF59
:104CB000FEE71A4B1B68002B2AD0BB683B617B6860
:104CC0007B61FB68BB61BB68052B18DCFFF7B2FE9C
:104CD0000346022B09D1114B186807F1100100237C
:104CE0003A6BFEF7A1FC786212E00C4B186807F1F2
:104CF000100100230022FEF797FC786208E0074BC2
:104D0000186807F1100100233A68FEF78BFD7862FE
:104D10007B6A18462837BD4680BD00BF800C002046
:104D200080B588B002AF78603960224B1B68DB68C1
:104D3000DB687B617B6904331846FEF747FB7B69C0
:104D400093F8283003F00403002B22D07B699A6982
:104D50007B68D1187B683A68786900F0D1F803461F
:104D6000002B1FD00023009300237A68002178696C
:104D7000FFF788FF38613B69002B13D14FF05003D8
:104D800083F31188BFF36F8FBFF34F8FFB6000BFBA
:104D9000FEE77B6993F8283023F00103DAB27B69E0
:104DA00083F828207B691B6A7869984700BF183709
:104DB000BD4680BD780C002080B584B000AF78601F
:104DC00007F10803184600F057F8F860BB68194669
:104DD000F86800F003F800F0D5F8F1E780B584B08A
:104DE00000AF78603960FFF743FA07F1080318460F
:104DF00000F066F8F860BB68002B30D13B68002BF0
:104E00000AD17A68FB689A4206D8FFF73FFAF96838
:104E10007868FFF785FF24E03B68002B08D0134B30
:104E20001B681B68002B01D1012300E000233B60BD
:104E30000F4B18687A68FB68D31A3A681946FEF770
:104E4000A7FFFFF723FA0346002B0AD1094B4FF0C7
:104E500080521A60BFF34F8FBFF36F8F01E0FFF7EF
:104E600015FA00BF1037BD4680BD00BF7C0C002086
:104E7000800C002004ED00E080B485B000AF7860C5
:104E80000E4B1B681B68002B01D1012200E00022A1
:104E90007B681A607B681B68002B05D1074B1B6879
:104EA000DB681B68FB6001E00023FB60FB681846C1
:104EB0001437BD465DF8047B704700BF780C0020B6
:104EC00080B584B000AF7860FFF77EFAF8600B4BD6
:104ED0001B68FA689A4205D200F036F97B68012215
:104EE0001A6002E07B6800221A60044AFB681360C3
:104EF000FB6818461037BD4680BD00BF880C0020F7
:104F000080B586B000AFF860B9607A603B6000237E
:104F10007B61FB68BA685A60FB68FA681A61BA6814
:104F20007B689A4212D87A683B68D21AFB689B6900
:104F30009A4202D301237B611BE0104B1A68FB6885
:104F4000043319461046FEF708FA12E07A683B6807
:104F50009A4206D2BA683B689A4202D301237B6127
:104F600007E0074B1A68FB68043319461046FEF742
:104F7000F4F97B6918461837BD4680BD7C0C0020CB
:104F8000780C002080B58EB002AFCAE07B68002BA1
:104F900018DA3B1D0433FB62FB6A002B0AD14FF089
:104FA000500383F31188BFF36F8FBFF34F8FFB6103
:104FB00000BFFEE7FB6A1B68FA6A5068FA6A9268EB
:104FC000114698477B68002BC0F2AA80FB68BB6241
:104FD000BB6A5B69002B04D0BB6A04331846FEF73A
:104FE000F5F93B461846FFF76BFF78627B68092BA3
:104FF00000F2978001A252F823F000BF255000086C
:10500000255000082550000899500008AD500008B0
:10501000F750000825500008255000089950000856
:10502000AD500008BB6A93F8283043F00103DAB2B0
:10503000BB6A83F82820BA68BB6A9B69D118BB6831
:105040007A6AB86AFFF75CFF0346002B69D0BB6A37
:105050001B6AB86A9847BB6A93F8283003F00403C8
:10506000002B5ED0BA68BB6A9B691A440023009388
:1050700000230021B86AFFF705FE38623B6A002B67
:105080004FD14FF0500383F31188BFF36F8FBFF3FD
:105090004F8FBB6100BFFEE7BB6A93F8283023F057
:1050A0000103DAB2BB6A83F828203AE0BB6A93F8BE
:1050B000283043F00103DAB2BB6A83F82820BA68CB
:1050C000BB6A9A61BB6A9B69002B0AD14FF05003FF
:1050D00083F31188BFF36F8FBFF34F8F7B6100BFE6
:1050E000FEE7BB6A9A697B6AD1187B6A7A6AB86AFA
:1050F000FFF706FF15E0BB6A93F8283003F00203C0
:10510000002B03D1B86A00F0DBFB0AE0BB6A93F81E
:10511000283023F00103DAB2BB6A83F8282000E0CC
:1051200000BF084B1B68391D00221846FEF716FC0D
:105130000346002B7FF42AAF00BF00BF3037BD46C7
:1051400080BD00BF800C002080B588B002AF48E071
:105150002D4B1B68DB681B683B612B4B1B68DB68B6
:10516000DB68FB60FB6804331846FEF72FF9FB6829
:105170001B6AF8689847FB6893F8283003F004032B
:10518000002B2ED0FB689B693A691344BB60BA6858
:105190003B699A420ED9FB68BA685A60FB68FA68A4
:1051A0001A61194B1A68FB68043319461046FEF75A
:1051B000D4F816E00023009300233A690021F86830
:1051C000FFF760FD78607B68002B0AD14FF0500339
:1051D00083F31188BFF36F8FBFF34F8F3B6000BF26
:1051E000FEE7094B1B681B68002BB1D1064B1B68FF
:1051F0007B61064B1B68044A1360044A7B69136099
:1052000000BF1837BD4680BD780C00207C0C002004
:1052100080B582B002AF00F065F9154B1B68002B1A
:1052200020D11448FEF748F81348FEF745F8134B11
:10523000104A1A60124B104A1A6000230093114B57
:10524000114A10210A20FEF753F90346084A136059
:10525000074B1B68002B05D0054B1B680B491846F4
:10526000FEF76CFD00F06EF900BFBD4680BD00BFCB
:10527000800C0020500C0020640C0020780C0020D2
:105280007C0C00202C0D00208C0C0020B468000841
:1052900080B485B000AFF860B9607A60FB68043B09
:1052A000FB60FB684FF080721A60FB68043BFB6098
:1052B000BB6823F00102FB681A60FB68043BFB60DB
:1052C0000C4AFB681A60FB68143BFB607A68FB6859
:1052D0001A60FB68043BFB60FB686FF002021A6017
:1052E000FB68203BFB60FB6818461437BD465DF841
:1052F000047B7047F952000880B485B000AF0023EA
:105300007B60124B1B68B3F1FF3F0AD04FF0500394
:1053100083F31188BFF36F8FBFF34F8FFB6000BF24
:10532000FEE74FF0500383F31188BFF36F8FBFF395
:105330004F8FBB6000BF00BF7B68002BFCD000BF5D
:1053400000BF1437BD465DF8047B70470C00002099
:10535000074B19680868B0E8F04F80F30988BFF37D
:105360006F8F4FF0000080F311887047AFF300801B
:105370005007002000BF00BF08480068006880F3A5
:1053800008884FF0000080F3148862B661B6BFF35E
:105390004F8FBFF36F8F00DF00BF00BF08ED00E04D
:1053A00080B586B000AF464B1B68464A93420AD18F
:1053B0004FF0500383F31188BFF36F8FBFF34F8F0C
:1053C0003B6100BFFEE73E4B1B683F4A93420AD158
:1053D0004FF0500383F31188BFF36F8FBFF34F8FEC
:1053E000FB6000BFFEE7394B7B617B691B78DBB25A
:1053F0007B607B69FF221A707B691B78DBB2FB70D4
:10540000FB78DBB203F05003DAB2314B1A70314B48
:1054100007221A6009E02F4B1B68013B2D4A1360DD
:10542000FB78DBB25B00DBB2FB70FB78DBB203F036
:105430008003802BEFD0274B1B68C3F10703042B9D
:105440000AD04FF0500383F31188BFF36F8FBFF37F
:105450004F8FBB6000BFFEE71E4B1B681B021D4A3F
:1054600013601C4B1B6803F4E0631A4A13607B68EB
:10547000DAB27B691A70184B1B68174A43F4700341
:105480001360154B1B68144A43F07043136000F01F
:10549000DDF8124B00221A6000F0FCF8104B1B687C
:1054A0000F4A43F040431360FFF766FFFFF756F8DB
:1054B000FFF722FF002318461837BD4680BD00BF06
:1054C00000ED00E071C20F4170C20F4100E400E046
:1054D0007C0D0020800D002020ED00E00C0000205D
:1054E00034EF00E080B483B000AF4FF0500383F39B
:1054F0001188BFF36F8FBFF34F8F7B6000BF0F4BDF
:105500001B6801330D4A13600C4B1B68012B0FD134
:105510000B4B1B68DBB2002B0AD04FF0500383F318
:105520001188BFF36F8FBFF34F8F3B6000BFFEE763
:1055300000BF0C37BD465DF8047B70470C000020AF
:1055400004ED00E080B483B000AF124B1B68002B69
:105550000AD14FF0500383F31188BFF36F8FBFF36D
:105560004F8F7B6000BFFEE70A4B1B68013B094A77
:105570001360084B1B68002B05D100233B603B6880
:1055800083F3118800BF00BF0C37BD465DF8047B74
:10559000704700BF0C000020000000000000000069
:1055A000EFF30980BFF36F8F154B1A681EF0100FD1
:1055B00008BF20ED108A20E9F04F10602DE90900A6
:1055C0004FF0500080F31188BFF34F8FBFF36F8F00
:1055D000FEF7C4FF4FF0000080F3118809BC196882
:1055E0000868B0E8F04F1EF0100F08BFB0EC108A4A
:1055F00080F30988BFF36F8F704700BFAFF300805F
:105600005007002000BF00BF80B582B000AF4FF050
:10561000500383F31188BFF36F8FBFF34F8F7B600D
:1056200000BFFEF7E1FE0346002B03D0064B4FF010
:1056300080521A6000233B603B6883F3118800BFEF
:1056400000BF0837BD4680BD04ED00E080B400AF68
:105650000B4B00221A600B4B00221A600A4B1B688E
:105660000A4AA2FB03239B09094A013B1360044B2E
:1056700007221A6000BFBD465DF8047B704700BF7B
:1056800010E000E018E000E000000020D34D6210C0
:1056900014E000E0DFF80C00016841F470010160E3
:1056A000704700BF88ED00E080B485B000AFEFF335
:1056B0000583FB60FB680F2B14D9174AFB68134462
:1056C0001B78FB72154B1B78FA7A9A420AD24FF07C
:1056D000500383F31188BFF36F8FBFF34F8F7B604D
:1056E00000BFFEE70E4B1B6803F4E0620D4B1B6826
:1056F0009A420AD94FF0500383F31188BFF36F8F9A
:10570000BFF34F8F3B6000BFFEE700BF1437BD46BD
:105710005DF8047B704700BFF0E300E07C0D0020E3
:105720000CED00E0800D002080B58AB000AF7860FD
:105730000023FB61FEF79CFD5B4B1B68002B01D136
:1057400000F020F9594B1A687B681340002B40F099
:1057500093807B68002B1DD008227B6813447B60FC
:105760007B6803F00703002B14D07B6823F007034A
:1057700008337B607B6803F00703002B0AD04FF0EF
:10578000500383F31188BFF36F8FBFF34F8F7B619B
:1057900000BFFEE77B68002B6ED0454B1B687A6824
:1057A0009A4269D8434B3B62424B1B687B6204E0E0
:1057B0007B6A3B627B6A1B687B627B6A5B687A6898
:1057C0009A4203D97B6A1B68002BF1D1364B1B68C8
:1057D0007A6A9A4250D03B6A1B6808221344FB61E4
:1057E0007B6A1A683B6A1A607B6A5A687B68D21ABD
:1057F00008235B009A421FD97A6A7B681344BB6115
:10580000BB6903F00703002B0AD04FF0500383F36A
:105810001188BFF36F8FBFF34F8F3B6100BFFEE76F
:105820007B6A5A687B68D21ABB695A607B6A7A685D
:105830005A60B86900F008F91D4B1A687B6A5B680A
:10584000D31A1B4A13601A4B1A681B4B1B689A42E7
:1058500003D2174B1B68184A13607B6A5A68134BB4
:105860001B681A437B6A5A607B6A00221A60134BDA
:105870001B680133114A1360FEF708FDFB6903F052
:105880000703002B0AD04FF0500383F31188BFF3B6
:105890006F8FBFF34F8FFB6000BFFEE7FB691846B9
:1058A0002837BD4680BD00BF8C490020A04900209C
:1058B0009049002084490020944900209849002004
:1058C00080B586B000AF78607B687B617B68002B19
:1058D0004DD008235B427A6913447B617B693B614D
:1058E0003B695A68244B1B681340002B0AD14FF0C8
:1058F000500383F31188BFF36F8FBFF34F8FFB60AB
:1059000000BFFEE73B691B68002B0AD04FF0500335
:1059100083F31188BFF36F8FBFF34F8FBB6000BF5E
:10592000FEE73B695A68144B1B681340002B1ED0DE
:105930003B691B68002B1AD13B695A680E4B1B68E8
:10594000DB431A403B695A60FEF792FC3B695A6898
:105950000A4B1B681344094A1360386900F074F855
:10596000074B1B680133064A1360FEF78FFC00BF2C
:105970001837BD4680BD00BFA049002090490020D7
:105980009C49002080B485B000AF4FF47053BB60D9
:10599000274BFB60FB6803F00703002B0CD0FB6870
:1059A0000733FB60FB6823F00703FB60BA68FB6802
:1059B000D31A1F4A1344BB60FB687B601D4A7B6897
:1059C00013601C4B00225A607B68BA681344FB606A
:1059D0000822FB689B1AFB60FB6823F00703FB604F
:1059E000FB68154A1360144B1B6800225A60124B67
:1059F0001B6800221A607B683B603B68FA68D21A19
:105A00003B685A600C4B1A683B681A603B685B68DD
:105A10000A4A13603B685B68094A1360094B4FF000
:105A200000421A6000BF1437BD465DF8047B704722
:105A3000840D0020844900208C49002094490020D6
:105A400090490020A049002080B485B000AF786064
:105A5000284BFB6002E0FB681B68FB60FB681B686F
:105A60007A689A42F7D8FB68BB60FB685B68BA68E3
:105A700013447A689A4208D1FB685A687B685B686D
:105A80001A44FB685A60FB687B607B68BB607B687C
:105A90005B68BA681A44FB681B689A4218D1FB68B5
:105AA0001A68154B1B689A420DD07B685A68FB68D0
:105AB0001B685B681A447B685A60FB681B681A683D
:105AC0007B681A6008E00C4B1A687B681A6003E078
:105AD000FB681A687B681A60FA687B689A4202D091
