:020000040800F2
:100000000000022019220008192100081F21000801
:10001000252100082B2100083121000800000000E4
:10002000000000000000000000000000B17F000898
:100030003721000800000000018200084521000867
:100040006922000869220008692200086922000864
:100050006922000869220008692200086922000854
:100060006922000869220008692200086922000844
:100070006922000869220008692200086922000834
:100080006922000869220008692200086922000824
:100090006922000869220008692200086922000814
:1000A0006922000869220008692200086922000804
:1000B00069220008692200086121000869220008FD
:1000C00069220008692200086922000869220008E4
:1000D00069220008692200086922000875210008C9
:1000E00069220008692200086922000869220008C4
:1000F00069220008692200086922000869220008B4
:1001000069220008692200086922000869220008A3
:100110006922000869220008692200086922000893
:100120006922000869220008692200086922000883
:100130006922000869220008692200086922000873
:100140006922000869220008692200086922000863
:100150006922000869220008692200086922000853
:100160006922000869220008692200086922000843
:1001700069220008692200086922000800000000C6
:08018000692200086922000851
:1001900010B5054C237833B9044B13B10448AFF3C1
:1001A00000800123237010BD7800002000000000B3
:1001B000ECA3000808B5034B1BB103490348AFF398
:1001C000008008BD000000007C000020ECA30008B7
:1001D00001F0FF01102A2BDB10F0070F08D010F8F8
:1001E000013B013A8B422DD010F0070F42B3F6D1FC
:1001F000F0B441EA012141EA014122F007047FF015
:1002000000070023F0E80256083C85EA010586EA6B
:10021000010685FA47F5A3FA87F586FA47F6A5FAA7
:1002200087F68EB9EED1F0BC01F0FF0102F00702B3
:1002300032B110F8013B013A83EA010313B1F8D15E
:100240000020704701387047002D06BF354603383F
:10025000073815F0010F07D1013015F4807F02BF78
:10026000013015F4C03F0130F0BC0138704700BFC9
:1002700081F0004102E000BF83F0004330B54FEA57
:1002800041044FEA430594EA050F08BF90EA020FC4
:100290001FBF54EA000C55EA020C7FEA645C7FEA57
:1002A000655C00F0E2804FEA5454D4EB5555B8BF7A
:1002B0006D420CDD2C4480EA020281EA030382EAEB
:1002C000000083EA010180EA020281EA0303362D7D
:1002D00088BF30BD11F0004F4FEA01314FF4801C50
:1002E0004CEA113102D0404261EB410113F0004F62
:1002F0004FEA03334CEA133302D0524263EB430319
:1003000094EA050F00F0A780A4F10104D5F1200EB6
:100310000DDB02FA0EFC22FA05F2801841F1000111
:1003200003FA0EF2801843FA05F359410EE0A5F1E5
:1003300020050EF1200E012A03FA0EFC28BF4CF016
:10034000020C43FA05F3C01851EBE37101F00045CC
:1003500007D54FF0000EDCF1000C7EEB00006EEBD9
:100360000101B1F5801F1BD3B1F5001F0CD3490863
:100370005FEA30004FEA3C0C04F101044FEA4452BA
:1003800012F5800F80F09A80BCF1004F08BF5FEA41
:10039000500C50F1000041EB045141EA050130BD21
:1003A0005FEA4C0C404141EB0101013C28BFB1F533
:1003B000801FE9D291F0000F04BF01460020B1FA7E
:1003C00081F308BF2033A3F10B03B3F120020CDA51
:1003D0000C3208DD02F1140CC2F10C0201FA0CF02F
:1003E00021FA02F10CE002F11402D8BFC2F1200C94
:1003F00001FA02F120FA0CFCDCBF41EA0C0190404A
:10040000E41AA2BF01EB0451294330BD6FEA040492
:100410001F3C1CDA0C340EDC04F11404C4F120027D
:1004200020FA04F001FA02F340EA030021FA04F38F
:1004300045EA030130BDC4F10C04C4F1200220FAE6
:1004400002F001FA04F340EA0300294630BD21FA24
:1004500004F0294630BD94F0000F83F4801306BFEA
:1004600081F480110134013D4EE77FEA645C18BFDE
:100470007FEA655C29D094EA050F08BF90EA020F75
:1004800005D054EA000C04BF1946104630BD91EA6D
:10049000030F1EBF0021002030BD5FEA545C05D170
:1004A0004000494128BF41F0004130BD14F58004AF
:1004B0003CBF01F5801130BD01F0004545F0FE4123
:1004C00041F470014FF0000030BD7FEA645C1ABF58
:1004D000194610467FEA655C1CBF0B46024650EA8F
:1004E000013406BF52EA033591EA030F41F40021BB
:1004F00030BD00BF90F0000F04BF0021704730B541
:100500004FF4806404F132044FF000054FF0000115
:1005100050E700BF90F0000F04BF0021704730B5D6
:100520004FF4806404F1320410F0004548BF4042AB
:100530004FF000013EE700BF42004FEAE2014FEA00
:1005400031014FEA02701FBF12F07F4393F07F4FDB
:1005500081F06051704732F07F4208BF704793F0DE
:100560007F4F04BF41F40021704730B54FF46074F1
:1005700001F0004521F000411CE700BF50EA0102F4
:1005800008BF704730B54FF000050AE050EA01029D
:1005900008BF704730B511F0004502D5404261EB0D
:1005A00041014FF4806404F132045FEA915C3FF44E
:1005B000D8AE4FF003025FEADC0C18BF03325FEAEB
:1005C000DC0C18BF033202EBDC02C2F1200300FA9C
:1005D00003FC20FA02F001FA03FE40EA0E0021FAC1
:1005E00002F11444BDE600BF70B54FF0FF0C4CF4AF
:1005F000E06C1CEA11541DBF1CEA135594EA0C0F61
:1006000095EA0C0F00F0DEF82C4481EA030621EA9B
:100610004C5123EA4C5350EA013518BF52EA0335D6
:1006200041F4801143F4801338D0A0FB02CE4FF088
:100630000005E1FB02E506F00042E0FB03E54FF0B8
:100640000006E1FB03569CF0000F18BF4EF0010EB0
:10065000A4F1FF04B6F5007F64F5407404D25FEAAC
:100660004E0E6D4146EB060642EAC62141EA55515F
:100670004FEAC52040EA5E504FEACE2EB4F1FD0CA1
:1006800088BFBCF5E06F1ED8BEF1004F08BF5FEA1F
:10069000500E50F1000041EB045170BD06F00046D1
:1006A00046EA010140EA020081EA0301B4EB5C047E
:1006B000C2BFD4EB0C0541EA045170BD41F4801176
:1006C0004FF0000E013C00F3AB8014F1360FDEBF9B
:1006D000002001F0004170BDC4F10004203C35DA77
:1006E0000C341BDC04F11404C4F1200500FA05F3FA
:1006F00020FA04F001FA05F240EA020001F000429B
:1007000021F0004110EBD37021FA04F642EB060110
:100710005EEA430E08BF20EAD37070BDC4F10C043A
:10072000C4F1200500FA04F320FA05F001FA04F2FE
:1007300040EA020001F0004110EBD37041F10001EA
:100740005EEA430E08BF20EAD37070BDC4F12005F5
:1007500000FA05F24EEA020E20FA04F301FA05F25D
:1007600043EA020321FA04F001F0004121FA04F205
:1007700020EA020000EBD3705EEA430E08BF20EAD5
:10078000D37070BD94F0000F0FD101F0004640000F
:1007900041EB010111F4801F08BF013CF7D041EA91
:1007A000060195F0000F18BF704703F00046520095
:1007B00043EB030313F4801F08BF013DF7D043EA66
:1007C0000603704794EA0C0F0CEA135518BF95EA1C
:1007D0000C0F0CD050EA410618BF52EA4306D1D1A3
:1007E00081EA030101F000414FF0000070BD50EAC2
:1007F000410606BF1046194652EA430619D094EA4C
:100800000C0F02D150EA013613D195EA0C0F05D135
:1008100052EA03361CBF104619460AD181EA030189
:1008200001F0004141F0FE4141F470014FF0000041
:1008300070BD41F0FE4141F4780170BD70B54FF0DC
:10084000FF0C4CF4E06C1CEA11541DBF1CEA13555C
:1008500094EA0C0F95EA0C0F00F0A7F8A4EB05043E
:1008600081EA030E52EA03354FEA013100F0888035
:100870004FEA03334FF0805545EA131343EA1263FE
:100880004FEA022245EA111545EA10654FEA0026B3
:100890000EF000419D4208BF964244F1FD0404F56C
:1008A000407402D25B084FEA3202B61A65EB0305C8
:1008B0005B084FEA32024FF480104FF4002CB6EB85
:1008C000020E75EB030E22BFB61A754640EA0C0005
:1008D0005B084FEA3202B6EB020E75EB030E22BF45
:1008E000B61A754640EA5C005B084FEA3202B6EB86
:1008F000020E75EB030E22BFB61A754640EA9C0045
:100900005B084FEA3202B6EB020E75EB030E22BF14
:10091000B61A754640EADC0055EA060E18D04FEAD2
:10092000051545EA16754FEA06164FEAC30343EA72
:1009300052734FEAC2025FEA1C1CC0D111F4801F3F
:100940000BD141EA00014FF000004FF0004CB6E738
:1009500011F4801F04BF01430020B4F1FD0C88BFD7
:10096000BCF5E06F3FF6AFAEB5EB030C04BFB6EBE2
:10097000020C5FEA500C50F1000041EB045170BDD5
:100980000EF0004E4EEA113114EB5C04C2BFD4EB02
:100990000C0541EA045170BD41F480114FF0000E86
:1009A000013C90E645EA060E8DE60CEA135594EA02
:1009B0000C0F08BF95EA0C0F3FF43BAF94EA0C0F05
:1009C0000AD150EA01347FF434AF95EA0C0F7FF47A
:1009D00025AF104619462CE795EA0C0F06D152EACE
:1009E00003353FF4FDAE1046194622E750EA4106B2
:1009F00018BF52EA43067FF4C5AE50EA41047FF4C3
:100A00000DAF52EA43057FF4EBAE12E74FF0FF3C27
:100A100006E000BF4FF0010C02E000BF4FF0010CF8
:100A20004DF804CD4FEA410C7FEA6C5C4FEA430C71
:100A300018BF7FEA6C5C1BD001B050EA410C0CBFC0
:100A400052EA430C91EA030F02BF90EA020F002022
:100A5000704710F1000F91EA030F58BF994208BF89
:100A600090422CBFD8176FEAE37040F00100704746
:100A70004FEA410C7FEA6C5C02D150EA013C07D19D
:100A80004FEA430C7FEA6C5CD6D152EA033CD3D0E8
:100A90005DF8040B704700BF8446104662468C46E2
:100AA0001946634600E000BF01B5FFF7B7FF002815
:100AB00048BF10F1000F01BD4DF808EDFFF7F4FF3E
:100AC0000CBF012000205DF808FB00BF4DF808EDC9
:100AD000FFF7EAFF34BF012000205DF808FB00BFEC
:100AE0004DF808EDFFF7E0FF94BF012000205DF80E
:100AF00008FB00BF4DF808EDFFF7CEFF94BF0120C3
:100B000000205DF808FB00BF4DF808EDFFF7C4FFBB
:100B100034BF012000205DF808FB00BF4FEA410C04
:100B20007FEA6C5C02D150EA013C0AD14FEA430CE7
:100B30007FEA6C5C02D152EA033C02D14FF0000024
:100B400070474FF0010070474FEA410212F5001262
:100B500015D211D56FF47873B3EB625212D94FEA04
:100B6000C12343F0004343EA505311F0004F23FAEE
:100B700002F018BF404270474FF00000704750EA43
:100B8000013005D111F0004008BF6FF00040704700
:100B90004FF00000704700BF4A0011D212F500125A
:100BA00011D20DD56FF47873B3EB62520ED44FEAC5
:100BB000C12343F0004343EA505323FA02F0704745
:100BC0004FF00000704750EA013002D14FF0FF3083
:100BD00070474FF00000704753B94AB9002908BF69
:100BE00000281CBF4FF0FF314FF0FF3000F06EB90E
:100BF000ADF1080C6DE904CE00F006F8DDF804E074
:100C0000DDE9022304B070472DE9F047089D044652
:100C10008C46002B40F083808A42174647D9B2FAAF
:100C200082F242B1C2F1200024FA00F091409740D4
:100C300040EA010C94404FEA1748230CBCFBF8F63D
:100C40001FFA87FE08FB16C143EA014306FB0EF1BB
:100C5000994209D9FB1806F1FF3080F019819942B9
:100C600040F21681023E3B445B1AA4B2B3FBF8F09B
:100C700008FB103344EA034400FB0EFEA64509D9E5
:100C80003C1900F1FF3380F00581A64540F2028156
:100C900002383C4440EA0640A4EB0E0400261DB195
:100CA000D4400023C5E900433146BDE8F08702B9CE
:100CB000FFDEB2FA82F2002A50D1CB1B4FEA174E68
:100CC0001FFA87F80126B3FBFEFC210C0EFB1C3338
:100CD00041EA034108FB0CF38B4207D979180CF168
:100CE000FF3002D28B4200F2E9808446C91AA3B2D7
:100CF000B1FBFEF00EFB101143EA014408FB00F8C3
:100D0000A04507D93C1900F1FF3302D2A04500F2FB
:100D1000D9801846A4EB080440EA0C40BFE78B4298
:100D200009D9002D00F0B1800026C5E90001304648
:100D30003146BDE8F087B3FA83F6002E4AD18B42E4
:100D400002D3824200F2B880841A61EB03010120D1
:100D50008C46002DA8D0C5E9004CA5E7C2F12003C0
:100D600020FA03F6974001FA02F04FEA174ED940F5
:100D70003043030CB1FBFEF61FFA87F80EFB161189
:100D800043EA014306FB08F1994204FA02F409D947
:100D9000FB1806F1FF3C80F08D80994240F28A807A
:100DA000023E3B445B1A81B2B3FBFEF00EFB1033F4
:100DB00041EA034100FB08F38B4207D9791800F19F
:100DC000FF3C73D28B4271D902383944CB1A40EAC6
:100DD000064678E7C6F1200C03FA06F422FA0CF373
:100DE0001C4320FA0CF701FA06F34FEA144E21FADD
:100DF0000CF11F433B0CB1FBFEF91FFA84F80EFB0C
:100E0000191143EA014109FB08FA8A4502FA06F280
:100E100000FA06F308D9611809F1FF3048D28A4573
:100E200046D9A9F102092144A1EB0A01BFB2B1FBE5
:100E3000FEF00EFB101147EA014700FB08F8B84529
:100E400007D9E71900F1FF312ED2B8452CD9023865
:100E5000274440EA0940A7EB0807A0FB02894F4559
:100E6000C64649461AD317D05DB1B3EB0E0267EB05
:100E7000010707FA0CFCF2404CEA0202F740C5E910
:100E8000002700263146BDE8F0872E4628460BE7AE
:100E90000646E9E61846FDE64345E5D2B8EB020E04
:100EA00069EB04010138DFE70846D2E760468DE7C9
:100EB0008146B9E7664675E730464AE7ACF1020C71
:100EC000394413E702383C4424E700BF704700BFB1
:100ED00080B582B000AF78607B681B7F012B40F04B
:100EE0008380454B1B68002B1AD10021786803F0E2
:100EF0005DF90346414A13603F4B01221A607B684B
:100F00001B681A6A7B681B6822F00A021A627B68F7
:100F10001B681A6A7B681B6842F002021A6263E06F
:100F2000354B1B68012B5FD10021786803F03EF937
:100F30000346334A13607B681B6800225A62304BB9
:100F40001A682E4B1B689A4207D92D4B1A682B4BF7
:100F50001B68D31A2B4A13600FE0284B1A68284BE2
:100F60001B689A4209D9264B1A68244B1B68D31A6E
:100F700003F57F43FF33234A1360224B1B68184657
:100F8000FFF7B8FA1AA3D3E90023FFF72DFB0246B7
:100F90000B46104619464FF000024FF08043FFF712
:100FA0004DFC02460B4610461946FFF7F5FD034679
:100FB0009AB2154B1A80104B00221A607B681B688E
:100FC0001A6A7B681B6822F00A021A627B681A6838
:100FD0007B681B68126A1A620C4B1B68DA680B4B41
:100FE0001B6822F00202DA6000BF0837BD4680BDF0
:100FF0009CC420B07268A13FB0000020A400002073
:10100000A8000020AC000020B4000020204A0020EE
:10101000B0B588B000AFF860B96011461A460B460B
:10102000FB711346BB713C21B14802F003FD3C212A
:10103000B04802F0FFFCAE4B1B685B6A07EE903ACB
:10104000F8EE677AC7ED067AAA4B1B685B6A07EE73
:10105000903AF8EE677AC7ED057A01F06DF903462C
:101060001A46A54B1A60BA6B13469B0013441A012B
:10107000D31A3B610023FB61FB79462B02D0522B34
:101080000BD015E0012208219C4801F0C5FC00228C
:1010900004219A4801F0C0FC0AE000220821974888
:1010A00001F0BAFC01220421944801F0B5FC00BF14
:1010B000BB79462B02D0522B0BD015E00122102118
:1010C0008E4801F0A9FC002220218C4801F0A4FCEC
:1010D0000AE000221021894801F09EFC0122202113
:1010E000864801F099FC00BF854B1B68FA685A637B
:1010F000834B1B68BA689A639FE101F01DF90346B0
:101100007D4A12689B1A642B40F28780784B1B68DB
:101110005B6A07EE903AF8EE677A7A4BC3ED007A95
:10112000744B1B685B6A07EE903AF8EE677A764B71
:10113000C3ED007A6E4B1B681B6803F01003102B85
:101140000AD1704BD3ED007A97ED067A77EE677A85
:101150006E4BC3ED007A09E06A4B93ED007AD7ED50
:10116000067A77EE677A694BC3ED007A614B1B68AC
:101170001B6803F01003102B0AD1634BD3ED007AE8
:1011800097ED057A77EE677A614BC3ED007A09E057
:101190005D4B93ED007AD7ED057A77EE677A5C4B7D
:1011A000C3ED007A594B93ED007A594BD3ED007A99
:1011B00037EE277AF0EE006AC7EE267A554BC3ED7C
:1011C000007A524BD3ED007A9FED537AC7EE876ACF
:1011D00016EE900AFFF7B0F902460B464F49504809
:1011E00007F02EFD4E4A23210A2007F02BFC484B26
:1011F000D3ED007A9FED487AC7EE876A16EE900A23
:10120000FFF79AF902460B464449454807F018FD96
:10121000434A32210A2007F015FC3E4B1B68184652
:10122000FFF78AF904460D463869FFF773F92CA3D6
:10123000D3E90023FFF7D8F902460B46204629469A
:10124000FFF758FC0346002B2AD03B6B002B27D11D
:10125000F868FFF75FF924A3D3E90023FFF7C4F987
:1012600002460B4610461946FFF76EFC0346FB602C
:10127000B868FFF74FF91CA3D3E90023FFF7B4F9CF
:1012800002460B4610461946FFF75EFC0346BB605C
:101290001B4B1B68FA685A63194B1B68BA689A6340
:1012A0003B6907EE903AB8EEE77A1A4BD3ED007A35
:1012B000B4EEE77AF1EE10FA34D83B6B002B31D163
:1012C0000F4B1B6800225A630D4B1B6800229A6368
:1012D0004FF4FA7004F0CAFDB4E000BFAFF3008031
:1012E0009A9999999999E93FB81E85EB51B8EE3FC3
:1012F000784B0020D04A0020A000002000000240CF
:10130000D8490020B84A0020D44900209400002089
:10131000980000209C0000200000964220A40008B5
:10132000BC4A00205E4B1B681846FFF705F90446CF
:101330000D463869FFF7EEF855A3D3E90023FFF710
:1013400053F902460B4620462946FFF7D3FB0346D6
:10135000002B17D1534B1B681846FFF7EDF80446D6
:101360000D463869FFF7D6F849A3D3E90023FFF704
:101370003BF902460B4620462946FFF7BBFB0346D6
:10138000002B2AD03B6B012B27D1F868FFF7C2F85E
:1013900041A3D3E90023FFF727F902460B46104685
:1013A0001946FFF7D1FB0346FB60B868FFF7B2F8B8
:1013B00039A3D3E90023FFF717F902460B4610467D
:1013C0001946FFF7C1FB0346BB60374B1B68FA6841
:1013D0005A63354B1B68BA689A633B6907EE903ACB
:1013E000B8EEE77A2E4BD3ED007AB4EEE77AF1EE61
:1013F00010FA0CD93B6907EE903AB8EEE77A294B20
:10140000D3ED007AB4EEE77AF1EE10FA0FD83B6B29
:10141000012B0CD1244B1B6800225A63224B1B6802
:1014200000229A634FF4FA7004F020FD0AE0FB6991
:101430000133FB61012004F019FDFA697B6B9A42CC
:10144000FFF65BAE184B1B6800225A63164B1B68F5
:1014500000229A63134B4FF000021A60114B1B6875
:101460000F4A13600E4BD3ED007AFDEEE77A17EECC
:10147000902A0E4B1A600D4B1B68BB60BB68FB606B
:1014800007F06CF900BF18462037BD46B0BD00BF5D
:101490009A9999999999E93FB81E85EB51B8EE3F11
:1014A0009400002098000020D8490020A0000020CF
:1014B00080B588B004AF78607868FFF72BF80246F3
:1014C0000B469FED171B43EC102B07F0D9FF51EC97
:1014D000100B16A3D3E90023FFF786F802460B464C
:1014E00010461946FFF730FB0346FB600E4B1B68A6
:1014F00038221A64642004F0B9FCFB6802934FF4AC
:101500007A730193012300934623462241F28831E6
:101510004FF47A70FFF77CFD00BF1037BD4680BDE9
:101520006ABC74931804F03F184B0020295C8FC2EA
:10153000F528E43F80B500AF00F098FE00F040F8D9
:1015400000F0EEFA00F036FA00F038F900F096F804
:1015500000F088F900F0DAF900F0B8FA07F0A4FA20
:1015600000210E4802F098F80A220D490D4803F0B8
:1015700084FC04F09FFB0C4A00210C4804F0E4FBBF
:1015800003460B4A13600B4A00210B4804F0DCFBB6
:1015900003460A4A136004F0B1FBFEE7204A00202C
:1015A000644B00206C4A00205CA400087D1C0008ED
:1015B000B04A002080A40008B11C0008B44A0020F2
:1015C00080B594B000AF07F1200330220021184607
:1015D00007F02EFB07F10C0300221A605A609A6094
:1015E000DA601A610023BB60224B1B6C214A43F076
:1015F000805313641F4B1B6C03F08053BB60BB68AC
:1016000000237B601C4B1B681B4A43F48043136020
:10161000194B1B6803F480437B607B6802233B62A9
:101620000123FB6210233B630023BB6307F120030C
:10163000184601F033FA0346002B01D000F05CFBA2
:101640000F23FB6000233B6100237B610023BB6110
:101650000023FB6107F10C030021184601F096FC02
:101660000346002B01D000F047FB00BF5037BD46BA
:1016700080BD00BF003802400070004080B596B0C9
:1016800000AF07F1480300221A605A609A60DA60DE
:1016900007F1400300221A605A6007F12403002278
:1016A0001A605A609A60DA601A615A619A613B1D49
:1016B00020220021184607F0BBFA3E4B3E4A1A6032
:1016C0003C4B4FF4A0725A603A4B00229A60394B5F
:1016D0004FF47A72DA60374B00221A61354B0022E0
:1016E0005A61344B80229A61324801F01FFE034652
:1016F000002B01D000F000FB4FF48053BB6407F1D6
:10170000480319462B4802F089FC0346002B01D000
:1017100000F0F2FA274801F058FE0346002B01D0F2
:1017200000F0EAFA00233B6400237B6407F14003E6
:101730001946204803F0E0F90346002B01D000F0E1
:10174000DBFA60237B620023BB620023FB62002381
:101750007B630023BB630023FB6307F124030C229C
:101760001946144802F098FB0346002B01D000F004
:10177000C3FA00237B600023BB600023FB600023CF
:101780003B6100237B614FF40053BB6100233B624C
:101790003B1D1946074803F02BFA0346002B01D0E6
:1017A00000F0AAFA034800F02DFC00BF5837BD46F0
:1017B00080BD00BF184B00200000014080B58CB0F8
:1017C00000AF07F10C0324220021184607F030FA7D
:1017D0003B1D00221A605A60214B4FF080421A6074
:1017E0001F4B00225A601E4B00229A601C4B4FF682
:1017F000FF72DA601A4B00221A61194B00229A61BB
:101800000323FB6000233B6101237B610023BB6159
:101810000A23FB6100233B6201237B620023BB623E
:101820000A23FB6207F10C0319460D4802F05CF82D
:101830000346002B01D000F05FFA00237B600023F9
:10184000BB603B1D1946064803F056F90346002BC2
:1018500001D000F051FA00BF3037BD4680BD00BF57
:10186000784B002080B58CB000AF07F10C03242228
:101870000021184607F0DCF93B1D00221A605A606F
:10188000204B214A1A601F4B00225A601D4B002238
:101890009A601C4B4FF6FF72DA601A4B00221A61F5
:1018A000184B00229A610323FB6000233B61012354
:1018B0007B610023BB610A23FB6100233B620123A0
:1018C0007B620023BB620A23FB6207F10C0319460B
:1018D0000C4802F009F80346002B01D000F00CFA86
:1018E00000237B600023BB603B1D1946054803F0C5
:1018F00003F90346002B01D000F0FEF900BF30379A
:10190000BD4680BDD04A00200004004080B586B0AE
:1019100000AF07F1100300221A605A603B46002214
:101920001A605A609A60DA60204B214A1A601F4B95
:101930000F225A601D4B00229A601C4B4FF6FE721C
:10194000DA601A4B00221A61184B00229A6117487C
:1019500001F052FE0346002B01D000F0CDF9002328
:101960003B6100237B6107F1100319460F4803F028
:10197000C3F80346002B01D000F0BEF900233B6002
:1019800001237B600023BB600023FB603B460022F9
:101990001946064802F0E4F90346002B01D000F096
:1019A000ABF900BF1837BD4680BD00BF204A0020FC
:1019B0000008004080B592B000AF07F1400300225C
:1019C0001A605A6007F1240300221A605A609A6074
:1019D000DA601A615A619A613B1D20220021184683
:1019E00007F026F9374B384A1A60364B00225A6006
:1019F000344B00229A60334B41F61F42DA60314B80
:101A000000221A612F4B00225A612E4B00229A614C
:101A10002C4801F0DAFC0346002B01D000F06CF9F1
:101A200000233B6400237B6407F1400319462548EB
:101A300003F062F80346002B01D000F05DF960234B
:101A40007B620023BB620023FB6200233B63002315
:101A50007B630023BB630023FB6307F124030022A5
:101A60001946184802F018FA0346002B01D000F07E
:101A700043F907F1240304221946124802F00CFA34
:101A80000346002B01D000F037F900237B600023D0
:101A9000BB600023FB6000233B6100237B614FF4AC
:101AA0000053BB6100233B623B1D1946054803F010
:101AB0009FF80346002B01D000F01EF900BF483705
:101AC000BD4680BDD84900200004014080B500AF6C
:101AD000114B124A1A60104B4FF4E1325A600E4B10
:101AE00000229A600C4B0022DA600B4B00221A6134
:101AF000094B0C225A61084B00229A61064B0022C6
:101B0000DA61054803F0DAF80346002B01D000F053
:101B1000F3F800BF80BD00BF6C4A002000480040C1
:101B200080B58AB000AF07F1140300221A605A6032
:101B30009A60DA601A6100233B61424B1B6B414A99
:101B400043F0100313633F4B1B6B03F010033B6127
:101B50003B690023FB603B4B1B6B3A4A43F001039C
:101B60001363384B1B6B03F00103FB60FB6800231E
:101B7000BB60344B1B6B334A43F008031363314B98
:101B80001B6B03F00803BB60BB6800237B602D4B1D
:101B90001B6B2C4A43F0040313632A4B1B6B03F0AB
:101BA00004037B607B6800233B60264B1B6B254A4C
:101BB00043F002031363234B1B6B03F002033B60F0
:101BC0003B6800224FF4BC611F4800F025FF002253
:101BD0003C211E4800F020FF00224FF400511C4819
:101BE00000F01AFF4FF4BC637B610123BB6100234B
:101BF000FB6100233B6207F114031946124800F011
:101C00006FFD3C237B610123BB610023FB61022349
:101C10003B6207F1140319460C4800F061FD4FF4D4
:101C200000537B610123BB610023FB6100233B6206
:101C300007F114031946064800F052FD00BF28378B
:101C4000BD4680BD00380240001002400000024046
:101C5000000C024080B582B000AF78604FF6FF7391
:101C60000A220449044803F076F800BF0837BD464D
:101C700080BD00BF644B00206C4A002080B588B056
:101C800000AF7860094A07F10C0392E8030083E88B
:101C9000030007F1140300221A605A609A6006F0EC
:101CA0005DFD4FF4FA7004F0E1F8F8E730A40008A5
:101CB00080B582B000AF786000210D4801F0D4FB00
:101CC00004210B4801F0D0FB0C210A4801F0CCFBA9
:101CD000084B1B684A221A644FF4FA7004F0C6F8E5
:101CE0004FF4B470FFF7E4FB00BF0837BD4680BD7A
:101CF000D8490020184B002080B400AF72B600BF56
:101D0000FEE7000080B582B000AF00237B60124B7D
:101D10005B6C114A43F4804353640F4B5B6C03F4D8
:101D200080437B607B6800233B600B4B1B6C0A4A43
:101D300043F080531364084B1B6C03F080533B60EB
:101D40003B6800220F216FF0010000F000FC00BF93
:101D50000837BD4680BD00BF0038024080B485B062
:101D600000AF78607B681B680B4A93420DD100235B
:101D7000FB600A4B5B6C094A43F001035364074B59
:101D80005B6C03F00103FB60FB6800BF1437BD46CA
:101D90005DF8047B704700BF00000140003802403E
:101DA00080B58CB000AF786007F11C0300221A6088
:101DB0005A609A60DA601A617B681B68B3F1804FE1
:101DC0004BD10023BB613F4B1B6C3E4A43F00103E8
:101DD00013643C4B1B6C03F00103BB61BB69002324
:101DE0007B61384B1B6B374A43F001031363354B60
:101DF0001B6B03F001037B617B6900233B61314B6B
:101E00001B6B304A43F0020313632E4B1B6B03F032
:101E100002033B613B694FF40043FB6102233B62D9
:101E200000237B620023BB620123FB6207F11C03DA
:101E30001946254800F054FC0823FB6102233B624D
:101E400000237B620023BB620123FB6207F11C03BA
:101E500019461E4800F044FC30E07B681B681C4AB1
:101E600093422BD10023FB60164B1B6C154A43F0A9
:101E700002031364134B1B6C03F00203FB60FB684B
:101E80000023BB600F4B1B6B0E4A43F0010313632F
:101E90000C4B1B6B03F00103BB60BB68C023FB61F1
:101EA00002233B6200237B620023BB620223FB62AE
:101EB00007F11C031946044800F012FC00BF30373C
:101EC000BD4680BD003802400000024000040240D0
:101ED0000004004080B58AB000AF786007F11403B9
:101EE00000221A605A609A60DA601A617B681B6887
:101EF0001D4A934234D100233B611C4B1B6C1B4A8F
:101F000043F004031364194B1B6C03F004033B619F
:101F10003B690023FB60154B1B6B144A43F008031D
:101F20001363124B1B6B03F00803FB60FB684FF459
:101F300080537B610223BB610023FB6100233B6272
:101F400002237B6207F114031946094800F0C8FB1D
:101F5000002205211E2000F0FAFA1E2000F013FBDB
:101F600000BF2837BD4680BD000800400038024051
:101F7000000C024080B58AB000AF786007F114030E
:101F800000221A605A609A60DA601A617B681B68E6
:101F9000194A93422BD100233B61184B5B6C174AC3
:101FA00043F002035364154B5B6C03F002033B6187
:101FB0003B690023FB60114B1B6B104A43F0040389
:101FC00013630E4B1B6B03F00403FB60FB68C02321
:101FD0007B610223BB610023FB6100233B6203237F
:101FE0007B6207F114031946054800F079FB00BF36
:101FF0002837BD4680BD00BF0004014000380240C4
:102000000008024080B588B000AF786007F10C038B
:1020100000221A605A609A60DA601A617B681B6855
:10202000124A93421ED10023BB60114B1B6B104A16
:1020300043F0100313630E4B1B6B03F01003BB60E4
:10204000BB684FF48043FB6002233B6100237B614C
:102050000023BB610123FB6107F10C03194605480E
:1020600000F03EFB00BF2037BD4680BD00000140B0
:10207000003802400010024080B58AB000AF78609E
:1020800007F1140300221A605A609A60DA601A613C
:102090007B681B681D4A934234D100233B611C4B73
:1020A0001B6C1B4A43F480231364194B1B6C03F411
:1020B00080233B613B690023FB60154B1B6B144A7B
:1020C00043F004031363124B1B6B03F00403FB6028
:1020D000FB684FF440637B610223BB610023FB611B
:1020E00003233B6207237B6207F114031946094867
:1020F00000F0F6FA00220521272000F028FA272018
:1021000000F041FA00BF2837BD4680BD00480040BE
:10211000003802400008024080B400AFFEE780B4FF
:1021200000AFFEE780B400AFFEE780B400AFFEE78B
:1021300080B400AFFEE780B400AF00BFBD465DF8DD
:10214000047B704780B500AF00F0E2F805F09CFA20
:102150000346012B01D006F087F800BF80BD0000C8
:1021600080B500AF024801F0F3FC00BF80BD00BFA6
:10217000204A002080B500AF024802F0AFFE00BF49
:1021800080BD00BF6C4A002080B586B000AF78608B
:10219000144A154BD31A7B617B693B61134B1B6857
:1021A000002B02D1114B124A1A60104B1A687B683F
:1021B00013443A699A4207D206F002FD03460C2204
:1021C0001A604FF0FF3309E0084B1B68FB60074BB8
:1021D0001A687B681344054A1360FB681846183771
:1021E000BD4680BD0000022000040000B8000020B1
:1021F0001850002080B400AF064BD3F88830054A51
:1022000043F47003C2F8883000BFBD465DF8047B1C
:10221000704700BF00ED00E0DFF834D00D480E49F4
:102220000E4A002302E0D458C4500433C4188C4230
:10223000F9D30B4A0B4C002301E013600432A24295
:10224000FBD3FFF7D7FF06F0C1FCFFF773F9704728
:10225000000002200000002078000020A8AF000845
:102260007800002014500020FEE7000080B500AF89
:102270000E4B1B680D4A43F4007313600B4B1B6835
:102280000A4A43F480631360084B1B68074A43F40F
:1022900080731360032000F04FF90F2000F008F85E
:1022A000FFF730FD0023184680BD00BF003C024010
:1022B00080B582B000AF7860124B1A68124B1B7861
:1022C00019464FF47A73B3FBF1F3B2FBF3F31846FC
:1022D00000F067F90346002B01D001230EE07B6874
:1022E0000F2B0AD8002279684FF0FF3000F02FF949
:1022F000064A7B681360002300E001231846083774
:10230000BD4680BD00000020080000200400002021
:1023100080B400AF064B1B781A46064B1B6813446B
:10232000044A136000BFBD465DF8047B704700BFE0
:1023300008000020C04B002080B400AF034B1B6896
:102340001846BD465DF8047B704700BFC04B0020B7
:1023500080B584B000AF7860FFF7EEFFB8607B68AF
:10236000FB60FB68B3F1FF3F05D00A4B1B781A46B0
:10237000FB681344FB6000BFFFF7DEFF0246BB684B
:10238000D31AFA689A42F7D800BF00BF1037BD468B
:1023900080BD00BF0800002080B485B000AF786029
:1023A0007B6803F00703FB600C4BDB68BB60BA681B
:1023B0004FF6FF031340BB60FB681A02BB68134370
:1023C00043F0BF6343F40033BB60044ABB68D3608F
:1023D00000BF1437BD465DF8047B704700ED00E098
:1023E00080B400AF044BDB681B0A03F007031846F8
:1023F000BD465DF8047B704700ED00E080B483B01B
:1024000000AF0346FB7197F90730002B0BDBFB791C
:1024100003F01F02074997F907305B09012000FA12
:1024200002F241F8232000BF0C37BD465DF8047B63
:10243000704700BF00E100E080B483B000AF034606
:102440003960FB7197F90730002B0ADB3B68DAB281
:102450000C4997F907301201D2B20B4483F80023DC
:102460000AE03B68DAB20849FB7903F00F03043B4A
:102470001201D2B20B441A7600BF0C37BD465DF88C
:10248000047B704700E100E000ED00E080B489B01B
:1024900000AFF860B9607A60FB6803F00703FB6186
:1024A000FB69C3F10703042B28BF0423BB61FB694D
:1024B0000433062B02D9FB69033B00E000237B6158
:1024C0004FF0FF32BB6902FA03F3DA43BB681A40EC
:1024D0007B699A404FF0FF317B6901FA03F3D943DE
:1024E0007B680B40134318462437BD465DF8047BD8
:1024F0007047000080B582B000AF78607B68013B18
:10250000B3F1807F01D301230FE00A4A7B68013BCE
:1025100053600F214FF0FF30FFF78EFF054B002275
:102520009A60044B07221A60002318460837BD46FC
:1025300080BD00BF10E000E080B582B000AF7860E1
:102540007868FFF729FF00BF0837BD4680BD80B51A
:1025500086B000AF0346B9607A60FB7300237B61ED
:10256000FFF73EFF78617A68B9687869FFF78EFFF8
:10257000024697F90F3011461846FFF75DFF00BF7E
:102580001837BD4680BD80B582B000AF0346FB71F1
:1025900097F907301846FFF731FF00BF0837BD46EF
:1025A00080BD80B582B000AF78607868FFF7A2FF89
:1025B000034618460837BD4680BD80B584B000AFDD
:1025C00078607B689B6DFB60FFF7B6FEB8607B6848
:1025D00093F83530DBB2022B08D07B6880225A6535
:1025E0007B68002283F83420012352E07B681B685B
:1025F0001A687B681B6822F016021A607B681B68E9
:102600005A697B681B6822F080025A617B681B6CE8
:10261000002B03D17B689B6C002B07D07B681B6869
:102620001A687B681B6822F008021A607B681B68C6
:102630001A687B681B6822F001021A6013E0FFF73A
:102640007BFE0246BB68D31A052B0CD97B6820227F
:102650005A657B68032283F835207B68002283F863
:102660003420032315E07B681B681B6803F001031B
:10267000002BE4D17B68DB6D3F229A40FB689A60B7
:102680007B68012283F835207B68002283F83420A0
:10269000002318461037BD4680BD80B483B000AF1C
:1026A00078607B6893F83530DBB2022B04D07B680E
:1026B00080225A6501230CE07B68052283F83520CF
:1026C0007B681B681A687B681B6822F001021A602D
:1026D000002318460C37BD465DF8047B70470000A8
:1026E00080B489B000AF7860396000237B6100233B
:1026F0003B610023BB610023FB616BE10122FB69AD
:1027000002FA03F37B613B681B687A6913403B6103
:102710003A697B699A4240F05A813B685B6803F0F2
:102720000303012B05D03B685B6803F00303022B16
:1027300030D17B689B68BB61FB695B00032202FAB6
:1027400003F3DB43BA691340BB613B68DA68FB699A
:102750005B0002FA03F3BA691343BB617B68BA6991
:102760009A607B685B68BB610122FB6902FA03F334
:10277000DB43BA691340BB613B685B681B0903F02C
:102780000102FB6902FA03F3BA691343BB617B6878
:10279000BA695A603B685B6803F00303032B17D0E8
:1027A0007B68DB68BB61FB695B00032202FA03F311
:1027B000DB43BA691340BB613B689A68FB695B0005
:1027C00002FA03F3BA691343BB617B68BA69DA6042
:1027D0003B685B6803F00303022B23D1FB69DA0833
:1027E0007B68083253F82230BB61FB6903F00703B2
:1027F0009B000F2202FA03F3DB43BA691340BB616B
:102800003B681A69FB6903F007039B0002FA03F3B4
:10281000BA691343BB61FB69DA087B680832B9699E
:1028200043F822107B681B68BB61FB695B000322D5
:1028300002FA03F3DB43BA691340BB613B685B6890
:1028400003F00302FB695B0002FA03F3BA69134366
:10285000BB617B68BA691A603B685B6803F440330C
:10286000002B00F0B4800023FB60604B5B6C5F4A80
:1028700043F4804353645D4B5B6C03F48043FB6023
:10288000FB685B4AFB699B08023352F82330BB614B
:10289000FB6903F003039B000F2202FA03F3DB43FF
:1028A000BA691340BB617B68524A93422BD07B6864
:1028B000514A934225D07B68504A93421FD07B688F
:1028C0004F4A934219D07B684E4A934213D07B689B
:1028D0004D4A93420DD07B684C4A934207D07B68A7
:1028E0004B4A934201D107230EE008230CE0062354
:1028F0000AE0052308E0042306E0032304E00223A2
:1029000002E0012300E00023FA6902F003029200D2
:102910009340BA691343BB613549FB699B08023395
:10292000BA6941F823203B4B1B68BB613B69DB4321
:10293000BA691340BB613B685B6803F48033002BCA
:1029400003D0BA693B691343BB61324ABB69136068
:10295000304B5B68BB613B69DB43BA691340BB61C9
:102960003B685B6803F40033002B03D0BA693B6912
:102970001343BB61274ABB695360264B9B68BB610D
:102980003B69DB43BA691340BB613B685B6803F496
:102990008013002B03D0BA693B691343BB611D4A06
:1029A000BB6993601B4BDB68BB613B69DB43BA6966
:1029B0001340BB613B685B6803F40013002B03D03A
:1029C000BA693B691343BB61124ABB69D360FB69B7
:1029D0000133FB61FB690F2B7FF690AE00BF00BF98
:1029E0002437BD465DF8047B704700BF00380240C5
:1029F000003801400000024000040240000802408C
:102A0000000C024000100240001402400018024076
:102A1000001C0240003C014080B483B000AF7860ED
:102A20000B467B8013467B707B78002B03D07A8823
:102A30007B689A6103E07B881A047B689A6100BF17
:102A40000C37BD465DF8047B7047000080B483B04E
:102A500000AF064B01221A60054B1B687B607B6848
:102A600000BF0C37BD465DF8047B704720000E4266
:102A70000070004080B483B000AF064B00221A60A3
:102A8000054B1B687B607B6800BF0C37BD465DF85B
:102A9000047B704720000E420070004080B586B075
:102AA00000AF78607B68002B01D1012364E27B6872
:102AB0001B6803F00103002B75D0A34B9B6803F048
:102AC0000C03042B0CD0A04B9B6803F00C03082BC9
:102AD00012D19D4B5B6803F48003B3F5800F0BD1DB
:102AE000994B1B6803F40033002B5BD07B685B6859
:102AF000002B57D101233FE27B685B68B3F5803F31
:102B000006D1914B1B68904A43F4803313601DE05B
:102B10007B685B68B3F5A02F0CD18B4B1B688A4A8E
:102B200043F480231360884B1B68874A43F4803347
:102B300013600BE0844B1B68834A23F480331360DB
:102B4000814B1B68804A23F4802313607B685B6899
:102B5000002B13D0FFF7F0FB386108E0FFF7ECFB28
:102B600002463B69D31A642B01D9032304E2764B56
:102B70001B6803F40033002BF0D014E0FFF7DCFBFC
:102B8000386108E0FFF7D8FB02463B69D31A642B93
:102B900001D90323F0E16C4B1B6803F40033002BD5
:102BA000F0D100E000BF7B681B6803F00203002B3C
:102BB00063D0654B9B6803F00C03002B0BD0624B7A
:102BC0009B6803F00C03082B1CD15F4B5B6803F47C
:102BD0008003002B16D15C4B1B6803F00203002B13
:102BE00005D07B68DB68012B01D00123C4E1564B83
:102BF0001B6823F0F8027B681B69DB005249134312
:102C00000B603AE07B68DB68002B20D04F4B012241
:102C10001A60FFF791FB386108E0FFF78DFB024671
:102C20003B69D31A022B01D90323A5E1464B1B684C
:102C300003F00203002BF0D0434B1B6823F0F80293
:102C40007B681B69DB00404913430B6015E03F4B79
:102C500000221A60FFF770FB386108E0FFF76CFB99
:102C600002463B69D31A022B01D9032384E1364B78
:102C70001B6803F00203002BF0D17B681B6803F094
:102C80000803002B30D07B685B69002B16D0304BDB
:102C900001221A60FFF750FB386108E0FFF74CFB98
:102CA00002463B69D31A022B01D9032364E1264B68
:102CB0005B6F03F00203002BF0D015E0244B0022E1
:102CC0001A60FFF739FB386108E0FFF735FB024671
:102CD0003B69D31A022B01D903234DE11A4B5B6FD9
:102CE00003F00203002BF0D17B681B6803F00403A0
:102CF000002B00F0A0800023FB75134B1B6C03F02E
:102D00008053002B0FD10023BB600F4B1B6C0E4A6E
:102D100043F0805313640C4B1B6C03F08053BB6077
:102D2000BB680123FB750B4B1B6803F48073002BFE
:102D300021D1084B1B68074A43F480731360FFF7E7
:102D4000FBFA386111E000BF003802400000474242
:102D5000800E474200700040FFF7EEFA02463B69E2
:102D6000D31A022B01D9032306E1854B1B6803F418
:102D70008073002BF0D07B689B68012B06D1814BC0
:102D80001B6F804A43F0010313671CE07B689B685C
:102D9000052B0CD17B4B1B6F7A4A43F0040313675E
:102DA000784B1B6F774A43F0010313670BE0754BB9
:102DB0001B6F744A23F001031367724B1B6F714A38
:102DC00023F0040313677B689B68002B15D0FFF783
:102DD000B3FA38610AE0FFF7AFFA02463B69D31A4B
:102DE00041F28832934201D90323C5E0654B1B6F42
:102DF00003F00203002BEED014E0FFF79DFA3861D8
:102E00000AE0FFF799FA02463B69D31A41F2883289
:102E1000934201D90323AFE05A4B1B6F03F0020327
:102E2000002BEED1FB7D012B05D1564B1B6C554A77
:102E300023F0805313647B689B69002B00F09B8018
:102E4000504B9B6803F00C03082B5CD07B689B699C
:102E5000022B41D14C4B00221A60FFF76DFA38610A
:102E600008E0FFF769FA02463B69D31A022B01D941
:102E7000032381E0434B1B6803F00073002BF0D168
:102E80007B68DA697B681B6A1A437B685B6A9B0113
:102E90001A437B689B6A5B08013B1B041A437B68EF
:102EA000DB6A1B06374913434B60374B01221A601C
:102EB000FFF742FA386108E0FFF73EFA02463B6945
:102EC000D31A022B01D9032356E02E4B1B6803F0C3
:102ED0000073002BF0D04EE02B4B00221A60FFF75E
:102EE0002BFA386108E0FFF727FA02463B69D31A4C
:102EF000022B01D903233FE0224B1B6803F0007330
:102F0000002BF0D137E07B689B69012B01D10123B5
:102F100032E01C4B5B68FB607B689B69012B28D00F
:102F2000FB6803F480027B68DB699A4221D1FB686D
:102F300003F03F027B681B6A9A421AD1FA6847F68F
:102F4000C07313407A68526A9201934211D1FB68B0
:102F500003F440327B689B6A5B08013B1B049A4286
:102F600007D1FB6803F070627B68DB6A1B069A423C
:102F700001D0012300E0002318461837BD4680BD6C
:102F800000700040003802406000474280B584B0C5
:102F900000AF786039607B68002B01D10123CCE061
:102FA000684B1B6803F007033A689A420CD9654BDB
:102FB0003A68D2B21A70634B1B6803F007033A6891
:102FC0009A4201D00123B8E07B681B6803F002033A
:102FD000002B20D07B681B6803F00403002B05D076
:102FE000594B9B68584A43F4E05393607B681B68D5
:102FF00003F00803002B05D0534B9B68524A43F45F
:1030000060439360504B9B6823F0F0027B689B68A1
:103010004D4913438B607B681B6803F00103002B51
:1030200044D07B685B68012B07D1474B1B6803F4D6
:103030000033002B19D101237FE07B685B68022BF2
:1030400003D07B685B68032B07D13F4B1B6803F001
:103050000073002B09D101236FE03B4B1B6803F089
:103060000203002B01D1012367E0374B9B6823F05B
:1030700003027B685B68344913438B60FFF75CF99C
:10308000F8600AE0FFF758F90246FB68D31A41F2EC
:103090008832934201D903234FE02B4B9B6803F006
:1030A0000C027B685B689B009A42EBD1254B1B6846
:1030B00003F007033A689A420CD2224B3A68D2B224
:1030C0001A70204B1B6803F007033A689A4201D03C
:1030D000012332E07B681B6803F00403002B08D057
:1030E000194B9B6823F4E0527B68DB681649134355
:1030F0008B607B681B6803F00803002B09D0124B20
:103100009B6823F460427B681B69DB000E49134314
:103110008B6000F021F802460B4B9B681B0903F003
:103120000F030A49CB5C22FA03F3094A1360094BE7
:103130001B681846FFF7BCF8002318461037BD4639
:1031400080BD00BF003C024000380240A4A400083B
:103150000000002004000020B0B584B000AF0021C2
:1031600079600021F960002139600021B96052497D
:10317000896801F00C0108290DD0082900F294801B
:10318000002902D0042903D08EE04C4BBB608EE0B6
:103190004B4BBB608BE04849496801F03F017960C7
:1031A0004549496801F48001002924D04249496811
:1031B000890908464FF0000140F2FF144FF0000566
:1031C00000EA040201EA05033D4901FB03F0002186
:1031D00001FB02F144183A49A2FB010163181946A8
:1031E0007B681A464FF00003FDF7F6FC02460B46DB
:1031F0001346FB604AE0304B5B689B091A464FF070
:10320000000340F2FF104FF0000102EA000403EA5D
:103210000105204629464FF000024FF000034B0104
:1032200043EAD063420110461946001B61EB0501D9
:103230004FF000024FF000038B0143EA90638201DC
:10324000121A63EB01034FF000004FF00001D900A8
:1032500041EA5271D00002460B46121945EB0303B6
:103260004FF000004FF00001990241EA92519002A4
:1032700002460B46104619467B681A464FF000037B
:10328000FDF7AAFC02460B461346FB600A4B5B683F
:103290001B0C03F0030301335B003B60FA683B68DF
:1032A000B2FBF3F3BB6002E0044BBB6000BFBB6842
:1032B00018461037BD46B0BD003802400024F40067
:1032C00040787D0180B400AF034B1B681846BD46B3
:1032D0005DF8047B704700BF0000002080B500AFA0
:1032E000FFF7F0FF0246054B9B689B0A03F00703BC
:1032F0000349CB5C22FA03F3184680BD0038024034
:10330000B4A4000880B500AFFFF7DCFF0246054B10
:103310009B685B0B03F007030349CB5C22FA03F3C2
:10332000184680BD00380240B4A4000880B582B0C1
:1033300000AF78607B68002B01D1012341E07B68FE
:1033400093F83D30DBB2002B06D17B68002283F876
:103350003C207868FEF702FD7B68022283F83D205E
:103360007B681A687B6804331946104600F08AFFB0
:103370007B68012283F846207B68012283F83E2087
:103380007B68012283F83F207B68012283F840207C
:103390007B68012283F841207B68012283F8422068
:1033A0007B68012283F843207B68012283F8442054
:1033B0007B68012283F845207B68012283F83D2049
:1033C000002318460837BD4680BD80B582B000AFE7
:1033D00078607B68002B01D1012341E07B6893F882
:1033E0003D30DBB2002B06D17B68002283F83C2005
:1033F0007868FEF7BFFD7B68022283F83D207B687A
:103400001A687B6804331946104600F03BFF7B685E
:10341000012283F846207B68012283F83E207B68E6
:10342000012283F83F207B68012283F840207B68DB
:10343000012283F841207B68012283F842207B68C7
:10344000012283F843207B68012283F844207B68B3
:10345000012283F845207B68012283F83D20002368
:1034600018460837BD4680BD80B584B000AF78608F
:1034700039603B68002B09D17B6893F83E30DBB2A2
:10348000012B14BF01230023DBB222E03B68042B95
:1034900009D17B6893F83F30DBB2012B14BF0123C5
:1034A0000023DBB215E03B68082B09D17B6893F859
:1034B0004030DBB2012B14BF01230023DBB208E054
:1034C0007B6893F84130DBB2012B14BF012300234A
:1034D000DBB2002B01D001237CE03B68002B04D140
:1034E0007B68022283F83E2013E03B68042B04D162
:1034F0007B68022283F83F200BE03B68082B04D155
:103500007B68022283F8402003E07B68022283F874
:1035100041207B681B6801223968184601F0C6FA11
:103520007B681B682D4A934204D07B681B682C4A39
:10353000934201D1012300E00023002B07D07B68D8
:103540001B685A6C7B681B6842F400425A647B68B3
:103550001B68224A934222D07B681B68B3F1804FDC
:103560001DD07B681B681F4A934218D07B681B687C
:103570001D4A934213D07B681B681C4A93420ED0AD
:103580007B681B68164A934209D07B681B68184AFF
:10359000934204D07B681B68164A934211D17B6822
:1035A0001B689B6803F00703FB60FB68062B10D0C9
:1035B0007B681B681A687B681B6842F001021A600E
:1035C00007E07B681B681A687B681B6842F0010291
:1035D0001A60002318461037BD4680BD0000014028
:1035E000000401400004004000080040000C0040BE
:1035F000004001400018004080B582B000AF786004
:103600007B68002B01D1012341E07B6893F83D30BA
:10361000DBB2002B06D17B68002283F83C2078685F
:10362000FEF758FC7B68022283F83D207B681A680D
:103630007B6804331946104600F024FE7B680122A3
:1036400083F846207B68012283F83E207B680122B4
:1036500083F83F207B68012283F840207B680122A9
:1036600083F841207B68012283F842207B68012295
:1036700083F843207B68012283F844207B68012281
:1036800083F845207B68012283F83D2000231846FB
:103690000837BD4680BD000080B584B000AF7860BB
:1036A00039600023FB733B68002B04D17B6893F8DF
:1036B0003E30DBB213E03B68042B04D17B6893F807
:1036C0003F30DBB20BE03B68082B04D17B6893F8FA
:1036D0004030DBB203E07B6893F84130DBB2BB7370
:1036E0003B68002B04D17B6893F84230DBB213E0D7
:1036F0003B68042B04D17B6893F84330DBB20BE0CA
:103700003B68082B04D17B6893F84430DBB203E0BC
:103710007B6893F84530DBB27B73BB7B012B02D116
:103720007B7B012B01D00123CCE03B68002B04D133
:103730007B68022283F83E2013E03B68042B04D10F
:103740007B68022283F83F200BE03B68082B04D102
:103750007B68022283F8402003E07B68022283F822
:1037600041203B68002B04D17B68022283F8422071
:1037700013E03B68042B04D17B68022283F84320CA
:103780000BE03B68082B04D17B68022283F84420BD
:1037900003E07B68022283F845203B680C2B41D86C
:1037A00001A252F823F000BFDD37000825380008D9
:1037B0002538000825380008EF37000825380008AC
:1037C0002538000825380008013800082538000889
:1037D0002538000825380008133800087B681B6866
:1037E000DA687B681B6842F00202DA601DE07B68E1
:1037F0001B68DA687B681B6842F00402DA6014E038
:103800007B681B68DA687B681B6842F00802DA6034
:103810000BE07B681B68DA687B681B6842F010026B
:10382000DA6002E00123FB7300BFFB7B002B48D171
:103830007B681B6801223968184601F037F97B68FC
:103840001B68224A934222D07B681B68B3F1804FE9
:103850001DD07B681B681E4A934218D07B681B688A
:103860001C4A934213D07B681B681B4A93420ED0BC
:103870007B681B68194A934209D07B681B68184A09
:10388000934204D07B681B68164A934211D17B682F
:103890001B689B6803F00703BB60BB68062B10D056
:1038A0007B681B681A687B681B6842F001021A601B
:1038B00007E07B681B681A687B681B6842F001029E
:1038C0001A60FB7B18461037BD4680BD00000140E2
:1038D0000004004000080040000C004000040140CB
:1038E000004001400018004080B586B000AF78600D
:1038F00039607B68002B01D1012397E07B6893F846
:103900003D30DBB2002B06D17B68002283F83C20DF
:103910007868FEF745FA7B68022283F83D207B68D1
:103920001B689B687A68126823F4804323F00703BE
:1039300093607B681A687B6804331946104600F070
:10394000A1FC7B681B689B687B617B681B689B692B
:103950003B617B681B681B6AFB603B681B687A697C
:1039600013437B613B6923F4407323F003033B6102
:103970003B689A683B689B691B0213433A6913438F
:103980003B613B6923F4406323F00C033B613B69DB
:1039900023F4704323F0F0033B613B68DA683B6833
:1039A000DB691B0213433A6913433B613B681B69A4
:1039B0001A013B681B6A1B0313433A6913433B61BB
:1039C000FB6823F02203FB60FB6823F08803FB60A5
:1039D0003B685A683B685B691B011343FA681343F1
:1039E000FB607B681B687A699A607B681B683A6930
:1039F0009A617B681B68FA681A627B68012283F807
:103A000046207B68012283F83E207B68012283F8F0
:103A10003F207B68012283F842207B68012283F8E3
:103A200043207B68012283F83D2000231846183785
:103A3000BD4680BD80B584B000AF786039607B68DA
:103A400093F83E30FB737B6893F83F30BB737B6821
:103A500093F842307B737B6893F843303B733B6849
:103A6000002B10D1FB7B012B02D17B7B012B01D0E2
:103A7000012369E07B68022283F83E207B680222F2
:103A800083F8422031E03B68042B10D1BB7B012B33
:103A900002D13B7B012B01D0012355E07B68022240
:103AA00083F83F207B68022283F843201DE0FB7BE4
:103AB000012B08D1BB7B012B05D17B7B012B02D1D4
:103AC0003B7B012B01D001233EE07B68022283F87F
:103AD0003E207B68022283F83F207B68022283F825
:103AE00042207B68022283F843203B68002B03D0EE
:103AF0003B68042B08D00FE07B681B680122002183
:103B0000184600F0D3FF16E07B681B6801220421F1
:103B1000184600F0CBFF0EE07B681B6801220021F5
:103B2000184600F0C3FF7B681B6801220421184679
:103B300000F0BCFF00BF7B681B681A687B681B68CD
:103B400042F001021A60002318461037BD4680BDBE
:103B500080B582B000AF78607B681B681B6903F09A
:103B60000203022B22D17B681B68DB6803F002038F
:103B7000022B1BD17B681B686FF002021A617B6805
:103B800001221A777B681B689B6903F00303002BF3
:103B900003D07868FDF79CF905E0786800F054FBE5
:103BA000786800F05BFB7B6800221A777B681B68F3
:103BB0001B6903F00403042B22D17B681B68DB68BC
:103BC00003F00403042B1BD17B681B686FF0040215
:103BD0001A617B6802221A777B681B689B6903F471
:103BE0004073002B03D07868FDF772F905E0786820
:103BF00000F02AFB786800F031FB7B6800221A771E
:103C00007B681B681B6903F00803082B22D17B68C3
:103C10001B68DB6803F00803082B1BD17B681B685B
:103C20006FF008021A617B6804221A777B681B68B0
:103C3000DB6903F00303002B03D07868FDF748F934
:103C400005E0786800F000FB786800F007FB7B680F
:103C500000221A777B681B681B6903F01003102B86
:103C600022D17B681B68DB6803F01003102B1BD18B
:103C70007B681B686FF010021A617B6808221A7754
:103C80007B681B68DB6903F44073002B03D0786802
:103C9000FDF71EF905E0786800F0D6FA786800F0C4
:103CA000DDFA7B6800221A777B681B681B6903F0CA
:103CB0000103012B0ED17B681B68DB6803F0010355
:103CC000012B07D17B681B686FF001021A617868CD
:103CD00000F0B0FA7B681B681B6903F08003802B3F
:103CE0000ED17B681B68DB6803F08003802B07D153
:103CF0007B681B686FF080021A61786800F0D4FF5F
:103D00007B681B681B6903F04003402B0ED17B6866
:103D10001B68DB6803F04003402B07D17B681B68FE
:103D20006FF040021A61786800F0A2FA7B681B68A5
:103D30001B6903F02003202B0ED17B681B68DB6816
:103D400003F02003202B07D17B681B686FF0200253
:103D50001A61786800F09EFF00BF0837BD4680BD3D
:103D600080B586B000AFF860B9607A600023FB755B
:103D7000FB6893F83C30012B01D1022388E0FB68FB
:103D8000012283F83C207B68002B1BD1FB6818685C
:103D9000BB681968BB685A68BB68DB6800F0C2FC86
:103DA000FB681B689A69FB681B6822F00C029A6129
:103DB000FB681B689969BB689A68FB681B680A43C3
:103DC0009A6160E07B68042B1CD1FB681868BB68B3
:103DD0001968BB685A68BB68DB6800F046FDFB6881
:103DE0001B689A69FB681B6822F440629A61FB6851
:103DF0001B689969BB689B681A02FB681B680A43C9
:103E00009A6140E07B68082B1BD1FB681868BB688F
:103E10001968BB685A68BB68DB6800F093FDFB68F3
:103E20001B68DA69FB681B6822F00C02DA61FB6828
:103E30001B68D969BB689A68FB681B680A43DA612A
:103E400021E07B680C2B1CD1FB681868BB681968E3
:103E5000BB685A68BB68DB6800F0B0FDFB681B6894
:103E6000DA69FB681B6822F44062DA61FB681B6850
:103E7000D969BB689B681A02FB681B680A43DA6150
:103E800001E00123FB75FB68002283F83C20FB7DE9
:103E900018461837BD4680BD80B586B000AFF860C3
:103EA000B9607A600023FB75FB6893F83C30012B06
:103EB00001D10223AEE0FB68012283F83C207B683D
:103EC0000C2B00F29F8001A252F823F0013F000862
:103ED000054000080540000805400008413F000873
:103EE000054000080540000805400008833F000821
:103EF000054000080540000805400008C33F0008D1
:103F0000FB681B68B968184600F05CFAFB681B6820
:103F10009A69FB681B6842F008029A61FB681B689B
:103F20009A69FB681B6822F004029A61FB681B68AF
:103F30009969BB681A69FB681B680A439A6164E067
:103F4000FB681B68B968184600F0ACFAFB681B6890
:103F50009A69FB681B6842F400629A61FB681B68FF
:103F60009A69FB681B6822F480629A61FB681B688F
:103F70009969BB681B691A02FB681B680A439A614E
:103F800043E0FB681B68B968184600F001FBFB685A
:103F90001B68DA69FB681B6842F00802DA61FB689B
:103FA0001B68DA69FB681B6822F00402DA61FB68AF
:103FB0001B68D969BB681A69FB681B680A43DA6128
:103FC00023E0FB681B68B968184600F055FBFB68E6
:103FD0001B68DA69FB681B6842F40062DA61FB68FF
:103FE0001B68DA69FB681B6822F48062DA61FB688F
:103FF0001B68D969BB681B691A02FB681B680A4306
:10400000DA6102E00123FB7500BFFB68002283F840
:104010003C20FB7D18461837BD4680BD80B584B076
:1040200000AF786039600023FB737B6893F83C3005
:10403000012B01D10223B4E07B68012283F83C20EC
:104040007B68022283F83D207B681B689B68BB600D
:10405000BB6823F07703BB60BB6823F47F43BB607E
:104060007B681B68BA689A603B681B68B3F5005FA1
:104070003ED0B3F5005F00F28780B3F5805F00F0BB
:104080008680B3F5805F7FD8702B1AD0702B7BD8D9
:10409000602B50D0602B77D8502B3CD0502B73D84E
:1040A000402B58D0402B6FD8302B64D0302B6BD89E
:1040B000202B60D0202B67D8002B5CD0102B5AD03F
:1040C00062E07B6818683B6899683B685A683B689F
:1040D000DB6800F0CBFC7B681B689B68BB60BB683F
:1040E00043F07703BB607B681B68BA689A604FE057
:1040F0007B6818683B6899683B685A683B68DB686E
:1041000000F0B4FC7B681B689A687B681B6842F40B
:1041100080429A603CE07B6818683B6859683B685D
:10412000DB681A4600F072FB7B681B68502118465A
:1041300000F081FC2CE07B6818683B6859683B689C
:10414000DB681A4600F0CEFB7B681B6860211846CE
:1041500000F071FC1CE07B6818683B6859683B689C
:10416000DB681A4600F052FB7B681B68402118464A
:1041700000F061FC0CE07B681A683B681B6819461C
:10418000104600F058FC03E00123FB7300E000BF81
:104190007B68012283F83D207B68002283F83C2065
:1041A000FB7B18461037BD4680BD000080B485B04B
:1041B00000AF786039600023FB603B680C2B31D87E
:1041C00001A252F823F000BFFD410008254200087B
:1041D0002542000825420008074200082542000841
:1041E0002542000825420008114200082542000827
:1041F00025420008254200081B4200087B681B6816
:104200005B6BFB600FE07B681B689B6BFB600AE0ED
:104210007B681B68DB6BFB6005E07B681B681B6CC5
:10422000FB6000E000BFFB6818461437BD465DF830
:10423000047B704780B483B000AF786000BF0C3758
:10424000BD465DF8047B704780B483B000AF7860F2
:1042500000BF0C37BD465DF8047B704780B483B067
:1042600000AF786000BF0C37BD465DF8047B704737
:1042700080B483B000AF786000BF0C37BD465DF8F6
:10428000047B704780B485B000AF786039607B688C
:104290001B68FB607B68404A934213D07B68B3F194
:1042A000804F0FD07B683D4A93420BD07B683C4ADD
:1042B000934207D07B683B4A934203D07B683A4ADB
:1042C000934208D1FB6823F07003FB603B685B6896
:1042D000FA681343FB607B682F4A93422BD07B68BC
:1042E000B3F1804F27D07B682C4A934223D07B6860
:1042F0002B4A93421FD07B682A4A93421BD07B688B
:10430000294A934217D07B68284A934213D07B688E
:10431000274A93420FD07B68264A93420BD07B6892
:10432000254A934207D07B68244A934203D07B6896
:10433000234A934208D1FB6823F44073FB603B6837
:10434000DB68FA681343FB60FB6823F080023B687C
:104350005B691343FB607B68FA681A603B689A6884
:104360007B68DA623B681A687B689A627B680A4AF3
:10437000934203D07B680C4A934203D13B681A698D
:104380007B681A637B6801225A6100BF1437BD46FF
:104390005DF8047B704700BF00000140000400404E
:1043A00000080040000C00400004014000400140B3
:1043B000004401400048014000180040001C00403B
:1043C0000020004080B487B000AF786039607B681F
:1043D0001B6A23F001027B681A627B681B6A7B619F
:1043E0007B685B683B617B689B69FB60FB6823F0D3
:1043F0007003FB60FB6823F00303FB603B681B68F2
:10440000FA681343FB607B6923F002037B613B681E
:104410009B687A6913437B617B68204A934203D08F
:104420007B681F4A93420CD17B6923F008037B61B0
:104430003B68DB687A6913437B617B6923F0040383
:104440007B617B68154A934203D07B68144A934290
:1044500011D13B6923F480733B613B6923F4007302
:104460003B613B685B693A6913433B613B689B690D
:104470003A6913433B617B683A695A607B68FA6822
:104480009A613B685A687B685A637B687A691A62EA
:1044900000BF1C37BD465DF8047B7047000001403B
:1044A0000004014080B487B000AF786039607B6859
:1044B0001B6A23F010027B681A627B681B6A7B61AF
:1044C0007B685B683B617B689B69FB60FB6823F4EE
:1044D000E043FB60FB6823F44073FB603B681B68B0
:1044E0001B02FA681343FB607B6923F020037B61A6
:1044F0003B689B681B017A6913437B617B68224A96
:10450000934203D07B68214A93420DD17B6923F00B
:1045100080037B613B68DB681B017A6913437B6125
:104520007B6923F040037B617B68174A934203D089
:104530007B68164A934213D13B6923F480633B6145
:104540003B6923F400633B613B685B699B003A690C
:1045500013433B613B689B699B003A6913433B6192
:104560007B683A695A607B68FA689A613B685A6866
:104570007B689A637B687A691A6200BF1C37BD4604
:104580005DF8047B704700BF00000140000401405B
:1045900080B487B000AF786039607B681B6A23F411
:1045A00080727B681A627B681B6A7B617B685B68D0
:1045B0003B617B68DB69FB60FB6823F07003FB6099
:1045C000FB6823F00303FB603B681B68FA68134336
:1045D000FB607B6923F400737B613B689B681B0273
:1045E0007A6913437B617B68214A934203D07B68DD
:1045F000204A93420DD17B6923F400637B613B68C1
:10460000DB681B027A6913437B617B6923F4806357
:104610007B617B68164A934203D07B68154A9342BC
:1046200013D13B6923F480533B613B6923F400536E
:104630003B613B685B691B013A6913433B613B6823
:104640009B691B013A6913433B617B683A695A6075
:104650007B68FA68DA613B685A687B68DA637B6872
:104660007A691A6200BF1C37BD465DF8047B70474B
:10467000000001400004014080B487B000AF7860C2
:1046800039607B681B6A23F480527B681A627B68FE
:104690001B6A3B617B685B687B617B68DB69FB60F5
:1046A000FB6823F4E043FB60FB6823F44073FB608A
:1046B0003B681B681B02FA681343FB603B6923F4E9
:1046C00000533B613B689B681B033A6913433B61A2
:1046D0007B68124A934203D07B68114A934209D106
:1046E0007B6923F480437B613B685B699B017A694A
:1046F00013437B617B687A695A607B68FA68DA6188
:104700003B685A687B681A647B683A691A6200BF22
:104710001C37BD465DF8047B704700BF00000140B8
:104720000004014080B487B000AFF860B9607A60DF
:104730003B60FB681B6A23F00102FB681A62FB689E
:104740009B697B61FB681B6A3B61FB68284A93425B
:104750001BD0FB68B3F1804F17D0FB68254A93420A
:1047600013D0FB68244A93420FD0FB68234A93423C
:104770000BD0FB68224A934207D0FB68214A934240
:1047800003D0FB68204A934201D1012300E00023BB
:10479000002B08D07B6923F003037B617A697B6877
:1047A00013437B6103E07B6943F001037B617B6919
:1047B00023F0F0037B613B681B01DBB27A69134392
:1047C0007B613B6923F00A033B61BB6803F00A038A
:1047D0003A6913433B61FB687A699A61FB683A69FD
:1047E0001A6200BF1C37BD465DF8047B704700BFEE
:1047F000000001400004004000080040000C0040A0
:1048000000040140004001400018004080B487B01F
:1048100000AFF860B9607A60FB681B6A7B61FB6877
:104820001B6A23F00102FB681A62FB689B693B610B
:104830003B6923F0F0033B617B681B013A6913433A
:104840003B617B6923F00A037B617A69BB68134390
:104850007B61FB683A699A61FB687A691A6200BFFA
:104860001C37BD465DF8047B704780B487B000AF4D
:10487000F860B9607A603B60FB681B6A23F0100245
:10488000FB681A62FB689B697B61FB681B6A3B6182
:104890007B6923F440737B617B681B027A69134355
:1048A0007B617B6923F470437B613B681B039BB294
:1048B0007A6913437B613B6923F0A0033B61BB68CA
:1048C0001B0103F0A0033A6913433B61FB687A695B
:1048D0009A61FB683A691A6200BF1C37BD465DF8F1
:1048E000047B704780B487B000AFF860B9607A602D
:1048F000FB681B6A23F01002FB681A62FB689B6965
:104900007B61FB681B6A3B617B6923F470437B61BD
:104910007B681B037A6913437B613B6923F0A00327
:104920003B61BB681B013A6913433B61FB687A69D1
:104930009A61FB683A691A6200BF1C37BD465DF890
:10494000047B704780B487B000AFF860B9607A60CC
:104950003B60FB681B6A23F48072FB681A62FB6889
:10496000DB697B61FB681B6A3B617B6923F00303A6
:104970007B617A697B6813437B617B6923F0F00379
:104980007B613B681B01DBB27A6913437B613B6946
:1049900023F420633B61BB681B0203F420633A6984
:1049A00013433B61FB687A69DA61FB683A691A6212
:1049B00000BF1C37BD465DF8047B704780B487B0EC
:1049C00000AFF860B9607A603B60FB681B6A23F453
:1049D0008052FB681A62FB68DB697B61FB681B6ABB
:1049E0003B617B6923F440737B617B681B027A69BE
:1049F00013437B617B6923F470437B613B681B033A
:104A00009BB27A6913437B613B6923F420433B618A
:104A1000BB681B0303F420433A6913433B61FB6803
:104A20007A69DA61FB683A691A6200BF1C37BD46D1
:104A30005DF8047B704780B485B000AF7860396062
:104A40007B689B68FB60FB6823F07003FB603A683F
:104A5000FB68134343F00703FB607B68FA689A60C6
:104A600000BF1437BD465DF8047B704780B487B043
:104A700000AFF860B9607A603B60FB689B687B615F
:104A80007B6923F47F437B613B681A027B681A438E
:104A9000BB6813437A6913437B61FB687A699A6048
:104AA00000BF1C37BD465DF8047B704780B487B0FB
:104AB00000AFF860B9607A60BB6803F01F030122A1
:104AC00002FA03F37B61FB681A6A7B69DB431A40D5
:104AD000FB681A62FB681A6ABB6803F01F037968F7
:104AE00001FA03F31A43FB681A6200BF1C37BD4684
:104AF0005DF8047B7047000080B485B000AF78603B
:104B000039607B6893F83C30012B01D102235AE0D5
:104B10007B68012283F83C207B68022283F83D20D9
:104B20007B681B685B68FB607B681B689B68BB607D
:104B3000FB6823F07003FB603B681B68FA68134353
:104B4000FB607B681B68FA685A607B681B68214AB7
:104B5000934222D07B681B68B3F1804F1DD07B68E5
:104B60001B681D4A934218D07B681B681B4A9342FE
:104B700013D07B681B681A4A93420ED07B681B686F
:104B8000184A934209D07B681B68174A934204D0A5
:104B90007B681B68154A93420CD1BB6823F08003E5
:104BA000BB603B685B68BA681343BB607B681B688B
:104BB000BA689A607B68012283F83D207B680022F6
:104BC00083F83C20002318461437BD465DF8047B6B
:104BD000704700BF00000140000400400008004092
:104BE000000C00400004014000400140001800405B
:104BF00080B485B000AF786039600023FB607B68CB
:104C000093F83C30012B01D102233DE07B68012267
:104C100083F83C20FB6823F0FF023B68DB6813430A
:104C2000FB60FB6823F440723B689B681343FB60A6
:104C3000FB6823F480623B685B681343FB60FB689E
:104C400023F400623B681B681343FB60FB6823F49A
:104C500080523B681B691343FB60FB6823F40052DE
:104C60003B685B691343FB60FB6823F480423B684D
:104C7000DB691343FB607B681B68FA685A647B68D6
:104C8000002283F83C20002318461437BD465DF807
:104C9000047B704780B483B000AF786000BF0C37EE
:104CA000BD465DF8047B704780B483B000AF786088
:104CB00000BF0C37BD465DF8047B704780B582B0FD
:104CC00000AF78607B68002B01D101233FE07B6857
:104CD00093F83D30DBB2002B06D17B68002283F8CD
:104CE0003C207868FDF7C8F97B68242283F83D20D2
:104CF0007B681B68DA687B681B6822F40052DA6004
:104D0000786800F0DBFD7B681B681A697B681B68AC
:104D100022F490421A617B681B685A697B681B68A1
:104D200022F02A025A617B681B68DA687B681B687C
:104D300042F40052DA607B6800221A647B68202209
:104D400083F83D207B68202283F83E20002318460C
:104D50000837BD4680BD80B58AB002AFF860B96043
:104D60003B601346FB8000237B61FB6893F83D307A
:104D7000DBB2202B7CD1BB68002B02D0FB88002B40
:104D800001D1012375E0FB6893F83C30012B01D180
:104D900002236EE0FB68012283F83C20FB680022BE
:104DA0001A64FB68212283F83D20FDF7C5FA78617B
:104DB000FB68FA889A84FB68FA88DA84FB689B6847
:104DC000B3F5805F08D1FB681B69002B04D1002379
:104DD000FB61BB68BB6103E0BB68FB610023BB6197
:104DE000FB68002283F83C202AE03B6800937B6943
:104DF00000228021F86800F01FFB0346002B01D041
:104E0000032336E0FB69002B0BD1BB691B881A46D4
:104E1000FB681B68C2F308025A60BB690233BB61BE
:104E200007E0FB691A78FB681B685A60FB6901336D
:104E3000FB61FB68DB8C9BB2013B9AB2FB68DA84B6
:104E4000FB68DB8C9BB2002BCFD13B6800937B6966
:104E500000224021F86800F0EFFA0346002B01D051
:104E6000032306E0FB68202283F83D20002300E0B6
:104E7000022318462037BD4680BD80B584B000AF00
:104E8000F860B9601346FB80FB6893F83E30DBB2F4
:104E9000202B1DD1BB68002B02D0FB88002B01D139
:104EA000012316E0FB6893F83C30012B01D102236B
:104EB0000FE0FB68012283F83C20FB6800221A63A4
:104EC000FB881A46B968F86800F024FB034600E046
:104ED000022318461037BD4680BD000080B5BAB029
:104EE00000AF78607B681B681B68C7F8E4307B689C
:104EF0001B68DB68C7F8E0307B681B685B69C7F834
:104F0000DC300023C7F8D8300023C7F8D430D7F8F6
:104F1000E43003F00F03C7F8D830D7F8D830002BAF
:104F20000FD1D7F8E43003F02003002B09D0D7F8D5
:104F3000E03003F02003002B03D0786800F003FC7E
:104F400056E2D7F8D830002B00F0DE80D7F8DC30FE
:104F500003F00103002B06D1D7F8E03003F490737F
:104F6000002B00F0D180D7F8E43003F00103002BD0
:104F70000BD0D7F8E03003F48073002B05D07B68AA
:104F80001B6C43F001027B681A64D7F8E43003F02D
:104F90000403002B0BD0D7F8DC3003F00103002B07
:104FA00005D07B681B6C43F002027B681A64D7F85B
:104FB000E43003F00203002B0BD0D7F8DC3003F011
:104FC0000103002B05D07B681B6C43F004027B6857
:104FD0001A64D7F8E43003F00803002B11D0D7F897
:104FE000E03003F02003002B05D1D7F8DC3003F0CC
:104FF0000103002B05D07B681B6C43F008027B6823
:105000001A647B681B6C002B00F0ED81D7F8E4304C
:1050100003F02003002B08D0D7F8E03003F0200382
:10502000002B02D0786800F08EFB7B681B685B6900
:1050300003F04003402B0CBF01230023DBB2C7F871
:10504000D4307B681B6C03F00803002B03D1D7F826
:10505000D430002B4FD0786800F096FA7B681B683C
:105060005B6903F04003402B41D17B681B6814331C
:10507000C7F89C30D7F89C3053E8003FC7F8983009
:10508000D7F8983023F04003C7F8D0307B681B680E
:105090001433D7F8D020C7F8A820C7F8A430D7F821
:1050A000A410D7F8A82041E80023C7F8A030D7F80B
:1050B000A030002BD9D17B689B6B002B13D07B6871
:1050C0009B6B7D4A1A657B689B6B1846FDF7E5FA7A
:1050D0000346002B16D07B689B6B1B6D7A68926B26
:1050E000104698470EE0786800F090F90AE078687A
:1050F00000F08CF906E0786800F088F97B680022FF
:105100001A6470E100BF6EE17B681B6B012B40F0FD
:105110004A81D7F8E43003F01003002B00F04381FC
:10512000D7F8E03003F01003002B00F03C8100239F
:10513000BB607B681B681B68BB607B681B685B6827
:10514000BB60BB687B681B685B6903F04003402B56
:1051500040F0B4807B689B6B1B685B68A7F8BE302F
:10516000B7F8BE30002B00F040817B689B8DB7F80C
:10517000BE209A4280F039817B68B7F8BE20DA857C
:105180007B689B6BDB69B3F5807F00F088807B6870
:105190001B680C33C7F88830D7F8883053E8003FD5
:1051A000C7F88430D7F8843023F48073C7F8B83058
:1051B0007B681B680C33D7F8B820C7F89420C7F871
:1051C0009030D7F89010D7F8942041E80023C7F822
:1051D0008C30D7F88C30002BD9D17B681B68143306
:1051E0007B677B6F53E8003F3B673B6F23F0010316
:1051F000C7F8B4307B681B681433D7F8B420C7F8FD
:105200008020FB67F96FD7F8802041E80023BB6757
:10521000BB6F002BE1D17B681B6814333B663B6E90
:1052200053E8003FFB65FB6D23F04003C7F8B03047
:105230007B681B681433D7F8B020FA66BB66B96E7A
:10524000FA6E41E800237B667B6E002BE3D17B681E
:10525000202283F83E207B6800221A637B681B684B
:105260000C33FB64FB6C53E8003FBB64BB6C23F066
:105270001003C7F8AC307B681B680C33D7F8AC2040
:10528000BA657B65796DBA6D41E800233B653B6D7E
:10529000002BE3D17B689B6B1846FDF78EF97B688A
:1052A0009A8D7B68DB8D9BB2D31A9BB219467868C6
:1052B00000F0B6F899E000BF4F5600087B689A8D61
:1052C0007B68DB8D9BB2D31AA7F8CE307B68DB8D71
:1052D0009BB2002B00F08B80B7F8CE30002B00F093
:1052E00086807B681B680C33BB63BB6B53E8003F55
:1052F0007B637B6B23F49073C7F8C8307B681B68B3
:105300000C33D7F8C8207A643B64396C7A6C41E876
:105310000023FB63FB6B002BE3D17B681B6814331A
:105320007B627B6A53E8003F3B623B6A23F00103E8
:10533000C7F8C4307B681B681433D7F8C4203A63BD
:10534000FB62F96A3A6B41E80023BB62BB6A002B3F
:10535000E3D17B68202283F83E207B6800221A6319
:105360007B681B680C333B613B6953E8003FFB6083
:10537000FB6823F01003C7F8C0307B681B680C3350
:10538000D7F8C020FA61BB61B969FA6941E8002326
:105390007B617B69002BE3D1B7F8CE301946786882
:1053A00000F03EF823E0D7F8E43003F08003002B50
:1053B00009D0D7F8E03003F08003002B03D07868E1
:1053C00000F059F914E0D7F8E43003F04003002B63
:1053D0000ED0D7F8E03003F04003002B08D07868F7
:1053E00000F099F904E000BF02E000BF00E000BF58
:1053F000E837BD4680BD00BF80B483B000AF7860A1
:1054000000BF0C37BD465DF8047B704780B483B0A5
:1054100000AF786000BF0C37BD465DF8047B704775
:1054200080B483B000AF78600B467B8000BF0C3740
:10543000BD465DF8047B704780B590B000AFF86062
:10544000B9603B601346FB7150E0BB6CB3F1FF3FAA
:105450004CD0BB6C002B07D0FCF76EFF02463B68BC
:10546000D31ABA6C9A4241D2FB681B680C33BB62F8
:10547000BB6A53E8003F7B627B6A23F4D073FB6313
:10548000FB681B680C33FA6B7A633B63396B7A6B8E
:1054900041E80023FB62FB6A002BE5D1FB681B6837
:1054A00014337B617B6953E8003F3B613B6923F028
:1054B0000103BB63FB681B681433BA6B3A62FB6180
:1054C000F9693A6A41E80023BB61BB69002BE5D169
:1054D000FB68202283F83D20FB68202283F83E20D1
:1054E000FB68002283F83C2003230FE0FB681B6865
:1054F0001A68BB681340BA689A420CBF01230023A4
:10550000DBB21A46FB799A429FD0002318464037F7
:10551000BD4680BD80B485B000AFF860B960134669
:10552000FB80FB68BA689A62FB68FA889A85FB6818
:10553000FA88DA85FB6800221A64FB68222283F865
:105540003E20FB68002283F83C20FB681B68DA6879
:10555000FB681B6842F48072DA60FB681B685A695A
:10556000FB681B6842F001025A61FB681B68DA683D
:10557000FB681B6842F02002DA60002318461437EB
:10558000BD465DF8047B704780B495B000AF78608D
:105590007B681B680C337B637B6B53E8003F3B638A
:1055A0003B6B23F49073FB647B681B680C33FA6CD1
:1055B0003A64FB63F96B3A6C41E80023BB63BB6B55
:1055C000002BE5D17B681B6814333B623B6A53E8D0
:1055D000003FFB61FB6923F00103BB647B681B6830
:1055E0001433BA6CFA62BB62B96AFA6A41E8002302
:1055F0007B627B6A002BE5D17B681B6B012B19D189
:105600007B681B680C33FB60FB6853E8003FBB60A2
:10561000BB6823F010037B647B681B680C337A6CD7
:10562000BA617B617969BA6941E800233B613B69F2
:10563000002BE5D17B68202283F83E207B68002286
:105640001A6300BF5437BD465DF8047B704780B5D0
:1056500084B000AF78607B689B6BFB60FB680022C6
:10566000DA85FB680022DA84F868FFF7CFFE00BF16
:105670001037BD4680BD80B485B000AF78607B68D0
:1056800093F83D30DBB2212B3ED17B689B68B3F5AC
:10569000805F14D17B681B69002B10D17B681B6A6B
:1056A000FB60FB681B881A467B681B68C2F3080214
:1056B0005A607B681B6A9A1C7B681A6208E07B68E8
:1056C0001B6A591C7A6811621A787B681B685A60D9
:1056D0007B68DB8C9BB2013B9BB27A681946D18414
:1056E000002B0FD17B681B68DA687B681B6822F08F
:1056F0008002DA607B681B68DA687B681B6842F0AE
:105700004002DA60002300E0022318461437BD4649
:105710005DF8047B704780B582B000AF78607B682D
:105720001B68DA687B681B6822F04002DA607B68DD
:10573000202283F83D207868FFF75EFE002318469C
:105740000837BD4680BD80B58CB000AF78607B68FF
:1057500093F83E30DBB2222B40F0AB807B689B6835
:10576000B3F5805F17D17B681B69002B13D1002331
:10577000FB627B689B6ABB627B681B685B689BB251
:10578000C3F308039AB2BB6A1A807B689B6A9A1CAF
:105790007B689A6226E07B689B6AFB620023BB629F
:1057A0007B689B68B3F5805F07D07B689B68002BA4
:1057B0000AD17B681B69002B06D17B681B685B687C
:1057C000DAB2FB6A1A7008E07B681B685B68DBB2C0
:1057D00003F07F03DAB2FB6A1A707B689B6A5A1C7B
:1057E0007B689A627B68DB8D9BB2013B9BB27A68D7
:1057F0001946D185002B5AD17B681B68DA687B6813
:105800001B6822F02002DA607B681B68DA687B681C
:105810001B6822F48072DA607B681B685A697B68B7
:105820001B6822F001025A617B68202283F83E2027
:105830007B681B6B012B35D17B6800221A637B6868
:105840001B680C337B617B6953E8003F3B613B691C
:1058500023F010037B627B681B680C337A6A3A6220
:10586000FB61F9693A6A41E80023BB61BB69002B1F
:10587000E5D17B681B681B6803F01003102B0AD16D
:105880000023FB607B681B681B68FB607B681B68F0
:105890005B68FB60FB687B689B8D19467868FFF747
:1058A000BFFD02E07868FCF7D5F9002302E0002391
:1058B00000E0022318463037BD4680BD2DE9F04F89
:1058C0009FB000AFF866FB6E1B681B6923F4405065
:1058D000FB6ED968FB6E1A6840EA01031361FB6E28
:1058E0009A68FB6E1B691A43FB6E5B691A43FB6E79
:1058F000DB6913433B67FB6E1B68DB6823F41641CF
:1059000021F00C01FB6E1A683B6F0B43D360FB6EFA
:105910001B685B6923F44070FB6E9969FB6E1A6823
:1059200040EA01035361FB6E1A68C54B9A4204D0EA
:10593000FB6E1A68C34B9A4203D1FDF7E3FC78670C
:1059400002E0FDF7CBFC7867FB6EDB69B3F5004F37
:1059500040F0B6807B6F1C464FF0000522462B4678
:10596000911839645B417B64D7E91023121945EB28
:1059700003034FF000004FF00001D90041EA5271DB
:10598000D00002460B46111939666B417B66FB6EEF
:105990005B681A464FF000039118B9635B41FB63E3
:1059A000D7E90E23D7E91801FBF716F902460B4693
:1059B000A54BA3FB02235B091E017B6F1C464FF026
:1059C000000522462B46911839635B417B63D7E97A
:1059D0000C23121945EB03034FF000004FF00001B8
:1059E000D90041EA5271D00002460B461119B9653F
:1059F0006B41FB65FB6E5B681A464FF00003911824
:105A0000B9625B41FB62D7E90A23D7E91601FBF7CC
:105A1000E3F802460B468C4BA3FB02135B0964219F
:105A200001FB03F3D31ADB003233874AA2FB0323C3
:105A30005B095B0003F4F8731E447B6F18464FF05C
:105A4000000102460B4694183C625B417B62D7E939
:105A50000823121841EB03034FF000044FF0000538
:105A6000DD0045EA5275D40022462B4614183C65E9
:105A70004B417B65FB6E5B681A464FF00003911843
:105A8000B9615B41FB61D7E90623D7E91401FBF754
:105A9000A3F802460B466C4BA3FB02135B0964217F
:105AA00001FB03F3D31ADB003233674AA2FB032363
:105AB0005B0903F00702FB6E1B6832449A60B9E091
:105AC0007B6F1C464FF0000522462B46911839612A
:105AD0005B417B61D7E90423121945EB03034FF0C7
