:020000040800F2
:1000000000000220152F0008152E00081B2E0008E6
:10001000212E0008272E00082D2E000800000000C9
:10002000000000000000000000000000F191000846
:10003000332E00080000000041940008412E000803
:10004000652F0008652F0008652F0008652F000840
:10005000652F0008652F0008652F0008652F000830
:10006000652F0008652F0008652F0008652F000820
:10007000652F0008652F0008652F0008652F000810
:10008000652F0008652F0008652F0008652F000800
:10009000652F0008652F0008652F0008652F0008F0
:1000A000652F0008652F0008652F0008652F0008E0
:1000B000652F0008652F00085D2E0008652F0008D9
:1000C000652F0008652F0008652F0008652F0008C0
:1000D000652F0008652F0008652F0008712E0008A5
:1000E000652F0008652F0008652F0008652F0008A0
:1000F000652F0008652F0008652F0008652F000890
:10010000652F0008652F0008652F0008652F00087F
:10011000652F0008652F0008652F0008652F00086F
:10012000652F0008652F0008652F0008652F00085F
:10013000652F0008652F0008652F0008652F00084F
:10014000652F0008652F0008652F0008652F00083F
:10015000652F0008652F0008652F0008652F00082F
:10016000652F0008652F0008652F0008652F00081F
:10017000652F0008652F0008652F000800000000AB
:08018000652F0008652F00083F
:1001900010B5054C237833B9044B13B10448AFF3C1
:1001A00000800123237010BD7400002000000000B7
:1001B000C0A6000808B5034B1BB103490348AFF3C1
:1001C000008008BD0000000078000020C0A60008E4
:1001D000034613F8012B002AFBD1181A0138704787
:1001E00001F0FF01102A2BDB10F0070F08D010F8E8
:1001F000013B013A8B422DD010F0070F42B3F6D1EC
:10020000F0B441EA012141EA014122F007047FF004
:1002100000070023F0E80256083C85EA010586EA5B
:10022000010685FA47F5A3FA87F586FA47F6A5FA97
:1002300087F68EB9EED1F0BC01F0FF0102F00702A3
:1002400032B110F8013B013A83EA010313B1F8D14E
:100250000020704701387047002D06BF354603382F
:10026000073815F0010F07D1013015F4807F02BF68
:10027000013015F4C03F0130F0BC0138704700BFB9
:1002800081F0004102E000BF83F0004330B54FEA47
:1002900041044FEA430594EA050F08BF90EA020FB4
:1002A0001FBF54EA000C55EA020C7FEA645C7FEA47
:1002B000655C00F0E2804FEA5454D4EB5555B8BF6A
:1002C0006D420CDD2C4480EA020281EA030382EADB
:1002D000000083EA010180EA020281EA0303362D6D
:1002E00088BF30BD11F0004F4FEA01314FF4801C40
:1002F0004CEA113102D0404261EB410113F0004F52
:100300004FEA03334CEA133302D0524263EB430308
:1003100094EA050F00F0A780A4F10104D5F1200EA6
:100320000DDB02FA0EFC22FA05F2801841F1000101
:1003300003FA0EF2801843FA05F359410EE0A5F1D5
:1003400020050EF1200E012A03FA0EFC28BF4CF006
:10035000020C43FA05F3C01851EBE37101F00045BC
:1003600007D54FF0000EDCF1000C7EEB00006EEBC9
:100370000101B1F5801F1BD3B1F5001F0CD3490853
:100380005FEA30004FEA3C0C04F101044FEA4452AA
:1003900012F5800F80F09A80BCF1004F08BF5FEA31
:1003A000500C50F1000041EB045141EA050130BD11
:1003B0005FEA4C0C404141EB0101013C28BFB1F523
:1003C000801FE9D291F0000F04BF01460020B1FA6E
:1003D00081F308BF2033A3F10B03B3F120020CDA41
:1003E0000C3208DD02F1140CC2F10C0201FA0CF01F
:1003F00021FA02F10CE002F11402D8BFC2F1200C84
:1004000001FA02F120FA0CFCDCBF41EA0C01904039
:10041000E41AA2BF01EB0451294330BD6FEA040482
:100420001F3C1CDA0C340EDC04F11404C4F120026D
:1004300020FA04F001FA02F340EA030021FA04F37F
:1004400045EA030130BDC4F10C04C4F1200220FAD6
:1004500002F001FA04F340EA0300294630BD21FA14
:1004600004F0294630BD94F0000F83F4801306BFDA
:1004700081F480110134013D4EE77FEA645C18BFCE
:100480007FEA655C29D094EA050F08BF90EA020F65
:1004900005D054EA000C04BF1946104630BD91EA5D
:1004A000030F1EBF0021002030BD5FEA545C05D160
:1004B0004000494128BF41F0004130BD14F580049F
:1004C0003CBF01F5801130BD01F0004545F0FE4113
:1004D00041F470014FF0000030BD7FEA645C1ABF48
:1004E000194610467FEA655C1CBF0B46024650EA7F
:1004F000013406BF52EA033591EA030F41F40021AB
:1005000030BD00BF90F0000F04BF0021704730B530
:100510004FF4806404F132044FF000054FF0000105
:1005200050E700BF90F0000F04BF0021704730B5C6
:100530004FF4806404F1320410F0004548BF40429B
:100540004FF000013EE700BF42004FEAE2014FEAF0
:1005500031014FEA02701FBF12F07F4393F07F4FCB
:1005600081F06051704732F07F4208BF704793F0CE
:100570007F4F04BF41F40021704730B54FF46074E1
:1005800001F0004521F000411CE700BF50EA0102E4
:1005900008BF704730B54FF000050AE050EA01028D
:1005A00008BF704730B511F0004502D5404261EBFD
:1005B00041014FF4806404F132045FEA915C3FF43E
:1005C000D8AE4FF003025FEADC0C18BF03325FEADB
:1005D000DC0C18BF033202EBDC02C2F1200300FA8C
:1005E00003FC20FA02F001FA03FE40EA0E0021FAB1
:1005F00002F11444BDE600BF70B54FF0FF0C4CF49F
:10060000E06C1CEA11541DBF1CEA135594EA0C0F50
:1006100095EA0C0F00F0DEF82C4481EA030621EA8B
:100620004C5123EA4C5350EA013518BF52EA0335C6
:1006300041F4801143F4801338D0A0FB02CE4FF078
:100640000005E1FB02E506F00042E0FB03E54FF0A8
:100650000006E1FB03569CF0000F18BF4EF0010EA0
:10066000A4F1FF04B6F5007F64F5407404D25FEA9C
:100670004E0E6D4146EB060642EAC62141EA55514F
:100680004FEAC52040EA5E504FEACE2EB4F1FD0C91
:1006900088BFBCF5E06F1ED8BEF1004F08BF5FEA0F
:1006A000500E50F1000041EB045170BD06F00046C1
:1006B00046EA010140EA020081EA0301B4EB5C046E
:1006C000C2BFD4EB0C0541EA045170BD41F4801166
:1006D0004FF0000E013C00F3AB8014F1360FDEBF8B
:1006E000002001F0004170BDC4F10004203C35DA67
:1006F0000C341BDC04F11404C4F1200500FA05F3EA
:1007000020FA04F001FA05F240EA020001F000428A
:1007100021F0004110EBD37021FA04F642EB060100
:100720005EEA430E08BF20EAD37070BDC4F10C042A
:10073000C4F1200500FA04F320FA05F001FA04F2EE
:1007400040EA020001F0004110EBD37041F10001DA
:100750005EEA430E08BF20EAD37070BDC4F12005E5
:1007600000FA05F24EEA020E20FA04F301FA05F24D
:1007700043EA020321FA04F001F0004121FA04F2F5
:1007800020EA020000EBD3705EEA430E08BF20EAC5
:10079000D37070BD94F0000F0FD101F000464000FF
:1007A00041EB010111F4801F08BF013CF7D041EA81
:1007B000060195F0000F18BF704703F00046520085
:1007C00043EB030313F4801F08BF013DF7D043EA56
:1007D0000603704794EA0C0F0CEA135518BF95EA0C
:1007E0000C0F0CD050EA410618BF52EA4306D1D193
:1007F00081EA030101F000414FF0000070BD50EAB2
:10080000410606BF1046194652EA430619D094EA3B
:100810000C0F02D150EA013613D195EA0C0F05D125
:1008200052EA03361CBF104619460AD181EA030179
:1008300001F0004141F0FE4141F470014FF0000031
:1008400070BD41F0FE4141F4780170BD70B54FF0CC
:10085000FF0C4CF4E06C1CEA11541DBF1CEA13554C
:1008600094EA0C0F95EA0C0F00F0A7F8A4EB05042E
:1008700081EA030E52EA03354FEA013100F0888025
:100880004FEA03334FF0805545EA131343EA1263EE
:100890004FEA022245EA111545EA10654FEA0026A3
:1008A0000EF000419D4208BF964244F1FD0404F55C
:1008B000407402D25B084FEA3202B61A65EB0305B8
:1008C0005B084FEA32024FF480104FF4002CB6EB75
:1008D000020E75EB030E22BFB61A754640EA0C00F5
:1008E0005B084FEA3202B6EB020E75EB030E22BF35
:1008F000B61A754640EA5C005B084FEA3202B6EB76
:10090000020E75EB030E22BFB61A754640EA9C0034
:100910005B084FEA3202B6EB020E75EB030E22BF04
:10092000B61A754640EADC0055EA060E18D04FEAC2
:10093000051545EA16754FEA06164FEAC30343EA62
:1009400052734FEAC2025FEA1C1CC0D111F4801F2F
:100950000BD141EA00014FF000004FF0004CB6E728
:1009600011F4801F04BF01430020B4F1FD0C88BFC7
:10097000BCF5E06F3FF6AFAEB5EB030C04BFB6EBD2
:10098000020C5FEA500C50F1000041EB045170BDC5
:100990000EF0004E4EEA113114EB5C04C2BFD4EBF2
:1009A0000C0541EA045170BD41F480114FF0000E76
:1009B000013C90E645EA060E8DE60CEA135594EAF2
:1009C0000C0F08BF95EA0C0F3FF43BAF94EA0C0FF5
:1009D0000AD150EA01347FF434AF95EA0C0F7FF46A
:1009E00025AF104619462CE795EA0C0F06D152EABE
:1009F00003353FF4FDAE1046194622E750EA4106A2
:100A000018BF52EA43067FF4C5AE50EA41047FF4B2
:100A10000DAF52EA43057FF4EBAE12E74FF0FF3C17
:100A200006E000BF4FF0010C02E000BF4FF0010CE8
:100A30004DF804CD4FEA410C7FEA6C5C4FEA430C61
:100A400018BF7FEA6C5C1BD001B050EA410C0CBFB0
:100A500052EA430C91EA030F02BF90EA020F002012
:100A6000704710F1000F91EA030F58BF994208BF79
:100A700090422CBFD8176FEAE37040F00100704736
:100A80004FEA410C7FEA6C5C02D150EA013C07D18D
:100A90004FEA430C7FEA6C5CD6D152EA033CD3D0D8
:100AA0005DF8040B704700BF8446104662468C46D2
:100AB0001946634600E000BF01B5FFF7B7FF002805
:100AC00048BF10F1000F01BD4DF808EDFFF7F4FF2E
:100AD0000CBF012000205DF808FB00BF4DF808EDB9
:100AE000FFF7EAFF34BF012000205DF808FB00BFDC
:100AF0004DF808EDFFF7E0FF94BF012000205DF8FE
:100B000008FB00BF4DF808EDFFF7CEFF94BF0120B2
:100B100000205DF808FB00BF4DF808EDFFF7C4FFAB
:100B200034BF012000205DF808FB00BF4FEA4102FE
:100B300012F5001215D211D56FF47873B3EB62522F
:100B400012D94FEAC12343F0004343EA505311F056
:100B5000004F23FA02F018BF404270474FF00000E8
:100B6000704750EA013005D111F0004008BF6FF026
:100B7000004070474FF00000704700BF4A0011D29C
:100B800012F5001211D20DD56FF47873B3EB6252E7
:100B90000ED44FEAC12343F0004343EA505323FAF3
:100BA00002F070474FF00000704750EA013002D168
:100BB0004FF0FF3070474FF00000704753B94AB90B
:100BC000002908BF00281CBF4FF0FF314FF0FF3055
:100BD00000F06EB9ADF1080C6DE904CE00F006F836
:100BE000DDF804E0DDE9022304B070472DE9F047A9
:100BF000089D04468C46002B40F083808A421746AD
:100C000047D9B2FA82F242B1C2F1200024FA00F0D0
:100C10009140974040EA010C94404FEA1748230C5A
:100C2000BCFBF8F61FFA87FE08FB16C143EA014336
:100C300006FB0EF1994209D9FB1806F1FF3080F04E
:100C40001981994240F21681023E3B445B1AA4B2DC
:100C5000B3FBF8F008FB103344EA034400FB0EFE3C
:100C6000A64509D93C1900F1FF3380F00581A6455E
:100C700040F2028102383C4440EA0640A4EB0E04F4
:100C800000261DB1D4400023C5E900433146BDE82C
:100C9000F08702B9FFDEB2FA82F2002A50D1CB1BF4
:100CA0004FEA174E1FFA87F80126B3FBFEFC210C12
:100CB0000EFB1C3341EA034108FB0CF38B4207D9BE
:100CC00079180CF1FF3002D28B4200F2E9808446A1
:100CD000C91AA3B2B1FBFEF00EFB101143EA0144A6
:100CE00008FB00F8A04507D93C1900F1FF3302D2F8
:100CF000A04500F2D9801846A4EB080440EA0C4055
:100D0000BFE78B4209D9002D00F0B1800026C5E96C
:100D1000000130463146BDE8F087B3FA83F6002E75
:100D20004AD18B4202D3824200F2B880841A61EB2E
:100D3000030101208C46002DA8D0C5E9004CA5E791
:100D4000C2F1200320FA03F6974001FA02F04FEABD
:100D5000174ED9403043030CB1FBFEF61FFA87F85B
:100D60000EFB161143EA014306FB08F1994204FA0F
:100D700002F409D9FB1806F1FF3C80F08D809942FE
:100D800040F28A80023E3B445B1A81B2B3FBFEF024
:100D90000EFB103341EA034100FB08F38B4207D9F5
:100DA000791800F1FF3C73D28B4271D90238394473
:100DB000CB1A40EA064678E7C6F1200C03FA06F49F
:100DC00022FA0CF31C4320FA0CF701FA06F34FEA5F
:100DD000144E21FA0CF11F433B0CB1FBFEF91FFA34
:100DE00084F80EFB191143EA014109FB08FA8A4510
:100DF00002FA06F200FA06F308D9611809F1FF3089
:100E000048D28A4546D9A9F102092144A1EB0A0139
:100E1000BFB2B1FBFEF00EFB101147EA014700FB29
:100E200008F8B84507D9E71900F1FF312ED2B845C7
:100E30002CD90238274440EA0940A7EB0807A0FB59
:100E400002894F45C64649461AD317D05DB1B3EB68
:100E50000E0267EB010707FA0CFCF2404CEA0202B3
:100E6000F740C5E9002700263146BDE8F0872E4649
:100E700028460BE70646E9E61846FDE64345E5D277
:100E8000B8EB020E69EB04010138DFE70846D2E750
:100E900060468DE78146B9E7664675E730464AE722
:100EA000ACF1020C394413E702383C4424E700BF9C
:100EB000704700BF80B483B000AF78607B684FF0AC
:100EC00000025A627B684FF000029A627B684FF022
:100ED0000002DA627B684FF000021A637B684FF011
:100EE00000025A6300BF0C37BD465DF8047B7047B3
:100EF00080B487B000AFF86087ED020AC7ED010A41
:100F000097ED027AD7ED017A77EE677AC7ED057A29
:100F1000FB68D3ED007A97ED057A67EE277AC7ED87
:100F2000047AFB6893ED097AFB68D3ED017AF6EE5B
:100F3000006A67EEA66AFB68D3ED087A66EEA76AD8
:100F4000FB6893ED0A6AD7ED057A76EE277A66EEAE
:100F5000A77A77EE277AFB68C3ED097AFB6893EDF1
:100F6000097AD7ED047A77EE277AFB68C3ED0D7A1C
:100F7000FB687A699A62FB687A681A63FB685B6B44
:100F800007EE903AB0EE670A1C37BD465DF8047B69
:100F90007047000080B483B000AF0346FB80094B6C
:100FA0001B6800225A6200BF064B1B685A6AFB8806
:100FB0009A42F9D300BF00BF0C37BD465DF8047BF1
:100FC000704700BF284A002080B582B000AF78602B
:100FD0007B681B7F012B40F08380454B1B68002BF7
:100FE0001AD10021786804F0C1F90346414A136020
:100FF0003F4B01221A607B681B681A6A7B681B687A
:1010000022F00A021A627B681B681A6A7B681B68F6
:1010100042F002021A6263E0354B1B68012B5FD17C
:101020000021786804F0A2F90346334A13607B6814
:101030001B6800225A62304B1A682E4B1B689A427A
:1010400007D92D4B1A682B4B1B68D31A2B4A1360F8
:101050000FE0284B1A68284B1B689A4209D9264B87
:101060001A68244B1B68D31A03F57F43FF33234AC6
:101070001360224B1B681846FFF744FA1AA3D3E902
:101080000023FFF7B9FA02460B46104619464FF007
:1010900000024FF08043FFF7D9FB02460B46104693
:1010A0001946FFF76BFD03469AB2154B1A80104B99
:1010B00000221A607B681B681A6A7B681B6822F032
:1010C0000A021A627B681A687B681B68126A1A62D5
:1010D0000C4B1B68DA680B4B1B6822F00202DA60CB
:1010E00000BF0837BD4680BD9CC420B07268A13FD8
:1010F000A80000209C000020A0000020A4000020E8
:10110000AC000020284A002080B500AF01224FF437
:1011100000510C4802F060FD0A20FFF73BFF00225F
:101120004FF40051074802F057FD074B1B68DA687F
:10113000054B1B6842F00202DA60044B1B8818461C
:1011400080BD00BF000C0240284A0020AC000020F7
:1011500080B500AFFFF7D8FF03461A461C4B1A8034
:10116000642001F073FFFFF7CFFF03461A46194BC7
:101170001A60642001F06AFF11E0FFF7C5FF034623
:101180001A46134B1A80642001F060FFFFF7BCFF82
:1011900003461A460F4B1A60642001F057FF0C4BB0
:1011A0001B881A460B4B1B68D31A002BB8BF5B4237
:1011B000042BE2DC064B1B881A46064B1B681344C3
:1011C000DA0F13445B101A46034B1A6000BF80BD50
:1011D000AE000020B0000020B400002080B500AFB9
:1011E00004E001220549064804F06CFF034B1B781C
:1011F0005A2BF6D000BF00BF80BD00BFF84B0020C7
:10120000704A002080B59EB000AF87ED010A644BA4
:101210005A221A7007F1400338220021184608F0BC
:1012200027FE604B3B64604B7B644FF081433B6621
:1012300007F1080338220021184608F019FE594B1F
:10124000BB60594BFB604FF08143BB623C21574868
:1012500003F0D0FC3C21564803F0CCFC01220821CD
:10126000544802F0B9FC00220421524802F0B4FCB8
:10127000012210214F4802F0AFFC002220214D48EE
:1012800002F0AAFC07F140031846FFF713FE07F12E
:1012900008031846FFF70EFE444B1B685B6A07EE17
:1012A000903AF8EE677A9FED447A67EE877AFDEE22
:1012B000E77A17EE903A1AB2404B1A803C4B1B6803
:1012C0005B6A07EE903AF8EE677A9FED3B7A67EE3D
:1012D000877AFDEEE77A17EE903A1AB2384B1A8009
:1012E000364BB3F9003007EE903AF8EEE77A07F1A3
:1012F0004003F0EE670A97ED010A1846FFF7F8FD84
:10130000F0EE407A2F4BC3ED007A2D4BB3F900304D
:1013100007EE903AF8EEE77A07F10803F0EE670A75
:1013200097ED010A1846FFF7E3FDF0EE407A264BF1
:10133000C3ED007A234BD3ED007A244B1B68FCEEFF
:10134000E77A17EE902A5A631F4BD3ED007A1F4BB2
:101350001B68FCEEE77A17EE902A9A63BB6E1C4A74
:101360001360D7ED1D7A9FED1B7AF4EEC77AF1EE8C
:1013700010FA09DAD7ED0F7A9FED167AF4EEC77AF4
:10138000F1EE10FA00DA87E7084B1B6800225A6278
:10139000074B1B6800225A6200BF7837BD4680BDEC
:1013A000F84B00200000204100002040FC4B0020B2
:1013B0001C4B002000000240F1F0703C004B00206C
:1013C000AC4B0020B8000020BC000020E049002009
:1013D000C000002000007A45B0B588B000AF786149
:1013E000396111461A4687ED000B0B46FB73134615
:1013F000BB73A54B5A221A703C21A44803F0FAFB98
:101400003C21A34803F0F6FBA04B1B685B6A1AB2B1
:10141000A04B1A809E4B1B685B6A1AB29E4B1A80C7
:1014200001F008FE03461A469C4B1A604FF000027A
:101430009B4BD7E90001FFF7DFF802460B46C7E9EF
:101440000623FB7B462B02D0522B0BD015E001224A
:101450000821944802F0C0FB00220421914802F0C8
:10146000BBFB0AE0002208218E4802F0B5FB0122F6
:1014700004218C4802F0B0FB00BFBB7B462B02D09E
:10148000522B0BD015E001221021864802F0A4FB5C
:1014900000222021834802F09FFB0AE00022102155
:1014A000804802F099FB012220217E4802F094FB43
:1014B00000BF7D4B1B687A695A637B4B1B683A6996
:1014C0009A63724B1B685B6A1AB2724B1A80704B3C
:1014D0001B685B6A1AB2704B1A806E4BB3F900300E
:1014E000002BB8BF5B429BB21AB2704B1A806A4B9A
:1014F000B3F90030002BB8BF5B429BB21AB26C4B01
:101500001A806A4BB3F900301A46694BB3F90030C0
:101510001344DA0F13445B10002BB8BF5B421AB2BE
:10152000644B1A80614BB3F90030634A82FB0312AB
:101530005211DB17D31A1BB21A466049604808F0F3
:101540009FFC5F4A23210A2008F09CFB584BB3F90B
:101550000030594A82FB03125211DB17D31A1BB217
:101560001A465849564808F08BFC554A32210A2041
:1015700008F088FB08F012FA4E4BB3F90030184619
:10158000FEF7D0FF04460D463DA3D3E90023D7E97B
:101590000601FFF731F802460B4620462946FFF7C1
:1015A000B1FA0346002B27D07869FEF7BBFF34A3BE
:1015B000D3E90023FFF720F802460B4610461946F0
:1015C000FFF7B4FA03467B613869FEF7ABFF2CA343
:1015D000D3E90023FFF710F802460B4610461946E0
:1015E000FFF7A4FA03463B612F4B1B687A695A63E5
:1015F0002D4B1B683A699A632E4BB3F9003018469D
:10160000FEF790FF02460B46D7E90601FFF770FA96
:101610000346002B0CD0244B1B6800225A63224B3C
:101620001B6800229A634FF4FA7001F00FFD00E08E
:1016300047E7164B1B6800225A62154B1B680022B5
:101640005A621B4B00221A80194BB3F90020174B2A
:101650001A80164BB3F900301A46104B1A600F4B24
:101660001B683B613B697B6108F098F9064B5A2285
:101670001A7000BF18462037BD46B0BDAFF30080DA
:10168000666666666666EE3FF84B0020FC4B0020FF
:101690001C4B0020004B0020AC4B00209800002089
:1016A0000000514000000240E0490020900000206E
:1016B000920000209400002079787878F0A6000845
:1016C000084B0020FCA6000880B582B000AF78600F
:1016D0007B68012B03D07B68022B12D02AE01C4BC5
:1016E0001B683D221A64642001F0B0FC9FED140BCE
:1016F0004623462240F698014FF4FA70FFF76CFE3D
:1017000018E0134B1B6860221A64642001F09EFCF1
:101710009FED0D0B462346224FF4FA7140F69800D8
:10172000FFF75AFE322001F091FC094B1B68492259
:101730001A6400BF00BF0837BD4680BDAFF300800C
:1017400084EB51B81EA54B400AD7A3703DCA4A404E
:10175000B04B00200000000080B582B000AF786080
:10176000642001F073FC7B68092B00F2858001A2E4
:1017700052F823F09D170008B3170008C917000896
:10178000DF170008F51700080B18000821180008DB
:10179000371800084D180008631800089FED380B33
:1017A000462346224FF47A714FF47A70FFF714FE05
:1017B00062E09FED350B462346224FF47A714FF4D9
:1017C0007A70FFF709FE57E09FED310B4623462262
:1017D0004FF47A714FF47A70FFF7FEFD4CE09FED05
:1017E0002E0B462346224FF47A714FF47A70FFF79E
:1017F000F3FD41E09FED2A0B462346224FF47A7118
:101800004FF47A70FFF7E8FD36E09FED270B462393
:1018100046224FF47A714FF47A70FFF7DDFD2BE02A
:101820009FED230B462346224FF47A714FF47A70D2
:10183000FFF7D2FD20E09FED200B462346224FF418
:101840007A714FF47A70FFF7C7FD15E09FED1C0B1E
:10185000462346224FF47A714FF47A70FFF7BCFDAD
:101860000AE09FED190B462346224FF47A714FF49C
:101870007A70FFF7B1FD00BF00BF0837BD4680BDDD
:101880000000000000005A4000000000000022405C
:1018900000000000008033400000000000003D40D8
:1018A000000000000080444000000000008049402B
:1018B0000000000000004F400000000000405240C7
:1018C000000000000000554000000000008057406C
:1018D00080B582B000AF7860642001F0B7FB7B6810
:1018E000092B00F2858001A252F823F01519000897
:1018F0002B19000841190008571900086D19000834
:101900008319000899190008AF190008C5190008C3
:10191000DB1900089FED380B522352224FF47A71E5
:101920004FF47A70FFF758FD62E09FED350B5223BC
:1019300052224FF47A714FF47A70FFF74DFD57E061
:101940009FED310B522352224FF47A714FF47A708B
:10195000FFF742FD4CE09FED2E0B522352224FF435
:101960007A714FF47A70FFF737FD41E09FED2A0B53
:10197000522352224FF47A714FF47A70FFF72CFD04
:1019800036E09FED270B522352224FF47A714FF429
:101990007A70FFF721FD2BE09FED230B522352229B
:1019A0004FF47A714FF47A70FFF716FD20E09FED47
:1019B000200B522352224FF47A714FF47A70FFF7C2
:1019C0000BFD15E09FED1C0B522352224FF47A7150
:1019D0004FF47A70FFF700FD0AE09FED190B5223D8
:1019E00052224FF47A714FF47A70FFF7F5FC00BF82
:1019F00000BF0837BD4680BD0000000000005A400F
:101A00000000000000002140000000000080334082
:101A10000000000000003D40000000000080444045
:101A200000000000008049400000000000004F401E
:101A3000000000000040524000000000000055403F
:101A4000000000000080574080B582B000AF786091
:101A50007B68012B03D07B68022B3ED07BE0484B98
:101A60001B6838221A644FF4FA7001F0EFFA9FED08
:101A70003C0B4623462240F2DC514FF4FA70FFF74C
:101A8000ABFC3F4B1B6868221A644FF4FA7001F0FC
:101A9000DDFA9FED330B522352224FF4FA7140F2DC
:101AA000DC50FFF799FC364B1B6838221A644FF460
:101AB000FA7001F0CBFA9FED2C0B4623462240F240
:101AC000DC514FF4FA70FFF787FC322001F0BEFAC8
:101AD0002B4B1B684C221A643DE0294B1B68682283
:101AE0001A644FF4FA7001F0B1FA9FED1D0B462312
:101AF00046224FF4FA7140F2DC50FFF76DFC204BA8
:101B00001B6838221A644FF4FA7001F09FFA9FEDB7
:101B1000180B5223522240F2DC514FF4FA70FFF7B7
:101B20005BFC174B1B6868221A644FF4FA7001F0D3
:101B30008DFA9FED110B462346224FF4FA7140F2C5
:101B4000DC50FFF749FC322001F080FA0C4B1B6897
:101B500049221A6400BF00BF0837BD4680BD00BFE0
:101B60000000000000003540E17A14AE47E1154066
:101B7000000000000000344000000000000016409B
:101B8000B04B002080B500AF01F0EEF900F044F852
:101B900000F096FB00F0DEFA00F0E0F900F03EF90C
:101BA00000F030FA00F082FA00F060FB00F092F8EA
:101BB00000F0E2F800210F4802F04EFE01220E492B
:101BC0000E4804F07FFA08F08FF805F097F90C4AF8
:101BD00000210C4805F0DCF903460B4A13600B4A60
:101BE00000210B4805F0D4F903460A4A136005F0BA
:101BF000A9F9FEE7284A0020F84B0020704A00208F
:101C000074A7000839240008FC4A002098A700089F
:101C100011250008044B002080B594B000AF07F1F7
:101C2000200330220021184608F022F907F10C03A6
:101C300000221A605A609A60DA601A610023BB6061
:101C4000224B1B6C214A43F0805313641F4B1B6CC7
:101C500003F08053BB60BB6800237B601C4B1B6898
:101C60001B4A43F480431360194B1B6803F4804301
:101C70007B607B6802233B620123FB6210233B6392
:101C80000023BB6307F12003184601F0E7FF03467A
:101C9000002B01D000F03AFE0F23FB6000233B61D4
:101CA00000237B610023BB610023FB6107F10C0370
:101CB0000021184602F04AFA0346002B01D000F03A
:101CC00025FE00BF5037BD4680BD00BF0038024032
:101CD0000070004080B584B000AF3B4600221A601F
:101CE0005A609A60DA60214B214A1A601F4B002229
:101CF0005A601E4B00229A601C4B00221A611B4B3B
:101D000000221A76194B002283F82020174B00225C
:101D1000DA62164B174A9A62144B0022DA60134BB0
:101D20000122DA61114B002283F830200F4B01228F
:101D30005A610E4801F0AEF90346002B01D000F0C5
:101D4000E5FD0B233B6001237B600023BB603B462A
:101D50001946064801F0E2F90346002B01D000F0D5
:101D6000D5FD00BF1037BD4680BD00BF644B0020CD
:101D7000002001400100000F80B584B000AF3B4659
:101D800000221A605A609A60DA60214B214A1A6078
:101D90001F4B00225A601E4B00229A601C4B0022EF
:101DA0001A611B4B00221A76194B002283F820205F
:101DB000174B0022DA62164B174A9A62144B002224
:101DC000DA60134B0122DA61114B002283F83020D4
:101DD0000F4B01225A610E4801F05CF90346002BBB
:101DE00001D000F093FD0C233B6001237B600023B6
:101DF000BB603B461946064801F090F90346002BAC
:101E000001D000F083FD00BF1037BD4680BD00BF8C
:101E1000B44A0020002101400100000F80B596B0B7
:101E200000AF07F1480300221A605A609A60DA6036
:101E300007F1400300221A605A6007F124030022D0
:101E40001A605A609A60DA601A615A619A613B1DA1
:101E500020220021184608F00BF83E4B3E4A1A603B
:101E60003C4B4FF4A0725A603A4B00229A60394BB7
:101E70004FF47A72DA60374B00221A61354B002238
:101E80005A61344B80229A61324802F02FFB03469C
:101E9000002B01D000F03AFD4FF48053BB6407F1F2
:101EA000480319462B4803F099F90346002B01D04B
:101EB00000F02CFD274802F068FB0346002B01D000
:101EC00000F024FD00233B6400237B6407F1400302
:101ED0001946204803F0F0FE0346002B01D000F025
:101EE00015FD60237B620023BB620023FB6200239D
:101EF0007B630023BB630023FB6307F124030C22F5
:101F00001946144803F0A8F80346002B01D000F04E
:101F1000FDFC00237B600023BB600023FB600023EB
:101F20003B6100237B614FF40053BB6100233B62A4
:101F30003B1D1946074803F03BFF0346002B01D029
:101F400000F0E4FC034800F0DBFE00BF5837BD465C
:101F500080BD00BFB04B00200000014080B58CB0B8
:101F600000AF07F10C0324220021184607F080FF80
:101F70003B1D00221A605A60214B4FF080421A60CC
:101F80001F4B00225A601E4B00229A601C4B4FF6DA
:101F9000FF72DA601A4B00221A61194B00229A6113
:101FA0000323FB6000233B6101237B610023BB61B2
:101FB0000A23FB6100233B6201237B620023BB6297
:101FC0000A23FB6207F10C0319460D4802F06CFD71
:101FD0000346002B01D000F099FC00237B60002316
:101FE000BB603B1D1946064803F066FE0346002B06
:101FF00001D000F08BFC00BF3037BD4680BD00BF74
:10200000FC4B002080B58CB000AF07F10C032422FC
:102010000021184607F02CFF3B1D00221A605A6071
:10202000204B214A1A601F4B00225A601D4B002290
:102030009A601C4B4FF6FF72DA601A4B00221A614D
:10204000184B00229A610323FB6000233B610123AC
:102050007B610023BB610A23FB6100233B620123F8
:102060007B620023BB620A23FB6207F10C03194663
:102070000C4802F019FD0346002B01D000F046FC8D
:1020800000237B600023BB603B1D1946054803F01D
:1020900013FE0346002B01D000F038FC00BF3037A0
:1020A000BD4680BD1C4B00200004004080B586B0BA
:1020B00000AF07F1100300221A605A603B4600226D
:1020C0001A605A609A60DA60204B214A1A601F4BEE
:1020D0000F225A601D4B00229A601C4B4FF6FE7275
:1020E000DA601A4B00221A61184B00229A611748D5
:1020F00002F062FB0346002B01D000F007FC002336
:102100003B6100237B6107F1100319460F4803F080
:10211000D3FD0346002B01D000F0F8FB00233B6009
:1021200001237B600023BB600023FB603B46002251
:102130001946064802F0F4FE0346002B01D000F0D9
:10214000E5FB00BF1837BD4680BD00BF284A002010
:102150000008004080B592B000AF07F140030022B4
:102160001A605A6007F1240300221A605A609A60CC
:10217000DA601A615A619A613B1D202200211846DB
:1021800007F076FE374B384A1A60364B00225A6009
:10219000344B00229A60334B41F61F42DA60314BD8
:1021A00000221A612F4B00225A612E4B00229A61A5
:1021B0002C4802F0EAF90346002B01D000F0A6FB00
:1021C00000233B6400237B6407F140031946254844
:1021D00003F072FD0346002B01D000F097FB602353
:1021E0007B620023BB620023FB6200233B6300236E
:1021F0007B630023BB630023FB6307F124030022FE
:102200001946184802F028FF0346002B01D000F0C1
:102210007DFB07F1240304221946124802F01CFF3B
:102220000346002B01D000F071FB00237B600023EC
:10223000BB600023FB6000233B6100237B614FF404
:102240000053BB6100233B623B1D1946054803F068
:10225000AFFD0346002B01D000F058FB00BF48370C
:10226000BD4680BDE04900200004014080B500AFBC
:10227000114B124A1A60104B4FF4E1325A600E4B68
:1022800000229A600C4B0022DA600B4B00221A618C
:10229000094B0C225A61084B00229A61064B00221E
:1022A000DA61054803F0EAFD0346002B01D000F097
:1022B0002DFB00BF80BD00BF704A002000480040D9
:1022C00080B58AB000AF07F1140300221A605A608B
:1022D0009A60DA601A6100233B61494B1B6B484AE4
:1022E00043F010031363464B1B6B03F010033B6179
:1022F0003B690023FB60424B1B6B414A43F00403E4
:1023000013633F4B1B6B03F00403FB60FB6800236C
:10231000BB603B4B1B6B3A4A43F001031363384BE2
:102320001B6B03F00103BB60BB6800237B60344B75
:102330001B6B334A43F008031363314B1B6B03F0F1
:1023400008037B607B6800233B602D4B1B6B2C4A92
:1023500043F0020313632A4B1B6B03F002033B6041
:102360003B6800224FF4BC61264801F035FC002296
:102370003C21254801F030FC00224FF40051234855
:1023800001F02AFC4FF4BC637B610123BB61002395
:10239000FB6100233B6207F114031946194801F061
:1023A0007FFA3C237B610123BB610023FB61022395
:1023B0003B6207F114031946134801F071FA4FF418
:1023C00080737B610023BB610023FB6107F1140371
:1023D00019460E4801F064FA4FF400537B61012363
:1023E000BB610023FB6100233B6207F11403194624
:1023F000064801F055FA00BF2837BD4680BD00BF32
:10240000003802400010024000000240000C024070
:1024100080B582B000AF78604FF6FF730A2204499E
:10242000044803F078FD00BF0837BD4680BD00BFFB
:10243000F84B0020704A002080B58EB000AF786065
:102440002A4A07F1240307CA03C31A800233120C75
:102450001A7007F12F0300221A605A601A720122C3
:102460002349244803F02EFE07F124031A460521D0
:10247000052007F007FC07F013FBFEF769FEC820F4
:1024800000F0E4FD1C4B1A6807F110031B491846C5
:1024900007F0F6FC07F110031A4632210A2007F074
:1024A000F1FB174B1B881A4607F110031549184614
:1024B00007F0E6FC07F110031A4619210A2007F07D
:1024C000E1FB114B1A6807F110031049184607F099
:1024D000D7FC07F110031A4623210A2007F0D2FB8C
:1024E00007F05CFA642004F0E5FDB8E72CA70008CB
:1024F000F84B0020704A0020B400002008A7000814
:10250000AE00002014A70008B000002020A700089B
:1025100080B586B000AF78600021AE4802F084F844
:102520000421AC4802F080F80C21AB4802F07CF8A2
:10253000A94B1B684A221A64A84B00221A70A84AA9
:1025400007F1100392E80300186004331980A34BCD
:102550001B785A2B00F2BC8101A252F823F000BF75
:10256000CD260008D1280008D1280008D12800086D
:10257000D1280008D1280008D1280008D128000857
:10258000D1280008D1280008D1280008D128000847
:10259000D1280008D1280008D1280008D128000837
:1025A000D1280008D1280008D1280008D128000827
:1025B000D1280008D1280008D1280008D128000817
:1025C000D1280008D1280008D1280008D128000807
:1025D000D1280008D1280008D1280008D1280008F7
:1025E000D1280008652700086D2700087527000816
:1025F0007D270008852700088D27000895270008FB
:102600009D270008A5270008AD270008D12800084D
:10261000D1280008D1280008D1280008D1280008B6
:102620001D270008252700082D270008352700084A
:102630003D270008452700084D27000855270008BA
:102640005D27000815270008D1280008D1280008B8
:10265000D1280008D1280008D1280008D128000876
:10266000D1280008D1280008D1280008D128000866
:10267000D1280008CD270008D1280008D12800085B
:10268000E1260008D1280008D1280008FD2600080E
:10269000B5270008D1280008D1280008D128000853
:1026A000D1280008C5270008BD270008D128000848
:1026B000D1280008ED270008D1280008C12800080B
:1026C000D1280008D1280008CB280008424B1B68FD
:1026D0004A221A6401224149424803F0F3FCFDE01A
:1026E00007F11003062219463E4803F0A6FC3220EB
:1026F00004F0E0FC394B5A221A70EFE004223A4908
:10270000384803F09AFC322004F0D4FC334B5A22B0
:102710001A70E3E00020FFF71FF8DFE00120FFF769
:102720001BF8DBE00220FFF717F8D7E00320FFF7E4
:1027300013F8D3E00420FFF70FF8CFE00520FFF7F0
:102740000BF8CBE00620FFF707F8C7E00720FFF7FC
:1027500003F8C3E00820FEF7FFFFBFE00920FEF703
:10276000FBFFBBE00120FFF7B3F8B7E00220FFF763
:10277000AFF8B3E00320FFF7ABF8AFE00420FFF7BA
:10278000A7F8ABE00520FFF7A3F8A7E00620FFF7C6
:102790009FF8A3E00720FFF79BF89FE00820FFF7D2
:1027A00097F89BE00920FFF793F897E00020FFF7E8
:1027B0008FF893E00120FFF747F98FE00220FFF741
:1027C00043F98BE00120FEF77FFF87E00220FEF750
:1027D0007BFF83E0E0490020B04B0020F84B002055
:1027E0004CA70008704A002040A70008FEF7B0FC84
:1027F000C82000F02BFC3E4A07F1080392E80300D2
:10280000186004331970387A3A4B1B683A4A82FBD5
:1028100003125211DB17D21A384B83FB02139910A3
:10282000D317C91A0B469B000B445B00D11ACBB2DD
:102830000344DBB23B72787A2E4B1B682F4A82FB33
:1028400003129210DB17D21A2C4B83FB0213991040
:10285000D317C91A0B469B000B445B00D11ACBB2AD
:102860000344DBB27B72B87A224B1A68234B83FB9A
:1028700002139910D317C91A0B469B000B445B0037
:10288000D11ACBB20344DBB2BB721A4B1B68B3F54F
:102890007A7F01DB39233B7207F108031846FDF705
:1028A00097FC03469AB207F108031946144803F04F
:1028B000C4FB322004F0FEFB124B5A221A700DE0CA
:1028C000B2EE040AFEF79EFC08E0FEF787FC05E086
:1028D00001220C490A4803F0F5FB00BF642000F018
:1028E000B5FB02220849064803F0A7FB2FE600BF0C
:1028F00054A70008B40000201F85EB516766666688
:10290000704A0020F84B002048A7000880B400AFB0
:1029100072B600BFFEE7000080B582B000AF0023B2
:102920007B60124B5B6C114A43F4804353640F4B42
:102930005B6C03F480437B607B6800233B600B4B44
:102940001B6C0A4A43F080531364084B1B6C03F062
:1029500080533B603B6800220F216FF0010000F0C4
:10296000D6FE00BF0837BD4680BD00BF003802401C
:1029700080B58CB000AF786007F11C0300221A60AC
:102980005A609A60DA601A617B681B682E4A93422B
:1029900028D10023BB612D4B5B6C2C4A43F4807320
:1029A00053642A4B5B6C03F48073BB61BB690023E7
:1029B0007B61264B1B6B254A43F004031363234BB7
:1029C0001B6B03F004037B617B691223FB61032310
:1029D0003B6200237B6207F11C0319461C4800F090
:1029E0005FFF2CE07B681B681A4A934227D10023C3
:1029F0003B61164B5B6C154A43F400735364134BF5
:102A00005B6C03F400733B613B690023FB600F4B7D
:102A10001B6B0E4A43F0040313630C4B1B6B03F058
:102A20000403FB60FB680423FB6103233B62002378
:102A30007B6207F11C031946054800F031FF00BF17
:102A40003037BD4680BD00BF002001400038024045
:102A5000000802400021014080B485B000AF7860DA
:102A60007B681B680B4A93420DD10023FB600A4B25
:102A70005B6C094A43F001035364074B5B6C03F042
:102A80000103FB60FB6800BF1437BD465DF8047BA3
:102A9000704700BF000001400038024080B58CB094
:102AA00000AF786007F11C0300221A605A609A6038
:102AB000DA601A617B681B68B3F1804F4BD1002349
:102AC000BB613F4B1B6C3E4A43F0010313643C4B1C
:102AD0001B6C03F00103BB61BB6900237B61384BB6
:102AE0001B6B374A43F001031363354B1B6B03F039
:102AF00001037B617B6900233B61314B1B6B304AD7
:102B000043F0020313632E4B1B6B03F002033B6184
:102B10003B694FF40043FB6102233B6200237B626D
:102B20000023BB620123FB6207F11C031946254801
:102B300000F0B6FE0823FB6102233B6200237B62A8
:102B40000023BB620123FB6207F11C0319461E48E8
:102B500000F0A6FE30E07B681B681C4A93422BD134
:102B60000023FB60164B1B6C154A43F002031364F1
:102B7000134B1B6C03F00203FB60FB680023BB607C
:102B80000F4B1B6B0E4A43F0010313630C4B1B6B83
:102B900003F00103BB60BB68C023FB6102233B62FF
:102BA00000237B620023BB620223FB6207F11C034C
:102BB0001946044800F074FE00BF3037BD4680BDA2
:102BC00000380240000002400004024000040040BF
:102BD00080B58AB000AF786007F1140300221A6054
:102BE0005A609A60DA601A617B681B681D4A9342DA
:102BF00034D100233B611C4B1B6C1B4A43F0040384
:102C00001364194B1B6C03F004033B613B69002305
:102C1000FB60154B1B6B144A43F008031363124B04
:102C20001B6B03F00803FB60FB684FF480537B6170
:102C30000223BB610023FB6100233B6202237B6212
:102C400007F114031946094800F02AFE0022052165
:102C50001E2000F05CFD1E2000F075FD00BF28372F
:102C6000BD4680BD0008004000380240000C024014
:102C700080B58AB000AF786007F1140300221A60B3
:102C80005A609A60DA601A617B681B68194A93423D
:102C90002BD100233B61184B5B6C174A43F00203B6
:102CA0005364154B5B6C03F002033B613B690023EB
:102CB000FB60114B1B6B104A43F0040313630E4B74
:102CC0001B6B03F00403FB60FB68C0237B610223E2
:102CD000BB610023FB6100233B6203237B6207F19E
:102CE00014031946054800F0DBFD00BF2837BD4638
:102CF00080BD00BF000401400038024000080240CF
:102D000080B588B000AF786007F10C0300221A602C
:102D10005A609A60DA601A617B681B68124A9342B3
:102D20001ED10023BB60114B1B6B104A43F01003F4
:102D300013630E4B1B6B03F01003BB60BB684FF4B7
:102D40008043FB6002233B6100237B610023BB6166
:102D50000123FB6107F10C031946054800F0A0FDB3
:102D600000BF2037BD4680BD000001400038024052
:102D70000010024080B58AB000AF786007F11403FC
:102D800000221A605A609A60DA601A617B681B68D8
:102D90001D4A934234D100233B611C4B1B6C1B4AE0
:102DA00043F480231364194B1B6C03F480233B61B1
:102DB0003B690023FB60154B1B6B144A43F0040373
:102DC0001363124B1B6B03F00403FB60FB684FF4AF
:102DD00040637B610223BB610023FB6103233B62F1
:102DE00007237B6207F114031946094800F058FDD8
:102DF00000220521272000F08AFC272000F0A3FCF8
:102E000000BF2837BD4680BD004800400038024062
:102E10000008024080B400AFFEE780B400AFFEE7D8
:102E200080B400AFFEE780B400AFFEE780B400AF2F
:102E3000FEE780B400AF00BFBD465DF8047B70477D
:102E400080B500AF00F0E2F805F042FD0346012B2B
:102E500001D006F029FB00BF80BD000080B500AFA7
:102E6000024801F055FF00BF80BD00BF284A002086
:102E700080B500AF024803F055F900BF80BD00BF28
:102E8000704A002080B586B000AF7860144A154BB8
:102E9000D31A7B617B693B61134B1B68002B02D10A
:102EA000114B124A1A60104B1A687B6813443A6936
:102EB0009A4207D206F0A4FF03460C221A604FF094
:102EC000FF3309E0084B1B68FB60074B1A687B68FF
:102ED0001344054A1360FB6818461837BD4680BD89
:102EE0000000022000040000C4000020B0500020B8
:102EF00080B400AF064BD3F88830054A43F4700322
:102F0000C2F8883000BFBD465DF8047B704700BF43
:102F100000ED00E0DFF834D00D480E490E4A0023E2
:102F200002E0D458C4500433C4188C42F9D30B4A7D
:102F30000B4C002301E013600432A242FBD3FFF7E5
:102F4000D7FF06F063FFFEF71DFE7047000002206A
:102F500000000020740000207CB2000874000020F3
:102F6000AC500020FEE7000080B500AF0E4B1B68A0
:102F70000D4A43F4007313600B4B1B680A4A43F479
:102F800080631360084B1B68074A43F48073136027
:102F9000032000F0B1FB0F2000F008F8FFF7BCFCA5
:102FA0000023184680BD00BF003C024080B582B0BF
:102FB00000AF7860124B1A68124B1B7819464FF419
:102FC0007A73B3FBF1F3B2FBF3F3184600F0C9FBDD
:102FD0000346002B01D001230EE07B680F2B0AD89B
:102FE000002279684FF0FF3000F091FB064A7B68C1
:102FF0001360002300E0012318460837BD4680BD5A
:1030000000000020080000200400002080B400AF71
:10301000064B1B781A46064B1B681344044A136080
:1030200000BFBD465DF8047B704700BF080000206C
:10303000584C002080B400AF034B1B681846BD46B7
:103040005DF8047B704700BF584C002080B584B009
:1030500000AF7860FFF7EEFFB8607B68FB60FB684D
:10306000B3F1FF3F05D00A4B1B781A46FB681344A7
:10307000FB6000BFFFF7DEFF0246BB68D31AFA68A9
:103080009A42F7D800BF00BF1037BD4680BD00BFD1
:103090000800002080B584B000AF78600023FB7387
:1030A0007B68002B01D1012333E07B681B6C002B74
:1030B00009D17868FFF75CFC7B6800225A647B6862
:1030C000002283F83C207B681B6C03F01003002B6C
:1030D00018D17B681B6C23F4885323F0020343F060
:1030E00002027B681A64786800F03AF97B68002273
:1030F0005A647B681B6C23F0030343F001027B6876
:103100001A6401E00123FB737B68002283F83C20F2
:10311000FB7B18461037BD4680BD000080B485B0EB
:1031200000AF786039600023BB607B6893F83C3067
:10313000012B01D1022305E17B68012283F83C20A9
:103140003B681B68092B25D97B681B68D9683B68DD
:103150001B689BB21A4613465B0013441E3B0722B2
:1031600002FA03F3DA437B681B680A40DA607B6883
:103170001B68D9683B689A683B681B689BB2184615
:1031800003465B0003441E3B9A407B681B680A436E
:10319000DA6022E07B681B6819693B681B689BB298
:1031A0001A4613465B001344072202FA03F3DA437C
:1031B0007B681B680A401A617B681B6819693B6859
:1031C0009A683B681B689BB2184603465B00034441
:1031D0009A407B681B680A431A613B685B68062B50
:1031E00024D87B681B68596B3B685A6813469B0060
:1031F0001344053B1F2202FA03F3DA437B681B6882
:103200000A405A637B681B68596B3B681B689BB21A
:1032100018463B685A6813469B001344053B00FA66
:1032200003F27B681B680A435A634CE03B685B68A7
:103230000C2B24D87B681B68196B3B685A681346B3
:103240009B001344233B1F2202FA03F3DA437B68FB
:103250001B680A401A637B681B68196B3B681B6814
:103260009BB218463B685A6813469B001344233BA5
:1032700000FA03F27B681B680A431A6323E07B6849
:103280001B68D96A3B685A6813469B001344413B4C
:103290001F2202FA03F3DA437B681B680A40DA62F2
:1032A0007B681B68D96A3B681B689BB218463B6801
:1032B0005A6813469B001344413B00FA03F27B68B3
:1032C0001B680A43DA62224BFB607B681B68214A59
:1032D000934209D13B681B68122B05D1FB685B68E0
:1032E00043F48002FB685A607B681B68194A93426A
:1032F00023D13B681B68102B03D03B681B68112B44
:103300001BD1FB685B6843F40002FB685A603B68B2
:103310001B68102B11D1104B1B68104AA2FB032312
:103320009A0C13469B0013445B00BB6002E0BB6831
:10333000013BBB60BB68002BF9D17B68002283F89E
:103340003C20002318461437BD465DF8047B7047C7
:1033500000230140002001400000002083DE1B43C9
:1033600080B485B000AF7860794BFB60FB685B6828
:1033700023F44032FB685A60FB685A687B685B68DC
:103380001A43FB685A607B681B685A687B681B6835
:1033900022F480725A607B681B6859687B681B69DD
:1033A0001A027B681B680A435A607B681B685A686C
:1033B0007B681B6822F040725A607B681B68596802
:1033C0007B689A687B681B680A435A607B681B6845
:1033D0009A687B681B6822F400629A607B681B68AD
:1033E00099687B68DA687B681B680A439A607B6827
:1033F0009B6A584A934222D07B681B689A687B6814
:103400001B6822F070629A607B681B6899687B6811
:103410009A6A7B681B680A439A607B681B689A6893
:103420007B681B6822F040529A607B681B68996831
:103430007B68DA6A7B681B680A439A600FE07B68E6
:103440001B689A687B681B6822F070629A607B68D0
:103450001B689A687B681B6822F040529A607B6800
:103460001B689A687B681B6822F002029A607B687E
:103470001B6899687B681B7E5A007B681B680A433F
:103480009A607B6893F82030002B1BD07B681B6808
:103490005A687B681B6842F400625A607B681B684C
:1034A0005A687B681B6822F460425A607B681B681C
:1034B00059687B685B6A013B5A037B681B680A4357
:1034C0005A6007E07B681B685A687B681B6822F4B7
:1034D00000625A607B681B68DA6A7B681B6822F4AA
:1034E0007002DA627B681B68D96A7B68DB69013B22
:1034F0001A057B681B680A43DA627B681B689A6856
:103500007B681B6822F400729A607B681B6899686C
:103510007B6893F830305A027B681B680A439A60D4
:103520007B681B689A687B681B6822F480629A60DB
:103530007B681B6899687B685B699A027B681B687B
:103540000A439A6000BF1437BD465DF8047B70479C
:10355000002301400100000F80B485B000AF786007
:103560007B6803F00703FB600C4BDB68BB60BA6849
:103570004FF6FF031340BB60FB681A02BB6813439E
:1035800043F0BF6343F40033BB60044ABB68D360BD
:1035900000BF1437BD465DF8047B704700ED00E0C6
:1035A00080B400AF044BDB681B0A03F00703184626
:1035B000BD465DF8047B704700ED00E080B483B049
:1035C00000AF0346FB7197F90730002B0BDBFB794B
:1035D00003F01F02074997F907305B09012000FA41
:1035E00002F241F8232000BF0C37BD465DF8047B92
:1035F000704700BF00E100E080B483B000AF034635
:103600003960FB7197F90730002B0ADB3B68DAB2AF
:103610000C4997F907301201D2B20B4483F800230A
:103620000AE03B68DAB20849FB7903F00F03043B78
:103630001201D2B20B441A7600BF0C37BD465DF8BA
:10364000047B704700E100E000ED00E080B489B049
:1036500000AFF860B9607A60FB6803F00703FB61B4
:10366000FB69C3F10703042B28BF0423BB61FB697B
:103670000433062B02D9FB69033B00E000237B6186
:103680004FF0FF32BB6902FA03F3DA43BB681A401A
:103690007B699A404FF0FF317B6901FA03F3D9430C
:1036A0007B680B40134318462437BD465DF8047B06
:1036B0007047000080B582B000AF78607B68013B46
:1036C000B3F1807F01D301230FE00A4A7B68013BFD
:1036D00053600F214FF0FF30FFF78EFF054B0022A4
:1036E0009A60044B07221A60002318460837BD462B
:1036F00080BD00BF10E000E080B582B000AF786010
:103700007868FFF729FF00BF0837BD4680BD80B548
:1037100086B000AF0346B9607A60FB7300237B611B
:10372000FFF73EFF78617A68B9687869FFF78EFF26
:10373000024697F90F3011461846FFF75DFF00BFAC
:103740001837BD4680BD80B582B000AF0346FB711F
:1037500097F907301846FFF731FF00BF0837BD461D
:1037600080BD80B582B000AF78607868FFF7A2FFB7
:10377000034618460837BD4680BD80B584B000AF0B
:1037800078607B689B6DFB60FFF754FCB8607B68DA
:1037900093F83530DBB2022B08D07B6880225A6563
:1037A0007B68002283F83420012352E07B681B6889
:1037B0001A687B681B6822F016021A607B681B6817
:1037C0005A697B681B6822F080025A617B681B6C17
:1037D000002B03D17B689B6C002B07D07B681B6898
:1037E0001A687B681B6822F008021A607B681B68F5
:1037F0001A687B681B6822F001021A6013E0FFF769
:1038000019FC0246BB68D31A052B0CD97B68202211
:103810005A657B68032283F835207B68002283F891
:103820003420032315E07B681B681B6803F0010349
:10383000002BE4D17B68DB6D3F229A40FB689A60E5
:103840007B68012283F835207B68002283F83420CE
:10385000002318461037BD4680BD80B483B000AF4A
:1038600078607B6893F83530DBB2022B04D07B683C
:1038700080225A6501230CE07B68052283F83520FD
:103880007B681B681A687B681B6822F001021A605B
:10389000002318460C37BD465DF8047B70470000D6
:1038A00080B489B000AF7860396000237B61002369
:1038B0003B610023BB610023FB616BE10122FB69DB
:1038C00002FA03F37B613B681B687A6913403B6132
:1038D0003A697B699A4240F05A813B685B6803F021
:1038E0000303012B05D03B685B6803F00303022B45
:1038F00030D17B689B68BB61FB695B00032202FAE5
:1039000003F3DB43BA691340BB613B68DA68FB69C8
:103910005B0002FA03F3BA691343BB617B68BA69BF
:103920009A607B685B68BB610122FB6902FA03F362
:10393000DB43BA691340BB613B685B681B0903F05A
:103940000102FB6902FA03F3BA691343BB617B68A6
:10395000BA695A603B685B6803F00303032B17D016
:103960007B68DB68BB61FB695B00032202FA03F33F
:10397000DB43BA691340BB613B689A68FB695B0033
:1039800002FA03F3BA691343BB617B68BA69DA6070
:103990003B685B6803F00303022B23D1FB69DA0861
:1039A0007B68083253F82230BB61FB6903F00703E0
:1039B0009B000F2202FA03F3DB43BA691340BB6199
:1039C0003B681A69FB6903F007039B0002FA03F3E3
:1039D000BA691343BB61FB69DA087B680832B969CD
:1039E00043F822107B681B68BB61FB695B00032204
:1039F00002FA03F3DB43BA691340BB613B685B68BF
:103A000003F00302FB695B0002FA03F3BA69134394
:103A1000BB617B68BA691A603B685B6803F440333A
:103A2000002B00F0B4800023FB60604B5B6C5F4AAE
:103A300043F4804353645D4B5B6C03F48043FB6051
:103A4000FB685B4AFB699B08023352F82330BB6179
:103A5000FB6903F003039B000F2202FA03F3DB432D
:103A6000BA691340BB617B68524A93422BD07B6892
:103A7000514A934225D07B68504A93421FD07B68BD
:103A80004F4A934219D07B684E4A934213D07B68C9
:103A90004D4A93420DD07B684C4A934207D07B68D5
:103AA0004B4A934201D107230EE008230CE0062382
:103AB0000AE0052308E0042306E0032304E00223D0
:103AC00002E0012300E00023FA6902F00302920001
:103AD0009340BA691343BB613549FB699B080233C4
:103AE000BA6941F823203B4B1B68BB613B69DB4350
:103AF000BA691340BB613B685B6803F48033002BF9
:103B000003D0BA693B691343BB61324ABB69136096
:103B1000304B5B68BB613B69DB43BA691340BB61F7
:103B20003B685B6803F40033002B03D0BA693B6940
:103B30001343BB61274ABB695360264B9B68BB613B
:103B40003B69DB43BA691340BB613B685B6803F4C4
:103B50008013002B03D0BA693B691343BB611D4A34
:103B6000BB6993601B4BDB68BB613B69DB43BA6994
:103B70001340BB613B685B6803F40013002B03D068
:103B8000BA693B691343BB61124ABB69D360FB69E5
:103B90000133FB61FB690F2B7FF690AE00BF00BFC6
:103BA0002437BD465DF8047B704700BF00380240F3
:103BB00000380140000002400004024000080240BA
:103BC000000C0240001002400014024000180240A5
:103BD000001C0240003C014080B483B000AF78601C
:103BE0000B467B8013467B707B78002B03D07A8852
:103BF0007B689A6103E07B881A047B689A6100BF46
:103C00000C37BD465DF8047B7047000080B483B07C
:103C100000AF064B01221A60054B1B687B607B6876
:103C200000BF0C37BD465DF8047B704720000E4294
:103C30000070004080B483B000AF064B00221A60D1
:103C4000054B1B687B607B6800BF0C37BD465DF889
:103C5000047B704720000E420070004080B586B0A3
:103C600000AF78607B68002B01D1012364E27B68A0
:103C70001B6803F00103002B75D0A34B9B6803F076
:103C80000C03042B0CD0A04B9B6803F00C03082BF7
:103C900012D19D4B5B6803F48003B3F5800F0BD109
:103CA000994B1B6803F40033002B5BD07B685B6887
:103CB000002B57D101233FE27B685B68B3F5803F5F
:103CC00006D1914B1B68904A43F4803313601DE08A
:103CD0007B685B68B3F5A02F0CD18B4B1B688A4ABD
:103CE00043F480231360884B1B68874A43F4803376
:103CF00013600BE0844B1B68834A23F4803313600A
:103D0000814B1B68804A23F4802313607B685B68C7
:103D1000002B13D0FFF78EF9386108E0FFF78AF91E
:103D200002463B69D31A642B01D9032304E2764B84
:103D30001B6803F40033002BF0D014E0FFF77AF98E
:103D4000386108E0FFF776F902463B69D31A642B25
:103D500001D90323F0E16C4B1B6803F40033002B03
:103D6000F0D100E000BF7B681B6803F00203002B6A
:103D700063D0654B9B6803F00C03002B0BD0624BA8
:103D80009B6803F00C03082B1CD15F4B5B6803F4AA
:103D90008003002B16D15C4B1B6803F00203002B41
:103DA00005D07B68DB68012B01D00123C4E1564BB1
:103DB0001B6823F0F8027B681B69DB005249134340
:103DC0000B603AE07B68DB68002B20D04F4B012270
:103DD0001A60FFF72FF9386108E0FFF72BF9024668
:103DE0003B69D31A022B01D90323A5E1464B1B687B
:103DF00003F00203002BF0D0434B1B6823F0F802C2
:103E00007B681B69DB00404913430B6015E03F4BA7
:103E100000221A60FFF70EF9386108E0FFF70AF98F
:103E200002463B69D31A022B01D9032384E1364BA6
:103E30001B6803F00203002BF0D17B681B6803F0C2
:103E40000803002B30D07B685B69002B16D0304B09
:103E500001221A60FFF7EEF8386108E0FFF7EAF890
:103E600002463B69D31A022B01D9032364E1264B96
:103E70005B6F03F00203002BF0D015E0244B00220F
:103E80001A60FFF7D7F8386108E0FFF7D3F8024669
:103E90003B69D31A022B01D903234DE11A4B5B6F07
:103EA00003F00203002BF0D17B681B6803F00403CE
:103EB000002B00F0A0800023FB75134B1B6C03F05C
:103EC0008053002B0FD10023BB600F4B1B6C0E4A9D
:103ED00043F0805313640C4B1B6C03F08053BB60A6
:103EE000BB680123FB750B4B1B6803F48073002B2D
:103EF00021D1084B1B68074A43F480731360FFF716
:103F000099F8386111E000BF0038024000004742D4
:103F1000800E474200700040FFF78CF802463B6974
:103F2000D31A022B01D9032306E1854B1B6803F446
:103F30008073002BF0D07B689B68012B06D1814BEE
:103F40001B6F804A43F0010313671CE07B689B688A
:103F5000052B0CD17B4B1B6F7A4A43F0040313678C
:103F6000784B1B6F774A43F0010313670BE0754BE7
:103F70001B6F744A23F001031367724B1B6F714A66
:103F800023F0040313677B689B68002B15D0FFF7B1
:103F900051F838610AE0FFF74DF802463B69D31A41
:103FA00041F28832934201D90323C5E0654B1B6F70
:103FB00003F00203002BEED014E0FFF73BF838616A
:103FC0000AE0FFF737F802463B69D31A41F288321C
:103FD000934201D90323AFE05A4B1B6F03F0020356
:103FE000002BEED1FB7D012B05D1564B1B6C554AA6
:103FF00023F0805313647B689B69002B00F09B8047
:10400000504B9B6803F00C03082B5CD07B689B69CA
:10401000022B41D14C4B00221A60FFF70BF838619C
:1040200008E0FFF707F802463B69D31A022B01D9D3
:10403000032381E0434B1B6803F00073002BF0D196
:104040007B68DA697B681B6A1A437B685B6A9B0141
:104050001A437B689B6A5B08013B1B041A437B681D
:10406000DB6A1B06374913434B60374B01221A604A
:10407000FEF7E0FF386108E0FEF7DCFF02463B692F
:10408000D31A022B01D9032356E02E4B1B6803F0F1
:104090000073002BF0D04EE02B4B00221A60FEF78D
:1040A000C9FF386108E0FEF7C5FF02463B69D31A35
:1040B000022B01D903233FE0224B1B6803F000735E
:1040C000002BF0D137E07B689B69012B01D10123E4
:1040D00032E01C4B5B68FB607B689B69012B28D03E
:1040E000FB6803F480027B68DB699A4221D1FB689C
:1040F00003F03F027B681B6A9A421AD1FA6847F6BE
:10410000C07313407A68526A9201934211D1FB68DE
:1041100003F440327B689B6A5B08013B1B049A42B4
:1041200007D1FB6803F070627B68DB6A1B069A426A
:1041300001D0012300E0002318461837BD4680BD9A
:1041400000700040003802406000474280B584B0F3
:1041500000AF786039607B68002B01D10123CCE08F
:10416000684B1B6803F007033A689A420CD9654B09
:104170003A68D2B21A70634B1B6803F007033A68BF
:104180009A4201D00123B8E07B681B6803F0020368
:10419000002B20D07B681B6803F00403002B05D0A4
:1041A000594B9B68584A43F4E05393607B681B6803
:1041B00003F00803002B05D0534B9B68524A43F48D
:1041C00060439360504B9B6823F0F0027B689B68D0
:1041D0004D4913438B607B681B6803F00103002B80
:1041E00044D07B685B68012B07D1474B1B6803F405
:1041F0000033002B19D101237FE07B685B68022B21
:1042000003D07B685B68032B07D13F4B1B6803F02F
:104210000073002B09D101236FE03B4B1B6803F0B7
:104220000203002B01D1012367E0374B9B6823F089
:1042300003027B685B68344913438B60FEF7FAFE28
:10424000F8600AE0FEF7F6FE0246FB68D31A41F278
:104250008832934201D903234FE02B4B9B6803F034
:104260000C027B685B689B009A42EBD1254B1B6874
:1042700003F007033A689A420CD2224B3A68D2B252
:104280001A70204B1B6803F007033A689A4201D06A
:10429000012332E07B681B6803F00403002B08D085
:1042A000194B9B6823F4E0527B68DB681649134383
:1042B0008B607B681B6803F00803002B09D0124B4E
:1042C0009B6823F460427B681B69DB000E49134343
:1042D0008B6000F021F802460B4B9B681B0903F032
:1042E0000F030A49CB5C22FA03F3094A1360094B16
:1042F0001B681846FEF75AFE002318461037BD46C5
:1043000080BD00BF003C024000380240BCA700084E
:104310000000002004000020B0B584B000AF0021F0
:1043200079600021F960002139600021B9605249AB
:10433000896801F00C0108290DD0082900F2948049
:10434000002902D0042903D08EE04C4BBB608EE0E4
:104350004B4BBB608BE04849496801F03F017960F5
:104360004549496801F48001002924D0424949683F
:10437000890908464FF0000140F2FF144FF0000594
:1043800000EA040201EA05033D4901FB03F00021B4
:1043900001FB02F144183A49A2FB010163181946D6
:1043A0007B681A464FF00003FCF708FC02460B46F8
:1043B0001346FB604AE0304B5B689B091A464FF09E
:1043C000000340F2FF104FF0000102EA000403EA8C
:1043D0000105204629464FF000024FF000034B0133
:1043E00043EAD063420110461946001B61EB050108
:1043F0004FF000024FF000038B0143EA906382010B
:10440000121A63EB01034FF000004FF00001D900D6
:1044100041EA5271D00002460B46121945EB0303E4
:104420004FF000004FF00001990241EA92519002D2
:1044300002460B46104619467B681A464FF00003A9
:10444000FCF7BCFB02460B461346FB600A4B5B685D
:104450001B0C03F0030301335B003B60FA683B680D
:10446000B2FBF3F3BB6002E0044BBB6000BFBB6870
:1044700018461037BD46B0BD003802400024F40095
:1044800040787D0180B400AF034B1B681846BD46E1
:104490005DF8047B704700BF0000002080B500AFCE
:1044A000FFF7F0FF0246054B9B689B0A03F00703EA
:1044B0000349CB5C22FA03F3184680BD0038024062
:1044C000CCA7000880B500AFFFF7DCFF0246054B24
:1044D0009B685B0B03F007030349CB5C22FA03F3F1
:1044E000184680BD00380240CCA7000880B582B0D5
:1044F00000AF78607B68002B01D1012341E07B682D
:1045000093F83D30DBB2002B06D17B68002283F8A4
:104510003C207868FEF7A0FA7B68022283F83D20F1
:104520007B681A687B6804331946104600F08AFFDE
:104530007B68012283F846207B68012283F83E20B5
:104540007B68012283F83F207B68012283F84020AA
:104550007B68012283F841207B68012283F8422096
:104560007B68012283F843207B68012283F8442082
:104570007B68012283F845207B68012283F83D2077
:10458000002318460837BD4680BD80B582B000AF15
:1045900078607B68002B01D1012341E07B6893F8B0
:1045A0003D30DBB2002B06D17B68002283F83C2033
:1045B0007868FEF75DFB7B68022283F83D207B680C
:1045C0001A687B6804331946104600F03BFF7B688D
:1045D000012283F846207B68012283F83E207B6815
:1045E000012283F83F207B68012283F840207B680A
:1045F000012283F841207B68012283F842207B68F6
:10460000012283F843207B68012283F844207B68E1
:10461000012283F845207B68012283F83D20002396
:1046200018460837BD4680BD80B584B000AF7860BD
:1046300039603B68002B09D17B6893F83E30DBB2D0
:10464000012B14BF01230023DBB222E03B68042BC3
:1046500009D17B6893F83F30DBB2012B14BF0123F3
:104660000023DBB215E03B68082B09D17B6893F887
:104670004030DBB2012B14BF01230023DBB208E082
:104680007B6893F84130DBB2012B14BF0123002378
:10469000DBB2002B01D001237CE03B68002B04D16E
:1046A0007B68022283F83E2013E03B68042B04D190
:1046B0007B68022283F83F200BE03B68082B04D183
:1046C0007B68022283F8402003E07B68022283F8A3
:1046D00041207B681B6801223968184601F0C6FA40
:1046E0007B681B682D4A934204D07B681B682C4A68
:1046F000934201D1012300E00023002B07D07B6807
:104700001B685A6C7B681B6842F400425A647B68E1
:104710001B68224A934222D07B681B68B3F1804F0A
:104720001DD07B681B681F4A934218D07B681B68AA
:104730001D4A934213D07B681B681C4A93420ED0DB
:104740007B681B68164A934209D07B681B68184A2D
:10475000934204D07B681B68164A934211D17B6850
:104760001B689B6803F00703FB60FB68062B10D0F7
:104770007B681B681A687B681B6842F001021A603C
:1047800007E07B681B681A687B681B6842F00102BF
:104790001A60002318461037BD4680BD0000014056
:1047A000000401400004004000080040000C0040EC
:1047B000004001400018004080B582B000AF786032
:1047C0007B68002B01D1012341E07B6893F83D30E9
:1047D000DBB2002B06D17B68002283F83C2078688E
:1047E000FEF7F6F97B68022283F83D207B681A68A1
:1047F0007B6804331946104600F024FE7B680122D2
:1048000083F846207B68012283F83E207B680122E2
:1048100083F83F207B68012283F840207B680122D7
:1048200083F841207B68012283F842207B680122C3
:1048300083F843207B68012283F844207B680122AF
:1048400083F845207B68012283F83D200023184629
:104850000837BD4680BD000080B584B000AF7860E9
:1048600039600023FB733B68002B04D17B6893F80D
:104870003E30DBB213E03B68042B04D17B6893F835
:104880003F30DBB20BE03B68082B04D17B6893F828
:104890004030DBB203E07B6893F84130DBB2BB739E
:1048A0003B68002B04D17B6893F84230DBB213E005
:1048B0003B68042B04D17B6893F84330DBB20BE0F8
:1048C0003B68082B04D17B6893F84430DBB203E0EB
:1048D0007B6893F84530DBB27B73BB7B012B02D145
:1048E0007B7B012B01D00123CCE03B68002B04D162
:1048F0007B68022283F83E2013E03B68042B04D13E
:104900007B68022283F83F200BE03B68082B04D130
:104910007B68022283F8402003E07B68022283F850
:1049200041203B68002B04D17B68022283F842209F
:1049300013E03B68042B04D17B68022283F84320F8
:104940000BE03B68082B04D17B68022283F84420EB
:1049500003E07B68022283F845203B680C2B41D89A
:1049600001A252F823F000BF9D490008E549000864
:10497000E5490008E5490008AF490008E549000895
:10498000E5490008E5490008C1490008E549000873
:10499000E5490008E5490008D34900087B681B6821
:1049A000DA687B681B6842F00202DA601DE07B680F
:1049B0001B68DA687B681B6842F00402DA6014E066
:1049C0007B681B68DA687B681B6842F00802DA6063
:1049D0000BE07B681B68DA687B681B6842F010029A
:1049E000DA6002E00123FB7300BFFB7B002B48D1A0
:1049F0007B681B6801223968184601F037F97B682B
:104A00001B68224A934222D07B681B68B3F1804F17
:104A10001DD07B681B681E4A934218D07B681B68B8
:104A20001C4A934213D07B681B681B4A93420ED0EA
:104A30007B681B68194A934209D07B681B68184A37
:104A4000934204D07B681B68164A934211D17B685D
:104A50001B689B6803F00703BB60BB68062B10D084
:104A60007B681B681A687B681B6842F001021A6049
:104A700007E07B681B681A687B681B6842F00102CC
:104A80001A60FB7B18461037BD4680BD0000014010
:104A90000004004000080040000C004000040140F9
:104AA000004001400018004080B586B000AF78603B
:104AB00039607B68002B01D1012397E07B6893F874
:104AC0003D30DBB2002B06D17B68002283F83C200E
:104AD0007868FDF7E3FF7B68022283F83D207B685E
:104AE0001B689B687A68126823F4804323F00703ED
:104AF00093607B681A687B6804331946104600F09F
:104B0000A1FC7B681B689B687B617B681B689B6959
:104B10003B617B681B681B6AFB603B681B687A69AA
:104B200013437B613B6923F4407323F003033B6130
:104B30003B689A683B689B691B0213433A691343BD
:104B40003B613B6923F4406323F00C033B613B6909
:104B500023F4704323F0F0033B613B68DA683B6861
:104B6000DB691B0213433A6913433B613B681B69D2
:104B70001A013B681B6A1B0313433A6913433B61E9
:104B8000FB6823F02203FB60FB6823F08803FB60D3
:104B90003B685A683B685B691B011343FA6813431F
:104BA000FB607B681B687A699A607B681B683A695E
:104BB0009A617B681B68FA681A627B68012283F835
:104BC00046207B68012283F83E207B68012283F81F
:104BD0003F207B68012283F842207B68012283F812
:104BE00043207B68012283F83D20002318461837B4
:104BF000BD4680BD80B584B000AF786039607B6809
:104C000093F83E30FB737B6893F83F30BB737B684F
:104C100093F842307B737B6893F843303B733B6877
:104C2000002B10D1FB7B012B02D17B7B012B01D010
:104C3000012369E07B68022283F83E207B68022220
:104C400083F8422031E03B68042B10D1BB7B012B61
:104C500002D13B7B012B01D0012355E07B6802226E
:104C600083F83F207B68022283F843201DE0FB7B12
:104C7000012B08D1BB7B012B05D17B7B012B02D102
:104C80003B7B012B01D001233EE07B68022283F8AD
:104C90003E207B68022283F83F207B68022283F853
:104CA00042207B68022283F843203B68002B03D01C
:104CB0003B68042B08D00FE07B681B6801220021B1
:104CC000184600F0D3FF16E07B681B680122042120
:104CD000184600F0CBFF0EE07B681B680122002124
:104CE000184600F0C3FF7B681B68012204211846A8
:104CF00000F0BCFF00BF7B681B681A687B681B68FC
:104D000042F001021A60002318461037BD4680BDEC
:104D100080B582B000AF78607B681B681B6903F0C8
:104D20000203022B22D17B681B68DB6803F00203BD
:104D3000022B1BD17B681B686FF002021A617B6833
:104D400001221A777B681B689B6903F00303002B21
:104D500003D07868FCF738F905E0786800F054FB78
:104D6000786800F05BFB7B6800221A777B681B6821
:104D70001B6903F00403042B22D17B681B68DB68EA
:104D800003F00403042B1BD17B681B686FF0040243
:104D90001A617B6802221A777B681B689B6903F49F
:104DA0004073002B03D07868FCF70EF905E07868B3
:104DB00000F02AFB786800F031FB7B6800221A774C
:104DC0007B681B681B6903F00803082B22D17B68F2
:104DD0001B68DB6803F00803082B1BD17B681B688A
:104DE0006FF008021A617B6804221A777B681B68DF
:104DF000DB6903F00303002B03D07868FCF7E4F8C9
:104E000005E0786800F000FB786800F007FB7B683D
:104E100000221A777B681B681B6903F01003102BB4
:104E200022D17B681B68DB6803F01003102B1BD1B9
:104E30007B681B686FF010021A617B6808221A7782
:104E40007B681B68DB6903F44073002B03D0786830
:104E5000FCF7BAF805E0786800F0D6FA786800F058
:104E6000DDFA7B6800221A777B681B681B6903F0F8
:104E70000103012B0ED17B681B68DB6803F0010383
:104E8000012B07D17B681B686FF001021A617868FB
:104E900000F0B0FA7B681B681B6903F08003802B6D
:104EA0000ED17B681B68DB6803F08003802B07D181
:104EB0007B681B686FF080021A61786800F0D4FF8D
:104EC0007B681B681B6903F04003402B0ED17B6895
:104ED0001B68DB6803F04003402B07D17B681B682D
:104EE0006FF040021A61786800F0A2FA7B681B68D4
:104EF0001B6903F02003202B0ED17B681B68DB6845
:104F000003F02003202B07D17B681B686FF0200281
:104F10001A61786800F09EFF00BF0837BD4680BD6B
:104F200080B586B000AFF860B9607A600023FB7589
:104F3000FB6893F83C30012B01D1022388E0FB6829
:104F4000012283F83C207B68002B1BD1FB6818688A
:104F5000BB681968BB685A68BB68DB6800F0C2FCB4
:104F6000FB681B689A69FB681B6822F00C029A6157
:104F7000FB681B689969BB689A68FB681B680A43F1
:104F80009A6160E07B68042B1CD1FB681868BB68E1
:104F90001968BB685A68BB68DB6800F046FDFB68AF
:104FA0001B689A69FB681B6822F440629A61FB687F
:104FB0001B689969BB689B681A02FB681B680A43F7
:104FC0009A6140E07B68082B1BD1FB681868BB68BE
:104FD0001968BB685A68BB68DB6800F093FDFB6822
:104FE0001B68DA69FB681B6822F00C02DA61FB6857
:104FF0001B68D969BB689A68FB681B680A43DA6159
:1050000021E07B680C2B1CD1FB681868BB68196811
:10501000BB685A68BB68DB6800F0B0FDFB681B68C2
:10502000DA69FB681B6822F44062DA61FB681B687E
:10503000D969BB689B681A02FB681B680A43DA617E
:1050400001E00123FB75FB68002283F83C20FB7D17
:1050500018461837BD4680BD80B586B000AFF860F1
:10506000B9607A600023FB75FB6893F83C30012B34
:1050700001D10223AEE0FB68012283F83C207B686B
:105080000C2B00F29F8001A252F823F0C1500008BF
:10509000C5510008C5510008C5510008015100085C
:1050A000C5510008C5510008C5510008435100080A
:1050B000C5510008C5510008C551000883510008BA
:1050C000FB681B68B968184600F05CFAFB681B684F
:1050D0009A69FB681B6842F008029A61FB681B68CA
:1050E0009A69FB681B6822F004029A61FB681B68DE
:1050F0009969BB681A69FB681B680A439A6164E096
:10510000FB681B68B968184600F0ACFAFB681B68BE
:105110009A69FB681B6842F400629A61FB681B682D
:105120009A69FB681B6822F480629A61FB681B68BD
:105130009969BB681B691A02FB681B680A439A617C
:1051400043E0FB681B68B968184600F001FBFB6888
:105150001B68DA69FB681B6842F00802DA61FB68C9
:105160001B68DA69FB681B6822F00402DA61FB68DD
:105170001B68D969BB681A69FB681B680A43DA6156
:1051800023E0FB681B68B968184600F055FBFB6814
:105190001B68DA69FB681B6842F40062DA61FB682D
:1051A0001B68DA69FB681B6822F48062DA61FB68BD
:1051B0001B68D969BB681B691A02FB681B680A4334
:1051C000DA6102E00123FB7500BFFB68002283F86F
:1051D0003C20FB7D18461837BD4680BD80B584B0A5
:1051E00000AF786039600023FB737B6893F83C3034
:1051F000012B01D10223B4E07B68012283F83C201B
:105200007B68022283F83D207B681B689B68BB603B
:10521000BB6823F07703BB60BB6823F47F43BB60AC
:105220007B681B68BA689A603B681B68B3F5005FCF
:105230003ED0B3F5005F00F28780B3F5805F00F0E9
:105240008680B3F5805F7FD8702B1AD0702B7BD807
:10525000602B50D0602B77D8502B3CD0502B73D87C
:10526000402B58D0402B6FD8302B64D0302B6BD8CC
:10527000202B60D0202B67D8002B5CD0102B5AD06D
:1052800062E07B6818683B6899683B685A683B68CD
:10529000DB6800F0CBFC7B681B689B68BB60BB686D
:1052A00043F07703BB607B681B68BA689A604FE085
:1052B0007B6818683B6899683B685A683B68DB689C
:1052C00000F0B4FC7B681B689A687B681B6842F43A
:1052D00080429A603CE07B6818683B6859683B688C
:1052E000DB681A4600F072FB7B681B685021184689
:1052F00000F081FC2CE07B6818683B6859683B68CB
:10530000DB681A4600F0CEFB7B681B6860211846FC
:1053100000F071FC1CE07B6818683B6859683B68CA
:10532000DB681A4600F052FB7B681B684021184678
:1053300000F061FC0CE07B681A683B681B6819464A
:10534000104600F058FC03E00123FB7300E000BFAF
:105350007B68012283F83D207B68002283F83C2093
:10536000FB7B18461037BD4680BD000080B485B079
:1053700000AF786039600023FB603B680C2B31D8AC
:1053800001A252F823F000BFBD530008E553000806
:10539000E5530008E5530008C7530008E55300082B
:1053A000E5530008E5530008D1530008E553000811
:1053B000E5530008E5530008DB5300087B681B68D1
:1053C0005B6BFB600FE07B681B689B6BFB600AE01C
:1053D0007B681B68DB6BFB6005E07B681B681B6CF4
:1053E000FB6000E000BFFB6818461437BD465DF85F
:1053F000047B704780B483B000AF786000BF0C3787
:10540000BD465DF8047B704780B483B000AF786020
:1054100000BF0C37BD465DF8047B704780B483B095
:1054200000AF786000BF0C37BD465DF8047B704765
:1054300080B483B000AF786000BF0C37BD465DF824
:10544000047B704780B485B000AF786039607B68BA
:105450001B68FB607B68404A934213D07B68B3F1C2
:10546000804F0FD07B683D4A93420BD07B683C4A0B
:10547000934207D07B683B4A934203D07B683A4A09
:10548000934208D1FB6823F07003FB603B685B68C4
:10549000FA681343FB607B682F4A93422BD07B68EA
:1054A000B3F1804F27D07B682C4A934223D07B688E
:1054B0002B4A93421FD07B682A4A93421BD07B68B9
:1054C000294A934217D07B68284A934213D07B68BD
:1054D000274A93420FD07B68264A93420BD07B68C1
:1054E000254A934207D07B68244A934203D07B68C5
:1054F000234A934208D1FB6823F44073FB603B6866
:10550000DB68FA681343FB60FB6823F080023B68AA
:105510005B691343FB607B68FA681A603B689A68B2
:105520007B68DA623B681A687B689A627B680A4A21
:10553000934203D07B680C4A934203D13B681A69BB
:105540007B681A637B6801225A6100BF1437BD462D
:105550005DF8047B704700BF00000140000400407C
:1055600000080040000C00400004014000400140E1
:10557000004401400048014000180040001C004069
:105580000020004080B487B000AF786039607B684D
:105590001B6A23F001027B681A627B681B6A7B61CD
:1055A0007B685B683B617B689B69FB60FB6823F001
:1055B0007003FB60FB6823F00303FB603B681B6820
:1055C000FA681343FB607B6923F002037B613B684D
:1055D0009B687A6913437B617B68204A934203D0BE
:1055E0007B681F4A93420CD17B6923F008037B61DF
:1055F0003B68DB687A6913437B617B6923F00403B2
:105600007B617B68154A934203D07B68144A9342BE
:1056100011D13B6923F480733B613B6923F4007330
:105620003B613B685B693A6913433B613B689B693B
:105630003A6913433B617B683A695A607B68FA6850
:105640009A613B685A687B685A637B687A691A6218
:1056500000BF1C37BD465DF8047B70470000014069
:105660000004014080B487B000AF786039607B6887
:105670001B6A23F010027B681A627B681B6A7B61DD
:105680007B685B683B617B689B69FB60FB6823F41C
:10569000E043FB60FB6823F44073FB603B681B68DE
:1056A0001B02FA681343FB607B6923F020037B61D4
:1056B0003B689B681B017A6913437B617B68224AC4
:1056C000934203D07B68214A93420DD17B6923F03A
:1056D00080037B613B68DB681B017A6913437B6154
:1056E0007B6923F040037B617B68174A934203D0B8
:1056F0007B68164A934213D13B6923F480633B6174
:105700003B6923F400633B613B685B699B003A693A
:1057100013433B613B689B699B003A6913433B61C0
:105720007B683A695A607B68FA689A613B685A6894
:105730007B689A637B687A691A6200BF1C37BD4632
:105740005DF8047B704700BF000001400004014089
:1057500080B487B000AF786039607B681B6A23F43F
:1057600080727B681A627B681B6A7B617B685B68FE
:105770003B617B68DB69FB60FB6823F07003FB60C7
:10578000FB6823F00303FB603B681B68FA68134364
:10579000FB607B6923F400737B613B689B681B02A1
:1057A0007A6913437B617B68214A934203D07B680B
:1057B000204A93420DD17B6923F400637B613B68EF
:1057C000DB681B027A6913437B617B6923F4806386
:1057D0007B617B68164A934203D07B68154A9342EB
:1057E00013D13B6923F480533B613B6923F400539D
:1057F0003B613B685B691B013A6913433B613B6852
:105800009B691B013A6913433B617B683A695A60A3
:105810007B68FA68DA613B685A687B68DA637B68A0
:105820007A691A6200BF1C37BD465DF8047B704779
:10583000000001400004014080B487B000AF7860F0
:1058400039607B681B6A23F480527B681A627B682C
:105850001B6A3B617B685B687B617B68DB69FB6023
:10586000FB6823F4E043FB60FB6823F44073FB60B8
:105870003B681B681B02FA681343FB603B6923F417
:1058800000533B613B689B681B033A6913433B61D0
:105890007B68124A934203D07B68114A934209D134
:1058A0007B6923F480437B613B685B699B017A6978
:1058B00013437B617B687A695A607B68FA68DA61B6
:1058C0003B685A687B681A647B683A691A6200BF51
:1058D0001C37BD465DF8047B704700BF00000140E7
:1058E0000004014080B487B000AFF860B9607A600E
:1058F0003B60FB681B6A23F00102FB681A62FB68CD
:105900009B697B61FB681B6A3B61FB68284A934289
:105910001BD0FB68B3F1804F17D0FB68254A934238
:1059200013D0FB68244A93420FD0FB68234A93426A
:105930000BD0FB68224A934207D0FB68214A93426E
:1059400003D0FB68204A934201D1012300E00023E9
:10595000002B08D07B6923F003037B617A697B68A5
:1059600013437B6103E07B6943F001037B617B6947
:1059700023F0F0037B613B681B01DBB27A691343C0
:105980007B613B6923F00A033B61BB6803F00A03B8
:105990003A6913433B61FB687A699A61FB683A692B
:1059A0001A6200BF1C37BD465DF8047B704700BF1C
:1059B000000001400004004000080040000C0040CE
:1059C00000040140004001400018004080B487B04E
:1059D00000AFF860B9607A60FB681B6A7B61FB68A6
:1059E0001B6A23F00102FB681A62FB689B693B613A
:1059F0003B6923F0F0033B617B681B013A69134369
:105A00003B617B6923F00A037B617A69BB681343BE
:105A10007B61FB683A699A61FB687A691A6200BF28
:105A20001C37BD465DF8047B704780B487B000AF7B
:105A3000F860B9607A603B60FB681B6A23F0100273
:105A4000FB681A62FB689B697B61FB681B6A3B61B0
:105A50007B6923F440737B617B681B027A69134383
:105A60007B617B6923F470437B613B681B039BB2C2
:105A70007A6913437B613B6923F0A0033B61BB68F8
:105A80001B0103F0A0033A6913433B61FB687A6989
:105A90009A61FB683A691A6200BF1C37BD465DF81F
:105AA000047B704780B487B000AFF860B9607A605B
:105AB000FB681B6A23F01002FB681A62FB689B6993
:105AC0007B61FB681B6A3B617B6923F470437B61EC
:105AD0007B681B037A6913437B613B6923F0A00356
